{
	"aula.sol": {
		"DecentralizedFinance": {
			"abi": [
				{
					"inputs": [
						{
							"internalType": "uint256",
							"name": "_dexSwapRate",
							"type": "uint256"
						},
						{
							"internalType": "uint256",
							"name": "_paymentCycle",
							"type": "uint256"
						},
						{
							"internalType": "uint256",
							"name": "_interestRate",
							"type": "uint256"
						},
						{
							"internalType": "uint256",
							"name": "_terminationFee",
							"type": "uint256"
						},
						{
							"internalType": "uint256",
							"name": "_maxLoanDuration",
							"type": "uint256"
						}
					],
					"stateMutability": "payable",
					"type": "constructor"
				},
				{
					"inputs": [
						{
							"internalType": "address",
							"name": "spender",
							"type": "address"
						},
						{
							"internalType": "uint256",
							"name": "allowance",
							"type": "uint256"
						},
						{
							"internalType": "uint256",
							"name": "needed",
							"type": "uint256"
						}
					],
					"name": "ERC20InsufficientAllowance",
					"type": "error"
				},
				{
					"inputs": [
						{
							"internalType": "address",
							"name": "sender",
							"type": "address"
						},
						{
							"internalType": "uint256",
							"name": "balance",
							"type": "uint256"
						},
						{
							"internalType": "uint256",
							"name": "needed",
							"type": "uint256"
						}
					],
					"name": "ERC20InsufficientBalance",
					"type": "error"
				},
				{
					"inputs": [
						{
							"internalType": "address",
							"name": "approver",
							"type": "address"
						}
					],
					"name": "ERC20InvalidApprover",
					"type": "error"
				},
				{
					"inputs": [
						{
							"internalType": "address",
							"name": "receiver",
							"type": "address"
						}
					],
					"name": "ERC20InvalidReceiver",
					"type": "error"
				},
				{
					"inputs": [
						{
							"internalType": "address",
							"name": "sender",
							"type": "address"
						}
					],
					"name": "ERC20InvalidSender",
					"type": "error"
				},
				{
					"inputs": [
						{
							"internalType": "address",
							"name": "spender",
							"type": "address"
						}
					],
					"name": "ERC20InvalidSpender",
					"type": "error"
				},
				{
					"anonymous": false,
					"inputs": [
						{
							"indexed": true,
							"internalType": "address",
							"name": "owner",
							"type": "address"
						},
						{
							"indexed": true,
							"internalType": "address",
							"name": "spender",
							"type": "address"
						},
						{
							"indexed": false,
							"internalType": "uint256",
							"name": "value",
							"type": "uint256"
						}
					],
					"name": "Approval",
					"type": "event"
				},
				{
					"anonymous": false,
					"inputs": [
						{
							"indexed": true,
							"internalType": "address",
							"name": "from",
							"type": "address"
						},
						{
							"indexed": true,
							"internalType": "address",
							"name": "to",
							"type": "address"
						},
						{
							"indexed": false,
							"internalType": "uint256",
							"name": "value",
							"type": "uint256"
						}
					],
					"name": "Transfer",
					"type": "event"
				},
				{
					"anonymous": false,
					"inputs": [
						{
							"indexed": false,
							"internalType": "address",
							"name": "borrower",
							"type": "address"
						},
						{
							"indexed": false,
							"internalType": "uint256",
							"name": "amount",
							"type": "uint256"
						},
						{
							"indexed": false,
							"internalType": "uint256",
							"name": "deadline",
							"type": "uint256"
						}
					],
					"name": "loanCreated",
					"type": "event"
				},
				{
					"anonymous": false,
					"inputs": [
						{
							"indexed": false,
							"internalType": "address",
							"name": "borrower",
							"type": "address"
						},
						{
							"indexed": false,
							"internalType": "uint256",
							"name": "amount",
							"type": "uint256"
						}
					],
					"name": "loanFinished",
					"type": "event"
				},
				{
					"inputs": [
						{
							"internalType": "address",
							"name": "owner",
							"type": "address"
						},
						{
							"internalType": "address",
							"name": "spender",
							"type": "address"
						}
					],
					"name": "allowance",
					"outputs": [
						{
							"internalType": "uint256",
							"name": "",
							"type": "uint256"
						}
					],
					"stateMutability": "view",
					"type": "function"
				},
				{
					"inputs": [
						{
							"internalType": "address",
							"name": "spender",
							"type": "address"
						},
						{
							"internalType": "uint256",
							"name": "value",
							"type": "uint256"
						}
					],
					"name": "approve",
					"outputs": [
						{
							"internalType": "bool",
							"name": "",
							"type": "bool"
						}
					],
					"stateMutability": "nonpayable",
					"type": "function"
				},
				{
					"inputs": [
						{
							"internalType": "address",
							"name": "account",
							"type": "address"
						}
					],
					"name": "balanceOf",
					"outputs": [
						{
							"internalType": "uint256",
							"name": "",
							"type": "uint256"
						}
					],
					"stateMutability": "view",
					"type": "function"
				},
				{
					"inputs": [],
					"name": "buyDex",
					"outputs": [],
					"stateMutability": "payable",
					"type": "function"
				},
				{
					"inputs": [
						{
							"internalType": "uint256",
							"name": "loanId",
							"type": "uint256"
						}
					],
					"name": "checkLoan",
					"outputs": [],
					"stateMutability": "nonpayable",
					"type": "function"
				},
				{
					"inputs": [],
					"name": "decimals",
					"outputs": [
						{
							"internalType": "uint8",
							"name": "",
							"type": "uint8"
						}
					],
					"stateMutability": "view",
					"type": "function"
				},
				{
					"inputs": [],
					"name": "dexSwapRate",
					"outputs": [
						{
							"internalType": "uint256",
							"name": "",
							"type": "uint256"
						}
					],
					"stateMutability": "view",
					"type": "function"
				},
				{
					"inputs": [],
					"name": "getBalance",
					"outputs": [
						{
							"internalType": "uint256",
							"name": "",
							"type": "uint256"
						}
					],
					"stateMutability": "view",
					"type": "function"
				},
				{
					"inputs": [],
					"name": "getDexBalance",
					"outputs": [
						{
							"internalType": "uint256",
							"name": "",
							"type": "uint256"
						}
					],
					"stateMutability": "view",
					"type": "function"
				},
				{
					"inputs": [],
					"name": "interestRate",
					"outputs": [
						{
							"internalType": "uint256",
							"name": "",
							"type": "uint256"
						}
					],
					"stateMutability": "view",
					"type": "function"
				},
				{
					"inputs": [
						{
							"internalType": "uint256",
							"name": "dexAmount",
							"type": "uint256"
						},
						{
							"internalType": "uint256",
							"name": "deadline",
							"type": "uint256"
						}
					],
					"name": "loan",
					"outputs": [
						{
							"internalType": "uint256",
							"name": "",
							"type": "uint256"
						}
					],
					"stateMutability": "nonpayable",
					"type": "function"
				},
				{
					"inputs": [],
					"name": "loanCounter",
					"outputs": [
						{
							"internalType": "uint256",
							"name": "",
							"type": "uint256"
						}
					],
					"stateMutability": "view",
					"type": "function"
				},
				{
					"inputs": [
						{
							"internalType": "uint256",
							"name": "",
							"type": "uint256"
						}
					],
					"name": "loans",
					"outputs": [
						{
							"internalType": "address",
							"name": "borrower",
							"type": "address"
						},
						{
							"internalType": "uint256",
							"name": "collateral",
							"type": "uint256"
						},
						{
							"internalType": "uint256",
							"name": "amount",
							"type": "uint256"
						},
						{
							"internalType": "uint256",
							"name": "deadline",
							"type": "uint256"
						},
						{
							"internalType": "uint256",
							"name": "nextPaymentDue",
							"type": "uint256"
						},
						{
							"internalType": "uint256",
							"name": "periodsPaid",
							"type": "uint256"
						},
						{
							"internalType": "bool",
							"name": "active",
							"type": "bool"
						}
					],
					"stateMutability": "view",
					"type": "function"
				},
				{
					"inputs": [
						{
							"internalType": "uint256",
							"name": "loanId",
							"type": "uint256"
						}
					],
					"name": "makePayment",
					"outputs": [],
					"stateMutability": "payable",
					"type": "function"
				},
				{
					"inputs": [],
					"name": "maxLoanDuration",
					"outputs": [
						{
							"internalType": "uint256",
							"name": "",
							"type": "uint256"
						}
					],
					"stateMutability": "view",
					"type": "function"
				},
				{
					"inputs": [],
					"name": "name",
					"outputs": [
						{
							"internalType": "string",
							"name": "",
							"type": "string"
						}
					],
					"stateMutability": "view",
					"type": "function"
				},
				{
					"inputs": [],
					"name": "owner",
					"outputs": [
						{
							"internalType": "address",
							"name": "",
							"type": "address"
						}
					],
					"stateMutability": "view",
					"type": "function"
				},
				{
					"inputs": [],
					"name": "paymentCycle",
					"outputs": [
						{
							"internalType": "uint256",
							"name": "",
							"type": "uint256"
						}
					],
					"stateMutability": "view",
					"type": "function"
				},
				{
					"inputs": [
						{
							"internalType": "uint256",
							"name": "dexAmount",
							"type": "uint256"
						}
					],
					"name": "sellDex",
					"outputs": [],
					"stateMutability": "nonpayable",
					"type": "function"
				},
				{
					"inputs": [],
					"name": "symbol",
					"outputs": [
						{
							"internalType": "string",
							"name": "",
							"type": "string"
						}
					],
					"stateMutability": "view",
					"type": "function"
				},
				{
					"inputs": [
						{
							"internalType": "uint256",
							"name": "loanId",
							"type": "uint256"
						}
					],
					"name": "terminateLoan",
					"outputs": [],
					"stateMutability": "payable",
					"type": "function"
				},
				{
					"inputs": [],
					"name": "terminationFee",
					"outputs": [
						{
							"internalType": "uint256",
							"name": "",
							"type": "uint256"
						}
					],
					"stateMutability": "view",
					"type": "function"
				},
				{
					"inputs": [],
					"name": "totalSupply",
					"outputs": [
						{
							"internalType": "uint256",
							"name": "",
							"type": "uint256"
						}
					],
					"stateMutability": "view",
					"type": "function"
				},
				{
					"inputs": [
						{
							"internalType": "address",
							"name": "to",
							"type": "address"
						},
						{
							"internalType": "uint256",
							"name": "value",
							"type": "uint256"
						}
					],
					"name": "transfer",
					"outputs": [
						{
							"internalType": "bool",
							"name": "",
							"type": "bool"
						}
					],
					"stateMutability": "nonpayable",
					"type": "function"
				},
				{
					"inputs": [
						{
							"internalType": "address",
							"name": "from",
							"type": "address"
						},
						{
							"internalType": "address",
							"name": "to",
							"type": "address"
						},
						{
							"internalType": "uint256",
							"name": "value",
							"type": "uint256"
						}
					],
					"name": "transferFrom",
					"outputs": [
						{
							"internalType": "bool",
							"name": "",
							"type": "bool"
						}
					],
					"stateMutability": "nonpayable",
					"type": "function"
				},
				{
					"stateMutability": "payable",
					"type": "receive"
				}
			],
			"devdoc": {
				"errors": {
					"ERC20InsufficientAllowance(address,uint256,uint256)": [
						{
							"details": "Indicates a failure with the `spender`’s `allowance`. Used in transfers.",
							"params": {
								"allowance": "Amount of tokens a `spender` is allowed to operate with.",
								"needed": "Minimum amount required to perform a transfer.",
								"spender": "Address that may be allowed to operate on tokens without being their owner."
							}
						}
					],
					"ERC20InsufficientBalance(address,uint256,uint256)": [
						{
							"details": "Indicates an error related to the current `balance` of a `sender`. Used in transfers.",
							"params": {
								"balance": "Current balance for the interacting account.",
								"needed": "Minimum amount required to perform a transfer.",
								"sender": "Address whose tokens are being transferred."
							}
						}
					],
					"ERC20InvalidApprover(address)": [
						{
							"details": "Indicates a failure with the `approver` of a token to be approved. Used in approvals.",
							"params": {
								"approver": "Address initiating an approval operation."
							}
						}
					],
					"ERC20InvalidReceiver(address)": [
						{
							"details": "Indicates a failure with the token `receiver`. Used in transfers.",
							"params": {
								"receiver": "Address to which tokens are being transferred."
							}
						}
					],
					"ERC20InvalidSender(address)": [
						{
							"details": "Indicates a failure with the token `sender`. Used in transfers.",
							"params": {
								"sender": "Address whose tokens are being transferred."
							}
						}
					],
					"ERC20InvalidSpender(address)": [
						{
							"details": "Indicates a failure with the `spender` to be approved. Used in approvals.",
							"params": {
								"spender": "Address that may be allowed to operate on tokens without being their owner."
							}
						}
					]
				},
				"events": {
					"Approval(address,address,uint256)": {
						"details": "Emitted when the allowance of a `spender` for an `owner` is set by a call to {approve}. `value` is the new allowance."
					},
					"Transfer(address,address,uint256)": {
						"details": "Emitted when `value` tokens are moved from one account (`from`) to another (`to`). Note that `value` may be zero."
					}
				},
				"kind": "dev",
				"methods": {
					"allowance(address,address)": {
						"details": "Returns the remaining number of tokens that `spender` will be allowed to spend on behalf of `owner` through {transferFrom}. This is zero by default. This value changes when {approve} or {transferFrom} are called."
					},
					"approve(address,uint256)": {
						"details": "See {IERC20-approve}. NOTE: If `value` is the maximum `uint256`, the allowance is not updated on `transferFrom`. This is semantically equivalent to an infinite approval. Requirements: - `spender` cannot be the zero address."
					},
					"balanceOf(address)": {
						"details": "Returns the value of tokens owned by `account`."
					},
					"decimals()": {
						"details": "Returns the number of decimals used to get its user representation. For example, if `decimals` equals `2`, a balance of `505` tokens should be displayed to a user as `5.05` (`505 / 10 ** 2`). Tokens usually opt for a value of 18, imitating the relationship between Ether and Wei. This is the default value returned by this function, unless it's overridden. NOTE: This information is only used for _display_ purposes: it in no way affects any of the arithmetic of the contract, including {IERC20-balanceOf} and {IERC20-transfer}."
					},
					"name()": {
						"details": "Returns the name of the token."
					},
					"symbol()": {
						"details": "Returns the symbol of the token, usually a shorter version of the name."
					},
					"totalSupply()": {
						"details": "Returns the value of tokens in existence."
					},
					"transfer(address,uint256)": {
						"details": "See {IERC20-transfer}. Requirements: - `to` cannot be the zero address. - the caller must have a balance of at least `value`."
					},
					"transferFrom(address,address,uint256)": {
						"details": "See {IERC20-transferFrom}. Skips emitting an {Approval} event indicating an allowance update. This is not required by the ERC. See {xref-ERC20-_approve-address-address-uint256-bool-}[_approve]. NOTE: Does not update the allowance if the current allowance is the maximum `uint256`. Requirements: - `from` and `to` cannot be the zero address. - `from` must have a balance of at least `value`. - the caller must have allowance for ``from``'s tokens of at least `value`."
					}
				},
				"version": 1
			},
			"evm": {
				"assembly": "    /* \"aula.sol\":264:11591  contract DecentralizedFinance is ERC20 {... */\n  mstore(0x40, 0x80)\n    /* \"aula.sol\":2015:2755  constructor(... */\n  mload(0x40)\n  sub(codesize, bytecodeSize)\n  dup1\n  bytecodeSize\n  dup4\n  codecopy\n  dup2\n  dup2\n  add\n  0x40\n  mstore\n  dup2\n  add\n  swap1\n  tag_1\n  swap2\n  swap1\n  tag_2\n  jump\t// in\ntag_1:\n    /* \"@openzeppelin/contracts/token/ERC20/ERC20.sol\":1582:1695  constructor(string memory name_, string memory symbol_) {... */\n  mload(0x40)\n  dup1\n  0x40\n  add\n  0x40\n  mstore\n  dup1\n  0x03\n  dup2\n  mstore\n  0x20\n  add\n  0x4445580000000000000000000000000000000000000000000000000000000000\n  dup2\n  mstore\n  pop\n  mload(0x40)\n  dup1\n  0x40\n  add\n  0x40\n  mstore\n  dup1\n  0x03\n  dup2\n  mstore\n  0x20\n  add\n  0x4445580000000000000000000000000000000000000000000000000000000000\n  dup2\n  mstore\n  pop\n    /* \"@openzeppelin/contracts/token/ERC20/ERC20.sol\":1656:1661  name_ */\n  dup2\n    /* \"@openzeppelin/contracts/token/ERC20/ERC20.sol\":1648:1653  _name */\n  0x03\n    /* \"@openzeppelin/contracts/token/ERC20/ERC20.sol\":1648:1661  _name = name_ */\n  swap1\n  dup2\n  tag_6\n  swap2\n  swap1\n  tag_7\n  jump\t// in\ntag_6:\n  pop\n    /* \"@openzeppelin/contracts/token/ERC20/ERC20.sol\":1681:1688  symbol_ */\n  dup1\n    /* \"@openzeppelin/contracts/token/ERC20/ERC20.sol\":1671:1678  _symbol */\n  0x04\n    /* \"@openzeppelin/contracts/token/ERC20/ERC20.sol\":1671:1688  _symbol = symbol_ */\n  swap1\n  dup2\n  tag_8\n  swap2\n  swap1\n  tag_7\n  jump\t// in\ntag_8:\n  pop\n    /* \"@openzeppelin/contracts/token/ERC20/ERC20.sol\":1582:1695  constructor(string memory name_, string memory symbol_) {... */\n  pop\n  pop\n    /* \"aula.sol\":2239:2249  msg.sender */\n  caller\n    /* \"aula.sol\":2231:2236  owner */\n  0x05\n  0x00\n    /* \"aula.sol\":2231:2249  owner = msg.sender */\n  0x0100\n  exp\n  dup2\n  sload\n  dup2\n  0xffffffffffffffffffffffffffffffffffffffff\n  mul\n  not\n  and\n  swap1\n  dup4\n  0xffffffffffffffffffffffffffffffffffffffff\n  and\n  mul\n  or\n  swap1\n  sstore\n  pop\n    /* \"aula.sol\":2334:2346  _dexSwapRate */\n  dup5\n    /* \"aula.sol\":2320:2331  dexSwapRate */\n  0x07\n    /* \"aula.sol\":2320:2346  dexSwapRate = _dexSwapRate */\n  dup2\n  swap1\n  sstore\n  pop\n    /* \"aula.sol\":2371:2384  _paymentCycle */\n  dup4\n    /* \"aula.sol\":2356:2368  paymentCycle */\n  0x08\n    /* \"aula.sol\":2356:2384  paymentCycle = _paymentCycle */\n  dup2\n  swap1\n  sstore\n  pop\n    /* \"aula.sol\":2409:2422  _interestRate */\n  dup3\n    /* \"aula.sol\":2394:2406  interestRate */\n  0x09\n    /* \"aula.sol\":2394:2422  interestRate = _interestRate */\n  dup2\n  swap1\n  sstore\n  pop\n    /* \"aula.sol\":2449:2464  _terminationFee */\n  dup2\n    /* \"aula.sol\":2432:2446  terminationFee */\n  0x0a\n    /* \"aula.sol\":2432:2464  terminationFee = _terminationFee */\n  dup2\n  swap1\n  sstore\n  pop\n    /* \"aula.sol\":2492:2508  _maxLoanDuration */\n  dup1\n    /* \"aula.sol\":2474:2489  maxLoanDuration */\n  0x0b\n    /* \"aula.sol\":2474:2508  maxLoanDuration = _maxLoanDuration */\n  dup2\n  swap1\n  sstore\n  pop\n    /* \"aula.sol\":2664:2707  _mint(address(this), 1000 * 10**decimals()) */\n  tag_10\n    /* \"aula.sol\":2678:2682  this */\n  address\n    /* \"aula.sol\":2696:2706  decimals() */\n  tag_11\n    /* \"aula.sol\":2696:2704  decimals */\n  shl(0x20, tag_12)\n    /* \"aula.sol\":2696:2706  decimals() */\n  0x20\n  shr\n  jump\t// in\ntag_11:\n    /* \"aula.sol\":2692:2694  10 */\n  0x0a\n    /* \"aula.sol\":2692:2706  10**decimals() */\n  tag_13\n  swap2\n  swap1\n  tag_14\n  jump\t// in\ntag_13:\n    /* \"aula.sol\":2685:2689  1000 */\n  0x03e8\n    /* \"aula.sol\":2685:2706  1000 * 10**decimals() */\n  tag_15\n  swap2\n  swap1\n  tag_16\n  jump\t// in\ntag_15:\n    /* \"aula.sol\":2664:2669  _mint */\n  shl(0x20, tag_17)\n    /* \"aula.sol\":2664:2707  _mint(address(this), 1000 * 10**decimals()) */\n  0x20\n  shr\n  jump\t// in\ntag_10:\n    /* \"aula.sol\":2015:2755  constructor(... */\n  pop\n  pop\n  pop\n  pop\n  pop\n    /* \"aula.sol\":264:11591  contract DecentralizedFinance is ERC20 {... */\n  jump(tag_18)\n    /* \"@openzeppelin/contracts/token/ERC20/ERC20.sol\":2688:2770  function decimals() public view virtual returns (uint8) {... */\ntag_12:\n    /* \"@openzeppelin/contracts/token/ERC20/ERC20.sol\":2737:2742  uint8 */\n  0x00\n    /* \"@openzeppelin/contracts/token/ERC20/ERC20.sol\":2761:2763  18 */\n  0x12\n    /* \"@openzeppelin/contracts/token/ERC20/ERC20.sol\":2754:2763  return 18 */\n  swap1\n  pop\n    /* \"@openzeppelin/contracts/token/ERC20/ERC20.sol\":2688:2770  function decimals() public view virtual returns (uint8) {... */\n  swap1\n  jump\t// out\n    /* \"@openzeppelin/contracts/token/ERC20/ERC20.sol\":7362:7570  function _mint(address account, uint256 value) internal {... */\ntag_17:\n    /* \"@openzeppelin/contracts/token/ERC20/ERC20.sol\":7451:7452  0 */\n  0x00\n    /* \"@openzeppelin/contracts/token/ERC20/ERC20.sol\":7432:7453  account == address(0) */\n  0xffffffffffffffffffffffffffffffffffffffff\n  and\n    /* \"@openzeppelin/contracts/token/ERC20/ERC20.sol\":7432:7439  account */\n  dup3\n    /* \"@openzeppelin/contracts/token/ERC20/ERC20.sol\":7432:7453  account == address(0) */\n  0xffffffffffffffffffffffffffffffffffffffff\n  and\n  sub\n    /* \"@openzeppelin/contracts/token/ERC20/ERC20.sol\":7428:7519  if (account == address(0)) {... */\n  tag_21\n  jumpi\n    /* \"@openzeppelin/contracts/token/ERC20/ERC20.sol\":7505:7506  0 */\n  0x00\n    /* \"@openzeppelin/contracts/token/ERC20/ERC20.sol\":7476:7508  ERC20InvalidReceiver(address(0)) */\n  mload(0x40)\n  0xec442f0500000000000000000000000000000000000000000000000000000000\n  dup2\n  mstore\n  0x04\n  add\n  tag_22\n  swap2\n  swap1\n  tag_23\n  jump\t// in\ntag_22:\n  mload(0x40)\n  dup1\n  swap2\n  sub\n  swap1\n  revert\n    /* \"@openzeppelin/contracts/token/ERC20/ERC20.sol\":7428:7519  if (account == address(0)) {... */\ntag_21:\n    /* \"@openzeppelin/contracts/token/ERC20/ERC20.sol\":7528:7563  _update(address(0), account, value) */\n  tag_24\n    /* \"@openzeppelin/contracts/token/ERC20/ERC20.sol\":7544:7545  0 */\n  0x00\n    /* \"@openzeppelin/contracts/token/ERC20/ERC20.sol\":7548:7555  account */\n  dup4\n    /* \"@openzeppelin/contracts/token/ERC20/ERC20.sol\":7557:7562  value */\n  dup4\n    /* \"@openzeppelin/contracts/token/ERC20/ERC20.sol\":7528:7535  _update */\n  shl(0x20, tag_25)\n    /* \"@openzeppelin/contracts/token/ERC20/ERC20.sol\":7528:7563  _update(address(0), account, value) */\n  0x20\n  shr\n  jump\t// in\ntag_24:\n    /* \"@openzeppelin/contracts/token/ERC20/ERC20.sol\":7362:7570  function _mint(address account, uint256 value) internal {... */\n  pop\n  pop\n  jump\t// out\n    /* \"@openzeppelin/contracts/token/ERC20/ERC20.sol\":5912:7019  function _update(address from, address to, uint256 value) internal virtual {... */\ntag_25:\n    /* \"@openzeppelin/contracts/token/ERC20/ERC20.sol\":6017:6018  0 */\n  0x00\n    /* \"@openzeppelin/contracts/token/ERC20/ERC20.sol\":6001:6019  from == address(0) */\n  0xffffffffffffffffffffffffffffffffffffffff\n  and\n    /* \"@openzeppelin/contracts/token/ERC20/ERC20.sol\":6001:6005  from */\n  dup4\n    /* \"@openzeppelin/contracts/token/ERC20/ERC20.sol\":6001:6019  from == address(0) */\n  0xffffffffffffffffffffffffffffffffffffffff\n  and\n  sub\n    /* \"@openzeppelin/contracts/token/ERC20/ERC20.sol\":5997:6537  if (from == address(0)) {... */\n  tag_27\n  jumpi\n    /* \"@openzeppelin/contracts/token/ERC20/ERC20.sol\":6153:6158  value */\n  dup1\n    /* \"@openzeppelin/contracts/token/ERC20/ERC20.sol\":6137:6149  _totalSupply */\n  0x02\n  0x00\n    /* \"@openzeppelin/contracts/token/ERC20/ERC20.sol\":6137:6158  _totalSupply += value */\n  dup3\n  dup3\n  sload\n  tag_28\n  swap2\n  swap1\n  tag_29\n  jump\t// in\ntag_28:\n  swap3\n  pop\n  pop\n  dup2\n  swap1\n  sstore\n  pop\n    /* \"@openzeppelin/contracts/token/ERC20/ERC20.sol\":5997:6537  if (from == address(0)) {... */\n  jump(tag_30)\ntag_27:\n    /* \"@openzeppelin/contracts/token/ERC20/ERC20.sol\":6189:6208  uint256 fromBalance */\n  0x00\n    /* \"@openzeppelin/contracts/token/ERC20/ERC20.sol\":6211:6220  _balances */\n  0x00\n    /* \"@openzeppelin/contracts/token/ERC20/ERC20.sol\":6211:6226  _balances[from] */\n  0x00\n    /* \"@openzeppelin/contracts/token/ERC20/ERC20.sol\":6221:6225  from */\n  dup6\n    /* \"@openzeppelin/contracts/token/ERC20/ERC20.sol\":6211:6226  _balances[from] */\n  0xffffffffffffffffffffffffffffffffffffffff\n  and\n  0xffffffffffffffffffffffffffffffffffffffff\n  and\n  dup2\n  mstore\n  0x20\n  add\n  swap1\n  dup2\n  mstore\n  0x20\n  add\n  0x00\n  keccak256\n  sload\n    /* \"@openzeppelin/contracts/token/ERC20/ERC20.sol\":6189:6226  uint256 fromBalance = _balances[from] */\n  swap1\n  pop\n    /* \"@openzeppelin/contracts/token/ERC20/ERC20.sol\":6258:6263  value */\n  dup2\n    /* \"@openzeppelin/contracts/token/ERC20/ERC20.sol\":6244:6255  fromBalance */\n  dup2\n    /* \"@openzeppelin/contracts/token/ERC20/ERC20.sol\":6244:6263  fromBalance < value */\n  lt\n    /* \"@openzeppelin/contracts/token/ERC20/ERC20.sol\":6240:6355  if (fromBalance < value) {... */\n  iszero\n  tag_31\n  jumpi\n    /* \"@openzeppelin/contracts/token/ERC20/ERC20.sol\":6315:6319  from */\n  dup4\n    /* \"@openzeppelin/contracts/token/ERC20/ERC20.sol\":6321:6332  fromBalance */\n  dup2\n    /* \"@openzeppelin/contracts/token/ERC20/ERC20.sol\":6334:6339  value */\n  dup4\n    /* \"@openzeppelin/contracts/token/ERC20/ERC20.sol\":6290:6340  ERC20InsufficientBalance(from, fromBalance, value) */\n  mload(0x40)\n  0xe450d38c00000000000000000000000000000000000000000000000000000000\n  dup2\n  mstore\n  0x04\n  add\n  tag_32\n  swap4\n  swap3\n  swap2\n  swap1\n  tag_33\n  jump\t// in\ntag_32:\n  mload(0x40)\n  dup1\n  swap2\n  sub\n  swap1\n  revert\n    /* \"@openzeppelin/contracts/token/ERC20/ERC20.sol\":6240:6355  if (fromBalance < value) {... */\ntag_31:\n    /* \"@openzeppelin/contracts/token/ERC20/ERC20.sol\":6507:6512  value */\n  dup2\n    /* \"@openzeppelin/contracts/token/ERC20/ERC20.sol\":6493:6504  fromBalance */\n  dup2\n    /* \"@openzeppelin/contracts/token/ERC20/ERC20.sol\":6493:6512  fromBalance - value */\n  sub\n    /* \"@openzeppelin/contracts/token/ERC20/ERC20.sol\":6475:6484  _balances */\n  0x00\n    /* \"@openzeppelin/contracts/token/ERC20/ERC20.sol\":6475:6490  _balances[from] */\n  0x00\n    /* \"@openzeppelin/contracts/token/ERC20/ERC20.sol\":6485:6489  from */\n  dup7\n    /* \"@openzeppelin/contracts/token/ERC20/ERC20.sol\":6475:6490  _balances[from] */\n  0xffffffffffffffffffffffffffffffffffffffff\n  and\n  0xffffffffffffffffffffffffffffffffffffffff\n  and\n  dup2\n  mstore\n  0x20\n  add\n  swap1\n  dup2\n  mstore\n  0x20\n  add\n  0x00\n  keccak256\n    /* \"@openzeppelin/contracts/token/ERC20/ERC20.sol\":6475:6512  _balances[from] = fromBalance - value */\n  dup2\n  swap1\n  sstore\n  pop\n    /* \"@openzeppelin/contracts/token/ERC20/ERC20.sol\":6175:6537  {... */\n  pop\n    /* \"@openzeppelin/contracts/token/ERC20/ERC20.sol\":5997:6537  if (from == address(0)) {... */\ntag_30:\n    /* \"@openzeppelin/contracts/token/ERC20/ERC20.sol\":6565:6566  0 */\n  0x00\n    /* \"@openzeppelin/contracts/token/ERC20/ERC20.sol\":6551:6567  to == address(0) */\n  0xffffffffffffffffffffffffffffffffffffffff\n  and\n    /* \"@openzeppelin/contracts/token/ERC20/ERC20.sol\":6551:6553  to */\n  dup3\n    /* \"@openzeppelin/contracts/token/ERC20/ERC20.sol\":6551:6567  to == address(0) */\n  0xffffffffffffffffffffffffffffffffffffffff\n  and\n  sub\n    /* \"@openzeppelin/contracts/token/ERC20/ERC20.sol\":6547:6972  if (to == address(0)) {... */\n  tag_34\n  jumpi\n    /* \"@openzeppelin/contracts/token/ERC20/ERC20.sol\":6730:6735  value */\n  dup1\n    /* \"@openzeppelin/contracts/token/ERC20/ERC20.sol\":6714:6726  _totalSupply */\n  0x02\n  0x00\n    /* \"@openzeppelin/contracts/token/ERC20/ERC20.sol\":6714:6735  _totalSupply -= value */\n  dup3\n  dup3\n  sload\n  sub\n  swap3\n  pop\n  pop\n  dup2\n  swap1\n  sstore\n  pop\n    /* \"@openzeppelin/contracts/token/ERC20/ERC20.sol\":6547:6972  if (to == address(0)) {... */\n  jump(tag_35)\ntag_34:\n    /* \"@openzeppelin/contracts/token/ERC20/ERC20.sol\":6942:6947  value */\n  dup1\n    /* \"@openzeppelin/contracts/token/ERC20/ERC20.sol\":6925:6934  _balances */\n  0x00\n    /* \"@openzeppelin/contracts/token/ERC20/ERC20.sol\":6925:6938  _balances[to] */\n  0x00\n    /* \"@openzeppelin/contracts/token/ERC20/ERC20.sol\":6935:6937  to */\n  dup5\n    /* \"@openzeppelin/contracts/token/ERC20/ERC20.sol\":6925:6938  _balances[to] */\n  0xffffffffffffffffffffffffffffffffffffffff\n  and\n  0xffffffffffffffffffffffffffffffffffffffff\n  and\n  dup2\n  mstore\n  0x20\n  add\n  swap1\n  dup2\n  mstore\n  0x20\n  add\n  0x00\n  keccak256\n  0x00\n    /* \"@openzeppelin/contracts/token/ERC20/ERC20.sol\":6925:6947  _balances[to] += value */\n  dup3\n  dup3\n  sload\n  add\n  swap3\n  pop\n  pop\n  dup2\n  swap1\n  sstore\n  pop\n    /* \"@openzeppelin/contracts/token/ERC20/ERC20.sol\":6547:6972  if (to == address(0)) {... */\ntag_35:\n    /* \"@openzeppelin/contracts/token/ERC20/ERC20.sol\":7002:7004  to */\n  dup2\n    /* \"@openzeppelin/contracts/token/ERC20/ERC20.sol\":6987:7012  Transfer(from, to, value) */\n  0xffffffffffffffffffffffffffffffffffffffff\n  and\n    /* \"@openzeppelin/contracts/token/ERC20/ERC20.sol\":6996:7000  from */\n  dup4\n    /* \"@openzeppelin/contracts/token/ERC20/ERC20.sol\":6987:7012  Transfer(from, to, value) */\n  0xffffffffffffffffffffffffffffffffffffffff\n  and\n  0xddf252ad1be2c89b69c2b068fc378daa952ba7f163c4a11628f55a4df523b3ef\n    /* \"@openzeppelin/contracts/token/ERC20/ERC20.sol\":7006:7011  value */\n  dup4\n    /* \"@openzeppelin/contracts/token/ERC20/ERC20.sol\":6987:7012  Transfer(from, to, value) */\n  mload(0x40)\n  tag_36\n  swap2\n  swap1\n  tag_37\n  jump\t// in\ntag_36:\n  mload(0x40)\n  dup1\n  swap2\n  sub\n  swap1\n  log3\n    /* \"@openzeppelin/contracts/token/ERC20/ERC20.sol\":5912:7019  function _update(address from, address to, uint256 value) internal virtual {... */\n  pop\n  pop\n  pop\n  jump\t// out\n    /* \"#utility.yul\":88:205   */\ntag_39:\n    /* \"#utility.yul\":197:198   */\n  0x00\n    /* \"#utility.yul\":194:195   */\n  0x00\n    /* \"#utility.yul\":187:199   */\n  revert\n    /* \"#utility.yul\":334:411   */\ntag_41:\n    /* \"#utility.yul\":371:378   */\n  0x00\n    /* \"#utility.yul\":400:405   */\n  dup2\n    /* \"#utility.yul\":389:405   */\n  swap1\n  pop\n    /* \"#utility.yul\":334:411   */\n  swap2\n  swap1\n  pop\n  jump\t// out\n    /* \"#utility.yul\":417:539   */\ntag_42:\n    /* \"#utility.yul\":490:514   */\n  tag_78\n    /* \"#utility.yul\":508:513   */\n  dup2\n    /* \"#utility.yul\":490:514   */\n  tag_41\n  jump\t// in\ntag_78:\n    /* \"#utility.yul\":483:488   */\n  dup2\n    /* \"#utility.yul\":480:515   */\n  eq\n    /* \"#utility.yul\":470:533   */\n  tag_79\n  jumpi\n    /* \"#utility.yul\":529:530   */\n  0x00\n    /* \"#utility.yul\":526:527   */\n  0x00\n    /* \"#utility.yul\":519:531   */\n  revert\n    /* \"#utility.yul\":470:533   */\ntag_79:\n    /* \"#utility.yul\":417:539   */\n  pop\n  jump\t// out\n    /* \"#utility.yul\":545:688   */\ntag_43:\n    /* \"#utility.yul\":602:607   */\n  0x00\n    /* \"#utility.yul\":633:639   */\n  dup2\n    /* \"#utility.yul\":627:640   */\n  mload\n    /* \"#utility.yul\":618:640   */\n  swap1\n  pop\n    /* \"#utility.yul\":649:682   */\n  tag_81\n    /* \"#utility.yul\":676:681   */\n  dup2\n    /* \"#utility.yul\":649:682   */\n  tag_42\n  jump\t// in\ntag_81:\n    /* \"#utility.yul\":545:688   */\n  swap3\n  swap2\n  pop\n  pop\n  jump\t// out\n    /* \"#utility.yul\":694:1671   */\ntag_2:\n    /* \"#utility.yul\":800:806   */\n  0x00\n    /* \"#utility.yul\":808:814   */\n  0x00\n    /* \"#utility.yul\":816:822   */\n  0x00\n    /* \"#utility.yul\":824:830   */\n  0x00\n    /* \"#utility.yul\":832:838   */\n  0x00\n    /* \"#utility.yul\":881:884   */\n  0xa0\n    /* \"#utility.yul\":869:878   */\n  dup7\n    /* \"#utility.yul\":860:867   */\n  dup9\n    /* \"#utility.yul\":856:879   */\n  sub\n    /* \"#utility.yul\":852:885   */\n  slt\n    /* \"#utility.yul\":849:969   */\n  iszero\n  tag_83\n  jumpi\n    /* \"#utility.yul\":888:967   */\n  tag_84\n  tag_39\n  jump\t// in\ntag_84:\n    /* \"#utility.yul\":849:969   */\ntag_83:\n    /* \"#utility.yul\":1008:1009   */\n  0x00\n    /* \"#utility.yul\":1033:1097   */\n  tag_85\n    /* \"#utility.yul\":1089:1096   */\n  dup9\n    /* \"#utility.yul\":1080:1086   */\n  dup3\n    /* \"#utility.yul\":1069:1078   */\n  dup10\n    /* \"#utility.yul\":1065:1087   */\n  add\n    /* \"#utility.yul\":1033:1097   */\n  tag_43\n  jump\t// in\ntag_85:\n    /* \"#utility.yul\":1023:1097   */\n  swap6\n  pop\n    /* \"#utility.yul\":979:1107   */\n  pop\n    /* \"#utility.yul\":1146:1148   */\n  0x20\n    /* \"#utility.yul\":1172:1236   */\n  tag_86\n    /* \"#utility.yul\":1228:1235   */\n  dup9\n    /* \"#utility.yul\":1219:1225   */\n  dup3\n    /* \"#utility.yul\":1208:1217   */\n  dup10\n    /* \"#utility.yul\":1204:1226   */\n  add\n    /* \"#utility.yul\":1172:1236   */\n  tag_43\n  jump\t// in\ntag_86:\n    /* \"#utility.yul\":1162:1236   */\n  swap5\n  pop\n    /* \"#utility.yul\":1117:1246   */\n  pop\n    /* \"#utility.yul\":1285:1287   */\n  0x40\n    /* \"#utility.yul\":1311:1375   */\n  tag_87\n    /* \"#utility.yul\":1367:1374   */\n  dup9\n    /* \"#utility.yul\":1358:1364   */\n  dup3\n    /* \"#utility.yul\":1347:1356   */\n  dup10\n    /* \"#utility.yul\":1343:1365   */\n  add\n    /* \"#utility.yul\":1311:1375   */\n  tag_43\n  jump\t// in\ntag_87:\n    /* \"#utility.yul\":1301:1375   */\n  swap4\n  pop\n    /* \"#utility.yul\":1256:1385   */\n  pop\n    /* \"#utility.yul\":1424:1426   */\n  0x60\n    /* \"#utility.yul\":1450:1514   */\n  tag_88\n    /* \"#utility.yul\":1506:1513   */\n  dup9\n    /* \"#utility.yul\":1497:1503   */\n  dup3\n    /* \"#utility.yul\":1486:1495   */\n  dup10\n    /* \"#utility.yul\":1482:1504   */\n  add\n    /* \"#utility.yul\":1450:1514   */\n  tag_43\n  jump\t// in\ntag_88:\n    /* \"#utility.yul\":1440:1514   */\n  swap3\n  pop\n    /* \"#utility.yul\":1395:1524   */\n  pop\n    /* \"#utility.yul\":1563:1566   */\n  0x80\n    /* \"#utility.yul\":1590:1654   */\n  tag_89\n    /* \"#utility.yul\":1646:1653   */\n  dup9\n    /* \"#utility.yul\":1637:1643   */\n  dup3\n    /* \"#utility.yul\":1626:1635   */\n  dup10\n    /* \"#utility.yul\":1622:1644   */\n  add\n    /* \"#utility.yul\":1590:1654   */\n  tag_43\n  jump\t// in\ntag_89:\n    /* \"#utility.yul\":1580:1654   */\n  swap2\n  pop\n    /* \"#utility.yul\":1534:1664   */\n  pop\n    /* \"#utility.yul\":694:1671   */\n  swap3\n  swap6\n  pop\n  swap3\n  swap6\n  swap1\n  swap4\n  pop\n  jump\t// out\n    /* \"#utility.yul\":1677:1776   */\ntag_44:\n    /* \"#utility.yul\":1729:1735   */\n  0x00\n    /* \"#utility.yul\":1763:1768   */\n  dup2\n    /* \"#utility.yul\":1757:1769   */\n  mload\n    /* \"#utility.yul\":1747:1769   */\n  swap1\n  pop\n    /* \"#utility.yul\":1677:1776   */\n  swap2\n  swap1\n  pop\n  jump\t// out\n    /* \"#utility.yul\":1782:1962   */\ntag_45:\n    /* \"#utility.yul\":1830:1907   */\n  0x4e487b7100000000000000000000000000000000000000000000000000000000\n    /* \"#utility.yul\":1827:1828   */\n  0x00\n    /* \"#utility.yul\":1820:1908   */\n  mstore\n    /* \"#utility.yul\":1927:1931   */\n  0x41\n    /* \"#utility.yul\":1924:1925   */\n  0x04\n    /* \"#utility.yul\":1917:1932   */\n  mstore\n    /* \"#utility.yul\":1951:1955   */\n  0x24\n    /* \"#utility.yul\":1948:1949   */\n  0x00\n    /* \"#utility.yul\":1941:1956   */\n  revert\n    /* \"#utility.yul\":1968:2148   */\ntag_46:\n    /* \"#utility.yul\":2016:2093   */\n  0x4e487b7100000000000000000000000000000000000000000000000000000000\n    /* \"#utility.yul\":2013:2014   */\n  0x00\n    /* \"#utility.yul\":2006:2094   */\n  mstore\n    /* \"#utility.yul\":2113:2117   */\n  0x22\n    /* \"#utility.yul\":2110:2111   */\n  0x04\n    /* \"#utility.yul\":2103:2118   */\n  mstore\n    /* \"#utility.yul\":2137:2141   */\n  0x24\n    /* \"#utility.yul\":2134:2135   */\n  0x00\n    /* \"#utility.yul\":2127:2142   */\n  revert\n    /* \"#utility.yul\":2154:2474   */\ntag_47:\n    /* \"#utility.yul\":2198:2204   */\n  0x00\n    /* \"#utility.yul\":2235:2236   */\n  0x02\n    /* \"#utility.yul\":2229:2233   */\n  dup3\n    /* \"#utility.yul\":2225:2237   */\n  div\n    /* \"#utility.yul\":2215:2237   */\n  swap1\n  pop\n    /* \"#utility.yul\":2282:2283   */\n  0x01\n    /* \"#utility.yul\":2276:2280   */\n  dup3\n    /* \"#utility.yul\":2272:2284   */\n  and\n    /* \"#utility.yul\":2303:2321   */\n  dup1\n    /* \"#utility.yul\":2293:2374   */\n  tag_94\n  jumpi\n    /* \"#utility.yul\":2359:2363   */\n  0x7f\n    /* \"#utility.yul\":2351:2357   */\n  dup3\n    /* \"#utility.yul\":2347:2364   */\n  and\n    /* \"#utility.yul\":2337:2364   */\n  swap2\n  pop\n    /* \"#utility.yul\":2293:2374   */\ntag_94:\n    /* \"#utility.yul\":2421:2423   */\n  0x20\n    /* \"#utility.yul\":2413:2419   */\n  dup3\n    /* \"#utility.yul\":2410:2424   */\n  lt\n    /* \"#utility.yul\":2390:2408   */\n  dup2\n    /* \"#utility.yul\":2387:2425   */\n  sub\n    /* \"#utility.yul\":2384:2468   */\n  tag_95\n  jumpi\n    /* \"#utility.yul\":2440:2458   */\n  tag_96\n  tag_46\n  jump\t// in\ntag_96:\n    /* \"#utility.yul\":2384:2468   */\ntag_95:\n    /* \"#utility.yul\":2205:2474   */\n  pop\n    /* \"#utility.yul\":2154:2474   */\n  swap2\n  swap1\n  pop\n  jump\t// out\n    /* \"#utility.yul\":2480:2621   */\ntag_48:\n    /* \"#utility.yul\":2529:2533   */\n  0x00\n    /* \"#utility.yul\":2552:2555   */\n  dup2\n    /* \"#utility.yul\":2544:2555   */\n  swap1\n  pop\n    /* \"#utility.yul\":2575:2578   */\n  dup2\n    /* \"#utility.yul\":2572:2573   */\n  0x00\n    /* \"#utility.yul\":2565:2579   */\n  mstore\n    /* \"#utility.yul\":2609:2613   */\n  0x20\n    /* \"#utility.yul\":2606:2607   */\n  0x00\n    /* \"#utility.yul\":2596:2614   */\n  keccak256\n    /* \"#utility.yul\":2588:2614   */\n  swap1\n  pop\n    /* \"#utility.yul\":2480:2621   */\n  swap2\n  swap1\n  pop\n  jump\t// out\n    /* \"#utility.yul\":2627:2720   */\ntag_49:\n    /* \"#utility.yul\":2664:2670   */\n  0x00\n    /* \"#utility.yul\":2711:2713   */\n  0x20\n    /* \"#utility.yul\":2706:2708   */\n  0x1f\n    /* \"#utility.yul\":2699:2704   */\n  dup4\n    /* \"#utility.yul\":2695:2709   */\n  add\n    /* \"#utility.yul\":2691:2714   */\n  div\n    /* \"#utility.yul\":2681:2714   */\n  swap1\n  pop\n    /* \"#utility.yul\":2627:2720   */\n  swap2\n  swap1\n  pop\n  jump\t// out\n    /* \"#utility.yul\":2726:2833   */\ntag_50:\n    /* \"#utility.yul\":2770:2778   */\n  0x00\n    /* \"#utility.yul\":2820:2825   */\n  dup3\n    /* \"#utility.yul\":2814:2818   */\n  dup3\n    /* \"#utility.yul\":2810:2826   */\n  shl\n    /* \"#utility.yul\":2789:2826   */\n  swap1\n  pop\n    /* \"#utility.yul\":2726:2833   */\n  swap3\n  swap2\n  pop\n  pop\n  jump\t// out\n    /* \"#utility.yul\":2839:3232   */\ntag_51:\n    /* \"#utility.yul\":2908:2914   */\n  0x00\n    /* \"#utility.yul\":2958:2959   */\n  0x08\n    /* \"#utility.yul\":2946:2956   */\n  dup4\n    /* \"#utility.yul\":2942:2960   */\n  mul\n    /* \"#utility.yul\":2981:3078   */\n  tag_101\n    /* \"#utility.yul\":3011:3077   */\n  0xffffffffffffffffffffffffffffffffffffffffffffffffffffffffffffffff\n    /* \"#utility.yul\":3000:3009   */\n  dup3\n    /* \"#utility.yul\":2981:3078   */\n  tag_50\n  jump\t// in\ntag_101:\n    /* \"#utility.yul\":3099:3138   */\n  tag_102\n    /* \"#utility.yul\":3129:3137   */\n  dup7\n    /* \"#utility.yul\":3118:3127   */\n  dup4\n    /* \"#utility.yul\":3099:3138   */\n  tag_50\n  jump\t// in\ntag_102:\n    /* \"#utility.yul\":3087:3138   */\n  swap6\n  pop\n    /* \"#utility.yul\":3171:3175   */\n  dup1\n    /* \"#utility.yul\":3167:3176   */\n  not\n    /* \"#utility.yul\":3160:3165   */\n  dup5\n    /* \"#utility.yul\":3156:3177   */\n  and\n    /* \"#utility.yul\":3147:3177   */\n  swap4\n  pop\n    /* \"#utility.yul\":3220:3224   */\n  dup1\n    /* \"#utility.yul\":3210:3218   */\n  dup7\n    /* \"#utility.yul\":3206:3225   */\n  and\n    /* \"#utility.yul\":3199:3204   */\n  dup5\n    /* \"#utility.yul\":3196:3226   */\n  or\n    /* \"#utility.yul\":3186:3226   */\n  swap3\n  pop\n    /* \"#utility.yul\":2915:3232   */\n  pop\n  pop\n    /* \"#utility.yul\":2839:3232   */\n  swap4\n  swap3\n  pop\n  pop\n  pop\n  jump\t// out\n    /* \"#utility.yul\":3238:3298   */\ntag_52:\n    /* \"#utility.yul\":3266:3269   */\n  0x00\n    /* \"#utility.yul\":3287:3292   */\n  dup2\n    /* \"#utility.yul\":3280:3292   */\n  swap1\n  pop\n    /* \"#utility.yul\":3238:3298   */\n  swap2\n  swap1\n  pop\n  jump\t// out\n    /* \"#utility.yul\":3304:3446   */\ntag_53:\n    /* \"#utility.yul\":3354:3363   */\n  0x00\n    /* \"#utility.yul\":3387:3440   */\n  tag_105\n    /* \"#utility.yul\":3405:3439   */\n  tag_106\n    /* \"#utility.yul\":3414:3438   */\n  tag_107\n    /* \"#utility.yul\":3432:3437   */\n  dup5\n    /* \"#utility.yul\":3414:3438   */\n  tag_41\n  jump\t// in\ntag_107:\n    /* \"#utility.yul\":3405:3439   */\n  tag_52\n  jump\t// in\ntag_106:\n    /* \"#utility.yul\":3387:3440   */\n  tag_41\n  jump\t// in\ntag_105:\n    /* \"#utility.yul\":3374:3440   */\n  swap1\n  pop\n    /* \"#utility.yul\":3304:3446   */\n  swap2\n  swap1\n  pop\n  jump\t// out\n    /* \"#utility.yul\":3452:3527   */\ntag_54:\n    /* \"#utility.yul\":3495:3498   */\n  0x00\n    /* \"#utility.yul\":3516:3521   */\n  dup2\n    /* \"#utility.yul\":3509:3521   */\n  swap1\n  pop\n    /* \"#utility.yul\":3452:3527   */\n  swap2\n  swap1\n  pop\n  jump\t// out\n    /* \"#utility.yul\":3533:3802   */\ntag_55:\n    /* \"#utility.yul\":3643:3682   */\n  tag_110\n    /* \"#utility.yul\":3674:3681   */\n  dup4\n    /* \"#utility.yul\":3643:3682   */\n  tag_53\n  jump\t// in\ntag_110:\n    /* \"#utility.yul\":3704:3795   */\n  tag_111\n    /* \"#utility.yul\":3753:3794   */\n  tag_112\n    /* \"#utility.yul\":3777:3793   */\n  dup3\n    /* \"#utility.yul\":3753:3794   */\n  tag_54\n  jump\t// in\ntag_112:\n    /* \"#utility.yul\":3745:3751   */\n  dup5\n    /* \"#utility.yul\":3738:3742   */\n  dup5\n    /* \"#utility.yul\":3732:3743   */\n  sload\n    /* \"#utility.yul\":3704:3795   */\n  tag_51\n  jump\t// in\ntag_111:\n    /* \"#utility.yul\":3698:3702   */\n  dup3\n    /* \"#utility.yul\":3691:3796   */\n  sstore\n    /* \"#utility.yul\":3609:3802   */\n  pop\n    /* \"#utility.yul\":3533:3802   */\n  pop\n  pop\n  pop\n  jump\t// out\n    /* \"#utility.yul\":3808:3881   */\ntag_56:\n    /* \"#utility.yul\":3853:3856   */\n  0x00\n    /* \"#utility.yul\":3874:3875   */\n  0x00\n    /* \"#utility.yul\":3867:3875   */\n  swap1\n  pop\n    /* \"#utility.yul\":3808:3881   */\n  swap1\n  jump\t// out\n    /* \"#utility.yul\":3887:4076   */\ntag_57:\n    /* \"#utility.yul\":3964:3996   */\n  tag_115\n  tag_56\n  jump\t// in\ntag_115:\n    /* \"#utility.yul\":4005:4070   */\n  tag_116\n    /* \"#utility.yul\":4063:4069   */\n  dup2\n    /* \"#utility.yul\":4055:4061   */\n  dup5\n    /* \"#utility.yul\":4049:4053   */\n  dup5\n    /* \"#utility.yul\":4005:4070   */\n  tag_55\n  jump\t// in\ntag_116:\n    /* \"#utility.yul\":3940:4076   */\n  pop\n    /* \"#utility.yul\":3887:4076   */\n  pop\n  pop\n  jump\t// out\n    /* \"#utility.yul\":4082:4268   */\ntag_58:\n    /* \"#utility.yul\":4142:4262   */\ntag_118:\n    /* \"#utility.yul\":4159:4162   */\n  dup2\n    /* \"#utility.yul\":4152:4157   */\n  dup2\n    /* \"#utility.yul\":4149:4163   */\n  lt\n    /* \"#utility.yul\":4142:4262   */\n  iszero\n  tag_120\n  jumpi\n    /* \"#utility.yul\":4213:4252   */\n  tag_121\n    /* \"#utility.yul\":4250:4251   */\n  0x00\n    /* \"#utility.yul\":4243:4248   */\n  dup3\n    /* \"#utility.yul\":4213:4252   */\n  tag_57\n  jump\t// in\ntag_121:\n    /* \"#utility.yul\":4186:4187   */\n  0x01\n    /* \"#utility.yul\":4179:4184   */\n  dup2\n    /* \"#utility.yul\":4175:4188   */\n  add\n    /* \"#utility.yul\":4166:4188   */\n  swap1\n  pop\n    /* \"#utility.yul\":4142:4262   */\n  jump(tag_118)\ntag_120:\n    /* \"#utility.yul\":4082:4268   */\n  pop\n  pop\n  jump\t// out\n    /* \"#utility.yul\":4274:4817   */\ntag_59:\n    /* \"#utility.yul\":4375:4377   */\n  0x1f\n    /* \"#utility.yul\":4370:4373   */\n  dup3\n    /* \"#utility.yul\":4367:4378   */\n  gt\n    /* \"#utility.yul\":4364:4810   */\n  iszero\n  tag_123\n  jumpi\n    /* \"#utility.yul\":4409:4447   */\n  tag_124\n    /* \"#utility.yul\":4441:4446   */\n  dup2\n    /* \"#utility.yul\":4409:4447   */\n  tag_48\n  jump\t// in\ntag_124:\n    /* \"#utility.yul\":4493:4522   */\n  tag_125\n    /* \"#utility.yul\":4511:4521   */\n  dup5\n    /* \"#utility.yul\":4493:4522   */\n  tag_49\n  jump\t// in\ntag_125:\n    /* \"#utility.yul\":4483:4491   */\n  dup2\n    /* \"#utility.yul\":4479:4523   */\n  add\n    /* \"#utility.yul\":4676:4678   */\n  0x20\n    /* \"#utility.yul\":4664:4674   */\n  dup6\n    /* \"#utility.yul\":4661:4679   */\n  lt\n    /* \"#utility.yul\":4658:4707   */\n  iszero\n  tag_126\n  jumpi\n    /* \"#utility.yul\":4697:4705   */\n  dup2\n    /* \"#utility.yul\":4682:4705   */\n  swap1\n  pop\n    /* \"#utility.yul\":4658:4707   */\ntag_126:\n    /* \"#utility.yul\":4720:4800   */\n  tag_127\n    /* \"#utility.yul\":4776:4798   */\n  tag_128\n    /* \"#utility.yul\":4794:4797   */\n  dup6\n    /* \"#utility.yul\":4776:4798   */\n  tag_49\n  jump\t// in\ntag_128:\n    /* \"#utility.yul\":4766:4774   */\n  dup4\n    /* \"#utility.yul\":4762:4799   */\n  add\n    /* \"#utility.yul\":4749:4760   */\n  dup3\n    /* \"#utility.yul\":4720:4800   */\n  tag_58\n  jump\t// in\ntag_127:\n    /* \"#utility.yul\":4379:4810   */\n  pop\n  pop\n    /* \"#utility.yul\":4364:4810   */\ntag_123:\n    /* \"#utility.yul\":4274:4817   */\n  pop\n  pop\n  pop\n  jump\t// out\n    /* \"#utility.yul\":4823:4940   */\ntag_60:\n    /* \"#utility.yul\":4877:4885   */\n  0x00\n    /* \"#utility.yul\":4927:4932   */\n  dup3\n    /* \"#utility.yul\":4921:4925   */\n  dup3\n    /* \"#utility.yul\":4917:4933   */\n  shr\n    /* \"#utility.yul\":4896:4933   */\n  swap1\n  pop\n    /* \"#utility.yul\":4823:4940   */\n  swap3\n  swap2\n  pop\n  pop\n  jump\t// out\n    /* \"#utility.yul\":4946:5115   */\ntag_61:\n    /* \"#utility.yul\":4990:4996   */\n  0x00\n    /* \"#utility.yul\":5023:5074   */\n  tag_131\n    /* \"#utility.yul\":5071:5072   */\n  0x00\n    /* \"#utility.yul\":5067:5073   */\n  not\n    /* \"#utility.yul\":5059:5064   */\n  dup5\n    /* \"#utility.yul\":5056:5057   */\n  0x08\n    /* \"#utility.yul\":5052:5065   */\n  mul\n    /* \"#utility.yul\":5023:5074   */\n  tag_60\n  jump\t// in\ntag_131:\n    /* \"#utility.yul\":5019:5075   */\n  not\n    /* \"#utility.yul\":5104:5108   */\n  dup1\n    /* \"#utility.yul\":5098:5102   */\n  dup4\n    /* \"#utility.yul\":5094:5109   */\n  and\n    /* \"#utility.yul\":5084:5109   */\n  swap2\n  pop\n    /* \"#utility.yul\":4997:5115   */\n  pop\n    /* \"#utility.yul\":4946:5115   */\n  swap3\n  swap2\n  pop\n  pop\n  jump\t// out\n    /* \"#utility.yul\":5120:5415   */\ntag_62:\n    /* \"#utility.yul\":5196:5200   */\n  0x00\n    /* \"#utility.yul\":5342:5371   */\n  tag_133\n    /* \"#utility.yul\":5367:5370   */\n  dup4\n    /* \"#utility.yul\":5361:5365   */\n  dup4\n    /* \"#utility.yul\":5342:5371   */\n  tag_61\n  jump\t// in\ntag_133:\n    /* \"#utility.yul\":5334:5371   */\n  swap2\n  pop\n    /* \"#utility.yul\":5404:5407   */\n  dup3\n    /* \"#utility.yul\":5401:5402   */\n  0x02\n    /* \"#utility.yul\":5397:5408   */\n  mul\n    /* \"#utility.yul\":5391:5395   */\n  dup3\n    /* \"#utility.yul\":5388:5409   */\n  or\n    /* \"#utility.yul\":5380:5409   */\n  swap1\n  pop\n    /* \"#utility.yul\":5120:5415   */\n  swap3\n  swap2\n  pop\n  pop\n  jump\t// out\n    /* \"#utility.yul\":5420:6815   */\ntag_7:\n    /* \"#utility.yul\":5537:5574   */\n  tag_135\n    /* \"#utility.yul\":5570:5573   */\n  dup3\n    /* \"#utility.yul\":5537:5574   */\n  tag_44\n  jump\t// in\ntag_135:\n    /* \"#utility.yul\":5639:5657   */\n  0xffffffffffffffff\n    /* \"#utility.yul\":5631:5637   */\n  dup2\n    /* \"#utility.yul\":5628:5658   */\n  gt\n    /* \"#utility.yul\":5625:5681   */\n  iszero\n  tag_136\n  jumpi\n    /* \"#utility.yul\":5661:5679   */\n  tag_137\n  tag_45\n  jump\t// in\ntag_137:\n    /* \"#utility.yul\":5625:5681   */\ntag_136:\n    /* \"#utility.yul\":5705:5743   */\n  tag_138\n    /* \"#utility.yul\":5737:5741   */\n  dup3\n    /* \"#utility.yul\":5731:5742   */\n  sload\n    /* \"#utility.yul\":5705:5743   */\n  tag_47\n  jump\t// in\ntag_138:\n    /* \"#utility.yul\":5790:5857   */\n  tag_139\n    /* \"#utility.yul\":5850:5856   */\n  dup3\n    /* \"#utility.yul\":5842:5848   */\n  dup3\n    /* \"#utility.yul\":5836:5840   */\n  dup6\n    /* \"#utility.yul\":5790:5857   */\n  tag_59\n  jump\t// in\ntag_139:\n    /* \"#utility.yul\":5884:5885   */\n  0x00\n    /* \"#utility.yul\":5908:5912   */\n  0x20\n    /* \"#utility.yul\":5895:5912   */\n  swap1\n  pop\n    /* \"#utility.yul\":5940:5942   */\n  0x1f\n    /* \"#utility.yul\":5932:5938   */\n  dup4\n    /* \"#utility.yul\":5929:5943   */\n  gt\n    /* \"#utility.yul\":5957:5958   */\n  0x01\n    /* \"#utility.yul\":5952:6570   */\n  dup2\n  eq\n  tag_141\n  jumpi\n    /* \"#utility.yul\":6614:6615   */\n  0x00\n    /* \"#utility.yul\":6631:6637   */\n  dup5\n    /* \"#utility.yul\":6628:6705   */\n  iszero\n  tag_142\n  jumpi\n    /* \"#utility.yul\":6680:6689   */\n  dup3\n    /* \"#utility.yul\":6675:6678   */\n  dup8\n    /* \"#utility.yul\":6671:6690   */\n  add\n    /* \"#utility.yul\":6665:6691   */\n  mload\n    /* \"#utility.yul\":6656:6691   */\n  swap1\n  pop\n    /* \"#utility.yul\":6628:6705   */\ntag_142:\n    /* \"#utility.yul\":6731:6798   */\n  tag_143\n    /* \"#utility.yul\":6791:6797   */\n  dup6\n    /* \"#utility.yul\":6784:6789   */\n  dup3\n    /* \"#utility.yul\":6731:6798   */\n  tag_62\n  jump\t// in\ntag_143:\n    /* \"#utility.yul\":6725:6729   */\n  dup7\n    /* \"#utility.yul\":6718:6799   */\n  sstore\n    /* \"#utility.yul\":6587:6809   */\n  pop\n    /* \"#utility.yul\":5922:6809   */\n  jump(tag_140)\n    /* \"#utility.yul\":5952:6570   */\ntag_141:\n    /* \"#utility.yul\":6004:6008   */\n  0x1f\n    /* \"#utility.yul\":6000:6009   */\n  not\n    /* \"#utility.yul\":5992:5998   */\n  dup5\n    /* \"#utility.yul\":5988:6010   */\n  and\n    /* \"#utility.yul\":6038:6075   */\n  tag_144\n    /* \"#utility.yul\":6070:6074   */\n  dup7\n    /* \"#utility.yul\":6038:6075   */\n  tag_48\n  jump\t// in\ntag_144:\n    /* \"#utility.yul\":6097:6098   */\n  0x00\n    /* \"#utility.yul\":6111:6319   */\ntag_145:\n    /* \"#utility.yul\":6125:6132   */\n  dup3\n    /* \"#utility.yul\":6122:6123   */\n  dup2\n    /* \"#utility.yul\":6119:6133   */\n  lt\n    /* \"#utility.yul\":6111:6319   */\n  iszero\n  tag_147\n  jumpi\n    /* \"#utility.yul\":6204:6213   */\n  dup5\n    /* \"#utility.yul\":6199:6202   */\n  dup10\n    /* \"#utility.yul\":6195:6214   */\n  add\n    /* \"#utility.yul\":6189:6215   */\n  mload\n    /* \"#utility.yul\":6181:6187   */\n  dup3\n    /* \"#utility.yul\":6174:6216   */\n  sstore\n    /* \"#utility.yul\":6255:6256   */\n  0x01\n    /* \"#utility.yul\":6247:6253   */\n  dup3\n    /* \"#utility.yul\":6243:6257   */\n  add\n    /* \"#utility.yul\":6233:6257   */\n  swap2\n  pop\n    /* \"#utility.yul\":6302:6304   */\n  0x20\n    /* \"#utility.yul\":6291:6300   */\n  dup6\n    /* \"#utility.yul\":6287:6305   */\n  add\n    /* \"#utility.yul\":6274:6305   */\n  swap5\n  pop\n    /* \"#utility.yul\":6148:6152   */\n  0x20\n    /* \"#utility.yul\":6145:6146   */\n  dup2\n    /* \"#utility.yul\":6141:6153   */\n  add\n    /* \"#utility.yul\":6136:6153   */\n  swap1\n  pop\n    /* \"#utility.yul\":6111:6319   */\n  jump(tag_145)\ntag_147:\n    /* \"#utility.yul\":6347:6353   */\n  dup7\n    /* \"#utility.yul\":6338:6345   */\n  dup4\n    /* \"#utility.yul\":6335:6354   */\n  lt\n    /* \"#utility.yul\":6332:6511   */\n  iszero\n  tag_148\n  jumpi\n    /* \"#utility.yul\":6405:6414   */\n  dup5\n    /* \"#utility.yul\":6400:6403   */\n  dup10\n    /* \"#utility.yul\":6396:6415   */\n  add\n    /* \"#utility.yul\":6390:6416   */\n  mload\n    /* \"#utility.yul\":6448:6496   */\n  tag_149\n    /* \"#utility.yul\":6490:6494   */\n  0x1f\n    /* \"#utility.yul\":6482:6488   */\n  dup10\n    /* \"#utility.yul\":6478:6495   */\n  and\n    /* \"#utility.yul\":6467:6476   */\n  dup3\n    /* \"#utility.yul\":6448:6496   */\n  tag_61\n  jump\t// in\ntag_149:\n    /* \"#utility.yul\":6440:6446   */\n  dup4\n    /* \"#utility.yul\":6433:6497   */\n  sstore\n    /* \"#utility.yul\":6355:6511   */\n  pop\n    /* \"#utility.yul\":6332:6511   */\ntag_148:\n    /* \"#utility.yul\":6557:6558   */\n  0x01\n    /* \"#utility.yul\":6553:6554   */\n  0x02\n    /* \"#utility.yul\":6545:6551   */\n  dup9\n    /* \"#utility.yul\":6541:6555   */\n  mul\n    /* \"#utility.yul\":6537:6559   */\n  add\n    /* \"#utility.yul\":6531:6535   */\n  dup9\n    /* \"#utility.yul\":6524:6560   */\n  sstore\n    /* \"#utility.yul\":5959:6570   */\n  pop\n  pop\n  pop\n    /* \"#utility.yul\":5922:6809   */\ntag_140:\n  pop\n    /* \"#utility.yul\":5512:6815   */\n  pop\n  pop\n  pop\n    /* \"#utility.yul\":5420:6815   */\n  pop\n  pop\n  jump\t// out\n    /* \"#utility.yul\":6821:7001   */\ntag_63:\n    /* \"#utility.yul\":6869:6946   */\n  0x4e487b7100000000000000000000000000000000000000000000000000000000\n    /* \"#utility.yul\":6866:6867   */\n  0x00\n    /* \"#utility.yul\":6859:6947   */\n  mstore\n    /* \"#utility.yul\":6966:6970   */\n  0x11\n    /* \"#utility.yul\":6963:6964   */\n  0x04\n    /* \"#utility.yul\":6956:6971   */\n  mstore\n    /* \"#utility.yul\":6990:6994   */\n  0x24\n    /* \"#utility.yul\":6987:6988   */\n  0x00\n    /* \"#utility.yul\":6980:6995   */\n  revert\n    /* \"#utility.yul\":7007:7109   */\ntag_64:\n    /* \"#utility.yul\":7049:7057   */\n  0x00\n    /* \"#utility.yul\":7096:7101   */\n  dup2\n    /* \"#utility.yul\":7093:7094   */\n  0x01\n    /* \"#utility.yul\":7089:7102   */\n  shr\n    /* \"#utility.yul\":7068:7102   */\n  swap1\n  pop\n    /* \"#utility.yul\":7007:7109   */\n  swap2\n  swap1\n  pop\n  jump\t// out\n    /* \"#utility.yul\":7115:7963   */\ntag_65:\n    /* \"#utility.yul\":7176:7181   */\n  0x00\n    /* \"#utility.yul\":7183:7187   */\n  0x00\n    /* \"#utility.yul\":7207:7213   */\n  dup3\n    /* \"#utility.yul\":7198:7213   */\n  swap2\n  pop\n    /* \"#utility.yul\":7231:7236   */\n  dup4\n    /* \"#utility.yul\":7222:7236   */\n  swap1\n  pop\n    /* \"#utility.yul\":7245:7957   */\ntag_153:\n    /* \"#utility.yul\":7266:7267   */\n  0x01\n    /* \"#utility.yul\":7256:7264   */\n  dup6\n    /* \"#utility.yul\":7253:7268   */\n  gt\n    /* \"#utility.yul\":7245:7957   */\n  iszero\n  tag_155\n  jumpi\n    /* \"#utility.yul\":7361:7365   */\n  dup1\n    /* \"#utility.yul\":7356:7359   */\n  dup7\n    /* \"#utility.yul\":7352:7366   */\n  div\n    /* \"#utility.yul\":7346:7350   */\n  dup2\n    /* \"#utility.yul\":7343:7367   */\n  gt\n    /* \"#utility.yul\":7340:7390   */\n  iszero\n  tag_156\n  jumpi\n    /* \"#utility.yul\":7370:7388   */\n  tag_157\n  tag_63\n  jump\t// in\ntag_157:\n    /* \"#utility.yul\":7340:7390   */\ntag_156:\n    /* \"#utility.yul\":7420:7421   */\n  0x01\n    /* \"#utility.yul\":7410:7418   */\n  dup6\n    /* \"#utility.yul\":7406:7422   */\n  and\n    /* \"#utility.yul\":7403:7854   */\n  iszero\n  tag_158\n  jumpi\n    /* \"#utility.yul\":7835:7839   */\n  dup1\n    /* \"#utility.yul\":7828:7833   */\n  dup3\n    /* \"#utility.yul\":7824:7840   */\n  mul\n    /* \"#utility.yul\":7815:7840   */\n  swap2\n  pop\n    /* \"#utility.yul\":7403:7854   */\ntag_158:\n    /* \"#utility.yul\":7885:7889   */\n  dup1\n    /* \"#utility.yul\":7879:7883   */\n  dup2\n    /* \"#utility.yul\":7875:7890   */\n  mul\n    /* \"#utility.yul\":7867:7890   */\n  swap1\n  pop\n    /* \"#utility.yul\":7915:7947   */\n  tag_159\n    /* \"#utility.yul\":7938:7946   */\n  dup6\n    /* \"#utility.yul\":7915:7947   */\n  tag_64\n  jump\t// in\ntag_159:\n    /* \"#utility.yul\":7903:7947   */\n  swap5\n  pop\n    /* \"#utility.yul\":7245:7957   */\n  jump(tag_153)\ntag_155:\n    /* \"#utility.yul\":7115:7963   */\n  swap5\n  pop\n  swap5\n  swap3\n  pop\n  pop\n  pop\n  jump\t// out\n    /* \"#utility.yul\":7969:9042   */\ntag_66:\n    /* \"#utility.yul\":8023:8028   */\n  0x00\n    /* \"#utility.yul\":8214:8222   */\n  dup3\n    /* \"#utility.yul\":8204:8244   */\n  tag_161\n  jumpi\n    /* \"#utility.yul\":8235:8236   */\n  0x01\n    /* \"#utility.yul\":8226:8236   */\n  swap1\n  pop\n    /* \"#utility.yul\":8237:8242   */\n  jump(tag_160)\n    /* \"#utility.yul\":8204:8244   */\ntag_161:\n    /* \"#utility.yul\":8263:8267   */\n  dup2\n    /* \"#utility.yul\":8253:8289   */\n  tag_162\n  jumpi\n    /* \"#utility.yul\":8280:8281   */\n  0x00\n    /* \"#utility.yul\":8271:8281   */\n  swap1\n  pop\n    /* \"#utility.yul\":8282:8287   */\n  jump(tag_160)\n    /* \"#utility.yul\":8253:8289   */\ntag_162:\n    /* \"#utility.yul\":8349:8353   */\n  dup2\n    /* \"#utility.yul\":8397:8398   */\n  0x01\n    /* \"#utility.yul\":8392:8419   */\n  dup2\n  eq\n  tag_164\n  jumpi\n    /* \"#utility.yul\":8433:8434   */\n  0x02\n    /* \"#utility.yul\":8428:8619   */\n  dup2\n  eq\n  tag_165\n  jumpi\n    /* \"#utility.yul\":8342:8619   */\n  jump(tag_163)\n    /* \"#utility.yul\":8392:8419   */\ntag_164:\n    /* \"#utility.yul\":8410:8411   */\n  0x01\n    /* \"#utility.yul\":8401:8411   */\n  swap2\n  pop\n    /* \"#utility.yul\":8412:8417   */\n  pop\n  jump(tag_160)\n    /* \"#utility.yul\":8428:8619   */\ntag_165:\n    /* \"#utility.yul\":8473:8476   */\n  0xff\n    /* \"#utility.yul\":8463:8471   */\n  dup5\n    /* \"#utility.yul\":8460:8477   */\n  gt\n    /* \"#utility.yul\":8457:8500   */\n  iszero\n  tag_166\n  jumpi\n    /* \"#utility.yul\":8480:8498   */\n  tag_167\n  tag_63\n  jump\t// in\ntag_167:\n    /* \"#utility.yul\":8457:8500   */\ntag_166:\n    /* \"#utility.yul\":8529:8537   */\n  dup4\n    /* \"#utility.yul\":8526:8527   */\n  0x02\n    /* \"#utility.yul\":8522:8538   */\n  exp\n    /* \"#utility.yul\":8513:8538   */\n  swap2\n  pop\n    /* \"#utility.yul\":8564:8567   */\n  dup5\n    /* \"#utility.yul\":8557:8562   */\n  dup3\n    /* \"#utility.yul\":8554:8568   */\n  gt\n    /* \"#utility.yul\":8551:8591   */\n  iszero\n  tag_168\n  jumpi\n    /* \"#utility.yul\":8571:8589   */\n  tag_169\n  tag_63\n  jump\t// in\ntag_169:\n    /* \"#utility.yul\":8551:8591   */\ntag_168:\n    /* \"#utility.yul\":8604:8609   */\n  pop\n  jump(tag_160)\n    /* \"#utility.yul\":8342:8619   */\ntag_163:\n  pop\n    /* \"#utility.yul\":8728:8730   */\n  0x20\n    /* \"#utility.yul\":8718:8726   */\n  dup4\n    /* \"#utility.yul\":8715:8731   */\n  lt\n    /* \"#utility.yul\":8709:8712   */\n  0x0133\n    /* \"#utility.yul\":8703:8707   */\n  dup4\n    /* \"#utility.yul\":8700:8713   */\n  lt\n    /* \"#utility.yul\":8696:8732   */\n  and\n    /* \"#utility.yul\":8678:8680   */\n  0x4e\n    /* \"#utility.yul\":8668:8676   */\n  dup5\n    /* \"#utility.yul\":8665:8681   */\n  lt\n    /* \"#utility.yul\":8660:8662   */\n  0x0b\n    /* \"#utility.yul\":8654:8658   */\n  dup5\n    /* \"#utility.yul\":8651:8663   */\n  lt\n    /* \"#utility.yul\":8647:8682   */\n  and\n    /* \"#utility.yul\":8631:8742   */\n  or\n    /* \"#utility.yul\":8628:8874   */\n  iszero\n  tag_170\n  jumpi\n    /* \"#utility.yul\":8784:8792   */\n  dup3\n    /* \"#utility.yul\":8778:8782   */\n  dup3\n    /* \"#utility.yul\":8774:8793   */\n  exp\n    /* \"#utility.yul\":8765:8793   */\n  swap1\n  pop\n    /* \"#utility.yul\":8819:8822   */\n  dup4\n    /* \"#utility.yul\":8812:8817   */\n  dup2\n    /* \"#utility.yul\":8809:8823   */\n  gt\n    /* \"#utility.yul\":8806:8846   */\n  iszero\n  tag_171\n  jumpi\n    /* \"#utility.yul\":8826:8844   */\n  tag_172\n  tag_63\n  jump\t// in\ntag_172:\n    /* \"#utility.yul\":8806:8846   */\ntag_171:\n    /* \"#utility.yul\":8859:8864   */\n  jump(tag_160)\n    /* \"#utility.yul\":8628:8874   */\ntag_170:\n    /* \"#utility.yul\":8899:8941   */\n  tag_173\n    /* \"#utility.yul\":8937:8940   */\n  dup5\n    /* \"#utility.yul\":8927:8935   */\n  dup5\n    /* \"#utility.yul\":8921:8925   */\n  dup5\n    /* \"#utility.yul\":8918:8919   */\n  0x01\n    /* \"#utility.yul\":8899:8941   */\n  tag_65\n  jump\t// in\ntag_173:\n    /* \"#utility.yul\":8884:8941   */\n  swap3\n  pop\n  swap1\n  pop\n    /* \"#utility.yul\":8973:8977   */\n  dup2\n    /* \"#utility.yul\":8968:8971   */\n  dup5\n    /* \"#utility.yul\":8964:8978   */\n  div\n    /* \"#utility.yul\":8957:8962   */\n  dup2\n    /* \"#utility.yul\":8954:8979   */\n  gt\n    /* \"#utility.yul\":8951:9002   */\n  iszero\n  tag_174\n  jumpi\n    /* \"#utility.yul\":8982:9000   */\n  tag_175\n  tag_63\n  jump\t// in\ntag_175:\n    /* \"#utility.yul\":8951:9002   */\ntag_174:\n    /* \"#utility.yul\":9031:9035   */\n  dup2\n    /* \"#utility.yul\":9024:9029   */\n  dup2\n    /* \"#utility.yul\":9020:9036   */\n  mul\n    /* \"#utility.yul\":9011:9036   */\n  swap1\n  pop\n    /* \"#utility.yul\":7969:9042   */\ntag_160:\n  swap4\n  swap3\n  pop\n  pop\n  pop\n  jump\t// out\n    /* \"#utility.yul\":9048:9134   */\ntag_67:\n    /* \"#utility.yul\":9083:9090   */\n  0x00\n    /* \"#utility.yul\":9123:9127   */\n  0xff\n    /* \"#utility.yul\":9116:9121   */\n  dup3\n    /* \"#utility.yul\":9112:9128   */\n  and\n    /* \"#utility.yul\":9101:9128   */\n  swap1\n  pop\n    /* \"#utility.yul\":9048:9134   */\n  swap2\n  swap1\n  pop\n  jump\t// out\n    /* \"#utility.yul\":9140:9421   */\ntag_14:\n    /* \"#utility.yul\":9198:9203   */\n  0x00\n    /* \"#utility.yul\":9222:9245   */\n  tag_178\n    /* \"#utility.yul\":9240:9244   */\n  dup3\n    /* \"#utility.yul\":9222:9245   */\n  tag_41\n  jump\t// in\ntag_178:\n    /* \"#utility.yul\":9214:9245   */\n  swap2\n  pop\n    /* \"#utility.yul\":9266:9291   */\n  tag_179\n    /* \"#utility.yul\":9282:9290   */\n  dup4\n    /* \"#utility.yul\":9266:9291   */\n  tag_67\n  jump\t// in\ntag_179:\n    /* \"#utility.yul\":9254:9291   */\n  swap3\n  pop\n    /* \"#utility.yul\":9310:9414   */\n  tag_180\n    /* \"#utility.yul\":9347:9413   */\n  0xffffffffffffffffffffffffffffffffffffffffffffffffffffffffffffffff\n    /* \"#utility.yul\":9337:9345   */\n  dup5\n    /* \"#utility.yul\":9331:9335   */\n  dup5\n    /* \"#utility.yul\":9310:9414   */\n  tag_66\n  jump\t// in\ntag_180:\n    /* \"#utility.yul\":9301:9414   */\n  swap1\n  pop\n    /* \"#utility.yul\":9140:9421   */\n  swap3\n  swap2\n  pop\n  pop\n  jump\t// out\n    /* \"#utility.yul\":9427:9837   */\ntag_16:\n    /* \"#utility.yul\":9467:9474   */\n  0x00\n    /* \"#utility.yul\":9490:9510   */\n  tag_182\n    /* \"#utility.yul\":9508:9509   */\n  dup3\n    /* \"#utility.yul\":9490:9510   */\n  tag_41\n  jump\t// in\ntag_182:\n    /* \"#utility.yul\":9485:9510   */\n  swap2\n  pop\n    /* \"#utility.yul\":9524:9544   */\n  tag_183\n    /* \"#utility.yul\":9542:9543   */\n  dup4\n    /* \"#utility.yul\":9524:9544   */\n  tag_41\n  jump\t// in\ntag_183:\n    /* \"#utility.yul\":9519:9544   */\n  swap3\n  pop\n    /* \"#utility.yul\":9579:9580   */\n  dup3\n    /* \"#utility.yul\":9576:9577   */\n  dup3\n    /* \"#utility.yul\":9572:9581   */\n  mul\n    /* \"#utility.yul\":9601:9631   */\n  tag_184\n    /* \"#utility.yul\":9619:9630   */\n  dup2\n    /* \"#utility.yul\":9601:9631   */\n  tag_41\n  jump\t// in\ntag_184:\n    /* \"#utility.yul\":9590:9631   */\n  swap2\n  pop\n    /* \"#utility.yul\":9780:9781   */\n  dup3\n    /* \"#utility.yul\":9771:9778   */\n  dup3\n    /* \"#utility.yul\":9767:9782   */\n  div\n    /* \"#utility.yul\":9764:9765   */\n  dup5\n    /* \"#utility.yul\":9761:9783   */\n  eq\n    /* \"#utility.yul\":9741:9742   */\n  dup4\n    /* \"#utility.yul\":9734:9743   */\n  iszero\n    /* \"#utility.yul\":9714:9797   */\n  or\n    /* \"#utility.yul\":9691:9830   */\n  tag_185\n  jumpi\n    /* \"#utility.yul\":9810:9828   */\n  tag_186\n  tag_63\n  jump\t// in\ntag_186:\n    /* \"#utility.yul\":9691:9830   */\ntag_185:\n    /* \"#utility.yul\":9475:9837   */\n  pop\n    /* \"#utility.yul\":9427:9837   */\n  swap3\n  swap2\n  pop\n  pop\n  jump\t// out\n    /* \"#utility.yul\":9843:9969   */\ntag_68:\n    /* \"#utility.yul\":9880:9887   */\n  0x00\n    /* \"#utility.yul\":9920:9962   */\n  0xffffffffffffffffffffffffffffffffffffffff\n    /* \"#utility.yul\":9913:9918   */\n  dup3\n    /* \"#utility.yul\":9909:9963   */\n  and\n    /* \"#utility.yul\":9898:9963   */\n  swap1\n  pop\n    /* \"#utility.yul\":9843:9969   */\n  swap2\n  swap1\n  pop\n  jump\t// out\n    /* \"#utility.yul\":9975:10071   */\ntag_69:\n    /* \"#utility.yul\":10012:10019   */\n  0x00\n    /* \"#utility.yul\":10041:10065   */\n  tag_189\n    /* \"#utility.yul\":10059:10064   */\n  dup3\n    /* \"#utility.yul\":10041:10065   */\n  tag_68\n  jump\t// in\ntag_189:\n    /* \"#utility.yul\":10030:10065   */\n  swap1\n  pop\n    /* \"#utility.yul\":9975:10071   */\n  swap2\n  swap1\n  pop\n  jump\t// out\n    /* \"#utility.yul\":10077:10195   */\ntag_70:\n    /* \"#utility.yul\":10164:10188   */\n  tag_191\n    /* \"#utility.yul\":10182:10187   */\n  dup2\n    /* \"#utility.yul\":10164:10188   */\n  tag_69\n  jump\t// in\ntag_191:\n    /* \"#utility.yul\":10159:10162   */\n  dup3\n    /* \"#utility.yul\":10152:10189   */\n  mstore\n    /* \"#utility.yul\":10077:10195   */\n  pop\n  pop\n  jump\t// out\n    /* \"#utility.yul\":10201:10423   */\ntag_23:\n    /* \"#utility.yul\":10294:10298   */\n  0x00\n    /* \"#utility.yul\":10332:10334   */\n  0x20\n    /* \"#utility.yul\":10321:10330   */\n  dup3\n    /* \"#utility.yul\":10317:10335   */\n  add\n    /* \"#utility.yul\":10309:10335   */\n  swap1\n  pop\n    /* \"#utility.yul\":10345:10416   */\n  tag_193\n    /* \"#utility.yul\":10413:10414   */\n  0x00\n    /* \"#utility.yul\":10402:10411   */\n  dup4\n    /* \"#utility.yul\":10398:10415   */\n  add\n    /* \"#utility.yul\":10389:10395   */\n  dup5\n    /* \"#utility.yul\":10345:10416   */\n  tag_70\n  jump\t// in\ntag_193:\n    /* \"#utility.yul\":10201:10423   */\n  swap3\n  swap2\n  pop\n  pop\n  jump\t// out\n    /* \"#utility.yul\":10429:10620   */\ntag_29:\n    /* \"#utility.yul\":10469:10472   */\n  0x00\n    /* \"#utility.yul\":10488:10508   */\n  tag_195\n    /* \"#utility.yul\":10506:10507   */\n  dup3\n    /* \"#utility.yul\":10488:10508   */\n  tag_41\n  jump\t// in\ntag_195:\n    /* \"#utility.yul\":10483:10508   */\n  swap2\n  pop\n    /* \"#utility.yul\":10522:10542   */\n  tag_196\n    /* \"#utility.yul\":10540:10541   */\n  dup4\n    /* \"#utility.yul\":10522:10542   */\n  tag_41\n  jump\t// in\ntag_196:\n    /* \"#utility.yul\":10517:10542   */\n  swap3\n  pop\n    /* \"#utility.yul\":10565:10566   */\n  dup3\n    /* \"#utility.yul\":10562:10563   */\n  dup3\n    /* \"#utility.yul\":10558:10567   */\n  add\n    /* \"#utility.yul\":10551:10567   */\n  swap1\n  pop\n    /* \"#utility.yul\":10586:10589   */\n  dup1\n    /* \"#utility.yul\":10583:10584   */\n  dup3\n    /* \"#utility.yul\":10580:10590   */\n  gt\n    /* \"#utility.yul\":10577:10613   */\n  iszero\n  tag_197\n  jumpi\n    /* \"#utility.yul\":10593:10611   */\n  tag_198\n  tag_63\n  jump\t// in\ntag_198:\n    /* \"#utility.yul\":10577:10613   */\ntag_197:\n    /* \"#utility.yul\":10429:10620   */\n  swap3\n  swap2\n  pop\n  pop\n  jump\t// out\n    /* \"#utility.yul\":10626:10744   */\ntag_71:\n    /* \"#utility.yul\":10713:10737   */\n  tag_200\n    /* \"#utility.yul\":10731:10736   */\n  dup2\n    /* \"#utility.yul\":10713:10737   */\n  tag_41\n  jump\t// in\ntag_200:\n    /* \"#utility.yul\":10708:10711   */\n  dup3\n    /* \"#utility.yul\":10701:10738   */\n  mstore\n    /* \"#utility.yul\":10626:10744   */\n  pop\n  pop\n  jump\t// out\n    /* \"#utility.yul\":10750:11192   */\ntag_33:\n    /* \"#utility.yul\":10899:10903   */\n  0x00\n    /* \"#utility.yul\":10937:10939   */\n  0x60\n    /* \"#utility.yul\":10926:10935   */\n  dup3\n    /* \"#utility.yul\":10922:10940   */\n  add\n    /* \"#utility.yul\":10914:10940   */\n  swap1\n  pop\n    /* \"#utility.yul\":10950:11021   */\n  tag_202\n    /* \"#utility.yul\":11018:11019   */\n  0x00\n    /* \"#utility.yul\":11007:11016   */\n  dup4\n    /* \"#utility.yul\":11003:11020   */\n  add\n    /* \"#utility.yul\":10994:11000   */\n  dup7\n    /* \"#utility.yul\":10950:11021   */\n  tag_70\n  jump\t// in\ntag_202:\n    /* \"#utility.yul\":11031:11103   */\n  tag_203\n    /* \"#utility.yul\":11099:11101   */\n  0x20\n    /* \"#utility.yul\":11088:11097   */\n  dup4\n    /* \"#utility.yul\":11084:11102   */\n  add\n    /* \"#utility.yul\":11075:11081   */\n  dup6\n    /* \"#utility.yul\":11031:11103   */\n  tag_71\n  jump\t// in\ntag_203:\n    /* \"#utility.yul\":11113:11185   */\n  tag_204\n    /* \"#utility.yul\":11181:11183   */\n  0x40\n    /* \"#utility.yul\":11170:11179   */\n  dup4\n    /* \"#utility.yul\":11166:11184   */\n  add\n    /* \"#utility.yul\":11157:11163   */\n  dup5\n    /* \"#utility.yul\":11113:11185   */\n  tag_71\n  jump\t// in\ntag_204:\n    /* \"#utility.yul\":10750:11192   */\n  swap5\n  swap4\n  pop\n  pop\n  pop\n  pop\n  jump\t// out\n    /* \"#utility.yul\":11198:11420   */\ntag_37:\n    /* \"#utility.yul\":11291:11295   */\n  0x00\n    /* \"#utility.yul\":11329:11331   */\n  0x20\n    /* \"#utility.yul\":11318:11327   */\n  dup3\n    /* \"#utility.yul\":11314:11332   */\n  add\n    /* \"#utility.yul\":11306:11332   */\n  swap1\n  pop\n    /* \"#utility.yul\":11342:11413   */\n  tag_206\n    /* \"#utility.yul\":11410:11411   */\n  0x00\n    /* \"#utility.yul\":11399:11408   */\n  dup4\n    /* \"#utility.yul\":11395:11412   */\n  add\n    /* \"#utility.yul\":11386:11392   */\n  dup5\n    /* \"#utility.yul\":11342:11413   */\n  tag_71\n  jump\t// in\ntag_206:\n    /* \"#utility.yul\":11198:11420   */\n  swap3\n  swap2\n  pop\n  pop\n  jump\t// out\n    /* \"aula.sol\":264:11591  contract DecentralizedFinance is ERC20 {... */\ntag_18:\n  dataSize(sub_0)\n  dup1\n  dataOffset(sub_0)\n  0x00\n  codecopy\n  0x00\n  return\nstop\n\nsub_0: assembly {\n        /* \"aula.sol\":264:11591  contract DecentralizedFinance is ERC20 {... */\n      mstore(0x40, 0x80)\n      jumpi(tag_1, lt(calldatasize, 0x04))\n      shr(0xe0, calldataload(0x00))\n      dup1\n      0x7e893dfe\n      gt\n      tag_28\n      jumpi\n      dup1\n      0xc7c85baa\n      gt\n      tag_29\n      jumpi\n      dup1\n      0xe1ec3c68\n      gt\n      tag_30\n      jumpi\n      dup1\n      0xe1ec3c68\n      eq\n      tag_24\n      jumpi\n      dup1\n      0xed344f02\n      eq\n      tag_25\n      jumpi\n      dup1\n      0xf3c3c580\n      eq\n      tag_26\n      jumpi\n      dup1\n      0xf83e48cb\n      eq\n      tag_27\n      jumpi\n      jump(tag_2)\n    tag_30:\n      dup1\n      0xc7c85baa\n      eq\n      tag_21\n      jumpi\n      dup1\n      0xcc2e031c\n      eq\n      tag_22\n      jumpi\n      dup1\n      0xdd62ed3e\n      eq\n      tag_23\n      jumpi\n      jump(tag_2)\n    tag_29:\n      dup1\n      0x7e893dfe\n      eq\n      tag_15\n      jumpi\n      dup1\n      0x7fb9fe3d\n      eq\n      tag_16\n      jumpi\n      dup1\n      0x8da5cb5b\n      eq\n      tag_17\n      jumpi\n      dup1\n      0x95d89b41\n      eq\n      tag_18\n      jumpi\n      dup1\n      0xa4be77ee\n      eq\n      tag_19\n      jumpi\n      dup1\n      0xa9059cbb\n      eq\n      tag_20\n      jumpi\n      jump(tag_2)\n    tag_28:\n      dup1\n      0x34d9289e\n      gt\n      tag_31\n      jumpi\n      dup1\n      0x34d9289e\n      eq\n      tag_9\n      jumpi\n      dup1\n      0x430f4801\n      eq\n      tag_10\n      jumpi\n      dup1\n      0x5114cb52\n      eq\n      tag_11\n      jumpi\n      dup1\n      0x70a08231\n      eq\n      tag_12\n      jumpi\n      dup1\n      0x756c1741\n      eq\n      tag_13\n      jumpi\n      dup1\n      0x7c3a00fd\n      eq\n      tag_14\n      jumpi\n      jump(tag_2)\n    tag_31:\n      dup1\n      0x06fdde03\n      eq\n      tag_3\n      jumpi\n      dup1\n      0x095ea7b3\n      eq\n      tag_4\n      jumpi\n      dup1\n      0x12065fe0\n      eq\n      tag_5\n      jumpi\n      dup1\n      0x18160ddd\n      eq\n      tag_6\n      jumpi\n      dup1\n      0x23b872dd\n      eq\n      tag_7\n      jumpi\n      dup1\n      0x313ce567\n      eq\n      tag_8\n      jumpi\n      jump(tag_2)\n    tag_1:\n      jumpi(tag_2, calldatasize)\n      stop\n    tag_2:\n      revert(0x00, 0x00)\n        /* \"@openzeppelin/contracts/token/ERC20/ERC20.sol\":1760:1849  function name() public view virtual returns (string memory) {... */\n    tag_3:\n      callvalue\n      dup1\n      iszero\n      tag_34\n      jumpi\n      revert(0x00, 0x00)\n    tag_34:\n      pop\n      tag_35\n      tag_36\n      jump\t// in\n    tag_35:\n      mload(0x40)\n      tag_37\n      swap2\n      swap1\n      tag_38\n      jump\t// in\n    tag_37:\n      mload(0x40)\n      dup1\n      swap2\n      sub\n      swap1\n      return\n        /* \"@openzeppelin/contracts/token/ERC20/ERC20.sol\":3902:4088  function approve(address spender, uint256 value) public virtual returns (bool) {... */\n    tag_4:\n      callvalue\n      dup1\n      iszero\n      tag_39\n      jumpi\n      revert(0x00, 0x00)\n    tag_39:\n      pop\n      tag_40\n      0x04\n      dup1\n      calldatasize\n      sub\n      dup2\n      add\n      swap1\n      tag_41\n      swap2\n      swap1\n      tag_42\n      jump\t// in\n    tag_41:\n      tag_43\n      jump\t// in\n    tag_40:\n      mload(0x40)\n      tag_44\n      swap2\n      swap1\n      tag_45\n      jump\t// in\n    tag_44:\n      mload(0x40)\n      dup1\n      swap2\n      sub\n      swap1\n      return\n        /* \"aula.sol\":11184:11331  function getBalance() external view onlyOwner returns (uint256) {... */\n    tag_5:\n      callvalue\n      dup1\n      iszero\n      tag_46\n      jumpi\n      revert(0x00, 0x00)\n    tag_46:\n      pop\n      tag_47\n      tag_48\n      jump\t// in\n    tag_47:\n      mload(0x40)\n      tag_49\n      swap2\n      swap1\n      tag_50\n      jump\t// in\n    tag_49:\n      mload(0x40)\n      dup1\n      swap2\n      sub\n      swap1\n      return\n        /* \"@openzeppelin/contracts/token/ERC20/ERC20.sol\":2803:2900  function totalSupply() public view virtual returns (uint256) {... */\n    tag_6:\n      callvalue\n      dup1\n      iszero\n      tag_51\n      jumpi\n      revert(0x00, 0x00)\n    tag_51:\n      pop\n      tag_52\n      tag_53\n      jump\t// in\n    tag_52:\n      mload(0x40)\n      tag_54\n      swap2\n      swap1\n      tag_50\n      jump\t// in\n    tag_54:\n      mload(0x40)\n      dup1\n      swap2\n      sub\n      swap1\n      return\n        /* \"@openzeppelin/contracts/token/ERC20/ERC20.sol\":4680:4924  function transferFrom(address from, address to, uint256 value) public virtual returns (bool) {... */\n    tag_7:\n      callvalue\n      dup1\n      iszero\n      tag_55\n      jumpi\n      revert(0x00, 0x00)\n    tag_55:\n      pop\n      tag_56\n      0x04\n      dup1\n      calldatasize\n      sub\n      dup2\n      add\n      swap1\n      tag_57\n      swap2\n      swap1\n      tag_58\n      jump\t// in\n    tag_57:\n      tag_59\n      jump\t// in\n    tag_56:\n      mload(0x40)\n      tag_60\n      swap2\n      swap1\n      tag_45\n      jump\t// in\n    tag_60:\n      mload(0x40)\n      dup1\n      swap2\n      sub\n      swap1\n      return\n        /* \"@openzeppelin/contracts/token/ERC20/ERC20.sol\":2688:2770  function decimals() public view virtual returns (uint8) {... */\n    tag_8:\n      callvalue\n      dup1\n      iszero\n      tag_61\n      jumpi\n      revert(0x00, 0x00)\n    tag_61:\n      pop\n      tag_62\n      tag_63\n      jump\t// in\n    tag_62:\n      mload(0x40)\n      tag_64\n      swap2\n      swap1\n      tag_65\n      jump\t// in\n    tag_64:\n      mload(0x40)\n      dup1\n      swap2\n      sub\n      swap1\n      return\n        /* \"aula.sol\":422:448  uint256 public loanCounter */\n    tag_9:\n      callvalue\n      dup1\n      iszero\n      tag_66\n      jumpi\n      revert(0x00, 0x00)\n    tag_66:\n      pop\n      tag_67\n      tag_68\n      jump\t// in\n    tag_67:\n      mload(0x40)\n      tag_69\n      swap2\n      swap1\n      tag_50\n      jump\t// in\n    tag_69:\n      mload(0x40)\n      dup1\n      swap2\n      sub\n      swap1\n      return\n        /* \"aula.sol\":11403:11554  function getDexBalance() external view returns (uint256) {... */\n    tag_10:\n      callvalue\n      dup1\n      iszero\n      tag_70\n      jumpi\n      revert(0x00, 0x00)\n    tag_70:\n      pop\n      tag_71\n      tag_72\n      jump\t// in\n    tag_71:\n      mload(0x40)\n      tag_73\n      swap2\n      swap1\n      tag_50\n      jump\t// in\n    tag_73:\n      mload(0x40)\n      dup1\n      swap2\n      sub\n      swap1\n      return\n        /* \"aula.sol\":6617:8801  function makePayment(uint256 loanId) external payable {... */\n    tag_11:\n      tag_74\n      0x04\n      dup1\n      calldatasize\n      sub\n      dup2\n      add\n      swap1\n      tag_75\n      swap2\n      swap1\n      tag_76\n      jump\t// in\n    tag_75:\n      tag_77\n      jump\t// in\n    tag_74:\n      stop\n        /* \"@openzeppelin/contracts/token/ERC20/ERC20.sol\":2933:3049  function balanceOf(address account) public view virtual returns (uint256) {... */\n    tag_12:\n      callvalue\n      dup1\n      iszero\n      tag_78\n      jumpi\n      revert(0x00, 0x00)\n    tag_78:\n      pop\n      tag_79\n      0x04\n      dup1\n      calldatasize\n      sub\n      dup2\n      add\n      swap1\n      tag_80\n      swap2\n      swap1\n      tag_81\n      jump\t// in\n    tag_80:\n      tag_82\n      jump\t// in\n    tag_79:\n      mload(0x40)\n      tag_83\n      swap2\n      swap1\n      tag_50\n      jump\t// in\n    tag_83:\n      mload(0x40)\n      dup1\n      swap2\n      sub\n      swap1\n      return\n        /* \"aula.sol\":3430:4491  function sellDex(uint256 dexAmount) external {... */\n    tag_13:\n      callvalue\n      dup1\n      iszero\n      tag_84\n      jumpi\n      revert(0x00, 0x00)\n    tag_84:\n      pop\n      tag_85\n      0x04\n      dup1\n      calldatasize\n      sub\n      dup2\n      add\n      swap1\n      tag_86\n      swap2\n      swap1\n      tag_76\n      jump\t// in\n    tag_86:\n      tag_87\n      jump\t// in\n    tag_85:\n      stop\n        /* \"aula.sol\":704:731  uint256 public interestRate */\n    tag_14:\n      callvalue\n      dup1\n      iszero\n      tag_88\n      jumpi\n      revert(0x00, 0x00)\n    tag_88:\n      pop\n      tag_89\n      tag_90\n      jump\t// in\n    tag_89:\n      mload(0x40)\n      tag_91\n      swap2\n      swap1\n      tag_50\n      jump\t// in\n    tag_91:\n      mload(0x40)\n      dup1\n      swap2\n      sub\n      swap1\n      return\n        /* \"aula.sol\":565:591  uint256 public dexSwapRate */\n    tag_15:\n      callvalue\n      dup1\n      iszero\n      tag_92\n      jumpi\n      revert(0x00, 0x00)\n    tag_92:\n      pop\n      tag_93\n      tag_94\n      jump\t// in\n    tag_93:\n      mload(0x40)\n      tag_95\n      swap2\n      swap1\n      tag_50\n      jump\t// in\n    tag_95:\n      mload(0x40)\n      dup1\n      swap2\n      sub\n      swap1\n      return\n        /* \"aula.sol\":8807:10258  function terminateLoan(uint256 loanId) external payable {... */\n    tag_16:\n      tag_96\n      0x04\n      dup1\n      calldatasize\n      sub\n      dup2\n      add\n      swap1\n      tag_97\n      swap2\n      swap1\n      tag_76\n      jump\t// in\n    tag_97:\n      tag_98\n      jump\t// in\n    tag_96:\n      stop\n        /* \"aula.sol\":361:381  address public owner */\n    tag_17:\n      callvalue\n      dup1\n      iszero\n      tag_99\n      jumpi\n      revert(0x00, 0x00)\n    tag_99:\n      pop\n      tag_100\n      tag_101\n      jump\t// in\n    tag_100:\n      mload(0x40)\n      tag_102\n      swap2\n      swap1\n      tag_103\n      jump\t// in\n    tag_102:\n      mload(0x40)\n      dup1\n      swap2\n      sub\n      swap1\n      return\n        /* \"@openzeppelin/contracts/token/ERC20/ERC20.sol\":1962:2055  function symbol() public view virtual returns (string memory) {... */\n    tag_18:\n      callvalue\n      dup1\n      iszero\n      tag_104\n      jumpi\n      revert(0x00, 0x00)\n    tag_104:\n      pop\n      tag_105\n      tag_106\n      jump\t// in\n    tag_105:\n      mload(0x40)\n      tag_107\n      swap2\n      swap1\n      tag_38\n      jump\t// in\n    tag_107:\n      mload(0x40)\n      dup1\n      swap2\n      sub\n      swap1\n      return\n        /* \"aula.sol\":853:883  uint256 public maxLoanDuration */\n    tag_19:\n      callvalue\n      dup1\n      iszero\n      tag_108\n      jumpi\n      revert(0x00, 0x00)\n    tag_108:\n      pop\n      tag_109\n      tag_110\n      jump\t// in\n    tag_109:\n      mload(0x40)\n      tag_111\n      swap2\n      swap1\n      tag_50\n      jump\t// in\n    tag_111:\n      mload(0x40)\n      dup1\n      swap2\n      sub\n      swap1\n      return\n        /* \"@openzeppelin/contracts/token/ERC20/ERC20.sol\":3244:3422  function transfer(address to, uint256 value) public virtual returns (bool) {... */\n    tag_20:\n      callvalue\n      dup1\n      iszero\n      tag_112\n      jumpi\n      revert(0x00, 0x00)\n    tag_112:\n      pop\n      tag_113\n      0x04\n      dup1\n      calldatasize\n      sub\n      dup2\n      add\n      swap1\n      tag_114\n      swap2\n      swap1\n      tag_42\n      jump\t// in\n    tag_114:\n      tag_115\n      jump\t// in\n    tag_113:\n      mload(0x40)\n      tag_116\n      swap2\n      swap1\n      tag_45\n      jump\t// in\n    tag_116:\n      mload(0x40)\n      dup1\n      swap2\n      sub\n      swap1\n      return\n        /* \"aula.sol\":769:798  uint256 public terminationFee */\n    tag_21:\n      callvalue\n      dup1\n      iszero\n      tag_117\n      jumpi\n      revert(0x00, 0x00)\n    tag_117:\n      pop\n      tag_118\n      tag_119\n      jump\t// in\n    tag_118:\n      mload(0x40)\n      tag_120\n      swap2\n      swap1\n      tag_50\n      jump\t// in\n    tag_120:\n      mload(0x40)\n      dup1\n      swap2\n      sub\n      swap1\n      return\n        /* \"aula.sol\":623:650  uint256 public paymentCycle */\n    tag_22:\n      callvalue\n      dup1\n      iszero\n      tag_121\n      jumpi\n      revert(0x00, 0x00)\n    tag_121:\n      pop\n      tag_122\n      tag_123\n      jump\t// in\n    tag_122:\n      mload(0x40)\n      tag_124\n      swap2\n      swap1\n      tag_50\n      jump\t// in\n    tag_124:\n      mload(0x40)\n      dup1\n      swap2\n      sub\n      swap1\n      return\n        /* \"@openzeppelin/contracts/token/ERC20/ERC20.sol\":3455:3595  function allowance(address owner, address spender) public view virtual returns (uint256) {... */\n    tag_23:\n      callvalue\n      dup1\n      iszero\n      tag_125\n      jumpi\n      revert(0x00, 0x00)\n    tag_125:\n      pop\n      tag_126\n      0x04\n      dup1\n      calldatasize\n      sub\n      dup2\n      add\n      swap1\n      tag_127\n      swap2\n      swap1\n      tag_128\n      jump\t// in\n    tag_127:\n      tag_129\n      jump\t// in\n    tag_126:\n      mload(0x40)\n      tag_130\n      swap2\n      swap1\n      tag_50\n      jump\t// in\n    tag_130:\n      mload(0x40)\n      dup1\n      swap2\n      sub\n      swap1\n      return\n        /* \"aula.sol\":1666:1703  mapping(uint256 => Loan) public loans */\n    tag_24:\n      callvalue\n      dup1\n      iszero\n      tag_131\n      jumpi\n      revert(0x00, 0x00)\n    tag_131:\n      pop\n      tag_132\n      0x04\n      dup1\n      calldatasize\n      sub\n      dup2\n      add\n      swap1\n      tag_133\n      swap2\n      swap1\n      tag_76\n      jump\t// in\n    tag_133:\n      tag_134\n      jump\t// in\n    tag_132:\n      mload(0x40)\n      tag_135\n      swap8\n      swap7\n      swap6\n      swap5\n      swap4\n      swap3\n      swap2\n      swap1\n      tag_136\n      jump\t// in\n    tag_135:\n      mload(0x40)\n      dup1\n      swap2\n      sub\n      swap1\n      return\n        /* \"aula.sol\":10321:11065  function checkLoan(uint256 loanId) external onlyOwner {... */\n    tag_25:\n      callvalue\n      dup1\n      iszero\n      tag_137\n      jumpi\n      revert(0x00, 0x00)\n    tag_137:\n      pop\n      tag_138\n      0x04\n      dup1\n      calldatasize\n      sub\n      dup2\n      add\n      swap1\n      tag_139\n      swap2\n      swap1\n      tag_76\n      jump\t// in\n    tag_139:\n      tag_140\n      jump\t// in\n    tag_138:\n      stop\n        /* \"aula.sol\":2761:3424  function buyDex() external payable {... */\n    tag_26:\n      tag_141\n      tag_142\n      jump\t// in\n    tag_141:\n      stop\n        /* \"aula.sol\":4497:6611  function loan(uint256 dexAmount, uint256 deadline) external returns (uint256) {... */\n    tag_27:\n      callvalue\n      dup1\n      iszero\n      tag_143\n      jumpi\n      revert(0x00, 0x00)\n    tag_143:\n      pop\n      tag_144\n      0x04\n      dup1\n      calldatasize\n      sub\n      dup2\n      add\n      swap1\n      tag_145\n      swap2\n      swap1\n      tag_146\n      jump\t// in\n    tag_145:\n      tag_147\n      jump\t// in\n    tag_144:\n      mload(0x40)\n      tag_148\n      swap2\n      swap1\n      tag_50\n      jump\t// in\n    tag_148:\n      mload(0x40)\n      dup1\n      swap2\n      sub\n      swap1\n      return\n        /* \"@openzeppelin/contracts/token/ERC20/ERC20.sol\":1760:1849  function name() public view virtual returns (string memory) {... */\n    tag_36:\n        /* \"@openzeppelin/contracts/token/ERC20/ERC20.sol\":1805:1818  string memory */\n      0x60\n        /* \"@openzeppelin/contracts/token/ERC20/ERC20.sol\":1837:1842  _name */\n      0x03\n        /* \"@openzeppelin/contracts/token/ERC20/ERC20.sol\":1830:1842  return _name */\n      dup1\n      sload\n      tag_150\n      swap1\n      tag_151\n      jump\t// in\n    tag_150:\n      dup1\n      0x1f\n      add\n      0x20\n      dup1\n      swap2\n      div\n      mul\n      0x20\n      add\n      mload(0x40)\n      swap1\n      dup2\n      add\n      0x40\n      mstore\n      dup1\n      swap3\n      swap2\n      swap1\n      dup2\n      dup2\n      mstore\n      0x20\n      add\n      dup3\n      dup1\n      sload\n      tag_152\n      swap1\n      tag_151\n      jump\t// in\n    tag_152:\n      dup1\n      iszero\n      tag_153\n      jumpi\n      dup1\n      0x1f\n      lt\n      tag_154\n      jumpi\n      0x0100\n      dup1\n      dup4\n      sload\n      div\n      mul\n      dup4\n      mstore\n      swap2\n      0x20\n      add\n      swap2\n      jump(tag_153)\n    tag_154:\n      dup3\n      add\n      swap2\n      swap1\n      0x00\n      mstore\n      keccak256(0x00, 0x20)\n      swap1\n    tag_155:\n      dup2\n      sload\n      dup2\n      mstore\n      swap1\n      0x01\n      add\n      swap1\n      0x20\n      add\n      dup1\n      dup4\n      gt\n      tag_155\n      jumpi\n      dup3\n      swap1\n      sub\n      0x1f\n      and\n      dup3\n      add\n      swap2\n    tag_153:\n      pop\n      pop\n      pop\n      pop\n      pop\n      swap1\n      pop\n        /* \"@openzeppelin/contracts/token/ERC20/ERC20.sol\":1760:1849  function name() public view virtual returns (string memory) {... */\n      swap1\n      jump\t// out\n        /* \"@openzeppelin/contracts/token/ERC20/ERC20.sol\":3902:4088  function approve(address spender, uint256 value) public virtual returns (bool) {... */\n    tag_43:\n        /* \"@openzeppelin/contracts/token/ERC20/ERC20.sol\":3975:3979  bool */\n      0x00\n        /* \"@openzeppelin/contracts/token/ERC20/ERC20.sol\":3991:4004  address owner */\n      0x00\n        /* \"@openzeppelin/contracts/token/ERC20/ERC20.sol\":4007:4019  _msgSender() */\n      tag_157\n        /* \"@openzeppelin/contracts/token/ERC20/ERC20.sol\":4007:4017  _msgSender */\n      tag_158\n        /* \"@openzeppelin/contracts/token/ERC20/ERC20.sol\":4007:4019  _msgSender() */\n      jump\t// in\n    tag_157:\n        /* \"@openzeppelin/contracts/token/ERC20/ERC20.sol\":3991:4019  address owner = _msgSender() */\n      swap1\n      pop\n        /* \"@openzeppelin/contracts/token/ERC20/ERC20.sol\":4029:4060  _approve(owner, spender, value) */\n      tag_159\n        /* \"@openzeppelin/contracts/token/ERC20/ERC20.sol\":4038:4043  owner */\n      dup2\n        /* \"@openzeppelin/contracts/token/ERC20/ERC20.sol\":4045:4052  spender */\n      dup6\n        /* \"@openzeppelin/contracts/token/ERC20/ERC20.sol\":4054:4059  value */\n      dup6\n        /* \"@openzeppelin/contracts/token/ERC20/ERC20.sol\":4029:4037  _approve */\n      tag_160\n        /* \"@openzeppelin/contracts/token/ERC20/ERC20.sol\":4029:4060  _approve(owner, spender, value) */\n      jump\t// in\n    tag_159:\n        /* \"@openzeppelin/contracts/token/ERC20/ERC20.sol\":4077:4081  true */\n      0x01\n        /* \"@openzeppelin/contracts/token/ERC20/ERC20.sol\":4070:4081  return true */\n      swap2\n      pop\n      pop\n        /* \"@openzeppelin/contracts/token/ERC20/ERC20.sol\":3902:4088  function approve(address spender, uint256 value) public virtual returns (bool) {... */\n      swap3\n      swap2\n      pop\n      pop\n      jump\t// out\n        /* \"aula.sol\":11184:11331  function getBalance() external view onlyOwner returns (uint256) {... */\n    tag_48:\n        /* \"aula.sol\":11239:11246  uint256 */\n      0x00\n        /* \"aula.sol\":1922:1927  owner */\n      0x05\n      0x00\n      swap1\n      sload\n      swap1\n      0x0100\n      exp\n      swap1\n      div\n      0xffffffffffffffffffffffffffffffffffffffff\n      and\n        /* \"aula.sol\":1908:1927  msg.sender == owner */\n      0xffffffffffffffffffffffffffffffffffffffff\n      and\n        /* \"aula.sol\":1908:1918  msg.sender */\n      caller\n        /* \"aula.sol\":1908:1927  msg.sender == owner */\n      0xffffffffffffffffffffffffffffffffffffffff\n      and\n      eq\n        /* \"aula.sol\":1900:1965  require(msg.sender == owner, \"Only owner can call this function\") */\n      tag_162\n      jumpi\n      mload(0x40)\n      0x08c379a000000000000000000000000000000000000000000000000000000000\n      dup2\n      mstore\n      0x04\n      add\n      tag_163\n      swap1\n      tag_164\n      jump\t// in\n    tag_163:\n      mload(0x40)\n      dup1\n      swap2\n      sub\n      swap1\n      revert\n    tag_162:\n        /* \"aula.sol\":11265:11286  address(this).balance */\n      selfbalance\n        /* \"aula.sol\":11258:11286  return address(this).balance */\n      swap1\n      pop\n        /* \"aula.sol\":11184:11331  function getBalance() external view onlyOwner returns (uint256) {... */\n      swap1\n      jump\t// out\n        /* \"@openzeppelin/contracts/token/ERC20/ERC20.sol\":2803:2900  function totalSupply() public view virtual returns (uint256) {... */\n    tag_53:\n        /* \"@openzeppelin/contracts/token/ERC20/ERC20.sol\":2855:2862  uint256 */\n      0x00\n        /* \"@openzeppelin/contracts/token/ERC20/ERC20.sol\":2881:2893  _totalSupply */\n      sload(0x02)\n        /* \"@openzeppelin/contracts/token/ERC20/ERC20.sol\":2874:2893  return _totalSupply */\n      swap1\n      pop\n        /* \"@openzeppelin/contracts/token/ERC20/ERC20.sol\":2803:2900  function totalSupply() public view virtual returns (uint256) {... */\n      swap1\n      jump\t// out\n        /* \"@openzeppelin/contracts/token/ERC20/ERC20.sol\":4680:4924  function transferFrom(address from, address to, uint256 value) public virtual returns (bool) {... */\n    tag_59:\n        /* \"@openzeppelin/contracts/token/ERC20/ERC20.sol\":4767:4771  bool */\n      0x00\n        /* \"@openzeppelin/contracts/token/ERC20/ERC20.sol\":4783:4798  address spender */\n      0x00\n        /* \"@openzeppelin/contracts/token/ERC20/ERC20.sol\":4801:4813  _msgSender() */\n      tag_168\n        /* \"@openzeppelin/contracts/token/ERC20/ERC20.sol\":4801:4811  _msgSender */\n      tag_158\n        /* \"@openzeppelin/contracts/token/ERC20/ERC20.sol\":4801:4813  _msgSender() */\n      jump\t// in\n    tag_168:\n        /* \"@openzeppelin/contracts/token/ERC20/ERC20.sol\":4783:4813  address spender = _msgSender() */\n      swap1\n      pop\n        /* \"@openzeppelin/contracts/token/ERC20/ERC20.sol\":4823:4860  _spendAllowance(from, spender, value) */\n      tag_169\n        /* \"@openzeppelin/contracts/token/ERC20/ERC20.sol\":4839:4843  from */\n      dup6\n        /* \"@openzeppelin/contracts/token/ERC20/ERC20.sol\":4845:4852  spender */\n      dup3\n        /* \"@openzeppelin/contracts/token/ERC20/ERC20.sol\":4854:4859  value */\n      dup6\n        /* \"@openzeppelin/contracts/token/ERC20/ERC20.sol\":4823:4838  _spendAllowance */\n      tag_170\n        /* \"@openzeppelin/contracts/token/ERC20/ERC20.sol\":4823:4860  _spendAllowance(from, spender, value) */\n      jump\t// in\n    tag_169:\n        /* \"@openzeppelin/contracts/token/ERC20/ERC20.sol\":4870:4896  _transfer(from, to, value) */\n      tag_171\n        /* \"@openzeppelin/contracts/token/ERC20/ERC20.sol\":4880:4884  from */\n      dup6\n        /* \"@openzeppelin/contracts/token/ERC20/ERC20.sol\":4886:4888  to */\n      dup6\n        /* \"@openzeppelin/contracts/token/ERC20/ERC20.sol\":4890:4895  value */\n      dup6\n        /* \"@openzeppelin/contracts/token/ERC20/ERC20.sol\":4870:4879  _transfer */\n      tag_172\n        /* \"@openzeppelin/contracts/token/ERC20/ERC20.sol\":4870:4896  _transfer(from, to, value) */\n      jump\t// in\n    tag_171:\n        /* \"@openzeppelin/contracts/token/ERC20/ERC20.sol\":4913:4917  true */\n      0x01\n        /* \"@openzeppelin/contracts/token/ERC20/ERC20.sol\":4906:4917  return true */\n      swap2\n      pop\n      pop\n        /* \"@openzeppelin/contracts/token/ERC20/ERC20.sol\":4680:4924  function transferFrom(address from, address to, uint256 value) public virtual returns (bool) {... */\n      swap4\n      swap3\n      pop\n      pop\n      pop\n      jump\t// out\n        /* \"@openzeppelin/contracts/token/ERC20/ERC20.sol\":2688:2770  function decimals() public view virtual returns (uint8) {... */\n    tag_63:\n        /* \"@openzeppelin/contracts/token/ERC20/ERC20.sol\":2737:2742  uint8 */\n      0x00\n        /* \"@openzeppelin/contracts/token/ERC20/ERC20.sol\":2761:2763  18 */\n      0x12\n        /* \"@openzeppelin/contracts/token/ERC20/ERC20.sol\":2754:2763  return 18 */\n      swap1\n      pop\n        /* \"@openzeppelin/contracts/token/ERC20/ERC20.sol\":2688:2770  function decimals() public view virtual returns (uint8) {... */\n      swap1\n      jump\t// out\n        /* \"aula.sol\":422:448  uint256 public loanCounter */\n    tag_68:\n      sload(0x06)\n      dup2\n      jump\t// out\n        /* \"aula.sol\":11403:11554  function getDexBalance() external view returns (uint256) {... */\n    tag_72:\n        /* \"aula.sol\":11451:11458  uint256 */\n      0x00\n        /* \"aula.sol\":11477:11498  balanceOf(msg.sender) */\n      tag_175\n        /* \"aula.sol\":11487:11497  msg.sender */\n      caller\n        /* \"aula.sol\":11477:11486  balanceOf */\n      tag_82\n        /* \"aula.sol\":11477:11498  balanceOf(msg.sender) */\n      jump\t// in\n    tag_175:\n        /* \"aula.sol\":11470:11498  return balanceOf(msg.sender) */\n      swap1\n      pop\n        /* \"aula.sol\":11403:11554  function getDexBalance() external view returns (uint256) {... */\n      swap1\n      jump\t// out\n        /* \"aula.sol\":6617:8801  function makePayment(uint256 loanId) external payable {... */\n    tag_77:\n        /* \"aula.sol\":6777:6801  Loan storage currentLoan */\n      0x00\n        /* \"aula.sol\":6804:6809  loans */\n      0x0c\n        /* \"aula.sol\":6804:6817  loans[loanId] */\n      0x00\n        /* \"aula.sol\":6810:6816  loanId */\n      dup4\n        /* \"aula.sol\":6804:6817  loans[loanId] */\n      dup2\n      mstore\n      0x20\n      add\n      swap1\n      dup2\n      mstore\n      0x20\n      add\n      0x00\n      keccak256\n        /* \"aula.sol\":6777:6817  Loan storage currentLoan = loans[loanId] */\n      swap1\n      pop\n        /* \"aula.sol\":6877:6888  currentLoan */\n      dup1\n        /* \"aula.sol\":6877:6895  currentLoan.active */\n      0x06\n      add\n      0x00\n      swap1\n      sload\n      swap1\n      0x0100\n      exp\n      swap1\n      div\n      0xff\n      and\n        /* \"aula.sol\":6869:6944  require(currentLoan.active, \"O emprestimo nao existe ou ja foi encerrado.\") */\n      tag_177\n      jumpi\n      mload(0x40)\n      0x08c379a000000000000000000000000000000000000000000000000000000000\n      dup2\n      mstore\n      0x04\n      add\n      tag_178\n      swap1\n      tag_179\n      jump\t// in\n    tag_178:\n      mload(0x40)\n      dup1\n      swap2\n      sub\n      swap1\n      revert\n    tag_177:\n        /* \"aula.sol\":6976:6987  currentLoan */\n      dup1\n        /* \"aula.sol\":6976:6996  currentLoan.borrower */\n      0x00\n      add\n      0x00\n      swap1\n      sload\n      swap1\n      0x0100\n      exp\n      swap1\n      div\n      0xffffffffffffffffffffffffffffffffffffffff\n      and\n        /* \"aula.sol\":6962:6996  msg.sender == currentLoan.borrower */\n      0xffffffffffffffffffffffffffffffffffffffff\n      and\n        /* \"aula.sol\":6962:6972  msg.sender */\n      caller\n        /* \"aula.sol\":6962:6996  msg.sender == currentLoan.borrower */\n      0xffffffffffffffffffffffffffffffffffffffff\n      and\n      eq\n        /* \"aula.sol\":6954:7055  require(msg.sender == currentLoan.borrower, \"Apenas o titular do emprestimo pode fazer o pagamento.\") */\n      tag_180\n      jumpi\n      mload(0x40)\n      0x08c379a000000000000000000000000000000000000000000000000000000000\n      dup2\n      mstore\n      0x04\n      add\n      tag_181\n      swap1\n      tag_182\n      jump\t// in\n    tag_181:\n      mload(0x40)\n      dup1\n      swap2\n      sub\n      swap1\n      revert\n    tag_180:\n        /* \"aula.sol\":7092:7103  currentLoan */\n      dup1\n        /* \"aula.sol\":7092:7118  currentLoan.nextPaymentDue */\n      0x04\n      add\n      sload\n        /* \"aula.sol\":7073:7088  block.timestamp */\n      timestamp\n        /* \"aula.sol\":7073:7118  block.timestamp <= currentLoan.nextPaymentDue */\n      gt\n      iszero\n        /* \"aula.sol\":7065:7164  require(block.timestamp <= currentLoan.nextPaymentDue, \"O prazo expirou. O colateral foi perdido.\") */\n      tag_183\n      jumpi\n      mload(0x40)\n      0x08c379a000000000000000000000000000000000000000000000000000000000\n      dup2\n      mstore\n      0x04\n      add\n      tag_184\n      swap1\n      tag_185\n      jump\t// in\n    tag_184:\n      mload(0x40)\n      dup1\n      swap2\n      sub\n      swap1\n      revert\n    tag_183:\n        /* \"aula.sol\":7389:7409  uint256 cyclePayment */\n      0x00\n        /* \"aula.sol\":7457:7468  currentLoan */\n      dup2\n        /* \"aula.sol\":7457:7477  currentLoan.deadline */\n      0x03\n      add\n      sload\n        /* \"aula.sol\":7451:7454  100 */\n      0x64\n        /* \"aula.sol\":7451:7477  100 * currentLoan.deadline */\n      tag_186\n      swap2\n      swap1\n      tag_187\n      jump\t// in\n    tag_186:\n        /* \"aula.sol\":7434:7446  interestRate */\n      sload(0x09)\n        /* \"aula.sol\":7413:7424  currentLoan */\n      dup4\n        /* \"aula.sol\":7413:7431  currentLoan.amount */\n      0x02\n      add\n      sload\n        /* \"aula.sol\":7413:7446  currentLoan.amount * interestRate */\n      tag_188\n      swap2\n      swap1\n      tag_187\n      jump\t// in\n    tag_188:\n        /* \"aula.sol\":7412:7478  (currentLoan.amount * interestRate) / (100 * currentLoan.deadline) */\n      tag_189\n      swap2\n      swap1\n      tag_190\n      jump\t// in\n    tag_189:\n        /* \"aula.sol\":7389:7478  uint256 cyclePayment = (currentLoan.amount * interestRate) / (100 * currentLoan.deadline) */\n      swap1\n      pop\n        /* \"aula.sol\":7497:7515  uint256 totalToPay */\n      0x00\n        /* \"aula.sol\":7518:7530  cyclePayment */\n      dup2\n        /* \"aula.sol\":7497:7530  uint256 totalToPay = cyclePayment */\n      swap1\n      pop\n        /* \"aula.sol\":7695:7713  bool isLastPayment */\n      0x00\n        /* \"aula.sol\":7767:7768  1 */\n      0x01\n        /* \"aula.sol\":7744:7755  currentLoan */\n      dup5\n        /* \"aula.sol\":7744:7764  currentLoan.deadline */\n      0x03\n      add\n      sload\n        /* \"aula.sol\":7744:7768  currentLoan.deadline - 1 */\n      tag_191\n      swap2\n      swap1\n      tag_192\n      jump\t// in\n    tag_191:\n        /* \"aula.sol\":7717:7728  currentLoan */\n      dup5\n        /* \"aula.sol\":7717:7740  currentLoan.periodsPaid */\n      0x05\n      add\n      sload\n        /* \"aula.sol\":7717:7768  currentLoan.periodsPaid == currentLoan.deadline - 1 */\n      eq\n        /* \"aula.sol\":7695:7769  bool isLastPayment = (currentLoan.periodsPaid == currentLoan.deadline - 1) */\n      swap1\n      pop\n        /* \"aula.sol\":7784:7797  isLastPayment */\n      dup1\n        /* \"aula.sol\":7780:7955  if (isLastPayment) {... */\n      iszero\n      tag_193\n      jumpi\n        /* \"aula.sol\":7926:7937  currentLoan */\n      dup4\n        /* \"aula.sol\":7926:7944  currentLoan.amount */\n      0x02\n      add\n      sload\n        /* \"aula.sol\":7912:7944  totalToPay += currentLoan.amount */\n      dup3\n      tag_194\n      swap2\n      swap1\n      tag_195\n      jump\t// in\n    tag_194:\n      swap2\n      pop\n        /* \"aula.sol\":7780:7955  if (isLastPayment) {... */\n    tag_193:\n        /* \"aula.sol\":8065:8075  totalToPay */\n      dup2\n        /* \"aula.sol\":8052:8061  msg.value */\n      callvalue\n        /* \"aula.sol\":8052:8075  msg.value == totalToPay */\n      eq\n        /* \"aula.sol\":8044:8147  require(msg.value == totalToPay, \"O valor enviado em ETH nao corresponde ao valor da prestacao atual.\") */\n      tag_196\n      jumpi\n      mload(0x40)\n      0x08c379a000000000000000000000000000000000000000000000000000000000\n      dup2\n      mstore\n      0x04\n      add\n      tag_197\n      swap1\n      tag_198\n      jump\t// in\n    tag_197:\n      mload(0x40)\n      dup1\n      swap2\n      sub\n      swap1\n      revert\n    tag_196:\n        /* \"aula.sol\":8233:8234  1 */\n      0x01\n        /* \"aula.sol\":8206:8217  currentLoan */\n      dup5\n        /* \"aula.sol\":8206:8229  currentLoan.periodsPaid */\n      0x05\n      add\n      0x00\n        /* \"aula.sol\":8206:8234  currentLoan.periodsPaid += 1 */\n      dup3\n      dup3\n      sload\n      tag_199\n      swap2\n      swap1\n      tag_195\n      jump\t// in\n    tag_199:\n      swap3\n      pop\n      pop\n      dup2\n      swap1\n      sstore\n      pop\n        /* \"aula.sol\":8274:8286  paymentCycle */\n      sload(0x08)\n        /* \"aula.sol\":8244:8255  currentLoan */\n      dup5\n        /* \"aula.sol\":8244:8270  currentLoan.nextPaymentDue */\n      0x04\n      add\n      0x00\n        /* \"aula.sol\":8244:8286  currentLoan.nextPaymentDue += paymentCycle */\n      dup3\n      dup3\n      sload\n      tag_200\n      swap2\n      swap1\n      tag_195\n      jump\t// in\n    tag_200:\n      swap3\n      pop\n      pop\n      dup2\n      swap1\n      sstore\n      pop\n        /* \"aula.sol\":8413:8426  isLastPayment */\n      dup1\n        /* \"aula.sol\":8409:8795  if (isLastPayment) {... */\n      iszero\n      tag_201\n      jumpi\n        /* \"aula.sol\":8463:8468  false */\n      0x00\n        /* \"aula.sol\":8442:8453  currentLoan */\n      dup5\n        /* \"aula.sol\":8442:8460  currentLoan.active */\n      0x06\n      add\n      0x00\n        /* \"aula.sol\":8442:8468  currentLoan.active = false */\n      0x0100\n      exp\n      dup2\n      sload\n      dup2\n      0xff\n      mul\n      not\n      and\n      swap1\n      dup4\n      iszero\n      iszero\n      mul\n      or\n      swap1\n      sstore\n      pop\n        /* \"aula.sol\":8576:8646  _transfer(address(this), currentLoan.borrower, currentLoan.collateral) */\n      tag_202\n        /* \"aula.sol\":8594:8598  this */\n      address\n        /* \"aula.sol\":8601:8612  currentLoan */\n      dup6\n        /* \"aula.sol\":8601:8621  currentLoan.borrower */\n      0x00\n      add\n      0x00\n      swap1\n      sload\n      swap1\n      0x0100\n      exp\n      swap1\n      div\n      0xffffffffffffffffffffffffffffffffffffffff\n      and\n        /* \"aula.sol\":8623:8634  currentLoan */\n      dup7\n        /* \"aula.sol\":8623:8645  currentLoan.collateral */\n      0x01\n      add\n      sload\n        /* \"aula.sol\":8576:8585  _transfer */\n      tag_172\n        /* \"aula.sol\":8576:8646  _transfer(address(this), currentLoan.borrower, currentLoan.collateral) */\n      jump\t// in\n    tag_202:\n        /* \"aula.sol\":8730:8784  loanFinished(currentLoan.borrower, currentLoan.amount) */\n      0xeb217655b842cfbf3105dda6e9fb8b92ff7f87ade2536d2ee25a304c79d4448a\n        /* \"aula.sol\":8743:8754  currentLoan */\n      dup5\n        /* \"aula.sol\":8743:8763  currentLoan.borrower */\n      0x00\n      add\n      0x00\n      swap1\n      sload\n      swap1\n      0x0100\n      exp\n      swap1\n      div\n      0xffffffffffffffffffffffffffffffffffffffff\n      and\n        /* \"aula.sol\":8765:8776  currentLoan */\n      dup6\n        /* \"aula.sol\":8765:8783  currentLoan.amount */\n      0x02\n      add\n      sload\n        /* \"aula.sol\":8730:8784  loanFinished(currentLoan.borrower, currentLoan.amount) */\n      mload(0x40)\n      tag_203\n      swap3\n      swap2\n      swap1\n      tag_204\n      jump\t// in\n    tag_203:\n      mload(0x40)\n      dup1\n      swap2\n      sub\n      swap1\n      log1\n        /* \"aula.sol\":8409:8795  if (isLastPayment) {... */\n    tag_201:\n        /* \"aula.sol\":6671:8801  {... */\n      pop\n      pop\n      pop\n      pop\n        /* \"aula.sol\":6617:8801  function makePayment(uint256 loanId) external payable {... */\n      pop\n      jump\t// out\n        /* \"@openzeppelin/contracts/token/ERC20/ERC20.sol\":2933:3049  function balanceOf(address account) public view virtual returns (uint256) {... */\n    tag_82:\n        /* \"@openzeppelin/contracts/token/ERC20/ERC20.sol\":2998:3005  uint256 */\n      0x00\n        /* \"@openzeppelin/contracts/token/ERC20/ERC20.sol\":3024:3033  _balances */\n      0x00\n        /* \"@openzeppelin/contracts/token/ERC20/ERC20.sol\":3024:3042  _balances[account] */\n      0x00\n        /* \"@openzeppelin/contracts/token/ERC20/ERC20.sol\":3034:3041  account */\n      dup4\n        /* \"@openzeppelin/contracts/token/ERC20/ERC20.sol\":3024:3042  _balances[account] */\n      0xffffffffffffffffffffffffffffffffffffffff\n      and\n      0xffffffffffffffffffffffffffffffffffffffff\n      and\n      dup2\n      mstore\n      0x20\n      add\n      swap1\n      dup2\n      mstore\n      0x20\n      add\n      0x00\n      keccak256\n      sload\n        /* \"@openzeppelin/contracts/token/ERC20/ERC20.sol\":3017:3042  return _balances[account] */\n      swap1\n      pop\n        /* \"@openzeppelin/contracts/token/ERC20/ERC20.sol\":2933:3049  function balanceOf(address account) public view virtual returns (uint256) {... */\n      swap2\n      swap1\n      pop\n      jump\t// out\n        /* \"aula.sol\":3430:4491  function sellDex(uint256 dexAmount) external {... */\n    tag_87:\n        /* \"aula.sol\":3576:3577  0 */\n      0x00\n        /* \"aula.sol\":3564:3573  dexAmount */\n      dup2\n        /* \"aula.sol\":3564:3577  dexAmount > 0 */\n      gt\n        /* \"aula.sol\":3556:3628  require(dexAmount > 0, \"A quantidade de DEX tem de ser maior que zero.\") */\n      tag_207\n      jumpi\n      mload(0x40)\n      0x08c379a000000000000000000000000000000000000000000000000000000000\n      dup2\n      mstore\n      0x04\n      add\n      tag_208\n      swap1\n      tag_209\n      jump\t// in\n    tag_208:\n      mload(0x40)\n      dup1\n      swap2\n      sub\n      swap1\n      revert\n    tag_207:\n        /* \"aula.sol\":3753:3762  dexAmount */\n      dup1\n        /* \"aula.sol\":3728:3749  balanceOf(msg.sender) */\n      tag_210\n        /* \"aula.sol\":3738:3748  msg.sender */\n      caller\n        /* \"aula.sol\":3728:3737  balanceOf */\n      tag_82\n        /* \"aula.sol\":3728:3749  balanceOf(msg.sender) */\n      jump\t// in\n    tag_210:\n        /* \"aula.sol\":3728:3762  balanceOf(msg.sender) >= dexAmount */\n      lt\n      iszero\n        /* \"aula.sol\":3720:3793  require(balanceOf(msg.sender) >= dexAmount, \"Saldo de DEX insuficiente.\") */\n      tag_211\n      jumpi\n      mload(0x40)\n      0x08c379a000000000000000000000000000000000000000000000000000000000\n      dup2\n      mstore\n      0x04\n      add\n      tag_212\n      swap1\n      tag_213\n      jump\t// in\n    tag_212:\n      mload(0x40)\n      dup1\n      swap2\n      sub\n      swap1\n      revert\n    tag_211:\n        /* \"aula.sol\":3875:3892  uint256 ethAmount */\n      0x00\n        /* \"aula.sol\":3923:3929  10**18 */\n      0x0de0b6b3a7640000\n        /* \"aula.sol\":3908:3919  dexSwapRate */\n      sload(0x07)\n        /* \"aula.sol\":3896:3905  dexAmount */\n      dup4\n        /* \"aula.sol\":3896:3919  dexAmount * dexSwapRate */\n      tag_214\n      swap2\n      swap1\n      tag_187\n      jump\t// in\n    tag_214:\n        /* \"aula.sol\":3895:3929  (dexAmount * dexSwapRate) / 10**18 */\n      tag_215\n      swap2\n      swap1\n      tag_190\n      jump\t// in\n    tag_215:\n        /* \"aula.sol\":3875:3929  uint256 ethAmount = (dexAmount * dexSwapRate) / 10**18 */\n      swap1\n      pop\n        /* \"aula.sol\":4054:4063  ethAmount */\n      dup1\n        /* \"aula.sol\":4029:4050  address(this).balance */\n      selfbalance\n        /* \"aula.sol\":4029:4063  address(this).balance >= ethAmount */\n      lt\n      iszero\n        /* \"aula.sol\":4021:4131  require(address(this).balance >= ethAmount, \"O contrato nao tem saldo de ETH suficiente para esta transacao.\") */\n      tag_216\n      jumpi\n      mload(0x40)\n      0x08c379a000000000000000000000000000000000000000000000000000000000\n      dup2\n      mstore\n      0x04\n      add\n      tag_217\n      swap1\n      tag_218\n      jump\t// in\n    tag_217:\n      mload(0x40)\n      dup1\n      swap2\n      sub\n      swap1\n      revert\n    tag_216:\n        /* \"aula.sol\":4211:4258  _transfer(msg.sender, address(this), dexAmount) */\n      tag_219\n        /* \"aula.sol\":4221:4231  msg.sender */\n      caller\n        /* \"aula.sol\":4241:4245  this */\n      address\n        /* \"aula.sol\":4248:4257  dexAmount */\n      dup5\n        /* \"aula.sol\":4211:4220  _transfer */\n      tag_172\n        /* \"aula.sol\":4211:4258  _transfer(msg.sender, address(this), dexAmount) */\n      jump\t// in\n    tag_219:\n        /* \"aula.sol\":4360:4372  bool success */\n      0x00\n        /* \"aula.sol\":4386:4396  msg.sender */\n      caller\n        /* \"aula.sol\":4378:4402  payable(msg.sender).call */\n      0xffffffffffffffffffffffffffffffffffffffff\n      and\n        /* \"aula.sol\":4410:4419  ethAmount */\n      dup3\n        /* \"aula.sol\":4378:4424  payable(msg.sender).call{value: ethAmount}(\"\") */\n      mload(0x40)\n      tag_220\n      swap1\n      tag_221\n      jump\t// in\n    tag_220:\n      0x00\n      mload(0x40)\n      dup1\n      dup4\n      sub\n      dup2\n      dup6\n      dup8\n      gas\n      call\n      swap3\n      pop\n      pop\n      pop\n      returndatasize\n      dup1\n      0x00\n      dup2\n      eq\n      tag_224\n      jumpi\n      mload(0x40)\n      swap2\n      pop\n      and(add(returndatasize, 0x3f), not(0x1f))\n      dup3\n      add\n      0x40\n      mstore\n      returndatasize\n      dup3\n      mstore\n      returndatasize\n      0x00\n      0x20\n      dup5\n      add\n      returndatacopy\n      jump(tag_223)\n    tag_224:\n      0x60\n      swap2\n      pop\n    tag_223:\n      pop\n        /* \"aula.sol\":4359:4424  (bool success, ) = payable(msg.sender).call{value: ethAmount}(\"\") */\n      pop\n      swap1\n      pop\n        /* \"aula.sol\":4442:4449  success */\n      dup1\n        /* \"aula.sol\":4434:4484  require(success, \"A transferencia de ETH falhou.\") */\n      tag_225\n      jumpi\n      mload(0x40)\n      0x08c379a000000000000000000000000000000000000000000000000000000000\n      dup2\n      mstore\n      0x04\n      add\n      tag_226\n      swap1\n      tag_227\n      jump\t// in\n    tag_226:\n      mload(0x40)\n      dup1\n      swap2\n      sub\n      swap1\n      revert\n    tag_225:\n        /* \"aula.sol\":3475:4491  {... */\n      pop\n      pop\n        /* \"aula.sol\":3430:4491  function sellDex(uint256 dexAmount) external {... */\n      pop\n      jump\t// out\n        /* \"aula.sol\":704:731  uint256 public interestRate */\n    tag_90:\n      sload(0x09)\n      dup2\n      jump\t// out\n        /* \"aula.sol\":565:591  uint256 public dexSwapRate */\n    tag_94:\n      sload(0x07)\n      dup2\n      jump\t// out\n        /* \"aula.sol\":8807:10258  function terminateLoan(uint256 loanId) external payable {... */\n    tag_98:\n        /* \"aula.sol\":8922:8946  Loan storage currentLoan */\n      0x00\n        /* \"aula.sol\":8949:8954  loans */\n      0x0c\n        /* \"aula.sol\":8949:8962  loans[loanId] */\n      0x00\n        /* \"aula.sol\":8955:8961  loanId */\n      dup4\n        /* \"aula.sol\":8949:8962  loans[loanId] */\n      dup2\n      mstore\n      0x20\n      add\n      swap1\n      dup2\n      mstore\n      0x20\n      add\n      0x00\n      keccak256\n        /* \"aula.sol\":8922:8962  Loan storage currentLoan = loans[loanId] */\n      swap1\n      pop\n        /* \"aula.sol\":9022:9033  currentLoan */\n      dup1\n        /* \"aula.sol\":9022:9040  currentLoan.active */\n      0x06\n      add\n      0x00\n      swap1\n      sload\n      swap1\n      0x0100\n      exp\n      swap1\n      div\n      0xff\n      and\n        /* \"aula.sol\":9014:9089  require(currentLoan.active, \"O emprestimo ja foi encerrado ou nao existe.\") */\n      tag_229\n      jumpi\n      mload(0x40)\n      0x08c379a000000000000000000000000000000000000000000000000000000000\n      dup2\n      mstore\n      0x04\n      add\n      tag_230\n      swap1\n      tag_231\n      jump\t// in\n    tag_230:\n      mload(0x40)\n      dup1\n      swap2\n      sub\n      swap1\n      revert\n    tag_229:\n        /* \"aula.sol\":9121:9132  currentLoan */\n      dup1\n        /* \"aula.sol\":9121:9141  currentLoan.borrower */\n      0x00\n      add\n      0x00\n      swap1\n      sload\n      swap1\n      0x0100\n      exp\n      swap1\n      div\n      0xffffffffffffffffffffffffffffffffffffffff\n      and\n        /* \"aula.sol\":9107:9141  msg.sender == currentLoan.borrower */\n      0xffffffffffffffffffffffffffffffffffffffff\n      and\n        /* \"aula.sol\":9107:9117  msg.sender */\n      caller\n        /* \"aula.sol\":9107:9141  msg.sender == currentLoan.borrower */\n      0xffffffffffffffffffffffffffffffffffffffff\n      and\n      eq\n        /* \"aula.sol\":9099:9193  require(msg.sender == currentLoan.borrower, \"Apenas o titular do emprestimo o pode terminar.\") */\n      tag_232\n      jumpi\n      mload(0x40)\n      0x08c379a000000000000000000000000000000000000000000000000000000000\n      dup2\n      mstore\n      0x04\n      add\n      tag_233\n      swap1\n      tag_234\n      jump\t// in\n    tag_233:\n      mload(0x40)\n      dup1\n      swap2\n      sub\n      swap1\n      revert\n    tag_232:\n        /* \"aula.sol\":9309:9320  currentLoan */\n      dup1\n        /* \"aula.sol\":9309:9335  currentLoan.nextPaymentDue */\n      0x04\n      add\n      sload\n        /* \"aula.sol\":9290:9305  block.timestamp */\n      timestamp\n        /* \"aula.sol\":9290:9335  block.timestamp <= currentLoan.nextPaymentDue */\n      gt\n      iszero\n        /* \"aula.sol\":9282:9381  require(block.timestamp <= currentLoan.nextPaymentDue, \"O prazo expirou. O colateral foi perdido.\") */\n      tag_235\n      jumpi\n      mload(0x40)\n      0x08c379a000000000000000000000000000000000000000000000000000000000\n      dup2\n      mstore\n      0x04\n      add\n      tag_236\n      swap1\n      tag_185\n      jump\t// in\n    tag_236:\n      mload(0x40)\n      dup1\n      swap2\n      sub\n      swap1\n      revert\n    tag_235:\n        /* \"aula.sol\":9553:9571  uint256 totalToPay */\n      0x00\n        /* \"aula.sol\":9595:9609  terminationFee */\n      sload(0x0a)\n        /* \"aula.sol\":9574:9585  currentLoan */\n      dup3\n        /* \"aula.sol\":9574:9592  currentLoan.amount */\n      0x02\n      add\n      sload\n        /* \"aula.sol\":9574:9609  currentLoan.amount + terminationFee */\n      tag_237\n      swap2\n      swap1\n      tag_195\n      jump\t// in\n    tag_237:\n        /* \"aula.sol\":9553:9609  uint256 totalToPay = currentLoan.amount + terminationFee */\n      swap1\n      pop\n        /* \"aula.sol\":9715:9725  totalToPay */\n      dup1\n        /* \"aula.sol\":9702:9711  msg.value */\n      callvalue\n        /* \"aula.sol\":9702:9725  msg.value == totalToPay */\n      eq\n        /* \"aula.sol\":9694:9811  require(msg.value == totalToPay, \"Valor incorreto. Deve pagar a totalidade do emprestimo mais a taxa de terminacao.\") */\n      tag_238\n      jumpi\n      mload(0x40)\n      0x08c379a000000000000000000000000000000000000000000000000000000000\n      dup2\n      mstore\n      0x04\n      add\n      tag_239\n      swap1\n      tag_240\n      jump\t// in\n    tag_239:\n      mload(0x40)\n      dup1\n      swap2\n      sub\n      swap1\n      revert\n    tag_238:\n        /* \"aula.sol\":9891:9896  false */\n      0x00\n        /* \"aula.sol\":9870:9881  currentLoan */\n      dup3\n        /* \"aula.sol\":9870:9888  currentLoan.active */\n      0x06\n      add\n      0x00\n        /* \"aula.sol\":9870:9896  currentLoan.active = false */\n      0x0100\n      exp\n      dup2\n      sload\n      dup2\n      0xff\n      mul\n      not\n      and\n      swap1\n      dup4\n      iszero\n      iszero\n      mul\n      or\n      swap1\n      sstore\n      pop\n        /* \"aula.sol\":10041:10111  _transfer(address(this), currentLoan.borrower, currentLoan.collateral) */\n      tag_241\n        /* \"aula.sol\":10059:10063  this */\n      address\n        /* \"aula.sol\":10066:10077  currentLoan */\n      dup4\n        /* \"aula.sol\":10066:10086  currentLoan.borrower */\n      0x00\n      add\n      0x00\n      swap1\n      sload\n      swap1\n      0x0100\n      exp\n      swap1\n      div\n      0xffffffffffffffffffffffffffffffffffffffff\n      and\n        /* \"aula.sol\":10088:10099  currentLoan */\n      dup5\n        /* \"aula.sol\":10088:10110  currentLoan.collateral */\n      0x01\n      add\n      sload\n        /* \"aula.sol\":10041:10050  _transfer */\n      tag_172\n        /* \"aula.sol\":10041:10111  _transfer(address(this), currentLoan.borrower, currentLoan.collateral) */\n      jump\t// in\n    tag_241:\n        /* \"aula.sol\":10197:10251  loanFinished(currentLoan.borrower, currentLoan.amount) */\n      0xeb217655b842cfbf3105dda6e9fb8b92ff7f87ade2536d2ee25a304c79d4448a\n        /* \"aula.sol\":10210:10221  currentLoan */\n      dup3\n        /* \"aula.sol\":10210:10230  currentLoan.borrower */\n      0x00\n      add\n      0x00\n      swap1\n      sload\n      swap1\n      0x0100\n      exp\n      swap1\n      div\n      0xffffffffffffffffffffffffffffffffffffffff\n      and\n        /* \"aula.sol\":10232:10243  currentLoan */\n      dup4\n        /* \"aula.sol\":10232:10250  currentLoan.amount */\n      0x02\n      add\n      sload\n        /* \"aula.sol\":10197:10251  loanFinished(currentLoan.borrower, currentLoan.amount) */\n      mload(0x40)\n      tag_242\n      swap3\n      swap2\n      swap1\n      tag_204\n      jump\t// in\n    tag_242:\n      mload(0x40)\n      dup1\n      swap2\n      sub\n      swap1\n      log1\n        /* \"aula.sol\":8863:10258  {... */\n      pop\n      pop\n        /* \"aula.sol\":8807:10258  function terminateLoan(uint256 loanId) external payable {... */\n      pop\n      jump\t// out\n        /* \"aula.sol\":361:381  address public owner */\n    tag_101:\n      0x05\n      0x00\n      swap1\n      sload\n      swap1\n      0x0100\n      exp\n      swap1\n      div\n      0xffffffffffffffffffffffffffffffffffffffff\n      and\n      dup2\n      jump\t// out\n        /* \"@openzeppelin/contracts/token/ERC20/ERC20.sol\":1962:2055  function symbol() public view virtual returns (string memory) {... */\n    tag_106:\n        /* \"@openzeppelin/contracts/token/ERC20/ERC20.sol\":2009:2022  string memory */\n      0x60\n        /* \"@openzeppelin/contracts/token/ERC20/ERC20.sol\":2041:2048  _symbol */\n      0x04\n        /* \"@openzeppelin/contracts/token/ERC20/ERC20.sol\":2034:2048  return _symbol */\n      dup1\n      sload\n      tag_244\n      swap1\n      tag_151\n      jump\t// in\n    tag_244:\n      dup1\n      0x1f\n      add\n      0x20\n      dup1\n      swap2\n      div\n      mul\n      0x20\n      add\n      mload(0x40)\n      swap1\n      dup2\n      add\n      0x40\n      mstore\n      dup1\n      swap3\n      swap2\n      swap1\n      dup2\n      dup2\n      mstore\n      0x20\n      add\n      dup3\n      dup1\n      sload\n      tag_245\n      swap1\n      tag_151\n      jump\t// in\n    tag_245:\n      dup1\n      iszero\n      tag_246\n      jumpi\n      dup1\n      0x1f\n      lt\n      tag_247\n      jumpi\n      0x0100\n      dup1\n      dup4\n      sload\n      div\n      mul\n      dup4\n      mstore\n      swap2\n      0x20\n      add\n      swap2\n      jump(tag_246)\n    tag_247:\n      dup3\n      add\n      swap2\n      swap1\n      0x00\n      mstore\n      keccak256(0x00, 0x20)\n      swap1\n    tag_248:\n      dup2\n      sload\n      dup2\n      mstore\n      swap1\n      0x01\n      add\n      swap1\n      0x20\n      add\n      dup1\n      dup4\n      gt\n      tag_248\n      jumpi\n      dup3\n      swap1\n      sub\n      0x1f\n      and\n      dup3\n      add\n      swap2\n    tag_246:\n      pop\n      pop\n      pop\n      pop\n      pop\n      swap1\n      pop\n        /* \"@openzeppelin/contracts/token/ERC20/ERC20.sol\":1962:2055  function symbol() public view virtual returns (string memory) {... */\n      swap1\n      jump\t// out\n        /* \"aula.sol\":853:883  uint256 public maxLoanDuration */\n    tag_110:\n      sload(0x0b)\n      dup2\n      jump\t// out\n        /* \"@openzeppelin/contracts/token/ERC20/ERC20.sol\":3244:3422  function transfer(address to, uint256 value) public virtual returns (bool) {... */\n    tag_115:\n        /* \"@openzeppelin/contracts/token/ERC20/ERC20.sol\":3313:3317  bool */\n      0x00\n        /* \"@openzeppelin/contracts/token/ERC20/ERC20.sol\":3329:3342  address owner */\n      0x00\n        /* \"@openzeppelin/contracts/token/ERC20/ERC20.sol\":3345:3357  _msgSender() */\n      tag_250\n        /* \"@openzeppelin/contracts/token/ERC20/ERC20.sol\":3345:3355  _msgSender */\n      tag_158\n        /* \"@openzeppelin/contracts/token/ERC20/ERC20.sol\":3345:3357  _msgSender() */\n      jump\t// in\n    tag_250:\n        /* \"@openzeppelin/contracts/token/ERC20/ERC20.sol\":3329:3357  address owner = _msgSender() */\n      swap1\n      pop\n        /* \"@openzeppelin/contracts/token/ERC20/ERC20.sol\":3367:3394  _transfer(owner, to, value) */\n      tag_251\n        /* \"@openzeppelin/contracts/token/ERC20/ERC20.sol\":3377:3382  owner */\n      dup2\n        /* \"@openzeppelin/contracts/token/ERC20/ERC20.sol\":3384:3386  to */\n      dup6\n        /* \"@openzeppelin/contracts/token/ERC20/ERC20.sol\":3388:3393  value */\n      dup6\n        /* \"@openzeppelin/contracts/token/ERC20/ERC20.sol\":3367:3376  _transfer */\n      tag_172\n        /* \"@openzeppelin/contracts/token/ERC20/ERC20.sol\":3367:3394  _transfer(owner, to, value) */\n      jump\t// in\n    tag_251:\n        /* \"@openzeppelin/contracts/token/ERC20/ERC20.sol\":3411:3415  true */\n      0x01\n        /* \"@openzeppelin/contracts/token/ERC20/ERC20.sol\":3404:3415  return true */\n      swap2\n      pop\n      pop\n        /* \"@openzeppelin/contracts/token/ERC20/ERC20.sol\":3244:3422  function transfer(address to, uint256 value) public virtual returns (bool) {... */\n      swap3\n      swap2\n      pop\n      pop\n      jump\t// out\n        /* \"aula.sol\":769:798  uint256 public terminationFee */\n    tag_119:\n      sload(0x0a)\n      dup2\n      jump\t// out\n        /* \"aula.sol\":623:650  uint256 public paymentCycle */\n    tag_123:\n      sload(0x08)\n      dup2\n      jump\t// out\n        /* \"@openzeppelin/contracts/token/ERC20/ERC20.sol\":3455:3595  function allowance(address owner, address spender) public view virtual returns (uint256) {... */\n    tag_129:\n        /* \"@openzeppelin/contracts/token/ERC20/ERC20.sol\":3535:3542  uint256 */\n      0x00\n        /* \"@openzeppelin/contracts/token/ERC20/ERC20.sol\":3561:3572  _allowances */\n      0x01\n        /* \"@openzeppelin/contracts/token/ERC20/ERC20.sol\":3561:3579  _allowances[owner] */\n      0x00\n        /* \"@openzeppelin/contracts/token/ERC20/ERC20.sol\":3573:3578  owner */\n      dup5\n        /* \"@openzeppelin/contracts/token/ERC20/ERC20.sol\":3561:3579  _allowances[owner] */\n      0xffffffffffffffffffffffffffffffffffffffff\n      and\n      0xffffffffffffffffffffffffffffffffffffffff\n      and\n      dup2\n      mstore\n      0x20\n      add\n      swap1\n      dup2\n      mstore\n      0x20\n      add\n      0x00\n      keccak256\n        /* \"@openzeppelin/contracts/token/ERC20/ERC20.sol\":3561:3588  _allowances[owner][spender] */\n      0x00\n        /* \"@openzeppelin/contracts/token/ERC20/ERC20.sol\":3580:3587  spender */\n      dup4\n        /* \"@openzeppelin/contracts/token/ERC20/ERC20.sol\":3561:3588  _allowances[owner][spender] */\n      0xffffffffffffffffffffffffffffffffffffffff\n      and\n      0xffffffffffffffffffffffffffffffffffffffff\n      and\n      dup2\n      mstore\n      0x20\n      add\n      swap1\n      dup2\n      mstore\n      0x20\n      add\n      0x00\n      keccak256\n      sload\n        /* \"@openzeppelin/contracts/token/ERC20/ERC20.sol\":3554:3588  return _allowances[owner][spender] */\n      swap1\n      pop\n        /* \"@openzeppelin/contracts/token/ERC20/ERC20.sol\":3455:3595  function allowance(address owner, address spender) public view virtual returns (uint256) {... */\n      swap3\n      swap2\n      pop\n      pop\n      jump\t// out\n        /* \"aula.sol\":1666:1703  mapping(uint256 => Loan) public loans */\n    tag_134:\n      mstore(0x20, 0x0c)\n      dup1\n      0x00\n      mstore\n      keccak256(0x00, 0x40)\n      0x00\n      swap2\n      pop\n      swap1\n      pop\n      dup1\n      0x00\n      add\n      0x00\n      swap1\n      sload\n      swap1\n      0x0100\n      exp\n      swap1\n      div\n      0xffffffffffffffffffffffffffffffffffffffff\n      and\n      swap1\n      dup1\n      0x01\n      add\n      sload\n      swap1\n      dup1\n      0x02\n      add\n      sload\n      swap1\n      dup1\n      0x03\n      add\n      sload\n      swap1\n      dup1\n      0x04\n      add\n      sload\n      swap1\n      dup1\n      0x05\n      add\n      sload\n      swap1\n      dup1\n      0x06\n      add\n      0x00\n      swap1\n      sload\n      swap1\n      0x0100\n      exp\n      swap1\n      div\n      0xff\n      and\n      swap1\n      pop\n      dup8\n      jump\t// out\n        /* \"aula.sol\":10321:11065  function checkLoan(uint256 loanId) external onlyOwner {... */\n    tag_140:\n        /* \"aula.sol\":1922:1927  owner */\n      0x05\n      0x00\n      swap1\n      sload\n      swap1\n      0x0100\n      exp\n      swap1\n      div\n      0xffffffffffffffffffffffffffffffffffffffff\n      and\n        /* \"aula.sol\":1908:1927  msg.sender == owner */\n      0xffffffffffffffffffffffffffffffffffffffff\n      and\n        /* \"aula.sol\":1908:1918  msg.sender */\n      caller\n        /* \"aula.sol\":1908:1927  msg.sender == owner */\n      0xffffffffffffffffffffffffffffffffffffffff\n      and\n      eq\n        /* \"aula.sol\":1900:1965  require(msg.sender == owner, \"Only owner can call this function\") */\n      tag_254\n      jumpi\n      mload(0x40)\n      0x08c379a000000000000000000000000000000000000000000000000000000000\n      dup2\n      mstore\n      0x04\n      add\n      tag_255\n      swap1\n      tag_164\n      jump\t// in\n    tag_255:\n      mload(0x40)\n      dup1\n      swap2\n      sub\n      swap1\n      revert\n    tag_254:\n        /* \"aula.sol\":10434:10458  Loan storage currentLoan */\n      0x00\n        /* \"aula.sol\":10461:10466  loans */\n      0x0c\n        /* \"aula.sol\":10461:10474  loans[loanId] */\n      0x00\n        /* \"aula.sol\":10467:10473  loanId */\n      dup4\n        /* \"aula.sol\":10461:10474  loans[loanId] */\n      dup2\n      mstore\n      0x20\n      add\n      swap1\n      dup2\n      mstore\n      0x20\n      add\n      0x00\n      keccak256\n        /* \"aula.sol\":10434:10474  Loan storage currentLoan = loans[loanId] */\n      swap1\n      pop\n        /* \"aula.sol\":10552:10563  currentLoan */\n      dup1\n        /* \"aula.sol\":10552:10570  currentLoan.active */\n      0x06\n      add\n      0x00\n      swap1\n      sload\n      swap1\n      0x0100\n      exp\n      swap1\n      div\n      0xff\n      and\n        /* \"aula.sol\":10544:10621  require(currentLoan.active, \"O emprestimo ja esta inativo ou foi concluido.\") */\n      tag_257\n      jumpi\n      mload(0x40)\n      0x08c379a000000000000000000000000000000000000000000000000000000000\n      dup2\n      mstore\n      0x04\n      add\n      tag_258\n      swap1\n      tag_259\n      jump\t// in\n    tag_258:\n      mload(0x40)\n      dup1\n      swap2\n      sub\n      swap1\n      revert\n    tag_257:\n        /* \"aula.sol\":10719:10730  currentLoan */\n      dup1\n        /* \"aula.sol\":10719:10745  currentLoan.nextPaymentDue */\n      0x04\n      add\n      sload\n        /* \"aula.sol\":10701:10716  block.timestamp */\n      timestamp\n        /* \"aula.sol\":10701:10745  block.timestamp > currentLoan.nextPaymentDue */\n      gt\n        /* \"aula.sol\":10697:11059  if (block.timestamp > currentLoan.nextPaymentDue) {... */\n      iszero\n      tag_260\n      jumpi\n        /* \"aula.sol\":10951:10956  false */\n      0x00\n        /* \"aula.sol\":10930:10941  currentLoan */\n      dup2\n        /* \"aula.sol\":10930:10948  currentLoan.active */\n      0x06\n      add\n      0x00\n        /* \"aula.sol\":10930:10956  currentLoan.active = false */\n      0x0100\n      exp\n      dup2\n      sload\n      dup2\n      0xff\n      mul\n      not\n      and\n      swap1\n      dup4\n      iszero\n      iszero\n      mul\n      or\n      swap1\n      sstore\n      pop\n        /* \"aula.sol\":10697:11059  if (block.timestamp > currentLoan.nextPaymentDue) {... */\n      jump(tag_261)\n    tag_260:\n        /* \"aula.sol\":10987:11048  revert(\"O emprestimo esta em dia. Nenhuma punicao aplicada.\") */\n      mload(0x40)\n      0x08c379a000000000000000000000000000000000000000000000000000000000\n      dup2\n      mstore\n      0x04\n      add\n      tag_262\n      swap1\n      tag_263\n      jump\t// in\n    tag_262:\n      mload(0x40)\n      dup1\n      swap2\n      sub\n      swap1\n      revert\n        /* \"aula.sol\":10697:11059  if (block.timestamp > currentLoan.nextPaymentDue) {... */\n    tag_261:\n        /* \"aula.sol\":10375:11065  {... */\n      pop\n        /* \"aula.sol\":10321:11065  function checkLoan(uint256 loanId) external onlyOwner {... */\n      pop\n      jump\t// out\n        /* \"aula.sol\":2761:3424  function buyDex() external payable {... */\n    tag_142:\n        /* \"aula.sol\":2880:2881  0 */\n      0x00\n        /* \"aula.sol\":2868:2877  msg.value */\n      callvalue\n        /* \"aula.sol\":2868:2881  msg.value > 0 */\n      gt\n        /* \"aula.sol\":2860:2921  require(msg.value > 0, \"Tem de enviar ETH para comprar DEX.\") */\n      tag_265\n      jumpi\n      mload(0x40)\n      0x08c379a000000000000000000000000000000000000000000000000000000000\n      dup2\n      mstore\n      0x04\n      add\n      tag_266\n      swap1\n      tag_267\n      jump\t// in\n    tag_266:\n      mload(0x40)\n      dup1\n      swap2\n      sub\n      swap1\n      revert\n    tag_265:\n        /* \"aula.sol\":3050:3067  uint256 dexAmount */\n      0x00\n        /* \"aula.sol\":3093:3104  dexSwapRate */\n      sload(0x07)\n        /* \"aula.sol\":3083:3089  10**18 */\n      0x0de0b6b3a7640000\n        /* \"aula.sol\":3071:3080  msg.value */\n      callvalue\n        /* \"aula.sol\":3071:3089  msg.value * 10**18 */\n      tag_268\n      swap2\n      swap1\n      tag_187\n      jump\t// in\n    tag_268:\n        /* \"aula.sol\":3070:3104  (msg.value * 10**18) / dexSwapRate */\n      tag_269\n      swap2\n      swap1\n      tag_190\n      jump\t// in\n    tag_269:\n        /* \"aula.sol\":3050:3104  uint256 dexAmount = (msg.value * 10**18) / dexSwapRate */\n      swap1\n      pop\n        /* \"aula.sol\":3217:3226  dexAmount */\n      dup1\n        /* \"aula.sol\":3189:3213  balanceOf(address(this)) */\n      tag_270\n        /* \"aula.sol\":3207:3211  this */\n      address\n        /* \"aula.sol\":3189:3198  balanceOf */\n      tag_82\n        /* \"aula.sol\":3189:3213  balanceOf(address(this)) */\n      jump\t// in\n    tag_270:\n        /* \"aula.sol\":3189:3226  balanceOf(address(this)) >= dexAmount */\n      lt\n      iszero\n        /* \"aula.sol\":3181:3281  require(balanceOf(address(this)) >= dexAmount, \"O contrato nao tem DEX suficiente para esta venda.\") */\n      tag_271\n      jumpi\n      mload(0x40)\n      0x08c379a000000000000000000000000000000000000000000000000000000000\n      dup2\n      mstore\n      0x04\n      add\n      tag_272\n      swap1\n      tag_273\n      jump\t// in\n    tag_272:\n      mload(0x40)\n      dup1\n      swap2\n      sub\n      swap1\n      revert\n    tag_271:\n        /* \"aula.sol\":3370:3417  _transfer(address(this), msg.sender, dexAmount) */\n      tag_274\n        /* \"aula.sol\":3388:3392  this */\n      address\n        /* \"aula.sol\":3395:3405  msg.sender */\n      caller\n        /* \"aula.sol\":3407:3416  dexAmount */\n      dup4\n        /* \"aula.sol\":3370:3379  _transfer */\n      tag_172\n        /* \"aula.sol\":3370:3417  _transfer(address(this), msg.sender, dexAmount) */\n      jump\t// in\n    tag_274:\n        /* \"aula.sol\":2796:3424  {... */\n      pop\n        /* \"aula.sol\":2761:3424  function buyDex() external payable {... */\n      jump\t// out\n        /* \"aula.sol\":4497:6611  function loan(uint256 dexAmount, uint256 deadline) external returns (uint256) {... */\n    tag_147:\n        /* \"aula.sol\":4566:4573  uint256 */\n      0x00\n        /* \"aula.sol\":4655:4656  0 */\n      0x00\n        /* \"aula.sol\":4643:4652  dexAmount */\n      dup4\n        /* \"aula.sol\":4643:4656  dexAmount > 0 */\n      gt\n        /* \"aula.sol\":4635:4717  require(dexAmount > 0, \"A quantidade de colateral DEX tem de ser maior que zero.\") */\n      tag_276\n      jumpi\n      mload(0x40)\n      0x08c379a000000000000000000000000000000000000000000000000000000000\n      dup2\n      mstore\n      0x04\n      add\n      tag_277\n      swap1\n      tag_278\n      jump\t// in\n    tag_277:\n      mload(0x40)\n      dup1\n      swap2\n      sub\n      swap1\n      revert\n    tag_276:\n        /* \"aula.sol\":4746:4747  0 */\n      0x00\n        /* \"aula.sol\":4735:4743  deadline */\n      dup3\n        /* \"aula.sol\":4735:4747  deadline > 0 */\n      gt\n        /* \"aula.sol\":4735:4778  deadline > 0 && deadline <= maxLoanDuration */\n      dup1\n      iszero\n      tag_279\n      jumpi\n      pop\n        /* \"aula.sol\":4763:4778  maxLoanDuration */\n      sload(0x0b)\n        /* \"aula.sol\":4751:4759  deadline */\n      dup3\n        /* \"aula.sol\":4751:4778  deadline <= maxLoanDuration */\n      gt\n      iszero\n        /* \"aula.sol\":4735:4778  deadline > 0 && deadline <= maxLoanDuration */\n    tag_279:\n        /* \"aula.sol\":4727:4828  require(deadline > 0 && deadline <= maxLoanDuration, \"O prazo e invalido ou excede o limite maximo.\") */\n      tag_280\n      jumpi\n      mload(0x40)\n      0x08c379a000000000000000000000000000000000000000000000000000000000\n      dup2\n      mstore\n      0x04\n      add\n      tag_281\n      swap1\n      tag_282\n      jump\t// in\n    tag_281:\n      mload(0x40)\n      dup1\n      swap2\n      sub\n      swap1\n      revert\n    tag_280:\n        /* \"aula.sol\":4871:4880  dexAmount */\n      dup3\n        /* \"aula.sol\":4846:4867  balanceOf(msg.sender) */\n      tag_283\n        /* \"aula.sol\":4856:4866  msg.sender */\n      caller\n        /* \"aula.sol\":4846:4855  balanceOf */\n      tag_82\n        /* \"aula.sol\":4846:4867  balanceOf(msg.sender) */\n      jump\t// in\n    tag_283:\n        /* \"aula.sol\":4846:4880  balanceOf(msg.sender) >= dexAmount */\n      lt\n      iszero\n        /* \"aula.sol\":4838:4939  require(balanceOf(msg.sender) >= dexAmount, \"Nao tem saldo DEX suficiente para usar como colateral.\") */\n      tag_284\n      jumpi\n      mload(0x40)\n      0x08c379a000000000000000000000000000000000000000000000000000000000\n      dup2\n      mstore\n      0x04\n      add\n      tag_285\n      swap1\n      tag_286\n      jump\t// in\n    tag_285:\n      mload(0x40)\n      dup1\n      swap2\n      sub\n      swap1\n      revert\n    tag_284:\n        /* \"aula.sol\":5085:5113  uint256 collateralValueInWei */\n      0x00\n        /* \"aula.sol\":5144:5150  10**18 */\n      0x0de0b6b3a7640000\n        /* \"aula.sol\":5129:5140  dexSwapRate */\n      sload(0x07)\n        /* \"aula.sol\":5117:5126  dexAmount */\n      dup6\n        /* \"aula.sol\":5117:5140  dexAmount * dexSwapRate */\n      tag_287\n      swap2\n      swap1\n      tag_187\n      jump\t// in\n    tag_287:\n        /* \"aula.sol\":5116:5150  (dexAmount * dexSwapRate) / 10**18 */\n      tag_288\n      swap2\n      swap1\n      tag_190\n      jump\t// in\n    tag_288:\n        /* \"aula.sol\":5085:5150  uint256 collateralValueInWei = (dexAmount * dexSwapRate) / 10**18 */\n      swap1\n      pop\n        /* \"aula.sol\":5256:5274  uint256 loanAmount */\n      0x00\n        /* \"aula.sol\":5300:5301  2 */\n      0x02\n        /* \"aula.sol\":5277:5297  collateralValueInWei */\n      dup3\n        /* \"aula.sol\":5277:5301  collateralValueInWei / 2 */\n      tag_289\n      swap2\n      swap1\n      tag_190\n      jump\t// in\n    tag_289:\n        /* \"aula.sol\":5256:5301  uint256 loanAmount = collateralValueInWei / 2 */\n      swap1\n      pop\n        /* \"aula.sol\":5341:5342  0 */\n      0x00\n        /* \"aula.sol\":5328:5338  loanAmount */\n      dup2\n        /* \"aula.sol\":5328:5342  loanAmount > 0 */\n      gt\n        /* \"aula.sol\":5320:5411  require(loanAmount > 0, \"O valor do colateral e demasiado baixo para gerar um emprestimo.\") */\n      tag_290\n      jumpi\n      mload(0x40)\n      0x08c379a000000000000000000000000000000000000000000000000000000000\n      dup2\n      mstore\n      0x04\n      add\n      tag_291\n      swap1\n      tag_292\n      jump\t// in\n    tag_291:\n      mload(0x40)\n      dup1\n      swap2\n      sub\n      swap1\n      revert\n    tag_290:\n        /* \"aula.sol\":5454:5464  loanAmount */\n      dup1\n        /* \"aula.sol\":5429:5450  address(this).balance */\n      selfbalance\n        /* \"aula.sol\":5429:5464  address(this).balance >= loanAmount */\n      lt\n      iszero\n        /* \"aula.sol\":5421:5526  require(address(this).balance >= loanAmount, \"O contrato nao tem liquidez de ETH suficiente no momento.\") */\n      tag_293\n      jumpi\n      mload(0x40)\n      0x08c379a000000000000000000000000000000000000000000000000000000000\n      dup2\n      mstore\n      0x04\n      add\n      tag_294\n      swap1\n      tag_295\n      jump\t// in\n    tag_294:\n      mload(0x40)\n      dup1\n      swap2\n      sub\n      swap1\n      revert\n    tag_293:\n        /* \"aula.sol\":5617:5664  _transfer(msg.sender, address(this), dexAmount) */\n      tag_296\n        /* \"aula.sol\":5627:5637  msg.sender */\n      caller\n        /* \"aula.sol\":5647:5651  this */\n      address\n        /* \"aula.sol\":5654:5663  dexAmount */\n      dup8\n        /* \"aula.sol\":5617:5626  _transfer */\n      tag_172\n        /* \"aula.sol\":5617:5664  _transfer(msg.sender, address(this), dexAmount) */\n      jump\t// in\n    tag_296:\n        /* \"aula.sol\":5712:5733  uint256 currentLoanId */\n      0x00\n        /* \"aula.sol\":5736:5747  loanCounter */\n      sload(0x06)\n        /* \"aula.sol\":5712:5747  uint256 currentLoanId = loanCounter */\n      swap1\n      pop\n        /* \"aula.sol\":5789:6090  Loan({... */\n      mload(0x40)\n      dup1\n      0xe0\n      add\n      0x40\n      mstore\n      dup1\n        /* \"aula.sol\":5818:5828  msg.sender */\n      caller\n        /* \"aula.sol\":5789:6090  Loan({... */\n      0xffffffffffffffffffffffffffffffffffffffff\n      and\n      dup2\n      mstore\n      0x20\n      add\n        /* \"aula.sol\":5854:5863  dexAmount */\n      dup8\n        /* \"aula.sol\":5789:6090  Loan({... */\n      dup2\n      mstore\n      0x20\n      add\n        /* \"aula.sol\":5885:5895  loanAmount */\n      dup4\n        /* \"aula.sol\":5789:6090  Loan({... */\n      dup2\n      mstore\n      0x20\n      add\n        /* \"aula.sol\":5919:5927  deadline */\n      dup7\n        /* \"aula.sol\":5789:6090  Loan({... */\n      dup2\n      mstore\n      0x20\n      add\n        /* \"aula.sol\":5975:5987  paymentCycle */\n      sload(0x08)\n        /* \"aula.sol\":5957:5972  block.timestamp */\n      timestamp\n        /* \"aula.sol\":5957:5987  block.timestamp + paymentCycle */\n      tag_297\n      swap2\n      swap1\n      tag_195\n      jump\t// in\n    tag_297:\n        /* \"aula.sol\":5789:6090  Loan({... */\n      dup2\n      mstore\n      0x20\n      add\n        /* \"aula.sol\":6052:6053  0 */\n      0x00\n        /* \"aula.sol\":5789:6090  Loan({... */\n      dup2\n      mstore\n      0x20\n      add\n        /* \"aula.sol\":6075:6079  true */\n      0x01\n        /* \"aula.sol\":5789:6090  Loan({... */\n      iszero\n      iszero\n      dup2\n      mstore\n      pop\n        /* \"aula.sol\":5766:5771  loans */\n      0x0c\n        /* \"aula.sol\":5766:5786  loans[currentLoanId] */\n      0x00\n        /* \"aula.sol\":5772:5785  currentLoanId */\n      dup4\n        /* \"aula.sol\":5766:5786  loans[currentLoanId] */\n      dup2\n      mstore\n      0x20\n      add\n      swap1\n      dup2\n      mstore\n      0x20\n      add\n      0x00\n      keccak256\n        /* \"aula.sol\":5766:6090  loans[currentLoanId] = Loan({... */\n      0x00\n      dup3\n      add\n      mload\n      dup2\n      0x00\n      add\n      exp(0x0100, 0x00)\n      dup2\n      sload\n      dup2\n      0xffffffffffffffffffffffffffffffffffffffff\n      mul\n      not\n      and\n      swap1\n      dup4\n      0xffffffffffffffffffffffffffffffffffffffff\n      and\n      mul\n      or\n      swap1\n      sstore\n      pop\n      0x20\n      dup3\n      add\n      mload\n      dup2\n      0x01\n      add\n      sstore\n      0x40\n      dup3\n      add\n      mload\n      dup2\n      0x02\n      add\n      sstore\n      0x60\n      dup3\n      add\n      mload\n      dup2\n      0x03\n      add\n      sstore\n      0x80\n      dup3\n      add\n      mload\n      dup2\n      0x04\n      add\n      sstore\n      0xa0\n      dup3\n      add\n      mload\n      dup2\n      0x05\n      add\n      sstore\n      0xc0\n      dup3\n      add\n      mload\n      dup2\n      0x06\n      add\n      exp(0x0100, 0x00)\n      dup2\n      sload\n      dup2\n      0xff\n      mul\n      not\n      and\n      swap1\n      dup4\n      iszero\n      iszero\n      mul\n      or\n      swap1\n      sstore\n      pop\n      swap1\n      pop\n      pop\n        /* \"aula.sol\":6162:6173  loanCounter */\n      0x06\n      0x00\n        /* \"aula.sol\":6162:6175  loanCounter++ */\n      dup2\n      sload\n      dup1\n      swap3\n      swap2\n      swap1\n      tag_298\n      swap1\n      tag_299\n      jump\t// in\n    tag_298:\n      swap2\n      swap1\n      pop\n      sstore\n      pop\n        /* \"aula.sol\":6272:6284  bool success */\n      0x00\n        /* \"aula.sol\":6298:6308  msg.sender */\n      caller\n        /* \"aula.sol\":6290:6314  payable(msg.sender).call */\n      0xffffffffffffffffffffffffffffffffffffffff\n      and\n        /* \"aula.sol\":6322:6332  loanAmount */\n      dup4\n        /* \"aula.sol\":6290:6337  payable(msg.sender).call{value: loanAmount}(\"\") */\n      mload(0x40)\n      tag_300\n      swap1\n      tag_221\n      jump\t// in\n    tag_300:\n      0x00\n      mload(0x40)\n      dup1\n      dup4\n      sub\n      dup2\n      dup6\n      dup8\n      gas\n      call\n      swap3\n      pop\n      pop\n      pop\n      returndatasize\n      dup1\n      0x00\n      dup2\n      eq\n      tag_303\n      jumpi\n      mload(0x40)\n      swap2\n      pop\n      and(add(returndatasize, 0x3f), not(0x1f))\n      dup3\n      add\n      0x40\n      mstore\n      returndatasize\n      dup3\n      mstore\n      returndatasize\n      0x00\n      0x20\n      dup5\n      add\n      returndatacopy\n      jump(tag_302)\n    tag_303:\n      0x60\n      swap2\n      pop\n    tag_302:\n      pop\n        /* \"aula.sol\":6271:6337  (bool success, ) = payable(msg.sender).call{value: loanAmount}(\"\") */\n      pop\n      swap1\n      pop\n        /* \"aula.sol\":6355:6362  success */\n      dup1\n        /* \"aula.sol\":6347:6411  require(success, \"A transferencia de ETH do emprestimo falhou.\") */\n      tag_304\n      jumpi\n      mload(0x40)\n      0x08c379a000000000000000000000000000000000000000000000000000000000\n      dup2\n      mstore\n      0x04\n      add\n      tag_305\n      swap1\n      tag_306\n      jump\t// in\n    tag_305:\n      mload(0x40)\n      dup1\n      swap2\n      sub\n      swap1\n      revert\n    tag_304:\n        /* \"aula.sol\":6485:6530  loanCreated(msg.sender, loanAmount, deadline) */\n      0x0f2c608b40926709a605e36d808476c12c3da0075b7eb8773f053465678be736\n        /* \"aula.sol\":6497:6507  msg.sender */\n      caller\n        /* \"aula.sol\":6509:6519  loanAmount */\n      dup5\n        /* \"aula.sol\":6521:6529  deadline */\n      dup9\n        /* \"aula.sol\":6485:6530  loanCreated(msg.sender, loanAmount, deadline) */\n      mload(0x40)\n      tag_307\n      swap4\n      swap3\n      swap2\n      swap1\n      tag_308\n      jump\t// in\n    tag_307:\n      mload(0x40)\n      dup1\n      swap2\n      sub\n      swap1\n      log1\n        /* \"aula.sol\":6591:6604  currentLoanId */\n      dup2\n        /* \"aula.sol\":6584:6604  return currentLoanId */\n      swap5\n      pop\n      pop\n      pop\n      pop\n      pop\n        /* \"aula.sol\":4497:6611  function loan(uint256 dexAmount, uint256 deadline) external returns (uint256) {... */\n      swap3\n      swap2\n      pop\n      pop\n      jump\t// out\n        /* \"@openzeppelin/contracts/utils/Context.sol\":656:752  function _msgSender() internal view virtual returns (address) {... */\n    tag_158:\n        /* \"@openzeppelin/contracts/utils/Context.sol\":709:716  address */\n      0x00\n        /* \"@openzeppelin/contracts/utils/Context.sol\":735:745  msg.sender */\n      caller\n        /* \"@openzeppelin/contracts/utils/Context.sol\":728:745  return msg.sender */\n      swap1\n      pop\n        /* \"@openzeppelin/contracts/utils/Context.sol\":656:752  function _msgSender() internal view virtual returns (address) {... */\n      swap1\n      jump\t// out\n        /* \"@openzeppelin/contracts/token/ERC20/ERC20.sol\":8630:8758  function _approve(address owner, address spender, uint256 value) internal {... */\n    tag_160:\n        /* \"@openzeppelin/contracts/token/ERC20/ERC20.sol\":8714:8751  _approve(owner, spender, value, true) */\n      tag_311\n        /* \"@openzeppelin/contracts/token/ERC20/ERC20.sol\":8723:8728  owner */\n      dup4\n        /* \"@openzeppelin/contracts/token/ERC20/ERC20.sol\":8730:8737  spender */\n      dup4\n        /* \"@openzeppelin/contracts/token/ERC20/ERC20.sol\":8739:8744  value */\n      dup4\n        /* \"@openzeppelin/contracts/token/ERC20/ERC20.sol\":8746:8750  true */\n      0x01\n        /* \"@openzeppelin/contracts/token/ERC20/ERC20.sol\":8714:8722  _approve */\n      tag_312\n        /* \"@openzeppelin/contracts/token/ERC20/ERC20.sol\":8714:8751  _approve(owner, spender, value, true) */\n      jump\t// in\n    tag_311:\n        /* \"@openzeppelin/contracts/token/ERC20/ERC20.sol\":8630:8758  function _approve(address owner, address spender, uint256 value) internal {... */\n      pop\n      pop\n      pop\n      jump\t// out\n        /* \"@openzeppelin/contracts/token/ERC20/ERC20.sol\":10321:10797  function _spendAllowance(address owner, address spender, uint256 value) internal virtual {... */\n    tag_170:\n        /* \"@openzeppelin/contracts/token/ERC20/ERC20.sol\":10420:10444  uint256 currentAllowance */\n      0x00\n        /* \"@openzeppelin/contracts/token/ERC20/ERC20.sol\":10447:10472  allowance(owner, spender) */\n      tag_314\n        /* \"@openzeppelin/contracts/token/ERC20/ERC20.sol\":10457:10462  owner */\n      dup5\n        /* \"@openzeppelin/contracts/token/ERC20/ERC20.sol\":10464:10471  spender */\n      dup5\n        /* \"@openzeppelin/contracts/token/ERC20/ERC20.sol\":10447:10456  allowance */\n      tag_129\n        /* \"@openzeppelin/contracts/token/ERC20/ERC20.sol\":10447:10472  allowance(owner, spender) */\n      jump\t// in\n    tag_314:\n        /* \"@openzeppelin/contracts/token/ERC20/ERC20.sol\":10420:10472  uint256 currentAllowance = allowance(owner, spender) */\n      swap1\n      pop\n        /* \"@openzeppelin/contracts/token/ERC20/ERC20.sol\":10505:10522  type(uint256).max */\n      0xffffffffffffffffffffffffffffffffffffffffffffffffffffffffffffffff\n        /* \"@openzeppelin/contracts/token/ERC20/ERC20.sol\":10486:10502  currentAllowance */\n      dup2\n        /* \"@openzeppelin/contracts/token/ERC20/ERC20.sol\":10486:10522  currentAllowance < type(uint256).max */\n      lt\n        /* \"@openzeppelin/contracts/token/ERC20/ERC20.sol\":10482:10791  if (currentAllowance < type(uint256).max) {... */\n      iszero\n      tag_315\n      jumpi\n        /* \"@openzeppelin/contracts/token/ERC20/ERC20.sol\":10561:10566  value */\n      dup2\n        /* \"@openzeppelin/contracts/token/ERC20/ERC20.sol\":10542:10558  currentAllowance */\n      dup2\n        /* \"@openzeppelin/contracts/token/ERC20/ERC20.sol\":10542:10566  currentAllowance < value */\n      lt\n        /* \"@openzeppelin/contracts/token/ERC20/ERC20.sol\":10538:10668  if (currentAllowance < value) {... */\n      iszero\n      tag_316\n      jumpi\n        /* \"@openzeppelin/contracts/token/ERC20/ERC20.sol\":10620:10627  spender */\n      dup3\n        /* \"@openzeppelin/contracts/token/ERC20/ERC20.sol\":10629:10645  currentAllowance */\n      dup2\n        /* \"@openzeppelin/contracts/token/ERC20/ERC20.sol\":10647:10652  value */\n      dup4\n        /* \"@openzeppelin/contracts/token/ERC20/ERC20.sol\":10593:10653  ERC20InsufficientAllowance(spender, currentAllowance, value) */\n      mload(0x40)\n      0xfb8f41b200000000000000000000000000000000000000000000000000000000\n      dup2\n      mstore\n      0x04\n      add\n      tag_317\n      swap4\n      swap3\n      swap2\n      swap1\n      tag_308\n      jump\t// in\n    tag_317:\n      mload(0x40)\n      dup1\n      swap2\n      sub\n      swap1\n      revert\n        /* \"@openzeppelin/contracts/token/ERC20/ERC20.sol\":10538:10668  if (currentAllowance < value) {... */\n    tag_316:\n        /* \"@openzeppelin/contracts/token/ERC20/ERC20.sol\":10709:10766  _approve(owner, spender, currentAllowance - value, false) */\n      tag_318\n        /* \"@openzeppelin/contracts/token/ERC20/ERC20.sol\":10718:10723  owner */\n      dup5\n        /* \"@openzeppelin/contracts/token/ERC20/ERC20.sol\":10725:10732  spender */\n      dup5\n        /* \"@openzeppelin/contracts/token/ERC20/ERC20.sol\":10753:10758  value */\n      dup5\n        /* \"@openzeppelin/contracts/token/ERC20/ERC20.sol\":10734:10750  currentAllowance */\n      dup5\n        /* \"@openzeppelin/contracts/token/ERC20/ERC20.sol\":10734:10758  currentAllowance - value */\n      sub\n        /* \"@openzeppelin/contracts/token/ERC20/ERC20.sol\":10760:10765  false */\n      0x00\n        /* \"@openzeppelin/contracts/token/ERC20/ERC20.sol\":10709:10717  _approve */\n      tag_312\n        /* \"@openzeppelin/contracts/token/ERC20/ERC20.sol\":10709:10766  _approve(owner, spender, currentAllowance - value, false) */\n      jump\t// in\n    tag_318:\n        /* \"@openzeppelin/contracts/token/ERC20/ERC20.sol\":10482:10791  if (currentAllowance < type(uint256).max) {... */\n    tag_315:\n        /* \"@openzeppelin/contracts/token/ERC20/ERC20.sol\":10410:10797  {... */\n      pop\n        /* \"@openzeppelin/contracts/token/ERC20/ERC20.sol\":10321:10797  function _spendAllowance(address owner, address spender, uint256 value) internal virtual {... */\n      pop\n      pop\n      pop\n      jump\t// out\n        /* \"@openzeppelin/contracts/token/ERC20/ERC20.sol\":5297:5597  function _transfer(address from, address to, uint256 value) internal {... */\n    tag_172:\n        /* \"@openzeppelin/contracts/token/ERC20/ERC20.sol\":5396:5397  0 */\n      0x00\n        /* \"@openzeppelin/contracts/token/ERC20/ERC20.sol\":5380:5398  from == address(0) */\n      0xffffffffffffffffffffffffffffffffffffffff\n      and\n        /* \"@openzeppelin/contracts/token/ERC20/ERC20.sol\":5380:5384  from */\n      dup4\n        /* \"@openzeppelin/contracts/token/ERC20/ERC20.sol\":5380:5398  from == address(0) */\n      0xffffffffffffffffffffffffffffffffffffffff\n      and\n      sub\n        /* \"@openzeppelin/contracts/token/ERC20/ERC20.sol\":5376:5462  if (from == address(0)) {... */\n      tag_320\n      jumpi\n        /* \"@openzeppelin/contracts/token/ERC20/ERC20.sol\":5448:5449  0 */\n      0x00\n        /* \"@openzeppelin/contracts/token/ERC20/ERC20.sol\":5421:5451  ERC20InvalidSender(address(0)) */\n      mload(0x40)\n      0x96c6fd1e00000000000000000000000000000000000000000000000000000000\n      dup2\n      mstore\n      0x04\n      add\n      tag_321\n      swap2\n      swap1\n      tag_103\n      jump\t// in\n    tag_321:\n      mload(0x40)\n      dup1\n      swap2\n      sub\n      swap1\n      revert\n        /* \"@openzeppelin/contracts/token/ERC20/ERC20.sol\":5376:5462  if (from == address(0)) {... */\n    tag_320:\n        /* \"@openzeppelin/contracts/token/ERC20/ERC20.sol\":5489:5490  0 */\n      0x00\n        /* \"@openzeppelin/contracts/token/ERC20/ERC20.sol\":5475:5491  to == address(0) */\n      0xffffffffffffffffffffffffffffffffffffffff\n      and\n        /* \"@openzeppelin/contracts/token/ERC20/ERC20.sol\":5475:5477  to */\n      dup3\n        /* \"@openzeppelin/contracts/token/ERC20/ERC20.sol\":5475:5491  to == address(0) */\n      0xffffffffffffffffffffffffffffffffffffffff\n      and\n      sub\n        /* \"@openzeppelin/contracts/token/ERC20/ERC20.sol\":5471:5557  if (to == address(0)) {... */\n      tag_322\n      jumpi\n        /* \"@openzeppelin/contracts/token/ERC20/ERC20.sol\":5543:5544  0 */\n      0x00\n        /* \"@openzeppelin/contracts/token/ERC20/ERC20.sol\":5514:5546  ERC20InvalidReceiver(address(0)) */\n      mload(0x40)\n      0xec442f0500000000000000000000000000000000000000000000000000000000\n      dup2\n      mstore\n      0x04\n      add\n      tag_323\n      swap2\n      swap1\n      tag_103\n      jump\t// in\n    tag_323:\n      mload(0x40)\n      dup1\n      swap2\n      sub\n      swap1\n      revert\n        /* \"@openzeppelin/contracts/token/ERC20/ERC20.sol\":5471:5557  if (to == address(0)) {... */\n    tag_322:\n        /* \"@openzeppelin/contracts/token/ERC20/ERC20.sol\":5566:5590  _update(from, to, value) */\n      tag_324\n        /* \"@openzeppelin/contracts/token/ERC20/ERC20.sol\":5574:5578  from */\n      dup4\n        /* \"@openzeppelin/contracts/token/ERC20/ERC20.sol\":5580:5582  to */\n      dup4\n        /* \"@openzeppelin/contracts/token/ERC20/ERC20.sol\":5584:5589  value */\n      dup4\n        /* \"@openzeppelin/contracts/token/ERC20/ERC20.sol\":5566:5573  _update */\n      tag_325\n        /* \"@openzeppelin/contracts/token/ERC20/ERC20.sol\":5566:5590  _update(from, to, value) */\n      jump\t// in\n    tag_324:\n        /* \"@openzeppelin/contracts/token/ERC20/ERC20.sol\":5297:5597  function _transfer(address from, address to, uint256 value) internal {... */\n      pop\n      pop\n      pop\n      jump\t// out\n        /* \"@openzeppelin/contracts/token/ERC20/ERC20.sol\":9607:10039  function _approve(address owner, address spender, uint256 value, bool emitEvent) internal virtual {... */\n    tag_312:\n        /* \"@openzeppelin/contracts/token/ERC20/ERC20.sol\":9736:9737  0 */\n      0x00\n        /* \"@openzeppelin/contracts/token/ERC20/ERC20.sol\":9719:9738  owner == address(0) */\n      0xffffffffffffffffffffffffffffffffffffffff\n      and\n        /* \"@openzeppelin/contracts/token/ERC20/ERC20.sol\":9719:9724  owner */\n      dup5\n        /* \"@openzeppelin/contracts/token/ERC20/ERC20.sol\":9719:9738  owner == address(0) */\n      0xffffffffffffffffffffffffffffffffffffffff\n      and\n      sub\n        /* \"@openzeppelin/contracts/token/ERC20/ERC20.sol\":9715:9804  if (owner == address(0)) {... */\n      tag_327\n      jumpi\n        /* \"@openzeppelin/contracts/token/ERC20/ERC20.sol\":9790:9791  0 */\n      0x00\n        /* \"@openzeppelin/contracts/token/ERC20/ERC20.sol\":9761:9793  ERC20InvalidApprover(address(0)) */\n      mload(0x40)\n      0xe602df0500000000000000000000000000000000000000000000000000000000\n      dup2\n      mstore\n      0x04\n      add\n      tag_328\n      swap2\n      swap1\n      tag_103\n      jump\t// in\n    tag_328:\n      mload(0x40)\n      dup1\n      swap2\n      sub\n      swap1\n      revert\n        /* \"@openzeppelin/contracts/token/ERC20/ERC20.sol\":9715:9804  if (owner == address(0)) {... */\n    tag_327:\n        /* \"@openzeppelin/contracts/token/ERC20/ERC20.sol\":9836:9837  0 */\n      0x00\n        /* \"@openzeppelin/contracts/token/ERC20/ERC20.sol\":9817:9838  spender == address(0) */\n      0xffffffffffffffffffffffffffffffffffffffff\n      and\n        /* \"@openzeppelin/contracts/token/ERC20/ERC20.sol\":9817:9824  spender */\n      dup4\n        /* \"@openzeppelin/contracts/token/ERC20/ERC20.sol\":9817:9838  spender == address(0) */\n      0xffffffffffffffffffffffffffffffffffffffff\n      and\n      sub\n        /* \"@openzeppelin/contracts/token/ERC20/ERC20.sol\":9813:9903  if (spender == address(0)) {... */\n      tag_329\n      jumpi\n        /* \"@openzeppelin/contracts/token/ERC20/ERC20.sol\":9889:9890  0 */\n      0x00\n        /* \"@openzeppelin/contracts/token/ERC20/ERC20.sol\":9861:9892  ERC20InvalidSpender(address(0)) */\n      mload(0x40)\n      0x94280d6200000000000000000000000000000000000000000000000000000000\n      dup2\n      mstore\n      0x04\n      add\n      tag_330\n      swap2\n      swap1\n      tag_103\n      jump\t// in\n    tag_330:\n      mload(0x40)\n      dup1\n      swap2\n      sub\n      swap1\n      revert\n        /* \"@openzeppelin/contracts/token/ERC20/ERC20.sol\":9813:9903  if (spender == address(0)) {... */\n    tag_329:\n        /* \"@openzeppelin/contracts/token/ERC20/ERC20.sol\":9942:9947  value */\n      dup2\n        /* \"@openzeppelin/contracts/token/ERC20/ERC20.sol\":9912:9923  _allowances */\n      0x01\n        /* \"@openzeppelin/contracts/token/ERC20/ERC20.sol\":9912:9930  _allowances[owner] */\n      0x00\n        /* \"@openzeppelin/contracts/token/ERC20/ERC20.sol\":9924:9929  owner */\n      dup7\n        /* \"@openzeppelin/contracts/token/ERC20/ERC20.sol\":9912:9930  _allowances[owner] */\n      0xffffffffffffffffffffffffffffffffffffffff\n      and\n      0xffffffffffffffffffffffffffffffffffffffff\n      and\n      dup2\n      mstore\n      0x20\n      add\n      swap1\n      dup2\n      mstore\n      0x20\n      add\n      0x00\n      keccak256\n        /* \"@openzeppelin/contracts/token/ERC20/ERC20.sol\":9912:9939  _allowances[owner][spender] */\n      0x00\n        /* \"@openzeppelin/contracts/token/ERC20/ERC20.sol\":9931:9938  spender */\n      dup6\n        /* \"@openzeppelin/contracts/token/ERC20/ERC20.sol\":9912:9939  _allowances[owner][spender] */\n      0xffffffffffffffffffffffffffffffffffffffff\n      and\n      0xffffffffffffffffffffffffffffffffffffffff\n      and\n      dup2\n      mstore\n      0x20\n      add\n      swap1\n      dup2\n      mstore\n      0x20\n      add\n      0x00\n      keccak256\n        /* \"@openzeppelin/contracts/token/ERC20/ERC20.sol\":9912:9947  _allowances[owner][spender] = value */\n      dup2\n      swap1\n      sstore\n      pop\n        /* \"@openzeppelin/contracts/token/ERC20/ERC20.sol\":9961:9970  emitEvent */\n      dup1\n        /* \"@openzeppelin/contracts/token/ERC20/ERC20.sol\":9957:10033  if (emitEvent) {... */\n      iszero\n      tag_331\n      jumpi\n        /* \"@openzeppelin/contracts/token/ERC20/ERC20.sol\":10007:10014  spender */\n      dup3\n        /* \"@openzeppelin/contracts/token/ERC20/ERC20.sol\":9991:10022  Approval(owner, spender, value) */\n      0xffffffffffffffffffffffffffffffffffffffff\n      and\n        /* \"@openzeppelin/contracts/token/ERC20/ERC20.sol\":10000:10005  owner */\n      dup5\n        /* \"@openzeppelin/contracts/token/ERC20/ERC20.sol\":9991:10022  Approval(owner, spender, value) */\n      0xffffffffffffffffffffffffffffffffffffffff\n      and\n      0x8c5be1e5ebec7d5bd14f71427d1e84f3dd0314c0f7b2291e5b200ac8c7c3b925\n        /* \"@openzeppelin/contracts/token/ERC20/ERC20.sol\":10016:10021  value */\n      dup5\n        /* \"@openzeppelin/contracts/token/ERC20/ERC20.sol\":9991:10022  Approval(owner, spender, value) */\n      mload(0x40)\n      tag_332\n      swap2\n      swap1\n      tag_50\n      jump\t// in\n    tag_332:\n      mload(0x40)\n      dup1\n      swap2\n      sub\n      swap1\n      log3\n        /* \"@openzeppelin/contracts/token/ERC20/ERC20.sol\":9957:10033  if (emitEvent) {... */\n    tag_331:\n        /* \"@openzeppelin/contracts/token/ERC20/ERC20.sol\":9607:10039  function _approve(address owner, address spender, uint256 value, bool emitEvent) internal virtual {... */\n      pop\n      pop\n      pop\n      pop\n      jump\t// out\n        /* \"@openzeppelin/contracts/token/ERC20/ERC20.sol\":5912:7019  function _update(address from, address to, uint256 value) internal virtual {... */\n    tag_325:\n        /* \"@openzeppelin/contracts/token/ERC20/ERC20.sol\":6017:6018  0 */\n      0x00\n        /* \"@openzeppelin/contracts/token/ERC20/ERC20.sol\":6001:6019  from == address(0) */\n      0xffffffffffffffffffffffffffffffffffffffff\n      and\n        /* \"@openzeppelin/contracts/token/ERC20/ERC20.sol\":6001:6005  from */\n      dup4\n        /* \"@openzeppelin/contracts/token/ERC20/ERC20.sol\":6001:6019  from == address(0) */\n      0xffffffffffffffffffffffffffffffffffffffff\n      and\n      sub\n        /* \"@openzeppelin/contracts/token/ERC20/ERC20.sol\":5997:6537  if (from == address(0)) {... */\n      tag_334\n      jumpi\n        /* \"@openzeppelin/contracts/token/ERC20/ERC20.sol\":6153:6158  value */\n      dup1\n        /* \"@openzeppelin/contracts/token/ERC20/ERC20.sol\":6137:6149  _totalSupply */\n      0x02\n      0x00\n        /* \"@openzeppelin/contracts/token/ERC20/ERC20.sol\":6137:6158  _totalSupply += value */\n      dup3\n      dup3\n      sload\n      tag_335\n      swap2\n      swap1\n      tag_195\n      jump\t// in\n    tag_335:\n      swap3\n      pop\n      pop\n      dup2\n      swap1\n      sstore\n      pop\n        /* \"@openzeppelin/contracts/token/ERC20/ERC20.sol\":5997:6537  if (from == address(0)) {... */\n      jump(tag_336)\n    tag_334:\n        /* \"@openzeppelin/contracts/token/ERC20/ERC20.sol\":6189:6208  uint256 fromBalance */\n      0x00\n        /* \"@openzeppelin/contracts/token/ERC20/ERC20.sol\":6211:6220  _balances */\n      0x00\n        /* \"@openzeppelin/contracts/token/ERC20/ERC20.sol\":6211:6226  _balances[from] */\n      0x00\n        /* \"@openzeppelin/contracts/token/ERC20/ERC20.sol\":6221:6225  from */\n      dup6\n        /* \"@openzeppelin/contracts/token/ERC20/ERC20.sol\":6211:6226  _balances[from] */\n      0xffffffffffffffffffffffffffffffffffffffff\n      and\n      0xffffffffffffffffffffffffffffffffffffffff\n      and\n      dup2\n      mstore\n      0x20\n      add\n      swap1\n      dup2\n      mstore\n      0x20\n      add\n      0x00\n      keccak256\n      sload\n        /* \"@openzeppelin/contracts/token/ERC20/ERC20.sol\":6189:6226  uint256 fromBalance = _balances[from] */\n      swap1\n      pop\n        /* \"@openzeppelin/contracts/token/ERC20/ERC20.sol\":6258:6263  value */\n      dup2\n        /* \"@openzeppelin/contracts/token/ERC20/ERC20.sol\":6244:6255  fromBalance */\n      dup2\n        /* \"@openzeppelin/contracts/token/ERC20/ERC20.sol\":6244:6263  fromBalance < value */\n      lt\n        /* \"@openzeppelin/contracts/token/ERC20/ERC20.sol\":6240:6355  if (fromBalance < value) {... */\n      iszero\n      tag_337\n      jumpi\n        /* \"@openzeppelin/contracts/token/ERC20/ERC20.sol\":6315:6319  from */\n      dup4\n        /* \"@openzeppelin/contracts/token/ERC20/ERC20.sol\":6321:6332  fromBalance */\n      dup2\n        /* \"@openzeppelin/contracts/token/ERC20/ERC20.sol\":6334:6339  value */\n      dup4\n        /* \"@openzeppelin/contracts/token/ERC20/ERC20.sol\":6290:6340  ERC20InsufficientBalance(from, fromBalance, value) */\n      mload(0x40)\n      0xe450d38c00000000000000000000000000000000000000000000000000000000\n      dup2\n      mstore\n      0x04\n      add\n      tag_338\n      swap4\n      swap3\n      swap2\n      swap1\n      tag_308\n      jump\t// in\n    tag_338:\n      mload(0x40)\n      dup1\n      swap2\n      sub\n      swap1\n      revert\n        /* \"@openzeppelin/contracts/token/ERC20/ERC20.sol\":6240:6355  if (fromBalance < value) {... */\n    tag_337:\n        /* \"@openzeppelin/contracts/token/ERC20/ERC20.sol\":6507:6512  value */\n      dup2\n        /* \"@openzeppelin/contracts/token/ERC20/ERC20.sol\":6493:6504  fromBalance */\n      dup2\n        /* \"@openzeppelin/contracts/token/ERC20/ERC20.sol\":6493:6512  fromBalance - value */\n      sub\n        /* \"@openzeppelin/contracts/token/ERC20/ERC20.sol\":6475:6484  _balances */\n      0x00\n        /* \"@openzeppelin/contracts/token/ERC20/ERC20.sol\":6475:6490  _balances[from] */\n      0x00\n        /* \"@openzeppelin/contracts/token/ERC20/ERC20.sol\":6485:6489  from */\n      dup7\n        /* \"@openzeppelin/contracts/token/ERC20/ERC20.sol\":6475:6490  _balances[from] */\n      0xffffffffffffffffffffffffffffffffffffffff\n      and\n      0xffffffffffffffffffffffffffffffffffffffff\n      and\n      dup2\n      mstore\n      0x20\n      add\n      swap1\n      dup2\n      mstore\n      0x20\n      add\n      0x00\n      keccak256\n        /* \"@openzeppelin/contracts/token/ERC20/ERC20.sol\":6475:6512  _balances[from] = fromBalance - value */\n      dup2\n      swap1\n      sstore\n      pop\n        /* \"@openzeppelin/contracts/token/ERC20/ERC20.sol\":6175:6537  {... */\n      pop\n        /* \"@openzeppelin/contracts/token/ERC20/ERC20.sol\":5997:6537  if (from == address(0)) {... */\n    tag_336:\n        /* \"@openzeppelin/contracts/token/ERC20/ERC20.sol\":6565:6566  0 */\n      0x00\n        /* \"@openzeppelin/contracts/token/ERC20/ERC20.sol\":6551:6567  to == address(0) */\n      0xffffffffffffffffffffffffffffffffffffffff\n      and\n        /* \"@openzeppelin/contracts/token/ERC20/ERC20.sol\":6551:6553  to */\n      dup3\n        /* \"@openzeppelin/contracts/token/ERC20/ERC20.sol\":6551:6567  to == address(0) */\n      0xffffffffffffffffffffffffffffffffffffffff\n      and\n      sub\n        /* \"@openzeppelin/contracts/token/ERC20/ERC20.sol\":6547:6972  if (to == address(0)) {... */\n      tag_339\n      jumpi\n        /* \"@openzeppelin/contracts/token/ERC20/ERC20.sol\":6730:6735  value */\n      dup1\n        /* \"@openzeppelin/contracts/token/ERC20/ERC20.sol\":6714:6726  _totalSupply */\n      0x02\n      0x00\n        /* \"@openzeppelin/contracts/token/ERC20/ERC20.sol\":6714:6735  _totalSupply -= value */\n      dup3\n      dup3\n      sload\n      sub\n      swap3\n      pop\n      pop\n      dup2\n      swap1\n      sstore\n      pop\n        /* \"@openzeppelin/contracts/token/ERC20/ERC20.sol\":6547:6972  if (to == address(0)) {... */\n      jump(tag_340)\n    tag_339:\n        /* \"@openzeppelin/contracts/token/ERC20/ERC20.sol\":6942:6947  value */\n      dup1\n        /* \"@openzeppelin/contracts/token/ERC20/ERC20.sol\":6925:6934  _balances */\n      0x00\n        /* \"@openzeppelin/contracts/token/ERC20/ERC20.sol\":6925:6938  _balances[to] */\n      0x00\n        /* \"@openzeppelin/contracts/token/ERC20/ERC20.sol\":6935:6937  to */\n      dup5\n        /* \"@openzeppelin/contracts/token/ERC20/ERC20.sol\":6925:6938  _balances[to] */\n      0xffffffffffffffffffffffffffffffffffffffff\n      and\n      0xffffffffffffffffffffffffffffffffffffffff\n      and\n      dup2\n      mstore\n      0x20\n      add\n      swap1\n      dup2\n      mstore\n      0x20\n      add\n      0x00\n      keccak256\n      0x00\n        /* \"@openzeppelin/contracts/token/ERC20/ERC20.sol\":6925:6947  _balances[to] += value */\n      dup3\n      dup3\n      sload\n      add\n      swap3\n      pop\n      pop\n      dup2\n      swap1\n      sstore\n      pop\n        /* \"@openzeppelin/contracts/token/ERC20/ERC20.sol\":6547:6972  if (to == address(0)) {... */\n    tag_340:\n        /* \"@openzeppelin/contracts/token/ERC20/ERC20.sol\":7002:7004  to */\n      dup2\n        /* \"@openzeppelin/contracts/token/ERC20/ERC20.sol\":6987:7012  Transfer(from, to, value) */\n      0xffffffffffffffffffffffffffffffffffffffff\n      and\n        /* \"@openzeppelin/contracts/token/ERC20/ERC20.sol\":6996:7000  from */\n      dup4\n        /* \"@openzeppelin/contracts/token/ERC20/ERC20.sol\":6987:7012  Transfer(from, to, value) */\n      0xffffffffffffffffffffffffffffffffffffffff\n      and\n      0xddf252ad1be2c89b69c2b068fc378daa952ba7f163c4a11628f55a4df523b3ef\n        /* \"@openzeppelin/contracts/token/ERC20/ERC20.sol\":7006:7011  value */\n      dup4\n        /* \"@openzeppelin/contracts/token/ERC20/ERC20.sol\":6987:7012  Transfer(from, to, value) */\n      mload(0x40)\n      tag_341\n      swap2\n      swap1\n      tag_50\n      jump\t// in\n    tag_341:\n      mload(0x40)\n      dup1\n      swap2\n      sub\n      swap1\n      log3\n        /* \"@openzeppelin/contracts/token/ERC20/ERC20.sol\":5912:7019  function _update(address from, address to, uint256 value) internal virtual {... */\n      pop\n      pop\n      pop\n      jump\t// out\n        /* \"#utility.yul\":7:106   */\n    tag_342:\n        /* \"#utility.yul\":59:65   */\n      0x00\n        /* \"#utility.yul\":93:98   */\n      dup2\n        /* \"#utility.yul\":87:99   */\n      mload\n        /* \"#utility.yul\":77:99   */\n      swap1\n      pop\n        /* \"#utility.yul\":7:106   */\n      swap2\n      swap1\n      pop\n      jump\t// out\n        /* \"#utility.yul\":112:281   */\n    tag_343:\n        /* \"#utility.yul\":196:207   */\n      0x00\n        /* \"#utility.yul\":230:236   */\n      dup3\n        /* \"#utility.yul\":225:228   */\n      dup3\n        /* \"#utility.yul\":218:237   */\n      mstore\n        /* \"#utility.yul\":270:274   */\n      0x20\n        /* \"#utility.yul\":265:268   */\n      dup3\n        /* \"#utility.yul\":261:275   */\n      add\n        /* \"#utility.yul\":246:275   */\n      swap1\n      pop\n        /* \"#utility.yul\":112:281   */\n      swap3\n      swap2\n      pop\n      pop\n      jump\t// out\n        /* \"#utility.yul\":287:426   */\n    tag_344:\n        /* \"#utility.yul\":376:382   */\n      dup3\n        /* \"#utility.yul\":371:374   */\n      dup2\n        /* \"#utility.yul\":366:369   */\n      dup4\n        /* \"#utility.yul\":360:383   */\n      mcopy\n        /* \"#utility.yul\":417:418   */\n      0x00\n        /* \"#utility.yul\":408:414   */\n      dup4\n        /* \"#utility.yul\":403:406   */\n      dup4\n        /* \"#utility.yul\":399:415   */\n      add\n        /* \"#utility.yul\":392:419   */\n      mstore\n        /* \"#utility.yul\":287:426   */\n      pop\n      pop\n      pop\n      jump\t// out\n        /* \"#utility.yul\":432:534   */\n    tag_345:\n        /* \"#utility.yul\":473:479   */\n      0x00\n        /* \"#utility.yul\":524:526   */\n      0x1f\n        /* \"#utility.yul\":520:527   */\n      not\n        /* \"#utility.yul\":515:517   */\n      0x1f\n        /* \"#utility.yul\":508:513   */\n      dup4\n        /* \"#utility.yul\":504:518   */\n      add\n        /* \"#utility.yul\":500:528   */\n      and\n        /* \"#utility.yul\":490:528   */\n      swap1\n      pop\n        /* \"#utility.yul\":432:534   */\n      swap2\n      swap1\n      pop\n      jump\t// out\n        /* \"#utility.yul\":540:917   */\n    tag_346:\n        /* \"#utility.yul\":628:631   */\n      0x00\n        /* \"#utility.yul\":656:695   */\n      tag_419\n        /* \"#utility.yul\":689:694   */\n      dup3\n        /* \"#utility.yul\":656:695   */\n      tag_342\n      jump\t// in\n    tag_419:\n        /* \"#utility.yul\":711:782   */\n      tag_420\n        /* \"#utility.yul\":775:781   */\n      dup2\n        /* \"#utility.yul\":770:773   */\n      dup6\n        /* \"#utility.yul\":711:782   */\n      tag_343\n      jump\t// in\n    tag_420:\n        /* \"#utility.yul\":704:782   */\n      swap4\n      pop\n        /* \"#utility.yul\":791:856   */\n      tag_421\n        /* \"#utility.yul\":849:855   */\n      dup2\n        /* \"#utility.yul\":844:847   */\n      dup6\n        /* \"#utility.yul\":837:841   */\n      0x20\n        /* \"#utility.yul\":830:835   */\n      dup7\n        /* \"#utility.yul\":826:842   */\n      add\n        /* \"#utility.yul\":791:856   */\n      tag_344\n      jump\t// in\n    tag_421:\n        /* \"#utility.yul\":881:910   */\n      tag_422\n        /* \"#utility.yul\":903:909   */\n      dup2\n        /* \"#utility.yul\":881:910   */\n      tag_345\n      jump\t// in\n    tag_422:\n        /* \"#utility.yul\":876:879   */\n      dup5\n        /* \"#utility.yul\":872:911   */\n      add\n        /* \"#utility.yul\":865:911   */\n      swap2\n      pop\n        /* \"#utility.yul\":632:917   */\n      pop\n        /* \"#utility.yul\":540:917   */\n      swap3\n      swap2\n      pop\n      pop\n      jump\t// out\n        /* \"#utility.yul\":923:1236   */\n    tag_38:\n        /* \"#utility.yul\":1036:1040   */\n      0x00\n        /* \"#utility.yul\":1074:1076   */\n      0x20\n        /* \"#utility.yul\":1063:1072   */\n      dup3\n        /* \"#utility.yul\":1059:1077   */\n      add\n        /* \"#utility.yul\":1051:1077   */\n      swap1\n      pop\n        /* \"#utility.yul\":1123:1132   */\n      dup2\n        /* \"#utility.yul\":1117:1121   */\n      dup2\n        /* \"#utility.yul\":1113:1133   */\n      sub\n        /* \"#utility.yul\":1109:1110   */\n      0x00\n        /* \"#utility.yul\":1098:1107   */\n      dup4\n        /* \"#utility.yul\":1094:1111   */\n      add\n        /* \"#utility.yul\":1087:1134   */\n      mstore\n        /* \"#utility.yul\":1151:1229   */\n      tag_424\n        /* \"#utility.yul\":1224:1228   */\n      dup2\n        /* \"#utility.yul\":1215:1221   */\n      dup5\n        /* \"#utility.yul\":1151:1229   */\n      tag_346\n      jump\t// in\n    tag_424:\n        /* \"#utility.yul\":1143:1229   */\n      swap1\n      pop\n        /* \"#utility.yul\":923:1236   */\n      swap3\n      swap2\n      pop\n      pop\n      jump\t// out\n        /* \"#utility.yul\":1323:1440   */\n    tag_348:\n        /* \"#utility.yul\":1432:1433   */\n      0x00\n        /* \"#utility.yul\":1429:1430   */\n      0x00\n        /* \"#utility.yul\":1422:1434   */\n      revert\n        /* \"#utility.yul\":1569:1695   */\n    tag_350:\n        /* \"#utility.yul\":1606:1613   */\n      0x00\n        /* \"#utility.yul\":1646:1688   */\n      0xffffffffffffffffffffffffffffffffffffffff\n        /* \"#utility.yul\":1639:1644   */\n      dup3\n        /* \"#utility.yul\":1635:1689   */\n      and\n        /* \"#utility.yul\":1624:1689   */\n      swap1\n      pop\n        /* \"#utility.yul\":1569:1695   */\n      swap2\n      swap1\n      pop\n      jump\t// out\n        /* \"#utility.yul\":1701:1797   */\n    tag_351:\n        /* \"#utility.yul\":1738:1745   */\n      0x00\n        /* \"#utility.yul\":1767:1791   */\n      tag_430\n        /* \"#utility.yul\":1785:1790   */\n      dup3\n        /* \"#utility.yul\":1767:1791   */\n      tag_350\n      jump\t// in\n    tag_430:\n        /* \"#utility.yul\":1756:1791   */\n      swap1\n      pop\n        /* \"#utility.yul\":1701:1797   */\n      swap2\n      swap1\n      pop\n      jump\t// out\n        /* \"#utility.yul\":1803:1925   */\n    tag_352:\n        /* \"#utility.yul\":1876:1900   */\n      tag_432\n        /* \"#utility.yul\":1894:1899   */\n      dup2\n        /* \"#utility.yul\":1876:1900   */\n      tag_351\n      jump\t// in\n    tag_432:\n        /* \"#utility.yul\":1869:1874   */\n      dup2\n        /* \"#utility.yul\":1866:1901   */\n      eq\n        /* \"#utility.yul\":1856:1919   */\n      tag_433\n      jumpi\n        /* \"#utility.yul\":1915:1916   */\n      0x00\n        /* \"#utility.yul\":1912:1913   */\n      0x00\n        /* \"#utility.yul\":1905:1917   */\n      revert\n        /* \"#utility.yul\":1856:1919   */\n    tag_433:\n        /* \"#utility.yul\":1803:1925   */\n      pop\n      jump\t// out\n        /* \"#utility.yul\":1931:2070   */\n    tag_353:\n        /* \"#utility.yul\":1977:1982   */\n      0x00\n        /* \"#utility.yul\":2015:2021   */\n      dup2\n        /* \"#utility.yul\":2002:2022   */\n      calldataload\n        /* \"#utility.yul\":1993:2022   */\n      swap1\n      pop\n        /* \"#utility.yul\":2031:2064   */\n      tag_435\n        /* \"#utility.yul\":2058:2063   */\n      dup2\n        /* \"#utility.yul\":2031:2064   */\n      tag_352\n      jump\t// in\n    tag_435:\n        /* \"#utility.yul\":1931:2070   */\n      swap3\n      swap2\n      pop\n      pop\n      jump\t// out\n        /* \"#utility.yul\":2076:2153   */\n    tag_354:\n        /* \"#utility.yul\":2113:2120   */\n      0x00\n        /* \"#utility.yul\":2142:2147   */\n      dup2\n        /* \"#utility.yul\":2131:2147   */\n      swap1\n      pop\n        /* \"#utility.yul\":2076:2153   */\n      swap2\n      swap1\n      pop\n      jump\t// out\n        /* \"#utility.yul\":2159:2281   */\n    tag_355:\n        /* \"#utility.yul\":2232:2256   */\n      tag_438\n        /* \"#utility.yul\":2250:2255   */\n      dup2\n        /* \"#utility.yul\":2232:2256   */\n      tag_354\n      jump\t// in\n    tag_438:\n        /* \"#utility.yul\":2225:2230   */\n      dup2\n        /* \"#utility.yul\":2222:2257   */\n      eq\n        /* \"#utility.yul\":2212:2275   */\n      tag_439\n      jumpi\n        /* \"#utility.yul\":2271:2272   */\n      0x00\n        /* \"#utility.yul\":2268:2269   */\n      0x00\n        /* \"#utility.yul\":2261:2273   */\n      revert\n        /* \"#utility.yul\":2212:2275   */\n    tag_439:\n        /* \"#utility.yul\":2159:2281   */\n      pop\n      jump\t// out\n        /* \"#utility.yul\":2287:2426   */\n    tag_356:\n        /* \"#utility.yul\":2333:2338   */\n      0x00\n        /* \"#utility.yul\":2371:2377   */\n      dup2\n        /* \"#utility.yul\":2358:2378   */\n      calldataload\n        /* \"#utility.yul\":2349:2378   */\n      swap1\n      pop\n        /* \"#utility.yul\":2387:2420   */\n      tag_441\n        /* \"#utility.yul\":2414:2419   */\n      dup2\n        /* \"#utility.yul\":2387:2420   */\n      tag_355\n      jump\t// in\n    tag_441:\n        /* \"#utility.yul\":2287:2426   */\n      swap3\n      swap2\n      pop\n      pop\n      jump\t// out\n        /* \"#utility.yul\":2432:2906   */\n    tag_42:\n        /* \"#utility.yul\":2500:2506   */\n      0x00\n        /* \"#utility.yul\":2508:2514   */\n      0x00\n        /* \"#utility.yul\":2557:2559   */\n      0x40\n        /* \"#utility.yul\":2545:2554   */\n      dup4\n        /* \"#utility.yul\":2536:2543   */\n      dup6\n        /* \"#utility.yul\":2532:2555   */\n      sub\n        /* \"#utility.yul\":2528:2560   */\n      slt\n        /* \"#utility.yul\":2525:2644   */\n      iszero\n      tag_443\n      jumpi\n        /* \"#utility.yul\":2563:2642   */\n      tag_444\n      tag_348\n      jump\t// in\n    tag_444:\n        /* \"#utility.yul\":2525:2644   */\n    tag_443:\n        /* \"#utility.yul\":2683:2684   */\n      0x00\n        /* \"#utility.yul\":2708:2761   */\n      tag_445\n        /* \"#utility.yul\":2753:2760   */\n      dup6\n        /* \"#utility.yul\":2744:2750   */\n      dup3\n        /* \"#utility.yul\":2733:2742   */\n      dup7\n        /* \"#utility.yul\":2729:2751   */\n      add\n        /* \"#utility.yul\":2708:2761   */\n      tag_353\n      jump\t// in\n    tag_445:\n        /* \"#utility.yul\":2698:2761   */\n      swap3\n      pop\n        /* \"#utility.yul\":2654:2771   */\n      pop\n        /* \"#utility.yul\":2810:2812   */\n      0x20\n        /* \"#utility.yul\":2836:2889   */\n      tag_446\n        /* \"#utility.yul\":2881:2888   */\n      dup6\n        /* \"#utility.yul\":2872:2878   */\n      dup3\n        /* \"#utility.yul\":2861:2870   */\n      dup7\n        /* \"#utility.yul\":2857:2879   */\n      add\n        /* \"#utility.yul\":2836:2889   */\n      tag_356\n      jump\t// in\n    tag_446:\n        /* \"#utility.yul\":2826:2889   */\n      swap2\n      pop\n        /* \"#utility.yul\":2781:2899   */\n      pop\n        /* \"#utility.yul\":2432:2906   */\n      swap3\n      pop\n      swap3\n      swap1\n      pop\n      jump\t// out\n        /* \"#utility.yul\":2912:3002   */\n    tag_357:\n        /* \"#utility.yul\":2946:2953   */\n      0x00\n        /* \"#utility.yul\":2989:2994   */\n      dup2\n        /* \"#utility.yul\":2982:2995   */\n      iszero\n        /* \"#utility.yul\":2975:2996   */\n      iszero\n        /* \"#utility.yul\":2964:2996   */\n      swap1\n      pop\n        /* \"#utility.yul\":2912:3002   */\n      swap2\n      swap1\n      pop\n      jump\t// out\n        /* \"#utility.yul\":3008:3117   */\n    tag_358:\n        /* \"#utility.yul\":3089:3110   */\n      tag_449\n        /* \"#utility.yul\":3104:3109   */\n      dup2\n        /* \"#utility.yul\":3089:3110   */\n      tag_357\n      jump\t// in\n    tag_449:\n        /* \"#utility.yul\":3084:3087   */\n      dup3\n        /* \"#utility.yul\":3077:3111   */\n      mstore\n        /* \"#utility.yul\":3008:3117   */\n      pop\n      pop\n      jump\t// out\n        /* \"#utility.yul\":3123:3333   */\n    tag_45:\n        /* \"#utility.yul\":3210:3214   */\n      0x00\n        /* \"#utility.yul\":3248:3250   */\n      0x20\n        /* \"#utility.yul\":3237:3246   */\n      dup3\n        /* \"#utility.yul\":3233:3251   */\n      add\n        /* \"#utility.yul\":3225:3251   */\n      swap1\n      pop\n        /* \"#utility.yul\":3261:3326   */\n      tag_451\n        /* \"#utility.yul\":3323:3324   */\n      0x00\n        /* \"#utility.yul\":3312:3321   */\n      dup4\n        /* \"#utility.yul\":3308:3325   */\n      add\n        /* \"#utility.yul\":3299:3305   */\n      dup5\n        /* \"#utility.yul\":3261:3326   */\n      tag_358\n      jump\t// in\n    tag_451:\n        /* \"#utility.yul\":3123:3333   */\n      swap3\n      swap2\n      pop\n      pop\n      jump\t// out\n        /* \"#utility.yul\":3339:3457   */\n    tag_359:\n        /* \"#utility.yul\":3426:3450   */\n      tag_453\n        /* \"#utility.yul\":3444:3449   */\n      dup2\n        /* \"#utility.yul\":3426:3450   */\n      tag_354\n      jump\t// in\n    tag_453:\n        /* \"#utility.yul\":3421:3424   */\n      dup3\n        /* \"#utility.yul\":3414:3451   */\n      mstore\n        /* \"#utility.yul\":3339:3457   */\n      pop\n      pop\n      jump\t// out\n        /* \"#utility.yul\":3463:3685   */\n    tag_50:\n        /* \"#utility.yul\":3556:3560   */\n      0x00\n        /* \"#utility.yul\":3594:3596   */\n      0x20\n        /* \"#utility.yul\":3583:3592   */\n      dup3\n        /* \"#utility.yul\":3579:3597   */\n      add\n        /* \"#utility.yul\":3571:3597   */\n      swap1\n      pop\n        /* \"#utility.yul\":3607:3678   */\n      tag_455\n        /* \"#utility.yul\":3675:3676   */\n      0x00\n        /* \"#utility.yul\":3664:3673   */\n      dup4\n        /* \"#utility.yul\":3660:3677   */\n      add\n        /* \"#utility.yul\":3651:3657   */\n      dup5\n        /* \"#utility.yul\":3607:3678   */\n      tag_359\n      jump\t// in\n    tag_455:\n        /* \"#utility.yul\":3463:3685   */\n      swap3\n      swap2\n      pop\n      pop\n      jump\t// out\n        /* \"#utility.yul\":3691:4310   */\n    tag_58:\n        /* \"#utility.yul\":3768:3774   */\n      0x00\n        /* \"#utility.yul\":3776:3782   */\n      0x00\n        /* \"#utility.yul\":3784:3790   */\n      0x00\n        /* \"#utility.yul\":3833:3835   */\n      0x60\n        /* \"#utility.yul\":3821:3830   */\n      dup5\n        /* \"#utility.yul\":3812:3819   */\n      dup7\n        /* \"#utility.yul\":3808:3831   */\n      sub\n        /* \"#utility.yul\":3804:3836   */\n      slt\n        /* \"#utility.yul\":3801:3920   */\n      iszero\n      tag_457\n      jumpi\n        /* \"#utility.yul\":3839:3918   */\n      tag_458\n      tag_348\n      jump\t// in\n    tag_458:\n        /* \"#utility.yul\":3801:3920   */\n    tag_457:\n        /* \"#utility.yul\":3959:3960   */\n      0x00\n        /* \"#utility.yul\":3984:4037   */\n      tag_459\n        /* \"#utility.yul\":4029:4036   */\n      dup7\n        /* \"#utility.yul\":4020:4026   */\n      dup3\n        /* \"#utility.yul\":4009:4018   */\n      dup8\n        /* \"#utility.yul\":4005:4027   */\n      add\n        /* \"#utility.yul\":3984:4037   */\n      tag_353\n      jump\t// in\n    tag_459:\n        /* \"#utility.yul\":3974:4037   */\n      swap4\n      pop\n        /* \"#utility.yul\":3930:4047   */\n      pop\n        /* \"#utility.yul\":4086:4088   */\n      0x20\n        /* \"#utility.yul\":4112:4165   */\n      tag_460\n        /* \"#utility.yul\":4157:4164   */\n      dup7\n        /* \"#utility.yul\":4148:4154   */\n      dup3\n        /* \"#utility.yul\":4137:4146   */\n      dup8\n        /* \"#utility.yul\":4133:4155   */\n      add\n        /* \"#utility.yul\":4112:4165   */\n      tag_353\n      jump\t// in\n    tag_460:\n        /* \"#utility.yul\":4102:4165   */\n      swap3\n      pop\n        /* \"#utility.yul\":4057:4175   */\n      pop\n        /* \"#utility.yul\":4214:4216   */\n      0x40\n        /* \"#utility.yul\":4240:4293   */\n      tag_461\n        /* \"#utility.yul\":4285:4292   */\n      dup7\n        /* \"#utility.yul\":4276:4282   */\n      dup3\n        /* \"#utility.yul\":4265:4274   */\n      dup8\n        /* \"#utility.yul\":4261:4283   */\n      add\n        /* \"#utility.yul\":4240:4293   */\n      tag_356\n      jump\t// in\n    tag_461:\n        /* \"#utility.yul\":4230:4293   */\n      swap2\n      pop\n        /* \"#utility.yul\":4185:4303   */\n      pop\n        /* \"#utility.yul\":3691:4310   */\n      swap3\n      pop\n      swap3\n      pop\n      swap3\n      jump\t// out\n        /* \"#utility.yul\":4316:4402   */\n    tag_360:\n        /* \"#utility.yul\":4351:4358   */\n      0x00\n        /* \"#utility.yul\":4391:4395   */\n      0xff\n        /* \"#utility.yul\":4384:4389   */\n      dup3\n        /* \"#utility.yul\":4380:4396   */\n      and\n        /* \"#utility.yul\":4369:4396   */\n      swap1\n      pop\n        /* \"#utility.yul\":4316:4402   */\n      swap2\n      swap1\n      pop\n      jump\t// out\n        /* \"#utility.yul\":4408:4520   */\n    tag_361:\n        /* \"#utility.yul\":4491:4513   */\n      tag_464\n        /* \"#utility.yul\":4507:4512   */\n      dup2\n        /* \"#utility.yul\":4491:4513   */\n      tag_360\n      jump\t// in\n    tag_464:\n        /* \"#utility.yul\":4486:4489   */\n      dup3\n        /* \"#utility.yul\":4479:4514   */\n      mstore\n        /* \"#utility.yul\":4408:4520   */\n      pop\n      pop\n      jump\t// out\n        /* \"#utility.yul\":4526:4740   */\n    tag_65:\n        /* \"#utility.yul\":4615:4619   */\n      0x00\n        /* \"#utility.yul\":4653:4655   */\n      0x20\n        /* \"#utility.yul\":4642:4651   */\n      dup3\n        /* \"#utility.yul\":4638:4656   */\n      add\n        /* \"#utility.yul\":4630:4656   */\n      swap1\n      pop\n        /* \"#utility.yul\":4666:4733   */\n      tag_466\n        /* \"#utility.yul\":4730:4731   */\n      0x00\n        /* \"#utility.yul\":4719:4728   */\n      dup4\n        /* \"#utility.yul\":4715:4732   */\n      add\n        /* \"#utility.yul\":4706:4712   */\n      dup5\n        /* \"#utility.yul\":4666:4733   */\n      tag_361\n      jump\t// in\n    tag_466:\n        /* \"#utility.yul\":4526:4740   */\n      swap3\n      swap2\n      pop\n      pop\n      jump\t// out\n        /* \"#utility.yul\":4746:5075   */\n    tag_76:\n        /* \"#utility.yul\":4805:4811   */\n      0x00\n        /* \"#utility.yul\":4854:4856   */\n      0x20\n        /* \"#utility.yul\":4842:4851   */\n      dup3\n        /* \"#utility.yul\":4833:4840   */\n      dup5\n        /* \"#utility.yul\":4829:4852   */\n      sub\n        /* \"#utility.yul\":4825:4857   */\n      slt\n        /* \"#utility.yul\":4822:4941   */\n      iszero\n      tag_468\n      jumpi\n        /* \"#utility.yul\":4860:4939   */\n      tag_469\n      tag_348\n      jump\t// in\n    tag_469:\n        /* \"#utility.yul\":4822:4941   */\n    tag_468:\n        /* \"#utility.yul\":4980:4981   */\n      0x00\n        /* \"#utility.yul\":5005:5058   */\n      tag_470\n        /* \"#utility.yul\":5050:5057   */\n      dup5\n        /* \"#utility.yul\":5041:5047   */\n      dup3\n        /* \"#utility.yul\":5030:5039   */\n      dup6\n        /* \"#utility.yul\":5026:5048   */\n      add\n        /* \"#utility.yul\":5005:5058   */\n      tag_356\n      jump\t// in\n    tag_470:\n        /* \"#utility.yul\":4995:5058   */\n      swap2\n      pop\n        /* \"#utility.yul\":4951:5068   */\n      pop\n        /* \"#utility.yul\":4746:5075   */\n      swap3\n      swap2\n      pop\n      pop\n      jump\t// out\n        /* \"#utility.yul\":5081:5410   */\n    tag_81:\n        /* \"#utility.yul\":5140:5146   */\n      0x00\n        /* \"#utility.yul\":5189:5191   */\n      0x20\n        /* \"#utility.yul\":5177:5186   */\n      dup3\n        /* \"#utility.yul\":5168:5175   */\n      dup5\n        /* \"#utility.yul\":5164:5187   */\n      sub\n        /* \"#utility.yul\":5160:5192   */\n      slt\n        /* \"#utility.yul\":5157:5276   */\n      iszero\n      tag_472\n      jumpi\n        /* \"#utility.yul\":5195:5274   */\n      tag_473\n      tag_348\n      jump\t// in\n    tag_473:\n        /* \"#utility.yul\":5157:5276   */\n    tag_472:\n        /* \"#utility.yul\":5315:5316   */\n      0x00\n        /* \"#utility.yul\":5340:5393   */\n      tag_474\n        /* \"#utility.yul\":5385:5392   */\n      dup5\n        /* \"#utility.yul\":5376:5382   */\n      dup3\n        /* \"#utility.yul\":5365:5374   */\n      dup6\n        /* \"#utility.yul\":5361:5383   */\n      add\n        /* \"#utility.yul\":5340:5393   */\n      tag_353\n      jump\t// in\n    tag_474:\n        /* \"#utility.yul\":5330:5393   */\n      swap2\n      pop\n        /* \"#utility.yul\":5286:5403   */\n      pop\n        /* \"#utility.yul\":5081:5410   */\n      swap3\n      swap2\n      pop\n      pop\n      jump\t// out\n        /* \"#utility.yul\":5416:5534   */\n    tag_362:\n        /* \"#utility.yul\":5503:5527   */\n      tag_476\n        /* \"#utility.yul\":5521:5526   */\n      dup2\n        /* \"#utility.yul\":5503:5527   */\n      tag_351\n      jump\t// in\n    tag_476:\n        /* \"#utility.yul\":5498:5501   */\n      dup3\n        /* \"#utility.yul\":5491:5528   */\n      mstore\n        /* \"#utility.yul\":5416:5534   */\n      pop\n      pop\n      jump\t// out\n        /* \"#utility.yul\":5540:5762   */\n    tag_103:\n        /* \"#utility.yul\":5633:5637   */\n      0x00\n        /* \"#utility.yul\":5671:5673   */\n      0x20\n        /* \"#utility.yul\":5660:5669   */\n      dup3\n        /* \"#utility.yul\":5656:5674   */\n      add\n        /* \"#utility.yul\":5648:5674   */\n      swap1\n      pop\n        /* \"#utility.yul\":5684:5755   */\n      tag_478\n        /* \"#utility.yul\":5752:5753   */\n      0x00\n        /* \"#utility.yul\":5741:5750   */\n      dup4\n        /* \"#utility.yul\":5737:5754   */\n      add\n        /* \"#utility.yul\":5728:5734   */\n      dup5\n        /* \"#utility.yul\":5684:5755   */\n      tag_362\n      jump\t// in\n    tag_478:\n        /* \"#utility.yul\":5540:5762   */\n      swap3\n      swap2\n      pop\n      pop\n      jump\t// out\n        /* \"#utility.yul\":5768:6242   */\n    tag_128:\n        /* \"#utility.yul\":5836:5842   */\n      0x00\n        /* \"#utility.yul\":5844:5850   */\n      0x00\n        /* \"#utility.yul\":5893:5895   */\n      0x40\n        /* \"#utility.yul\":5881:5890   */\n      dup4\n        /* \"#utility.yul\":5872:5879   */\n      dup6\n        /* \"#utility.yul\":5868:5891   */\n      sub\n        /* \"#utility.yul\":5864:5896   */\n      slt\n        /* \"#utility.yul\":5861:5980   */\n      iszero\n      tag_480\n      jumpi\n        /* \"#utility.yul\":5899:5978   */\n      tag_481\n      tag_348\n      jump\t// in\n    tag_481:\n        /* \"#utility.yul\":5861:5980   */\n    tag_480:\n        /* \"#utility.yul\":6019:6020   */\n      0x00\n        /* \"#utility.yul\":6044:6097   */\n      tag_482\n        /* \"#utility.yul\":6089:6096   */\n      dup6\n        /* \"#utility.yul\":6080:6086   */\n      dup3\n        /* \"#utility.yul\":6069:6078   */\n      dup7\n        /* \"#utility.yul\":6065:6087   */\n      add\n        /* \"#utility.yul\":6044:6097   */\n      tag_353\n      jump\t// in\n    tag_482:\n        /* \"#utility.yul\":6034:6097   */\n      swap3\n      pop\n        /* \"#utility.yul\":5990:6107   */\n      pop\n        /* \"#utility.yul\":6146:6148   */\n      0x20\n        /* \"#utility.yul\":6172:6225   */\n      tag_483\n        /* \"#utility.yul\":6217:6224   */\n      dup6\n        /* \"#utility.yul\":6208:6214   */\n      dup3\n        /* \"#utility.yul\":6197:6206   */\n      dup7\n        /* \"#utility.yul\":6193:6215   */\n      add\n        /* \"#utility.yul\":6172:6225   */\n      tag_353\n      jump\t// in\n    tag_483:\n        /* \"#utility.yul\":6162:6225   */\n      swap2\n      pop\n        /* \"#utility.yul\":6117:6235   */\n      pop\n        /* \"#utility.yul\":5768:6242   */\n      swap3\n      pop\n      swap3\n      swap1\n      pop\n      jump\t// out\n        /* \"#utility.yul\":6248:7122   */\n    tag_136:\n        /* \"#utility.yul\":6503:6507   */\n      0x00\n        /* \"#utility.yul\":6541:6544   */\n      0xe0\n        /* \"#utility.yul\":6530:6539   */\n      dup3\n        /* \"#utility.yul\":6526:6545   */\n      add\n        /* \"#utility.yul\":6518:6545   */\n      swap1\n      pop\n        /* \"#utility.yul\":6555:6626   */\n      tag_485\n        /* \"#utility.yul\":6623:6624   */\n      0x00\n        /* \"#utility.yul\":6612:6621   */\n      dup4\n        /* \"#utility.yul\":6608:6625   */\n      add\n        /* \"#utility.yul\":6599:6605   */\n      dup11\n        /* \"#utility.yul\":6555:6626   */\n      tag_362\n      jump\t// in\n    tag_485:\n        /* \"#utility.yul\":6636:6708   */\n      tag_486\n        /* \"#utility.yul\":6704:6706   */\n      0x20\n        /* \"#utility.yul\":6693:6702   */\n      dup4\n        /* \"#utility.yul\":6689:6707   */\n      add\n        /* \"#utility.yul\":6680:6686   */\n      dup10\n        /* \"#utility.yul\":6636:6708   */\n      tag_359\n      jump\t// in\n    tag_486:\n        /* \"#utility.yul\":6718:6790   */\n      tag_487\n        /* \"#utility.yul\":6786:6788   */\n      0x40\n        /* \"#utility.yul\":6775:6784   */\n      dup4\n        /* \"#utility.yul\":6771:6789   */\n      add\n        /* \"#utility.yul\":6762:6768   */\n      dup9\n        /* \"#utility.yul\":6718:6790   */\n      tag_359\n      jump\t// in\n    tag_487:\n        /* \"#utility.yul\":6800:6872   */\n      tag_488\n        /* \"#utility.yul\":6868:6870   */\n      0x60\n        /* \"#utility.yul\":6857:6866   */\n      dup4\n        /* \"#utility.yul\":6853:6871   */\n      add\n        /* \"#utility.yul\":6844:6850   */\n      dup8\n        /* \"#utility.yul\":6800:6872   */\n      tag_359\n      jump\t// in\n    tag_488:\n        /* \"#utility.yul\":6882:6955   */\n      tag_489\n        /* \"#utility.yul\":6950:6953   */\n      0x80\n        /* \"#utility.yul\":6939:6948   */\n      dup4\n        /* \"#utility.yul\":6935:6954   */\n      add\n        /* \"#utility.yul\":6926:6932   */\n      dup7\n        /* \"#utility.yul\":6882:6955   */\n      tag_359\n      jump\t// in\n    tag_489:\n        /* \"#utility.yul\":6965:7038   */\n      tag_490\n        /* \"#utility.yul\":7033:7036   */\n      0xa0\n        /* \"#utility.yul\":7022:7031   */\n      dup4\n        /* \"#utility.yul\":7018:7037   */\n      add\n        /* \"#utility.yul\":7009:7015   */\n      dup6\n        /* \"#utility.yul\":6965:7038   */\n      tag_359\n      jump\t// in\n    tag_490:\n        /* \"#utility.yul\":7048:7115   */\n      tag_491\n        /* \"#utility.yul\":7110:7113   */\n      0xc0\n        /* \"#utility.yul\":7099:7108   */\n      dup4\n        /* \"#utility.yul\":7095:7114   */\n      add\n        /* \"#utility.yul\":7086:7092   */\n      dup5\n        /* \"#utility.yul\":7048:7115   */\n      tag_358\n      jump\t// in\n    tag_491:\n        /* \"#utility.yul\":6248:7122   */\n      swap9\n      swap8\n      pop\n      pop\n      pop\n      pop\n      pop\n      pop\n      pop\n      pop\n      jump\t// out\n        /* \"#utility.yul\":7128:7602   */\n    tag_146:\n        /* \"#utility.yul\":7196:7202   */\n      0x00\n        /* \"#utility.yul\":7204:7210   */\n      0x00\n        /* \"#utility.yul\":7253:7255   */\n      0x40\n        /* \"#utility.yul\":7241:7250   */\n      dup4\n        /* \"#utility.yul\":7232:7239   */\n      dup6\n        /* \"#utility.yul\":7228:7251   */\n      sub\n        /* \"#utility.yul\":7224:7256   */\n      slt\n        /* \"#utility.yul\":7221:7340   */\n      iszero\n      tag_493\n      jumpi\n        /* \"#utility.yul\":7259:7338   */\n      tag_494\n      tag_348\n      jump\t// in\n    tag_494:\n        /* \"#utility.yul\":7221:7340   */\n    tag_493:\n        /* \"#utility.yul\":7379:7380   */\n      0x00\n        /* \"#utility.yul\":7404:7457   */\n      tag_495\n        /* \"#utility.yul\":7449:7456   */\n      dup6\n        /* \"#utility.yul\":7440:7446   */\n      dup3\n        /* \"#utility.yul\":7429:7438   */\n      dup7\n        /* \"#utility.yul\":7425:7447   */\n      add\n        /* \"#utility.yul\":7404:7457   */\n      tag_356\n      jump\t// in\n    tag_495:\n        /* \"#utility.yul\":7394:7457   */\n      swap3\n      pop\n        /* \"#utility.yul\":7350:7467   */\n      pop\n        /* \"#utility.yul\":7506:7508   */\n      0x20\n        /* \"#utility.yul\":7532:7585   */\n      tag_496\n        /* \"#utility.yul\":7577:7584   */\n      dup6\n        /* \"#utility.yul\":7568:7574   */\n      dup3\n        /* \"#utility.yul\":7557:7566   */\n      dup7\n        /* \"#utility.yul\":7553:7575   */\n      add\n        /* \"#utility.yul\":7532:7585   */\n      tag_356\n      jump\t// in\n    tag_496:\n        /* \"#utility.yul\":7522:7585   */\n      swap2\n      pop\n        /* \"#utility.yul\":7477:7595   */\n      pop\n        /* \"#utility.yul\":7128:7602   */\n      swap3\n      pop\n      swap3\n      swap1\n      pop\n      jump\t// out\n        /* \"#utility.yul\":7608:7788   */\n    tag_363:\n        /* \"#utility.yul\":7656:7733   */\n      0x4e487b7100000000000000000000000000000000000000000000000000000000\n        /* \"#utility.yul\":7653:7654   */\n      0x00\n        /* \"#utility.yul\":7646:7734   */\n      mstore\n        /* \"#utility.yul\":7753:7757   */\n      0x22\n        /* \"#utility.yul\":7750:7751   */\n      0x04\n        /* \"#utility.yul\":7743:7758   */\n      mstore\n        /* \"#utility.yul\":7777:7781   */\n      0x24\n        /* \"#utility.yul\":7774:7775   */\n      0x00\n        /* \"#utility.yul\":7767:7782   */\n      revert\n        /* \"#utility.yul\":7794:8114   */\n    tag_151:\n        /* \"#utility.yul\":7838:7844   */\n      0x00\n        /* \"#utility.yul\":7875:7876   */\n      0x02\n        /* \"#utility.yul\":7869:7873   */\n      dup3\n        /* \"#utility.yul\":7865:7877   */\n      div\n        /* \"#utility.yul\":7855:7877   */\n      swap1\n      pop\n        /* \"#utility.yul\":7922:7923   */\n      0x01\n        /* \"#utility.yul\":7916:7920   */\n      dup3\n        /* \"#utility.yul\":7912:7924   */\n      and\n        /* \"#utility.yul\":7943:7961   */\n      dup1\n        /* \"#utility.yul\":7933:8014   */\n      tag_499\n      jumpi\n        /* \"#utility.yul\":7999:8003   */\n      0x7f\n        /* \"#utility.yul\":7991:7997   */\n      dup3\n        /* \"#utility.yul\":7987:8004   */\n      and\n        /* \"#utility.yul\":7977:8004   */\n      swap2\n      pop\n        /* \"#utility.yul\":7933:8014   */\n    tag_499:\n        /* \"#utility.yul\":8061:8063   */\n      0x20\n        /* \"#utility.yul\":8053:8059   */\n      dup3\n        /* \"#utility.yul\":8050:8064   */\n      lt\n        /* \"#utility.yul\":8030:8048   */\n      dup2\n        /* \"#utility.yul\":8027:8065   */\n      sub\n        /* \"#utility.yul\":8024:8108   */\n      tag_500\n      jumpi\n        /* \"#utility.yul\":8080:8098   */\n      tag_501\n      tag_363\n      jump\t// in\n    tag_501:\n        /* \"#utility.yul\":8024:8108   */\n    tag_500:\n        /* \"#utility.yul\":7845:8114   */\n      pop\n        /* \"#utility.yul\":7794:8114   */\n      swap2\n      swap1\n      pop\n      jump\t// out\n        /* \"#utility.yul\":8120:8340   */\n    tag_364:\n        /* \"#utility.yul\":8260:8294   */\n      0x4f6e6c79206f776e65722063616e2063616c6c20746869732066756e6374696f\n        /* \"#utility.yul\":8256:8257   */\n      0x00\n        /* \"#utility.yul\":8248:8254   */\n      dup3\n        /* \"#utility.yul\":8244:8258   */\n      add\n        /* \"#utility.yul\":8237:8295   */\n      mstore\n        /* \"#utility.yul\":8329:8332   */\n      0x6e00000000000000000000000000000000000000000000000000000000000000\n        /* \"#utility.yul\":8324:8326   */\n      0x20\n        /* \"#utility.yul\":8316:8322   */\n      dup3\n        /* \"#utility.yul\":8312:8327   */\n      add\n        /* \"#utility.yul\":8305:8333   */\n      mstore\n        /* \"#utility.yul\":8120:8340   */\n      pop\n      jump\t// out\n        /* \"#utility.yul\":8346:8712   */\n    tag_365:\n        /* \"#utility.yul\":8488:8491   */\n      0x00\n        /* \"#utility.yul\":8509:8576   */\n      tag_504\n        /* \"#utility.yul\":8573:8575   */\n      0x21\n        /* \"#utility.yul\":8568:8571   */\n      dup4\n        /* \"#utility.yul\":8509:8576   */\n      tag_343\n      jump\t// in\n    tag_504:\n        /* \"#utility.yul\":8502:8576   */\n      swap2\n      pop\n        /* \"#utility.yul\":8585:8678   */\n      tag_505\n        /* \"#utility.yul\":8674:8677   */\n      dup3\n        /* \"#utility.yul\":8585:8678   */\n      tag_364\n      jump\t// in\n    tag_505:\n        /* \"#utility.yul\":8703:8705   */\n      0x40\n        /* \"#utility.yul\":8698:8701   */\n      dup3\n        /* \"#utility.yul\":8694:8706   */\n      add\n        /* \"#utility.yul\":8687:8706   */\n      swap1\n      pop\n        /* \"#utility.yul\":8346:8712   */\n      swap2\n      swap1\n      pop\n      jump\t// out\n        /* \"#utility.yul\":8718:9137   */\n    tag_164:\n        /* \"#utility.yul\":8884:8888   */\n      0x00\n        /* \"#utility.yul\":8922:8924   */\n      0x20\n        /* \"#utility.yul\":8911:8920   */\n      dup3\n        /* \"#utility.yul\":8907:8925   */\n      add\n        /* \"#utility.yul\":8899:8925   */\n      swap1\n      pop\n        /* \"#utility.yul\":8971:8980   */\n      dup2\n        /* \"#utility.yul\":8965:8969   */\n      dup2\n        /* \"#utility.yul\":8961:8981   */\n      sub\n        /* \"#utility.yul\":8957:8958   */\n      0x00\n        /* \"#utility.yul\":8946:8955   */\n      dup4\n        /* \"#utility.yul\":8942:8959   */\n      add\n        /* \"#utility.yul\":8935:8982   */\n      mstore\n        /* \"#utility.yul\":8999:9130   */\n      tag_507\n        /* \"#utility.yul\":9125:9129   */\n      dup2\n        /* \"#utility.yul\":8999:9130   */\n      tag_365\n      jump\t// in\n    tag_507:\n        /* \"#utility.yul\":8991:9130   */\n      swap1\n      pop\n        /* \"#utility.yul\":8718:9137   */\n      swap2\n      swap1\n      pop\n      jump\t// out\n        /* \"#utility.yul\":9143:9374   */\n    tag_366:\n        /* \"#utility.yul\":9283:9317   */\n      0x4f20656d7072657374696d6f206e616f20657869737465206f75206a6120666f\n        /* \"#utility.yul\":9279:9280   */\n      0x00\n        /* \"#utility.yul\":9271:9277   */\n      dup3\n        /* \"#utility.yul\":9267:9281   */\n      add\n        /* \"#utility.yul\":9260:9318   */\n      mstore\n        /* \"#utility.yul\":9352:9366   */\n      0x6920656e6365727261646f2e0000000000000000000000000000000000000000\n        /* \"#utility.yul\":9347:9349   */\n      0x20\n        /* \"#utility.yul\":9339:9345   */\n      dup3\n        /* \"#utility.yul\":9335:9350   */\n      add\n        /* \"#utility.yul\":9328:9367   */\n      mstore\n        /* \"#utility.yul\":9143:9374   */\n      pop\n      jump\t// out\n        /* \"#utility.yul\":9380:9746   */\n    tag_367:\n        /* \"#utility.yul\":9522:9525   */\n      0x00\n        /* \"#utility.yul\":9543:9610   */\n      tag_510\n        /* \"#utility.yul\":9607:9609   */\n      0x2c\n        /* \"#utility.yul\":9602:9605   */\n      dup4\n        /* \"#utility.yul\":9543:9610   */\n      tag_343\n      jump\t// in\n    tag_510:\n        /* \"#utility.yul\":9536:9610   */\n      swap2\n      pop\n        /* \"#utility.yul\":9619:9712   */\n      tag_511\n        /* \"#utility.yul\":9708:9711   */\n      dup3\n        /* \"#utility.yul\":9619:9712   */\n      tag_366\n      jump\t// in\n    tag_511:\n        /* \"#utility.yul\":9737:9739   */\n      0x40\n        /* \"#utility.yul\":9732:9735   */\n      dup3\n        /* \"#utility.yul\":9728:9740   */\n      add\n        /* \"#utility.yul\":9721:9740   */\n      swap1\n      pop\n        /* \"#utility.yul\":9380:9746   */\n      swap2\n      swap1\n      pop\n      jump\t// out\n        /* \"#utility.yul\":9752:10171   */\n    tag_179:\n        /* \"#utility.yul\":9918:9922   */\n      0x00\n        /* \"#utility.yul\":9956:9958   */\n      0x20\n        /* \"#utility.yul\":9945:9954   */\n      dup3\n        /* \"#utility.yul\":9941:9959   */\n      add\n        /* \"#utility.yul\":9933:9959   */\n      swap1\n      pop\n        /* \"#utility.yul\":10005:10014   */\n      dup2\n        /* \"#utility.yul\":9999:10003   */\n      dup2\n        /* \"#utility.yul\":9995:10015   */\n      sub\n        /* \"#utility.yul\":9991:9992   */\n      0x00\n        /* \"#utility.yul\":9980:9989   */\n      dup4\n        /* \"#utility.yul\":9976:9993   */\n      add\n        /* \"#utility.yul\":9969:10016   */\n      mstore\n        /* \"#utility.yul\":10033:10164   */\n      tag_513\n        /* \"#utility.yul\":10159:10163   */\n      dup2\n        /* \"#utility.yul\":10033:10164   */\n      tag_367\n      jump\t// in\n    tag_513:\n        /* \"#utility.yul\":10025:10164   */\n      swap1\n      pop\n        /* \"#utility.yul\":9752:10171   */\n      swap2\n      swap1\n      pop\n      jump\t// out\n        /* \"#utility.yul\":10177:10418   */\n    tag_368:\n        /* \"#utility.yul\":10317:10351   */\n      0x4170656e6173206f20746974756c617220646f20656d7072657374696d6f2070\n        /* \"#utility.yul\":10313:10314   */\n      0x00\n        /* \"#utility.yul\":10305:10311   */\n      dup3\n        /* \"#utility.yul\":10301:10315   */\n      add\n        /* \"#utility.yul\":10294:10352   */\n      mstore\n        /* \"#utility.yul\":10386:10410   */\n      0x6f64652066617a6572206f20706167616d656e746f2e00000000000000000000\n        /* \"#utility.yul\":10381:10383   */\n      0x20\n        /* \"#utility.yul\":10373:10379   */\n      dup3\n        /* \"#utility.yul\":10369:10384   */\n      add\n        /* \"#utility.yul\":10362:10411   */\n      mstore\n        /* \"#utility.yul\":10177:10418   */\n      pop\n      jump\t// out\n        /* \"#utility.yul\":10424:10790   */\n    tag_369:\n        /* \"#utility.yul\":10566:10569   */\n      0x00\n        /* \"#utility.yul\":10587:10654   */\n      tag_516\n        /* \"#utility.yul\":10651:10653   */\n      0x36\n        /* \"#utility.yul\":10646:10649   */\n      dup4\n        /* \"#utility.yul\":10587:10654   */\n      tag_343\n      jump\t// in\n    tag_516:\n        /* \"#utility.yul\":10580:10654   */\n      swap2\n      pop\n        /* \"#utility.yul\":10663:10756   */\n      tag_517\n        /* \"#utility.yul\":10752:10755   */\n      dup3\n        /* \"#utility.yul\":10663:10756   */\n      tag_368\n      jump\t// in\n    tag_517:\n        /* \"#utility.yul\":10781:10783   */\n      0x40\n        /* \"#utility.yul\":10776:10779   */\n      dup3\n        /* \"#utility.yul\":10772:10784   */\n      add\n        /* \"#utility.yul\":10765:10784   */\n      swap1\n      pop\n        /* \"#utility.yul\":10424:10790   */\n      swap2\n      swap1\n      pop\n      jump\t// out\n        /* \"#utility.yul\":10796:11215   */\n    tag_182:\n        /* \"#utility.yul\":10962:10966   */\n      0x00\n        /* \"#utility.yul\":11000:11002   */\n      0x20\n        /* \"#utility.yul\":10989:10998   */\n      dup3\n        /* \"#utility.yul\":10985:11003   */\n      add\n        /* \"#utility.yul\":10977:11003   */\n      swap1\n      pop\n        /* \"#utility.yul\":11049:11058   */\n      dup2\n        /* \"#utility.yul\":11043:11047   */\n      dup2\n        /* \"#utility.yul\":11039:11059   */\n      sub\n        /* \"#utility.yul\":11035:11036   */\n      0x00\n        /* \"#utility.yul\":11024:11033   */\n      dup4\n        /* \"#utility.yul\":11020:11037   */\n      add\n        /* \"#utility.yul\":11013:11060   */\n      mstore\n        /* \"#utility.yul\":11077:11208   */\n      tag_519\n        /* \"#utility.yul\":11203:11207   */\n      dup2\n        /* \"#utility.yul\":11077:11208   */\n      tag_369\n      jump\t// in\n    tag_519:\n        /* \"#utility.yul\":11069:11208   */\n      swap1\n      pop\n        /* \"#utility.yul\":10796:11215   */\n      swap2\n      swap1\n      pop\n      jump\t// out\n        /* \"#utility.yul\":11221:11449   */\n    tag_370:\n        /* \"#utility.yul\":11361:11395   */\n      0x4f207072617a6f2065787069726f752e204f20636f6c61746572616c20666f69\n        /* \"#utility.yul\":11357:11358   */\n      0x00\n        /* \"#utility.yul\":11349:11355   */\n      dup3\n        /* \"#utility.yul\":11345:11359   */\n      add\n        /* \"#utility.yul\":11338:11396   */\n      mstore\n        /* \"#utility.yul\":11430:11441   */\n      0x207065726469646f2e0000000000000000000000000000000000000000000000\n        /* \"#utility.yul\":11425:11427   */\n      0x20\n        /* \"#utility.yul\":11417:11423   */\n      dup3\n        /* \"#utility.yul\":11413:11428   */\n      add\n        /* \"#utility.yul\":11406:11442   */\n      mstore\n        /* \"#utility.yul\":11221:11449   */\n      pop\n      jump\t// out\n        /* \"#utility.yul\":11455:11821   */\n    tag_371:\n        /* \"#utility.yul\":11597:11600   */\n      0x00\n        /* \"#utility.yul\":11618:11685   */\n      tag_522\n        /* \"#utility.yul\":11682:11684   */\n      0x29\n        /* \"#utility.yul\":11677:11680   */\n      dup4\n        /* \"#utility.yul\":11618:11685   */\n      tag_343\n      jump\t// in\n    tag_522:\n        /* \"#utility.yul\":11611:11685   */\n      swap2\n      pop\n        /* \"#utility.yul\":11694:11787   */\n      tag_523\n        /* \"#utility.yul\":11783:11786   */\n      dup3\n        /* \"#utility.yul\":11694:11787   */\n      tag_370\n      jump\t// in\n    tag_523:\n        /* \"#utility.yul\":11812:11814   */\n      0x40\n        /* \"#utility.yul\":11807:11810   */\n      dup3\n        /* \"#utility.yul\":11803:11815   */\n      add\n        /* \"#utility.yul\":11796:11815   */\n      swap1\n      pop\n        /* \"#utility.yul\":11455:11821   */\n      swap2\n      swap1\n      pop\n      jump\t// out\n        /* \"#utility.yul\":11827:12246   */\n    tag_185:\n        /* \"#utility.yul\":11993:11997   */\n      0x00\n        /* \"#utility.yul\":12031:12033   */\n      0x20\n        /* \"#utility.yul\":12020:12029   */\n      dup3\n        /* \"#utility.yul\":12016:12034   */\n      add\n        /* \"#utility.yul\":12008:12034   */\n      swap1\n      pop\n        /* \"#utility.yul\":12080:12089   */\n      dup2\n        /* \"#utility.yul\":12074:12078   */\n      dup2\n        /* \"#utility.yul\":12070:12090   */\n      sub\n        /* \"#utility.yul\":12066:12067   */\n      0x00\n        /* \"#utility.yul\":12055:12064   */\n      dup4\n        /* \"#utility.yul\":12051:12068   */\n      add\n        /* \"#utility.yul\":12044:12091   */\n      mstore\n        /* \"#utility.yul\":12108:12239   */\n      tag_525\n        /* \"#utility.yul\":12234:12238   */\n      dup2\n        /* \"#utility.yul\":12108:12239   */\n      tag_371\n      jump\t// in\n    tag_525:\n        /* \"#utility.yul\":12100:12239   */\n      swap1\n      pop\n        /* \"#utility.yul\":11827:12246   */\n      swap2\n      swap1\n      pop\n      jump\t// out\n        /* \"#utility.yul\":12252:12432   */\n    tag_372:\n        /* \"#utility.yul\":12300:12377   */\n      0x4e487b7100000000000000000000000000000000000000000000000000000000\n        /* \"#utility.yul\":12297:12298   */\n      0x00\n        /* \"#utility.yul\":12290:12378   */\n      mstore\n        /* \"#utility.yul\":12397:12401   */\n      0x11\n        /* \"#utility.yul\":12394:12395   */\n      0x04\n        /* \"#utility.yul\":12387:12402   */\n      mstore\n        /* \"#utility.yul\":12421:12425   */\n      0x24\n        /* \"#utility.yul\":12418:12419   */\n      0x00\n        /* \"#utility.yul\":12411:12426   */\n      revert\n        /* \"#utility.yul\":12438:12848   */\n    tag_187:\n        /* \"#utility.yul\":12478:12485   */\n      0x00\n        /* \"#utility.yul\":12501:12521   */\n      tag_528\n        /* \"#utility.yul\":12519:12520   */\n      dup3\n        /* \"#utility.yul\":12501:12521   */\n      tag_354\n      jump\t// in\n    tag_528:\n        /* \"#utility.yul\":12496:12521   */\n      swap2\n      pop\n        /* \"#utility.yul\":12535:12555   */\n      tag_529\n        /* \"#utility.yul\":12553:12554   */\n      dup4\n        /* \"#utility.yul\":12535:12555   */\n      tag_354\n      jump\t// in\n    tag_529:\n        /* \"#utility.yul\":12530:12555   */\n      swap3\n      pop\n        /* \"#utility.yul\":12590:12591   */\n      dup3\n        /* \"#utility.yul\":12587:12588   */\n      dup3\n        /* \"#utility.yul\":12583:12592   */\n      mul\n        /* \"#utility.yul\":12612:12642   */\n      tag_530\n        /* \"#utility.yul\":12630:12641   */\n      dup2\n        /* \"#utility.yul\":12612:12642   */\n      tag_354\n      jump\t// in\n    tag_530:\n        /* \"#utility.yul\":12601:12642   */\n      swap2\n      pop\n        /* \"#utility.yul\":12791:12792   */\n      dup3\n        /* \"#utility.yul\":12782:12789   */\n      dup3\n        /* \"#utility.yul\":12778:12793   */\n      div\n        /* \"#utility.yul\":12775:12776   */\n      dup5\n        /* \"#utility.yul\":12772:12794   */\n      eq\n        /* \"#utility.yul\":12752:12753   */\n      dup4\n        /* \"#utility.yul\":12745:12754   */\n      iszero\n        /* \"#utility.yul\":12725:12808   */\n      or\n        /* \"#utility.yul\":12702:12841   */\n      tag_531\n      jumpi\n        /* \"#utility.yul\":12821:12839   */\n      tag_532\n      tag_372\n      jump\t// in\n    tag_532:\n        /* \"#utility.yul\":12702:12841   */\n    tag_531:\n        /* \"#utility.yul\":12486:12848   */\n      pop\n        /* \"#utility.yul\":12438:12848   */\n      swap3\n      swap2\n      pop\n      pop\n      jump\t// out\n        /* \"#utility.yul\":12854:13034   */\n    tag_373:\n        /* \"#utility.yul\":12902:12979   */\n      0x4e487b7100000000000000000000000000000000000000000000000000000000\n        /* \"#utility.yul\":12899:12900   */\n      0x00\n        /* \"#utility.yul\":12892:12980   */\n      mstore\n        /* \"#utility.yul\":12999:13003   */\n      0x12\n        /* \"#utility.yul\":12996:12997   */\n      0x04\n        /* \"#utility.yul\":12989:13004   */\n      mstore\n        /* \"#utility.yul\":13023:13027   */\n      0x24\n        /* \"#utility.yul\":13020:13021   */\n      0x00\n        /* \"#utility.yul\":13013:13028   */\n      revert\n        /* \"#utility.yul\":13040:13225   */\n    tag_190:\n        /* \"#utility.yul\":13080:13081   */\n      0x00\n        /* \"#utility.yul\":13097:13117   */\n      tag_535\n        /* \"#utility.yul\":13115:13116   */\n      dup3\n        /* \"#utility.yul\":13097:13117   */\n      tag_354\n      jump\t// in\n    tag_535:\n        /* \"#utility.yul\":13092:13117   */\n      swap2\n      pop\n        /* \"#utility.yul\":13131:13151   */\n      tag_536\n        /* \"#utility.yul\":13149:13150   */\n      dup4\n        /* \"#utility.yul\":13131:13151   */\n      tag_354\n      jump\t// in\n    tag_536:\n        /* \"#utility.yul\":13126:13151   */\n      swap3\n      pop\n        /* \"#utility.yul\":13170:13171   */\n      dup3\n        /* \"#utility.yul\":13160:13195   */\n      tag_537\n      jumpi\n        /* \"#utility.yul\":13175:13193   */\n      tag_538\n      tag_373\n      jump\t// in\n    tag_538:\n        /* \"#utility.yul\":13160:13195   */\n    tag_537:\n        /* \"#utility.yul\":13217:13218   */\n      dup3\n        /* \"#utility.yul\":13214:13215   */\n      dup3\n        /* \"#utility.yul\":13210:13219   */\n      div\n        /* \"#utility.yul\":13205:13219   */\n      swap1\n      pop\n        /* \"#utility.yul\":13040:13225   */\n      swap3\n      swap2\n      pop\n      pop\n      jump\t// out\n        /* \"#utility.yul\":13231:13425   */\n    tag_192:\n        /* \"#utility.yul\":13271:13275   */\n      0x00\n        /* \"#utility.yul\":13291:13311   */\n      tag_540\n        /* \"#utility.yul\":13309:13310   */\n      dup3\n        /* \"#utility.yul\":13291:13311   */\n      tag_354\n      jump\t// in\n    tag_540:\n        /* \"#utility.yul\":13286:13311   */\n      swap2\n      pop\n        /* \"#utility.yul\":13325:13345   */\n      tag_541\n        /* \"#utility.yul\":13343:13344   */\n      dup4\n        /* \"#utility.yul\":13325:13345   */\n      tag_354\n      jump\t// in\n    tag_541:\n        /* \"#utility.yul\":13320:13345   */\n      swap3\n      pop\n        /* \"#utility.yul\":13369:13370   */\n      dup3\n        /* \"#utility.yul\":13366:13367   */\n      dup3\n        /* \"#utility.yul\":13362:13371   */\n      sub\n        /* \"#utility.yul\":13354:13371   */\n      swap1\n      pop\n        /* \"#utility.yul\":13393:13394   */\n      dup2\n        /* \"#utility.yul\":13387:13391   */\n      dup2\n        /* \"#utility.yul\":13384:13395   */\n      gt\n        /* \"#utility.yul\":13381:13418   */\n      iszero\n      tag_542\n      jumpi\n        /* \"#utility.yul\":13398:13416   */\n      tag_543\n      tag_372\n      jump\t// in\n    tag_543:\n        /* \"#utility.yul\":13381:13418   */\n    tag_542:\n        /* \"#utility.yul\":13231:13425   */\n      swap3\n      swap2\n      pop\n      pop\n      jump\t// out\n        /* \"#utility.yul\":13431:13622   */\n    tag_195:\n        /* \"#utility.yul\":13471:13474   */\n      0x00\n        /* \"#utility.yul\":13490:13510   */\n      tag_545\n        /* \"#utility.yul\":13508:13509   */\n      dup3\n        /* \"#utility.yul\":13490:13510   */\n      tag_354\n      jump\t// in\n    tag_545:\n        /* \"#utility.yul\":13485:13510   */\n      swap2\n      pop\n        /* \"#utility.yul\":13524:13544   */\n      tag_546\n        /* \"#utility.yul\":13542:13543   */\n      dup4\n        /* \"#utility.yul\":13524:13544   */\n      tag_354\n      jump\t// in\n    tag_546:\n        /* \"#utility.yul\":13519:13544   */\n      swap3\n      pop\n        /* \"#utility.yul\":13567:13568   */\n      dup3\n        /* \"#utility.yul\":13564:13565   */\n      dup3\n        /* \"#utility.yul\":13560:13569   */\n      add\n        /* \"#utility.yul\":13553:13569   */\n      swap1\n      pop\n        /* \"#utility.yul\":13588:13591   */\n      dup1\n        /* \"#utility.yul\":13585:13586   */\n      dup3\n        /* \"#utility.yul\":13582:13592   */\n      gt\n        /* \"#utility.yul\":13579:13615   */\n      iszero\n      tag_547\n      jumpi\n        /* \"#utility.yul\":13595:13613   */\n      tag_548\n      tag_372\n      jump\t// in\n    tag_548:\n        /* \"#utility.yul\":13579:13615   */\n    tag_547:\n        /* \"#utility.yul\":13431:13622   */\n      swap3\n      swap2\n      pop\n      pop\n      jump\t// out\n        /* \"#utility.yul\":13628:13919   */\n    tag_374:\n        /* \"#utility.yul\":13768:13802   */\n      0x4f2076616c6f7220656e766961646f20656d20455448206e616f20636f727265\n        /* \"#utility.yul\":13764:13765   */\n      0x00\n        /* \"#utility.yul\":13756:13762   */\n      dup3\n        /* \"#utility.yul\":13752:13766   */\n      add\n        /* \"#utility.yul\":13745:13803   */\n      mstore\n        /* \"#utility.yul\":13837:13871   */\n      0x73706f6e646520616f2076616c6f722064612070726573746163616f20617475\n        /* \"#utility.yul\":13832:13834   */\n      0x20\n        /* \"#utility.yul\":13824:13830   */\n      dup3\n        /* \"#utility.yul\":13820:13835   */\n      add\n        /* \"#utility.yul\":13813:13872   */\n      mstore\n        /* \"#utility.yul\":13906:13911   */\n      0x616c2e0000000000000000000000000000000000000000000000000000000000\n        /* \"#utility.yul\":13901:13903   */\n      0x40\n        /* \"#utility.yul\":13893:13899   */\n      dup3\n        /* \"#utility.yul\":13889:13904   */\n      add\n        /* \"#utility.yul\":13882:13912   */\n      mstore\n        /* \"#utility.yul\":13628:13919   */\n      pop\n      jump\t// out\n        /* \"#utility.yul\":13925:14291   */\n    tag_375:\n        /* \"#utility.yul\":14067:14070   */\n      0x00\n        /* \"#utility.yul\":14088:14155   */\n      tag_551\n        /* \"#utility.yul\":14152:14154   */\n      0x43\n        /* \"#utility.yul\":14147:14150   */\n      dup4\n        /* \"#utility.yul\":14088:14155   */\n      tag_343\n      jump\t// in\n    tag_551:\n        /* \"#utility.yul\":14081:14155   */\n      swap2\n      pop\n        /* \"#utility.yul\":14164:14257   */\n      tag_552\n        /* \"#utility.yul\":14253:14256   */\n      dup3\n        /* \"#utility.yul\":14164:14257   */\n      tag_374\n      jump\t// in\n    tag_552:\n        /* \"#utility.yul\":14282:14284   */\n      0x60\n        /* \"#utility.yul\":14277:14280   */\n      dup3\n        /* \"#utility.yul\":14273:14285   */\n      add\n        /* \"#utility.yul\":14266:14285   */\n      swap1\n      pop\n        /* \"#utility.yul\":13925:14291   */\n      swap2\n      swap1\n      pop\n      jump\t// out\n        /* \"#utility.yul\":14297:14716   */\n    tag_198:\n        /* \"#utility.yul\":14463:14467   */\n      0x00\n        /* \"#utility.yul\":14501:14503   */\n      0x20\n        /* \"#utility.yul\":14490:14499   */\n      dup3\n        /* \"#utility.yul\":14486:14504   */\n      add\n        /* \"#utility.yul\":14478:14504   */\n      swap1\n      pop\n        /* \"#utility.yul\":14550:14559   */\n      dup2\n        /* \"#utility.yul\":14544:14548   */\n      dup2\n        /* \"#utility.yul\":14540:14560   */\n      sub\n        /* \"#utility.yul\":14536:14537   */\n      0x00\n        /* \"#utility.yul\":14525:14534   */\n      dup4\n        /* \"#utility.yul\":14521:14538   */\n      add\n        /* \"#utility.yul\":14514:14561   */\n      mstore\n        /* \"#utility.yul\":14578:14709   */\n      tag_554\n        /* \"#utility.yul\":14704:14708   */\n      dup2\n        /* \"#utility.yul\":14578:14709   */\n      tag_375\n      jump\t// in\n    tag_554:\n        /* \"#utility.yul\":14570:14709   */\n      swap1\n      pop\n        /* \"#utility.yul\":14297:14716   */\n      swap2\n      swap1\n      pop\n      jump\t// out\n        /* \"#utility.yul\":14722:15054   */\n    tag_204:\n        /* \"#utility.yul\":14843:14847   */\n      0x00\n        /* \"#utility.yul\":14881:14883   */\n      0x40\n        /* \"#utility.yul\":14870:14879   */\n      dup3\n        /* \"#utility.yul\":14866:14884   */\n      add\n        /* \"#utility.yul\":14858:14884   */\n      swap1\n      pop\n        /* \"#utility.yul\":14894:14965   */\n      tag_556\n        /* \"#utility.yul\":14962:14963   */\n      0x00\n        /* \"#utility.yul\":14951:14960   */\n      dup4\n        /* \"#utility.yul\":14947:14964   */\n      add\n        /* \"#utility.yul\":14938:14944   */\n      dup6\n        /* \"#utility.yul\":14894:14965   */\n      tag_362\n      jump\t// in\n    tag_556:\n        /* \"#utility.yul\":14975:15047   */\n      tag_557\n        /* \"#utility.yul\":15043:15045   */\n      0x20\n        /* \"#utility.yul\":15032:15041   */\n      dup4\n        /* \"#utility.yul\":15028:15046   */\n      add\n        /* \"#utility.yul\":15019:15025   */\n      dup5\n        /* \"#utility.yul\":14975:15047   */\n      tag_359\n      jump\t// in\n    tag_557:\n        /* \"#utility.yul\":14722:15054   */\n      swap4\n      swap3\n      pop\n      pop\n      pop\n      jump\t// out\n        /* \"#utility.yul\":15060:15293   */\n    tag_376:\n        /* \"#utility.yul\":15200:15234   */\n      0x41207175616e746964616465206465204445582074656d20646520736572206d\n        /* \"#utility.yul\":15196:15197   */\n      0x00\n        /* \"#utility.yul\":15188:15194   */\n      dup3\n        /* \"#utility.yul\":15184:15198   */\n      add\n        /* \"#utility.yul\":15177:15235   */\n      mstore\n        /* \"#utility.yul\":15269:15285   */\n      0x61696f7220717565207a65726f2e000000000000000000000000000000000000\n        /* \"#utility.yul\":15264:15266   */\n      0x20\n        /* \"#utility.yul\":15256:15262   */\n      dup3\n        /* \"#utility.yul\":15252:15267   */\n      add\n        /* \"#utility.yul\":15245:15286   */\n      mstore\n        /* \"#utility.yul\":15060:15293   */\n      pop\n      jump\t// out\n        /* \"#utility.yul\":15299:15665   */\n    tag_377:\n        /* \"#utility.yul\":15441:15444   */\n      0x00\n        /* \"#utility.yul\":15462:15529   */\n      tag_560\n        /* \"#utility.yul\":15526:15528   */\n      0x2e\n        /* \"#utility.yul\":15521:15524   */\n      dup4\n        /* \"#utility.yul\":15462:15529   */\n      tag_343\n      jump\t// in\n    tag_560:\n        /* \"#utility.yul\":15455:15529   */\n      swap2\n      pop\n        /* \"#utility.yul\":15538:15631   */\n      tag_561\n        /* \"#utility.yul\":15627:15630   */\n      dup3\n        /* \"#utility.yul\":15538:15631   */\n      tag_376\n      jump\t// in\n    tag_561:\n        /* \"#utility.yul\":15656:15658   */\n      0x40\n        /* \"#utility.yul\":15651:15654   */\n      dup3\n        /* \"#utility.yul\":15647:15659   */\n      add\n        /* \"#utility.yul\":15640:15659   */\n      swap1\n      pop\n        /* \"#utility.yul\":15299:15665   */\n      swap2\n      swap1\n      pop\n      jump\t// out\n        /* \"#utility.yul\":15671:16090   */\n    tag_209:\n        /* \"#utility.yul\":15837:15841   */\n      0x00\n        /* \"#utility.yul\":15875:15877   */\n      0x20\n        /* \"#utility.yul\":15864:15873   */\n      dup3\n        /* \"#utility.yul\":15860:15878   */\n      add\n        /* \"#utility.yul\":15852:15878   */\n      swap1\n      pop\n        /* \"#utility.yul\":15924:15933   */\n      dup2\n        /* \"#utility.yul\":15918:15922   */\n      dup2\n        /* \"#utility.yul\":15914:15934   */\n      sub\n        /* \"#utility.yul\":15910:15911   */\n      0x00\n        /* \"#utility.yul\":15899:15908   */\n      dup4\n        /* \"#utility.yul\":15895:15912   */\n      add\n        /* \"#utility.yul\":15888:15935   */\n      mstore\n        /* \"#utility.yul\":15952:16083   */\n      tag_563\n        /* \"#utility.yul\":16078:16082   */\n      dup2\n        /* \"#utility.yul\":15952:16083   */\n      tag_377\n      jump\t// in\n    tag_563:\n        /* \"#utility.yul\":15944:16083   */\n      swap1\n      pop\n        /* \"#utility.yul\":15671:16090   */\n      swap2\n      swap1\n      pop\n      jump\t// out\n        /* \"#utility.yul\":16096:16272   */\n    tag_378:\n        /* \"#utility.yul\":16236:16264   */\n      0x53616c646f2064652044455820696e737566696369656e74652e000000000000\n        /* \"#utility.yul\":16232:16233   */\n      0x00\n        /* \"#utility.yul\":16224:16230   */\n      dup3\n        /* \"#utility.yul\":16220:16234   */\n      add\n        /* \"#utility.yul\":16213:16265   */\n      mstore\n        /* \"#utility.yul\":16096:16272   */\n      pop\n      jump\t// out\n        /* \"#utility.yul\":16278:16644   */\n    tag_379:\n        /* \"#utility.yul\":16420:16423   */\n      0x00\n        /* \"#utility.yul\":16441:16508   */\n      tag_566\n        /* \"#utility.yul\":16505:16507   */\n      0x1a\n        /* \"#utility.yul\":16500:16503   */\n      dup4\n        /* \"#utility.yul\":16441:16508   */\n      tag_343\n      jump\t// in\n    tag_566:\n        /* \"#utility.yul\":16434:16508   */\n      swap2\n      pop\n        /* \"#utility.yul\":16517:16610   */\n      tag_567\n        /* \"#utility.yul\":16606:16609   */\n      dup3\n        /* \"#utility.yul\":16517:16610   */\n      tag_378\n      jump\t// in\n    tag_567:\n        /* \"#utility.yul\":16635:16637   */\n      0x20\n        /* \"#utility.yul\":16630:16633   */\n      dup3\n        /* \"#utility.yul\":16626:16638   */\n      add\n        /* \"#utility.yul\":16619:16638   */\n      swap1\n      pop\n        /* \"#utility.yul\":16278:16644   */\n      swap2\n      swap1\n      pop\n      jump\t// out\n        /* \"#utility.yul\":16650:17069   */\n    tag_213:\n        /* \"#utility.yul\":16816:16820   */\n      0x00\n        /* \"#utility.yul\":16854:16856   */\n      0x20\n        /* \"#utility.yul\":16843:16852   */\n      dup3\n        /* \"#utility.yul\":16839:16857   */\n      add\n        /* \"#utility.yul\":16831:16857   */\n      swap1\n      pop\n        /* \"#utility.yul\":16903:16912   */\n      dup2\n        /* \"#utility.yul\":16897:16901   */\n      dup2\n        /* \"#utility.yul\":16893:16913   */\n      sub\n        /* \"#utility.yul\":16889:16890   */\n      0x00\n        /* \"#utility.yul\":16878:16887   */\n      dup4\n        /* \"#utility.yul\":16874:16891   */\n      add\n        /* \"#utility.yul\":16867:16914   */\n      mstore\n        /* \"#utility.yul\":16931:17062   */\n      tag_569\n        /* \"#utility.yul\":17057:17061   */\n      dup2\n        /* \"#utility.yul\":16931:17062   */\n      tag_379\n      jump\t// in\n    tag_569:\n        /* \"#utility.yul\":16923:17062   */\n      swap1\n      pop\n        /* \"#utility.yul\":16650:17069   */\n      swap2\n      swap1\n      pop\n      jump\t// out\n        /* \"#utility.yul\":17075:17325   */\n    tag_380:\n        /* \"#utility.yul\":17215:17249   */\n      0x4f20636f6e747261746f206e616f2074656d2073616c646f2064652045544820\n        /* \"#utility.yul\":17211:17212   */\n      0x00\n        /* \"#utility.yul\":17203:17209   */\n      dup3\n        /* \"#utility.yul\":17199:17213   */\n      add\n        /* \"#utility.yul\":17192:17250   */\n      mstore\n        /* \"#utility.yul\":17284:17317   */\n      0x737566696369656e746520706172612065737461207472616e736163616f2e00\n        /* \"#utility.yul\":17279:17281   */\n      0x20\n        /* \"#utility.yul\":17271:17277   */\n      dup3\n        /* \"#utility.yul\":17267:17282   */\n      add\n        /* \"#utility.yul\":17260:17318   */\n      mstore\n        /* \"#utility.yul\":17075:17325   */\n      pop\n      jump\t// out\n        /* \"#utility.yul\":17331:17697   */\n    tag_381:\n        /* \"#utility.yul\":17473:17476   */\n      0x00\n        /* \"#utility.yul\":17494:17561   */\n      tag_572\n        /* \"#utility.yul\":17558:17560   */\n      0x3f\n        /* \"#utility.yul\":17553:17556   */\n      dup4\n        /* \"#utility.yul\":17494:17561   */\n      tag_343\n      jump\t// in\n    tag_572:\n        /* \"#utility.yul\":17487:17561   */\n      swap2\n      pop\n        /* \"#utility.yul\":17570:17663   */\n      tag_573\n        /* \"#utility.yul\":17659:17662   */\n      dup3\n        /* \"#utility.yul\":17570:17663   */\n      tag_380\n      jump\t// in\n    tag_573:\n        /* \"#utility.yul\":17688:17690   */\n      0x40\n        /* \"#utility.yul\":17683:17686   */\n      dup3\n        /* \"#utility.yul\":17679:17691   */\n      add\n        /* \"#utility.yul\":17672:17691   */\n      swap1\n      pop\n        /* \"#utility.yul\":17331:17697   */\n      swap2\n      swap1\n      pop\n      jump\t// out\n        /* \"#utility.yul\":17703:18122   */\n    tag_218:\n        /* \"#utility.yul\":17869:17873   */\n      0x00\n        /* \"#utility.yul\":17907:17909   */\n      0x20\n        /* \"#utility.yul\":17896:17905   */\n      dup3\n        /* \"#utility.yul\":17892:17910   */\n      add\n        /* \"#utility.yul\":17884:17910   */\n      swap1\n      pop\n        /* \"#utility.yul\":17956:17965   */\n      dup2\n        /* \"#utility.yul\":17950:17954   */\n      dup2\n        /* \"#utility.yul\":17946:17966   */\n      sub\n        /* \"#utility.yul\":17942:17943   */\n      0x00\n        /* \"#utility.yul\":17931:17940   */\n      dup4\n        /* \"#utility.yul\":17927:17944   */\n      add\n        /* \"#utility.yul\":17920:17967   */\n      mstore\n        /* \"#utility.yul\":17984:18115   */\n      tag_575\n        /* \"#utility.yul\":18110:18114   */\n      dup2\n        /* \"#utility.yul\":17984:18115   */\n      tag_381\n      jump\t// in\n    tag_575:\n        /* \"#utility.yul\":17976:18115   */\n      swap1\n      pop\n        /* \"#utility.yul\":17703:18122   */\n      swap2\n      swap1\n      pop\n      jump\t// out\n        /* \"#utility.yul\":18128:18275   */\n    tag_382:\n        /* \"#utility.yul\":18229:18240   */\n      0x00\n        /* \"#utility.yul\":18266:18269   */\n      dup2\n        /* \"#utility.yul\":18251:18269   */\n      swap1\n      pop\n        /* \"#utility.yul\":18128:18275   */\n      swap3\n      swap2\n      pop\n      pop\n      jump\t// out\n        /* \"#utility.yul\":18281:18395   */\n    tag_383:\n      pop\n      jump\t// out\n        /* \"#utility.yul\":18401:18799   */\n    tag_384:\n        /* \"#utility.yul\":18560:18563   */\n      0x00\n        /* \"#utility.yul\":18581:18664   */\n      tag_579\n        /* \"#utility.yul\":18662:18663   */\n      0x00\n        /* \"#utility.yul\":18657:18660   */\n      dup4\n        /* \"#utility.yul\":18581:18664   */\n      tag_382\n      jump\t// in\n    tag_579:\n        /* \"#utility.yul\":18574:18664   */\n      swap2\n      pop\n        /* \"#utility.yul\":18673:18766   */\n      tag_580\n        /* \"#utility.yul\":18762:18765   */\n      dup3\n        /* \"#utility.yul\":18673:18766   */\n      tag_383\n      jump\t// in\n    tag_580:\n        /* \"#utility.yul\":18791:18792   */\n      0x00\n        /* \"#utility.yul\":18786:18789   */\n      dup3\n        /* \"#utility.yul\":18782:18793   */\n      add\n        /* \"#utility.yul\":18775:18793   */\n      swap1\n      pop\n        /* \"#utility.yul\":18401:18799   */\n      swap2\n      swap1\n      pop\n      jump\t// out\n        /* \"#utility.yul\":18805:19184   */\n    tag_221:\n        /* \"#utility.yul\":18989:18992   */\n      0x00\n        /* \"#utility.yul\":19011:19158   */\n      tag_582\n        /* \"#utility.yul\":19154:19157   */\n      dup3\n        /* \"#utility.yul\":19011:19158   */\n      tag_384\n      jump\t// in\n    tag_582:\n        /* \"#utility.yul\":19004:19158   */\n      swap2\n      pop\n        /* \"#utility.yul\":19175:19178   */\n      dup2\n        /* \"#utility.yul\":19168:19178   */\n      swap1\n      pop\n        /* \"#utility.yul\":18805:19184   */\n      swap2\n      swap1\n      pop\n      jump\t// out\n        /* \"#utility.yul\":19190:19370   */\n    tag_385:\n        /* \"#utility.yul\":19330:19362   */\n      0x41207472616e73666572656e636961206465204554482066616c686f752e0000\n        /* \"#utility.yul\":19326:19327   */\n      0x00\n        /* \"#utility.yul\":19318:19324   */\n      dup3\n        /* \"#utility.yul\":19314:19328   */\n      add\n        /* \"#utility.yul\":19307:19363   */\n      mstore\n        /* \"#utility.yul\":19190:19370   */\n      pop\n      jump\t// out\n        /* \"#utility.yul\":19376:19742   */\n    tag_386:\n        /* \"#utility.yul\":19518:19521   */\n      0x00\n        /* \"#utility.yul\":19539:19606   */\n      tag_585\n        /* \"#utility.yul\":19603:19605   */\n      0x1e\n        /* \"#utility.yul\":19598:19601   */\n      dup4\n        /* \"#utility.yul\":19539:19606   */\n      tag_343\n      jump\t// in\n    tag_585:\n        /* \"#utility.yul\":19532:19606   */\n      swap2\n      pop\n        /* \"#utility.yul\":19615:19708   */\n      tag_586\n        /* \"#utility.yul\":19704:19707   */\n      dup3\n        /* \"#utility.yul\":19615:19708   */\n      tag_385\n      jump\t// in\n    tag_586:\n        /* \"#utility.yul\":19733:19735   */\n      0x20\n        /* \"#utility.yul\":19728:19731   */\n      dup3\n        /* \"#utility.yul\":19724:19736   */\n      add\n        /* \"#utility.yul\":19717:19736   */\n      swap1\n      pop\n        /* \"#utility.yul\":19376:19742   */\n      swap2\n      swap1\n      pop\n      jump\t// out\n        /* \"#utility.yul\":19748:20167   */\n    tag_227:\n        /* \"#utility.yul\":19914:19918   */\n      0x00\n        /* \"#utility.yul\":19952:19954   */\n      0x20\n        /* \"#utility.yul\":19941:19950   */\n      dup3\n        /* \"#utility.yul\":19937:19955   */\n      add\n        /* \"#utility.yul\":19929:19955   */\n      swap1\n      pop\n        /* \"#utility.yul\":20001:20010   */\n      dup2\n        /* \"#utility.yul\":19995:19999   */\n      dup2\n        /* \"#utility.yul\":19991:20011   */\n      sub\n        /* \"#utility.yul\":19987:19988   */\n      0x00\n        /* \"#utility.yul\":19976:19985   */\n      dup4\n        /* \"#utility.yul\":19972:19989   */\n      add\n        /* \"#utility.yul\":19965:20012   */\n      mstore\n        /* \"#utility.yul\":20029:20160   */\n      tag_588\n        /* \"#utility.yul\":20155:20159   */\n      dup2\n        /* \"#utility.yul\":20029:20160   */\n      tag_386\n      jump\t// in\n    tag_588:\n        /* \"#utility.yul\":20021:20160   */\n      swap1\n      pop\n        /* \"#utility.yul\":19748:20167   */\n      swap2\n      swap1\n      pop\n      jump\t// out\n        /* \"#utility.yul\":20173:20404   */\n    tag_387:\n        /* \"#utility.yul\":20313:20347   */\n      0x4f20656d7072657374696d6f206a6120666f6920656e6365727261646f206f75\n        /* \"#utility.yul\":20309:20310   */\n      0x00\n        /* \"#utility.yul\":20301:20307   */\n      dup3\n        /* \"#utility.yul\":20297:20311   */\n      add\n        /* \"#utility.yul\":20290:20348   */\n      mstore\n        /* \"#utility.yul\":20382:20396   */\n      0x206e616f206578697374652e0000000000000000000000000000000000000000\n        /* \"#utility.yul\":20377:20379   */\n      0x20\n        /* \"#utility.yul\":20369:20375   */\n      dup3\n        /* \"#utility.yul\":20365:20380   */\n      add\n        /* \"#utility.yul\":20358:20397   */\n      mstore\n        /* \"#utility.yul\":20173:20404   */\n      pop\n      jump\t// out\n        /* \"#utility.yul\":20410:20776   */\n    tag_388:\n        /* \"#utility.yul\":20552:20555   */\n      0x00\n        /* \"#utility.yul\":20573:20640   */\n      tag_591\n        /* \"#utility.yul\":20637:20639   */\n      0x2c\n        /* \"#utility.yul\":20632:20635   */\n      dup4\n        /* \"#utility.yul\":20573:20640   */\n      tag_343\n      jump\t// in\n    tag_591:\n        /* \"#utility.yul\":20566:20640   */\n      swap2\n      pop\n        /* \"#utility.yul\":20649:20742   */\n      tag_592\n        /* \"#utility.yul\":20738:20741   */\n      dup3\n        /* \"#utility.yul\":20649:20742   */\n      tag_387\n      jump\t// in\n    tag_592:\n        /* \"#utility.yul\":20767:20769   */\n      0x40\n        /* \"#utility.yul\":20762:20765   */\n      dup3\n        /* \"#utility.yul\":20758:20770   */\n      add\n        /* \"#utility.yul\":20751:20770   */\n      swap1\n      pop\n        /* \"#utility.yul\":20410:20776   */\n      swap2\n      swap1\n      pop\n      jump\t// out\n        /* \"#utility.yul\":20782:21201   */\n    tag_231:\n        /* \"#utility.yul\":20948:20952   */\n      0x00\n        /* \"#utility.yul\":20986:20988   */\n      0x20\n        /* \"#utility.yul\":20975:20984   */\n      dup3\n        /* \"#utility.yul\":20971:20989   */\n      add\n        /* \"#utility.yul\":20963:20989   */\n      swap1\n      pop\n        /* \"#utility.yul\":21035:21044   */\n      dup2\n        /* \"#utility.yul\":21029:21033   */\n      dup2\n        /* \"#utility.yul\":21025:21045   */\n      sub\n        /* \"#utility.yul\":21021:21022   */\n      0x00\n        /* \"#utility.yul\":21010:21019   */\n      dup4\n        /* \"#utility.yul\":21006:21023   */\n      add\n        /* \"#utility.yul\":20999:21046   */\n      mstore\n        /* \"#utility.yul\":21063:21194   */\n      tag_594\n        /* \"#utility.yul\":21189:21193   */\n      dup2\n        /* \"#utility.yul\":21063:21194   */\n      tag_388\n      jump\t// in\n    tag_594:\n        /* \"#utility.yul\":21055:21194   */\n      swap1\n      pop\n        /* \"#utility.yul\":20782:21201   */\n      swap2\n      swap1\n      pop\n      jump\t// out\n        /* \"#utility.yul\":21207:21441   */\n    tag_389:\n        /* \"#utility.yul\":21347:21381   */\n      0x4170656e6173206f20746974756c617220646f20656d7072657374696d6f206f\n        /* \"#utility.yul\":21343:21344   */\n      0x00\n        /* \"#utility.yul\":21335:21341   */\n      dup3\n        /* \"#utility.yul\":21331:21345   */\n      add\n        /* \"#utility.yul\":21324:21382   */\n      mstore\n        /* \"#utility.yul\":21416:21433   */\n      0x20706f6465207465726d696e61722e0000000000000000000000000000000000\n        /* \"#utility.yul\":21411:21413   */\n      0x20\n        /* \"#utility.yul\":21403:21409   */\n      dup3\n        /* \"#utility.yul\":21399:21414   */\n      add\n        /* \"#utility.yul\":21392:21434   */\n      mstore\n        /* \"#utility.yul\":21207:21441   */\n      pop\n      jump\t// out\n        /* \"#utility.yul\":21447:21813   */\n    tag_390:\n        /* \"#utility.yul\":21589:21592   */\n      0x00\n        /* \"#utility.yul\":21610:21677   */\n      tag_597\n        /* \"#utility.yul\":21674:21676   */\n      0x2f\n        /* \"#utility.yul\":21669:21672   */\n      dup4\n        /* \"#utility.yul\":21610:21677   */\n      tag_343\n      jump\t// in\n    tag_597:\n        /* \"#utility.yul\":21603:21677   */\n      swap2\n      pop\n        /* \"#utility.yul\":21686:21779   */\n      tag_598\n        /* \"#utility.yul\":21775:21778   */\n      dup3\n        /* \"#utility.yul\":21686:21779   */\n      tag_389\n      jump\t// in\n    tag_598:\n        /* \"#utility.yul\":21804:21806   */\n      0x40\n        /* \"#utility.yul\":21799:21802   */\n      dup3\n        /* \"#utility.yul\":21795:21807   */\n      add\n        /* \"#utility.yul\":21788:21807   */\n      swap1\n      pop\n        /* \"#utility.yul\":21447:21813   */\n      swap2\n      swap1\n      pop\n      jump\t// out\n        /* \"#utility.yul\":21819:22238   */\n    tag_234:\n        /* \"#utility.yul\":21985:21989   */\n      0x00\n        /* \"#utility.yul\":22023:22025   */\n      0x20\n        /* \"#utility.yul\":22012:22021   */\n      dup3\n        /* \"#utility.yul\":22008:22026   */\n      add\n        /* \"#utility.yul\":22000:22026   */\n      swap1\n      pop\n        /* \"#utility.yul\":22072:22081   */\n      dup2\n        /* \"#utility.yul\":22066:22070   */\n      dup2\n        /* \"#utility.yul\":22062:22082   */\n      sub\n        /* \"#utility.yul\":22058:22059   */\n      0x00\n        /* \"#utility.yul\":22047:22056   */\n      dup4\n        /* \"#utility.yul\":22043:22060   */\n      add\n        /* \"#utility.yul\":22036:22083   */\n      mstore\n        /* \"#utility.yul\":22100:22231   */\n      tag_600\n        /* \"#utility.yul\":22226:22230   */\n      dup2\n        /* \"#utility.yul\":22100:22231   */\n      tag_390\n      jump\t// in\n    tag_600:\n        /* \"#utility.yul\":22092:22231   */\n      swap1\n      pop\n        /* \"#utility.yul\":21819:22238   */\n      swap2\n      swap1\n      pop\n      jump\t// out\n        /* \"#utility.yul\":22244:22549   */\n    tag_391:\n        /* \"#utility.yul\":22384:22418   */\n      0x56616c6f7220696e636f727265746f2e2044657665207061676172206120746f\n        /* \"#utility.yul\":22380:22381   */\n      0x00\n        /* \"#utility.yul\":22372:22378   */\n      dup3\n        /* \"#utility.yul\":22368:22382   */\n      add\n        /* \"#utility.yul\":22361:22419   */\n      mstore\n        /* \"#utility.yul\":22453:22487   */\n      0x74616c696461646520646f20656d7072657374696d6f206d6169732061207461\n        /* \"#utility.yul\":22448:22450   */\n      0x20\n        /* \"#utility.yul\":22440:22446   */\n      dup3\n        /* \"#utility.yul\":22436:22451   */\n      add\n        /* \"#utility.yul\":22429:22488   */\n      mstore\n        /* \"#utility.yul\":22522:22541   */\n      0x7861206465207465726d696e6163616f2e000000000000000000000000000000\n        /* \"#utility.yul\":22517:22519   */\n      0x40\n        /* \"#utility.yul\":22509:22515   */\n      dup3\n        /* \"#utility.yul\":22505:22520   */\n      add\n        /* \"#utility.yul\":22498:22542   */\n      mstore\n        /* \"#utility.yul\":22244:22549   */\n      pop\n      jump\t// out\n        /* \"#utility.yul\":22555:22921   */\n    tag_392:\n        /* \"#utility.yul\":22697:22700   */\n      0x00\n        /* \"#utility.yul\":22718:22785   */\n      tag_603\n        /* \"#utility.yul\":22782:22784   */\n      0x51\n        /* \"#utility.yul\":22777:22780   */\n      dup4\n        /* \"#utility.yul\":22718:22785   */\n      tag_343\n      jump\t// in\n    tag_603:\n        /* \"#utility.yul\":22711:22785   */\n      swap2\n      pop\n        /* \"#utility.yul\":22794:22887   */\n      tag_604\n        /* \"#utility.yul\":22883:22886   */\n      dup3\n        /* \"#utility.yul\":22794:22887   */\n      tag_391\n      jump\t// in\n    tag_604:\n        /* \"#utility.yul\":22912:22914   */\n      0x60\n        /* \"#utility.yul\":22907:22910   */\n      dup3\n        /* \"#utility.yul\":22903:22915   */\n      add\n        /* \"#utility.yul\":22896:22915   */\n      swap1\n      pop\n        /* \"#utility.yul\":22555:22921   */\n      swap2\n      swap1\n      pop\n      jump\t// out\n        /* \"#utility.yul\":22927:23346   */\n    tag_240:\n        /* \"#utility.yul\":23093:23097   */\n      0x00\n        /* \"#utility.yul\":23131:23133   */\n      0x20\n        /* \"#utility.yul\":23120:23129   */\n      dup3\n        /* \"#utility.yul\":23116:23134   */\n      add\n        /* \"#utility.yul\":23108:23134   */\n      swap1\n      pop\n        /* \"#utility.yul\":23180:23189   */\n      dup2\n        /* \"#utility.yul\":23174:23178   */\n      dup2\n        /* \"#utility.yul\":23170:23190   */\n      sub\n        /* \"#utility.yul\":23166:23167   */\n      0x00\n        /* \"#utility.yul\":23155:23164   */\n      dup4\n        /* \"#utility.yul\":23151:23168   */\n      add\n        /* \"#utility.yul\":23144:23191   */\n      mstore\n        /* \"#utility.yul\":23208:23339   */\n      tag_606\n        /* \"#utility.yul\":23334:23338   */\n      dup2\n        /* \"#utility.yul\":23208:23339   */\n      tag_392\n      jump\t// in\n    tag_606:\n        /* \"#utility.yul\":23200:23339   */\n      swap1\n      pop\n        /* \"#utility.yul\":22927:23346   */\n      swap2\n      swap1\n      pop\n      jump\t// out\n        /* \"#utility.yul\":23352:23585   */\n    tag_393:\n        /* \"#utility.yul\":23492:23526   */\n      0x4f20656d7072657374696d6f206a61206573746120696e617469766f206f7520\n        /* \"#utility.yul\":23488:23489   */\n      0x00\n        /* \"#utility.yul\":23480:23486   */\n      dup3\n        /* \"#utility.yul\":23476:23490   */\n      add\n        /* \"#utility.yul\":23469:23527   */\n      mstore\n        /* \"#utility.yul\":23561:23577   */\n      0x666f6920636f6e636c7569646f2e000000000000000000000000000000000000\n        /* \"#utility.yul\":23556:23558   */\n      0x20\n        /* \"#utility.yul\":23548:23554   */\n      dup3\n        /* \"#utility.yul\":23544:23559   */\n      add\n        /* \"#utility.yul\":23537:23578   */\n      mstore\n        /* \"#utility.yul\":23352:23585   */\n      pop\n      jump\t// out\n        /* \"#utility.yul\":23591:23957   */\n    tag_394:\n        /* \"#utility.yul\":23733:23736   */\n      0x00\n        /* \"#utility.yul\":23754:23821   */\n      tag_609\n        /* \"#utility.yul\":23818:23820   */\n      0x2e\n        /* \"#utility.yul\":23813:23816   */\n      dup4\n        /* \"#utility.yul\":23754:23821   */\n      tag_343\n      jump\t// in\n    tag_609:\n        /* \"#utility.yul\":23747:23821   */\n      swap2\n      pop\n        /* \"#utility.yul\":23830:23923   */\n      tag_610\n        /* \"#utility.yul\":23919:23922   */\n      dup3\n        /* \"#utility.yul\":23830:23923   */\n      tag_393\n      jump\t// in\n    tag_610:\n        /* \"#utility.yul\":23948:23950   */\n      0x40\n        /* \"#utility.yul\":23943:23946   */\n      dup3\n        /* \"#utility.yul\":23939:23951   */\n      add\n        /* \"#utility.yul\":23932:23951   */\n      swap1\n      pop\n        /* \"#utility.yul\":23591:23957   */\n      swap2\n      swap1\n      pop\n      jump\t// out\n        /* \"#utility.yul\":23963:24382   */\n    tag_259:\n        /* \"#utility.yul\":24129:24133   */\n      0x00\n        /* \"#utility.yul\":24167:24169   */\n      0x20\n        /* \"#utility.yul\":24156:24165   */\n      dup3\n        /* \"#utility.yul\":24152:24170   */\n      add\n        /* \"#utility.yul\":24144:24170   */\n      swap1\n      pop\n        /* \"#utility.yul\":24216:24225   */\n      dup2\n        /* \"#utility.yul\":24210:24214   */\n      dup2\n        /* \"#utility.yul\":24206:24226   */\n      sub\n        /* \"#utility.yul\":24202:24203   */\n      0x00\n        /* \"#utility.yul\":24191:24200   */\n      dup4\n        /* \"#utility.yul\":24187:24204   */\n      add\n        /* \"#utility.yul\":24180:24227   */\n      mstore\n        /* \"#utility.yul\":24244:24375   */\n      tag_612\n        /* \"#utility.yul\":24370:24374   */\n      dup2\n        /* \"#utility.yul\":24244:24375   */\n      tag_394\n      jump\t// in\n    tag_612:\n        /* \"#utility.yul\":24236:24375   */\n      swap1\n      pop\n        /* \"#utility.yul\":23963:24382   */\n      swap2\n      swap1\n      pop\n      jump\t// out\n        /* \"#utility.yul\":24388:24626   */\n    tag_395:\n        /* \"#utility.yul\":24528:24562   */\n      0x4f20656d7072657374696d6f206573746120656d206469612e204e656e68756d\n        /* \"#utility.yul\":24524:24525   */\n      0x00\n        /* \"#utility.yul\":24516:24522   */\n      dup3\n        /* \"#utility.yul\":24512:24526   */\n      add\n        /* \"#utility.yul\":24505:24563   */\n      mstore\n        /* \"#utility.yul\":24597:24618   */\n      0x612070756e6963616f2061706c69636164612e00000000000000000000000000\n        /* \"#utility.yul\":24592:24594   */\n      0x20\n        /* \"#utility.yul\":24584:24590   */\n      dup3\n        /* \"#utility.yul\":24580:24595   */\n      add\n        /* \"#utility.yul\":24573:24619   */\n      mstore\n        /* \"#utility.yul\":24388:24626   */\n      pop\n      jump\t// out\n        /* \"#utility.yul\":24632:24998   */\n    tag_396:\n        /* \"#utility.yul\":24774:24777   */\n      0x00\n        /* \"#utility.yul\":24795:24862   */\n      tag_615\n        /* \"#utility.yul\":24859:24861   */\n      0x33\n        /* \"#utility.yul\":24854:24857   */\n      dup4\n        /* \"#utility.yul\":24795:24862   */\n      tag_343\n      jump\t// in\n    tag_615:\n        /* \"#utility.yul\":24788:24862   */\n      swap2\n      pop\n        /* \"#utility.yul\":24871:24964   */\n      tag_616\n        /* \"#utility.yul\":24960:24963   */\n      dup3\n        /* \"#utility.yul\":24871:24964   */\n      tag_395\n      jump\t// in\n    tag_616:\n        /* \"#utility.yul\":24989:24991   */\n      0x40\n        /* \"#utility.yul\":24984:24987   */\n      dup3\n        /* \"#utility.yul\":24980:24992   */\n      add\n        /* \"#utility.yul\":24973:24992   */\n      swap1\n      pop\n        /* \"#utility.yul\":24632:24998   */\n      swap2\n      swap1\n      pop\n      jump\t// out\n        /* \"#utility.yul\":25004:25423   */\n    tag_263:\n        /* \"#utility.yul\":25170:25174   */\n      0x00\n        /* \"#utility.yul\":25208:25210   */\n      0x20\n        /* \"#utility.yul\":25197:25206   */\n      dup3\n        /* \"#utility.yul\":25193:25211   */\n      add\n        /* \"#utility.yul\":25185:25211   */\n      swap1\n      pop\n        /* \"#utility.yul\":25257:25266   */\n      dup2\n        /* \"#utility.yul\":25251:25255   */\n      dup2\n        /* \"#utility.yul\":25247:25267   */\n      sub\n        /* \"#utility.yul\":25243:25244   */\n      0x00\n        /* \"#utility.yul\":25232:25241   */\n      dup4\n        /* \"#utility.yul\":25228:25245   */\n      add\n        /* \"#utility.yul\":25221:25268   */\n      mstore\n        /* \"#utility.yul\":25285:25416   */\n      tag_618\n        /* \"#utility.yul\":25411:25415   */\n      dup2\n        /* \"#utility.yul\":25285:25416   */\n      tag_396\n      jump\t// in\n    tag_618:\n        /* \"#utility.yul\":25277:25416   */\n      swap1\n      pop\n        /* \"#utility.yul\":25004:25423   */\n      swap2\n      swap1\n      pop\n      jump\t// out\n        /* \"#utility.yul\":25429:25651   */\n    tag_397:\n        /* \"#utility.yul\":25569:25603   */\n      0x54656d20646520656e7669617220455448207061726120636f6d707261722044\n        /* \"#utility.yul\":25565:25566   */\n      0x00\n        /* \"#utility.yul\":25557:25563   */\n      dup3\n        /* \"#utility.yul\":25553:25567   */\n      add\n        /* \"#utility.yul\":25546:25604   */\n      mstore\n        /* \"#utility.yul\":25638:25643   */\n      0x45582e0000000000000000000000000000000000000000000000000000000000\n        /* \"#utility.yul\":25633:25635   */\n      0x20\n        /* \"#utility.yul\":25625:25631   */\n      dup3\n        /* \"#utility.yul\":25621:25636   */\n      add\n        /* \"#utility.yul\":25614:25644   */\n      mstore\n        /* \"#utility.yul\":25429:25651   */\n      pop\n      jump\t// out\n        /* \"#utility.yul\":25657:26023   */\n    tag_398:\n        /* \"#utility.yul\":25799:25802   */\n      0x00\n        /* \"#utility.yul\":25820:25887   */\n      tag_621\n        /* \"#utility.yul\":25884:25886   */\n      0x23\n        /* \"#utility.yul\":25879:25882   */\n      dup4\n        /* \"#utility.yul\":25820:25887   */\n      tag_343\n      jump\t// in\n    tag_621:\n        /* \"#utility.yul\":25813:25887   */\n      swap2\n      pop\n        /* \"#utility.yul\":25896:25989   */\n      tag_622\n        /* \"#utility.yul\":25985:25988   */\n      dup3\n        /* \"#utility.yul\":25896:25989   */\n      tag_397\n      jump\t// in\n    tag_622:\n        /* \"#utility.yul\":26014:26016   */\n      0x40\n        /* \"#utility.yul\":26009:26012   */\n      dup3\n        /* \"#utility.yul\":26005:26017   */\n      add\n        /* \"#utility.yul\":25998:26017   */\n      swap1\n      pop\n        /* \"#utility.yul\":25657:26023   */\n      swap2\n      swap1\n      pop\n      jump\t// out\n        /* \"#utility.yul\":26029:26448   */\n    tag_267:\n        /* \"#utility.yul\":26195:26199   */\n      0x00\n        /* \"#utility.yul\":26233:26235   */\n      0x20\n        /* \"#utility.yul\":26222:26231   */\n      dup3\n        /* \"#utility.yul\":26218:26236   */\n      add\n        /* \"#utility.yul\":26210:26236   */\n      swap1\n      pop\n        /* \"#utility.yul\":26282:26291   */\n      dup2\n        /* \"#utility.yul\":26276:26280   */\n      dup2\n        /* \"#utility.yul\":26272:26292   */\n      sub\n        /* \"#utility.yul\":26268:26269   */\n      0x00\n        /* \"#utility.yul\":26257:26266   */\n      dup4\n        /* \"#utility.yul\":26253:26270   */\n      add\n        /* \"#utility.yul\":26246:26293   */\n      mstore\n        /* \"#utility.yul\":26310:26441   */\n      tag_624\n        /* \"#utility.yul\":26436:26440   */\n      dup2\n        /* \"#utility.yul\":26310:26441   */\n      tag_398\n      jump\t// in\n    tag_624:\n        /* \"#utility.yul\":26302:26441   */\n      swap1\n      pop\n        /* \"#utility.yul\":26029:26448   */\n      swap2\n      swap1\n      pop\n      jump\t// out\n        /* \"#utility.yul\":26454:26691   */\n    tag_399:\n        /* \"#utility.yul\":26594:26628   */\n      0x4f20636f6e747261746f206e616f2074656d2044455820737566696369656e74\n        /* \"#utility.yul\":26590:26591   */\n      0x00\n        /* \"#utility.yul\":26582:26588   */\n      dup3\n        /* \"#utility.yul\":26578:26592   */\n      add\n        /* \"#utility.yul\":26571:26629   */\n      mstore\n        /* \"#utility.yul\":26663:26683   */\n      0x65207061726120657374612076656e64612e0000000000000000000000000000\n        /* \"#utility.yul\":26658:26660   */\n      0x20\n        /* \"#utility.yul\":26650:26656   */\n      dup3\n        /* \"#utility.yul\":26646:26661   */\n      add\n        /* \"#utility.yul\":26639:26684   */\n      mstore\n        /* \"#utility.yul\":26454:26691   */\n      pop\n      jump\t// out\n        /* \"#utility.yul\":26697:27063   */\n    tag_400:\n        /* \"#utility.yul\":26839:26842   */\n      0x00\n        /* \"#utility.yul\":26860:26927   */\n      tag_627\n        /* \"#utility.yul\":26924:26926   */\n      0x32\n        /* \"#utility.yul\":26919:26922   */\n      dup4\n        /* \"#utility.yul\":26860:26927   */\n      tag_343\n      jump\t// in\n    tag_627:\n        /* \"#utility.yul\":26853:26927   */\n      swap2\n      pop\n        /* \"#utility.yul\":26936:27029   */\n      tag_628\n        /* \"#utility.yul\":27025:27028   */\n      dup3\n        /* \"#utility.yul\":26936:27029   */\n      tag_399\n      jump\t// in\n    tag_628:\n        /* \"#utility.yul\":27054:27056   */\n      0x40\n        /* \"#utility.yul\":27049:27052   */\n      dup3\n        /* \"#utility.yul\":27045:27057   */\n      add\n        /* \"#utility.yul\":27038:27057   */\n      swap1\n      pop\n        /* \"#utility.yul\":26697:27063   */\n      swap2\n      swap1\n      pop\n      jump\t// out\n        /* \"#utility.yul\":27069:27488   */\n    tag_273:\n        /* \"#utility.yul\":27235:27239   */\n      0x00\n        /* \"#utility.yul\":27273:27275   */\n      0x20\n        /* \"#utility.yul\":27262:27271   */\n      dup3\n        /* \"#utility.yul\":27258:27276   */\n      add\n        /* \"#utility.yul\":27250:27276   */\n      swap1\n      pop\n        /* \"#utility.yul\":27322:27331   */\n      dup2\n        /* \"#utility.yul\":27316:27320   */\n      dup2\n        /* \"#utility.yul\":27312:27332   */\n      sub\n        /* \"#utility.yul\":27308:27309   */\n      0x00\n        /* \"#utility.yul\":27297:27306   */\n      dup4\n        /* \"#utility.yul\":27293:27310   */\n      add\n        /* \"#utility.yul\":27286:27333   */\n      mstore\n        /* \"#utility.yul\":27350:27481   */\n      tag_630\n        /* \"#utility.yul\":27476:27480   */\n      dup2\n        /* \"#utility.yul\":27350:27481   */\n      tag_400\n      jump\t// in\n    tag_630:\n        /* \"#utility.yul\":27342:27481   */\n      swap1\n      pop\n        /* \"#utility.yul\":27069:27488   */\n      swap2\n      swap1\n      pop\n      jump\t// out\n        /* \"#utility.yul\":27494:27737   */\n    tag_401:\n        /* \"#utility.yul\":27634:27668   */\n      0x41207175616e74696461646520646520636f6c61746572616c20444558207465\n        /* \"#utility.yul\":27630:27631   */\n      0x00\n        /* \"#utility.yul\":27622:27628   */\n      dup3\n        /* \"#utility.yul\":27618:27632   */\n      add\n        /* \"#utility.yul\":27611:27669   */\n      mstore\n        /* \"#utility.yul\":27703:27729   */\n      0x6d20646520736572206d61696f7220717565207a65726f2e0000000000000000\n        /* \"#utility.yul\":27698:27700   */\n      0x20\n        /* \"#utility.yul\":27690:27696   */\n      dup3\n        /* \"#utility.yul\":27686:27701   */\n      add\n        /* \"#utility.yul\":27679:27730   */\n      mstore\n        /* \"#utility.yul\":27494:27737   */\n      pop\n      jump\t// out\n        /* \"#utility.yul\":27743:28109   */\n    tag_402:\n        /* \"#utility.yul\":27885:27888   */\n      0x00\n        /* \"#utility.yul\":27906:27973   */\n      tag_633\n        /* \"#utility.yul\":27970:27972   */\n      0x38\n        /* \"#utility.yul\":27965:27968   */\n      dup4\n        /* \"#utility.yul\":27906:27973   */\n      tag_343\n      jump\t// in\n    tag_633:\n        /* \"#utility.yul\":27899:27973   */\n      swap2\n      pop\n        /* \"#utility.yul\":27982:28075   */\n      tag_634\n        /* \"#utility.yul\":28071:28074   */\n      dup3\n        /* \"#utility.yul\":27982:28075   */\n      tag_401\n      jump\t// in\n    tag_634:\n        /* \"#utility.yul\":28100:28102   */\n      0x40\n        /* \"#utility.yul\":28095:28098   */\n      dup3\n        /* \"#utility.yul\":28091:28103   */\n      add\n        /* \"#utility.yul\":28084:28103   */\n      swap1\n      pop\n        /* \"#utility.yul\":27743:28109   */\n      swap2\n      swap1\n      pop\n      jump\t// out\n        /* \"#utility.yul\":28115:28534   */\n    tag_278:\n        /* \"#utility.yul\":28281:28285   */\n      0x00\n        /* \"#utility.yul\":28319:28321   */\n      0x20\n        /* \"#utility.yul\":28308:28317   */\n      dup3\n        /* \"#utility.yul\":28304:28322   */\n      add\n        /* \"#utility.yul\":28296:28322   */\n      swap1\n      pop\n        /* \"#utility.yul\":28368:28377   */\n      dup2\n        /* \"#utility.yul\":28362:28366   */\n      dup2\n        /* \"#utility.yul\":28358:28378   */\n      sub\n        /* \"#utility.yul\":28354:28355   */\n      0x00\n        /* \"#utility.yul\":28343:28352   */\n      dup4\n        /* \"#utility.yul\":28339:28356   */\n      add\n        /* \"#utility.yul\":28332:28379   */\n      mstore\n        /* \"#utility.yul\":28396:28527   */\n      tag_636\n        /* \"#utility.yul\":28522:28526   */\n      dup2\n        /* \"#utility.yul\":28396:28527   */\n      tag_402\n      jump\t// in\n    tag_636:\n        /* \"#utility.yul\":28388:28527   */\n      swap1\n      pop\n        /* \"#utility.yul\":28115:28534   */\n      swap2\n      swap1\n      pop\n      jump\t// out\n        /* \"#utility.yul\":28540:28772   */\n    tag_403:\n        /* \"#utility.yul\":28680:28714   */\n      0x4f207072617a6f206520696e76616c69646f206f7520657863656465206f206c\n        /* \"#utility.yul\":28676:28677   */\n      0x00\n        /* \"#utility.yul\":28668:28674   */\n      dup3\n        /* \"#utility.yul\":28664:28678   */\n      add\n        /* \"#utility.yul\":28657:28715   */\n      mstore\n        /* \"#utility.yul\":28749:28764   */\n      0x696d697465206d6178696d6f2e00000000000000000000000000000000000000\n        /* \"#utility.yul\":28744:28746   */\n      0x20\n        /* \"#utility.yul\":28736:28742   */\n      dup3\n        /* \"#utility.yul\":28732:28747   */\n      add\n        /* \"#utility.yul\":28725:28765   */\n      mstore\n        /* \"#utility.yul\":28540:28772   */\n      pop\n      jump\t// out\n        /* \"#utility.yul\":28778:29144   */\n    tag_404:\n        /* \"#utility.yul\":28920:28923   */\n      0x00\n        /* \"#utility.yul\":28941:29008   */\n      tag_639\n        /* \"#utility.yul\":29005:29007   */\n      0x2d\n        /* \"#utility.yul\":29000:29003   */\n      dup4\n        /* \"#utility.yul\":28941:29008   */\n      tag_343\n      jump\t// in\n    tag_639:\n        /* \"#utility.yul\":28934:29008   */\n      swap2\n      pop\n        /* \"#utility.yul\":29017:29110   */\n      tag_640\n        /* \"#utility.yul\":29106:29109   */\n      dup3\n        /* \"#utility.yul\":29017:29110   */\n      tag_403\n      jump\t// in\n    tag_640:\n        /* \"#utility.yul\":29135:29137   */\n      0x40\n        /* \"#utility.yul\":29130:29133   */\n      dup3\n        /* \"#utility.yul\":29126:29138   */\n      add\n        /* \"#utility.yul\":29119:29138   */\n      swap1\n      pop\n        /* \"#utility.yul\":28778:29144   */\n      swap2\n      swap1\n      pop\n      jump\t// out\n        /* \"#utility.yul\":29150:29569   */\n    tag_282:\n        /* \"#utility.yul\":29316:29320   */\n      0x00\n        /* \"#utility.yul\":29354:29356   */\n      0x20\n        /* \"#utility.yul\":29343:29352   */\n      dup3\n        /* \"#utility.yul\":29339:29357   */\n      add\n        /* \"#utility.yul\":29331:29357   */\n      swap1\n      pop\n        /* \"#utility.yul\":29403:29412   */\n      dup2\n        /* \"#utility.yul\":29397:29401   */\n      dup2\n        /* \"#utility.yul\":29393:29413   */\n      sub\n        /* \"#utility.yul\":29389:29390   */\n      0x00\n        /* \"#utility.yul\":29378:29387   */\n      dup4\n        /* \"#utility.yul\":29374:29391   */\n      add\n        /* \"#utility.yul\":29367:29414   */\n      mstore\n        /* \"#utility.yul\":29431:29562   */\n      tag_642\n        /* \"#utility.yul\":29557:29561   */\n      dup2\n        /* \"#utility.yul\":29431:29562   */\n      tag_404\n      jump\t// in\n    tag_642:\n        /* \"#utility.yul\":29423:29562   */\n      swap1\n      pop\n        /* \"#utility.yul\":29150:29569   */\n      swap2\n      swap1\n      pop\n      jump\t// out\n        /* \"#utility.yul\":29575:29816   */\n    tag_405:\n        /* \"#utility.yul\":29715:29749   */\n      0x4e616f2074656d2073616c646f2044455820737566696369656e746520706172\n        /* \"#utility.yul\":29711:29712   */\n      0x00\n        /* \"#utility.yul\":29703:29709   */\n      dup3\n        /* \"#utility.yul\":29699:29713   */\n      add\n        /* \"#utility.yul\":29692:29750   */\n      mstore\n        /* \"#utility.yul\":29784:29808   */\n      0x61207573617220636f6d6f20636f6c61746572616c2e00000000000000000000\n        /* \"#utility.yul\":29779:29781   */\n      0x20\n        /* \"#utility.yul\":29771:29777   */\n      dup3\n        /* \"#utility.yul\":29767:29782   */\n      add\n        /* \"#utility.yul\":29760:29809   */\n      mstore\n        /* \"#utility.yul\":29575:29816   */\n      pop\n      jump\t// out\n        /* \"#utility.yul\":29822:30188   */\n    tag_406:\n        /* \"#utility.yul\":29964:29967   */\n      0x00\n        /* \"#utility.yul\":29985:30052   */\n      tag_645\n        /* \"#utility.yul\":30049:30051   */\n      0x36\n        /* \"#utility.yul\":30044:30047   */\n      dup4\n        /* \"#utility.yul\":29985:30052   */\n      tag_343\n      jump\t// in\n    tag_645:\n        /* \"#utility.yul\":29978:30052   */\n      swap2\n      pop\n        /* \"#utility.yul\":30061:30154   */\n      tag_646\n        /* \"#utility.yul\":30150:30153   */\n      dup3\n        /* \"#utility.yul\":30061:30154   */\n      tag_405\n      jump\t// in\n    tag_646:\n        /* \"#utility.yul\":30179:30181   */\n      0x40\n        /* \"#utility.yul\":30174:30177   */\n      dup3\n        /* \"#utility.yul\":30170:30182   */\n      add\n        /* \"#utility.yul\":30163:30182   */\n      swap1\n      pop\n        /* \"#utility.yul\":29822:30188   */\n      swap2\n      swap1\n      pop\n      jump\t// out\n        /* \"#utility.yul\":30194:30613   */\n    tag_286:\n        /* \"#utility.yul\":30360:30364   */\n      0x00\n        /* \"#utility.yul\":30398:30400   */\n      0x20\n        /* \"#utility.yul\":30387:30396   */\n      dup3\n        /* \"#utility.yul\":30383:30401   */\n      add\n        /* \"#utility.yul\":30375:30401   */\n      swap1\n      pop\n        /* \"#utility.yul\":30447:30456   */\n      dup2\n        /* \"#utility.yul\":30441:30445   */\n      dup2\n        /* \"#utility.yul\":30437:30457   */\n      sub\n        /* \"#utility.yul\":30433:30434   */\n      0x00\n        /* \"#utility.yul\":30422:30431   */\n      dup4\n        /* \"#utility.yul\":30418:30435   */\n      add\n        /* \"#utility.yul\":30411:30458   */\n      mstore\n        /* \"#utility.yul\":30475:30606   */\n      tag_648\n        /* \"#utility.yul\":30601:30605   */\n      dup2\n        /* \"#utility.yul\":30475:30606   */\n      tag_406\n      jump\t// in\n    tag_648:\n        /* \"#utility.yul\":30467:30606   */\n      swap1\n      pop\n        /* \"#utility.yul\":30194:30613   */\n      swap2\n      swap1\n      pop\n      jump\t// out\n        /* \"#utility.yul\":30619:30870   */\n    tag_407:\n        /* \"#utility.yul\":30759:30793   */\n      0x4f2076616c6f7220646f20636f6c61746572616c20652064656d61736961646f\n        /* \"#utility.yul\":30755:30756   */\n      0x00\n        /* \"#utility.yul\":30747:30753   */\n      dup3\n        /* \"#utility.yul\":30743:30757   */\n      add\n        /* \"#utility.yul\":30736:30794   */\n      mstore\n        /* \"#utility.yul\":30828:30862   */\n      0x20626169786f207061726120676572617220756d20656d7072657374696d6f2e\n        /* \"#utility.yul\":30823:30825   */\n      0x20\n        /* \"#utility.yul\":30815:30821   */\n      dup3\n        /* \"#utility.yul\":30811:30826   */\n      add\n        /* \"#utility.yul\":30804:30863   */\n      mstore\n        /* \"#utility.yul\":30619:30870   */\n      pop\n      jump\t// out\n        /* \"#utility.yul\":30876:31242   */\n    tag_408:\n        /* \"#utility.yul\":31018:31021   */\n      0x00\n        /* \"#utility.yul\":31039:31106   */\n      tag_651\n        /* \"#utility.yul\":31103:31105   */\n      0x40\n        /* \"#utility.yul\":31098:31101   */\n      dup4\n        /* \"#utility.yul\":31039:31106   */\n      tag_343\n      jump\t// in\n    tag_651:\n        /* \"#utility.yul\":31032:31106   */\n      swap2\n      pop\n        /* \"#utility.yul\":31115:31208   */\n      tag_652\n        /* \"#utility.yul\":31204:31207   */\n      dup3\n        /* \"#utility.yul\":31115:31208   */\n      tag_407\n      jump\t// in\n    tag_652:\n        /* \"#utility.yul\":31233:31235   */\n      0x40\n        /* \"#utility.yul\":31228:31231   */\n      dup3\n        /* \"#utility.yul\":31224:31236   */\n      add\n        /* \"#utility.yul\":31217:31236   */\n      swap1\n      pop\n        /* \"#utility.yul\":30876:31242   */\n      swap2\n      swap1\n      pop\n      jump\t// out\n        /* \"#utility.yul\":31248:31667   */\n    tag_292:\n        /* \"#utility.yul\":31414:31418   */\n      0x00\n        /* \"#utility.yul\":31452:31454   */\n      0x20\n        /* \"#utility.yul\":31441:31450   */\n      dup3\n        /* \"#utility.yul\":31437:31455   */\n      add\n        /* \"#utility.yul\":31429:31455   */\n      swap1\n      pop\n        /* \"#utility.yul\":31501:31510   */\n      dup2\n        /* \"#utility.yul\":31495:31499   */\n      dup2\n        /* \"#utility.yul\":31491:31511   */\n      sub\n        /* \"#utility.yul\":31487:31488   */\n      0x00\n        /* \"#utility.yul\":31476:31485   */\n      dup4\n        /* \"#utility.yul\":31472:31489   */\n      add\n        /* \"#utility.yul\":31465:31512   */\n      mstore\n        /* \"#utility.yul\":31529:31660   */\n      tag_654\n        /* \"#utility.yul\":31655:31659   */\n      dup2\n        /* \"#utility.yul\":31529:31660   */\n      tag_408\n      jump\t// in\n    tag_654:\n        /* \"#utility.yul\":31521:31660   */\n      swap1\n      pop\n        /* \"#utility.yul\":31248:31667   */\n      swap2\n      swap1\n      pop\n      jump\t// out\n        /* \"#utility.yul\":31673:31917   */\n    tag_409:\n        /* \"#utility.yul\":31813:31847   */\n      0x4f20636f6e747261746f206e616f2074656d206c6971756964657a2064652045\n        /* \"#utility.yul\":31809:31810   */\n      0x00\n        /* \"#utility.yul\":31801:31807   */\n      dup3\n        /* \"#utility.yul\":31797:31811   */\n      add\n        /* \"#utility.yul\":31790:31848   */\n      mstore\n        /* \"#utility.yul\":31882:31909   */\n      0x544820737566696369656e7465206e6f206d6f6d656e746f2e00000000000000\n        /* \"#utility.yul\":31877:31879   */\n      0x20\n        /* \"#utility.yul\":31869:31875   */\n      dup3\n        /* \"#utility.yul\":31865:31880   */\n      add\n        /* \"#utility.yul\":31858:31910   */\n      mstore\n        /* \"#utility.yul\":31673:31917   */\n      pop\n      jump\t// out\n        /* \"#utility.yul\":31923:32289   */\n    tag_410:\n        /* \"#utility.yul\":32065:32068   */\n      0x00\n        /* \"#utility.yul\":32086:32153   */\n      tag_657\n        /* \"#utility.yul\":32150:32152   */\n      0x39\n        /* \"#utility.yul\":32145:32148   */\n      dup4\n        /* \"#utility.yul\":32086:32153   */\n      tag_343\n      jump\t// in\n    tag_657:\n        /* \"#utility.yul\":32079:32153   */\n      swap2\n      pop\n        /* \"#utility.yul\":32162:32255   */\n      tag_658\n        /* \"#utility.yul\":32251:32254   */\n      dup3\n        /* \"#utility.yul\":32162:32255   */\n      tag_409\n      jump\t// in\n    tag_658:\n        /* \"#utility.yul\":32280:32282   */\n      0x40\n        /* \"#utility.yul\":32275:32278   */\n      dup3\n        /* \"#utility.yul\":32271:32283   */\n      add\n        /* \"#utility.yul\":32264:32283   */\n      swap1\n      pop\n        /* \"#utility.yul\":31923:32289   */\n      swap2\n      swap1\n      pop\n      jump\t// out\n        /* \"#utility.yul\":32295:32714   */\n    tag_295:\n        /* \"#utility.yul\":32461:32465   */\n      0x00\n        /* \"#utility.yul\":32499:32501   */\n      0x20\n        /* \"#utility.yul\":32488:32497   */\n      dup3\n        /* \"#utility.yul\":32484:32502   */\n      add\n        /* \"#utility.yul\":32476:32502   */\n      swap1\n      pop\n        /* \"#utility.yul\":32548:32557   */\n      dup2\n        /* \"#utility.yul\":32542:32546   */\n      dup2\n        /* \"#utility.yul\":32538:32558   */\n      sub\n        /* \"#utility.yul\":32534:32535   */\n      0x00\n        /* \"#utility.yul\":32523:32532   */\n      dup4\n        /* \"#utility.yul\":32519:32536   */\n      add\n        /* \"#utility.yul\":32512:32559   */\n      mstore\n        /* \"#utility.yul\":32576:32707   */\n      tag_660\n        /* \"#utility.yul\":32702:32706   */\n      dup2\n        /* \"#utility.yul\":32576:32707   */\n      tag_410\n      jump\t// in\n    tag_660:\n        /* \"#utility.yul\":32568:32707   */\n      swap1\n      pop\n        /* \"#utility.yul\":32295:32714   */\n      swap2\n      swap1\n      pop\n      jump\t// out\n        /* \"#utility.yul\":32720:32953   */\n    tag_299:\n        /* \"#utility.yul\":32759:32762   */\n      0x00\n        /* \"#utility.yul\":32782:32806   */\n      tag_662\n        /* \"#utility.yul\":32800:32805   */\n      dup3\n        /* \"#utility.yul\":32782:32806   */\n      tag_354\n      jump\t// in\n    tag_662:\n        /* \"#utility.yul\":32773:32806   */\n      swap2\n      pop\n        /* \"#utility.yul\":32828:32894   */\n      0xffffffffffffffffffffffffffffffffffffffffffffffffffffffffffffffff\n        /* \"#utility.yul\":32821:32826   */\n      dup3\n        /* \"#utility.yul\":32818:32895   */\n      sub\n        /* \"#utility.yul\":32815:32918   */\n      tag_663\n      jumpi\n        /* \"#utility.yul\":32898:32916   */\n      tag_664\n      tag_372\n      jump\t// in\n    tag_664:\n        /* \"#utility.yul\":32815:32918   */\n    tag_663:\n        /* \"#utility.yul\":32945:32946   */\n      0x01\n        /* \"#utility.yul\":32938:32943   */\n      dup3\n        /* \"#utility.yul\":32934:32947   */\n      add\n        /* \"#utility.yul\":32927:32947   */\n      swap1\n      pop\n        /* \"#utility.yul\":32720:32953   */\n      swap2\n      swap1\n      pop\n      jump\t// out\n        /* \"#utility.yul\":32959:33190   */\n    tag_411:\n        /* \"#utility.yul\":33099:33133   */\n      0x41207472616e73666572656e6369612064652045544820646f20656d70726573\n        /* \"#utility.yul\":33095:33096   */\n      0x00\n        /* \"#utility.yul\":33087:33093   */\n      dup3\n        /* \"#utility.yul\":33083:33097   */\n      add\n        /* \"#utility.yul\":33076:33134   */\n      mstore\n        /* \"#utility.yul\":33168:33182   */\n      0x74696d6f2066616c686f752e0000000000000000000000000000000000000000\n        /* \"#utility.yul\":33163:33165   */\n      0x20\n        /* \"#utility.yul\":33155:33161   */\n      dup3\n        /* \"#utility.yul\":33151:33166   */\n      add\n        /* \"#utility.yul\":33144:33183   */\n      mstore\n        /* \"#utility.yul\":32959:33190   */\n      pop\n      jump\t// out\n        /* \"#utility.yul\":33196:33562   */\n    tag_412:\n        /* \"#utility.yul\":33338:33341   */\n      0x00\n        /* \"#utility.yul\":33359:33426   */\n      tag_667\n        /* \"#utility.yul\":33423:33425   */\n      0x2c\n        /* \"#utility.yul\":33418:33421   */\n      dup4\n        /* \"#utility.yul\":33359:33426   */\n      tag_343\n      jump\t// in\n    tag_667:\n        /* \"#utility.yul\":33352:33426   */\n      swap2\n      pop\n        /* \"#utility.yul\":33435:33528   */\n      tag_668\n        /* \"#utility.yul\":33524:33527   */\n      dup3\n        /* \"#utility.yul\":33435:33528   */\n      tag_411\n      jump\t// in\n    tag_668:\n        /* \"#utility.yul\":33553:33555   */\n      0x40\n        /* \"#utility.yul\":33548:33551   */\n      dup3\n        /* \"#utility.yul\":33544:33556   */\n      add\n        /* \"#utility.yul\":33537:33556   */\n      swap1\n      pop\n        /* \"#utility.yul\":33196:33562   */\n      swap2\n      swap1\n      pop\n      jump\t// out\n        /* \"#utility.yul\":33568:33987   */\n    tag_306:\n        /* \"#utility.yul\":33734:33738   */\n      0x00\n        /* \"#utility.yul\":33772:33774   */\n      0x20\n        /* \"#utility.yul\":33761:33770   */\n      dup3\n        /* \"#utility.yul\":33757:33775   */\n      add\n        /* \"#utility.yul\":33749:33775   */\n      swap1\n      pop\n        /* \"#utility.yul\":33821:33830   */\n      dup2\n        /* \"#utility.yul\":33815:33819   */\n      dup2\n        /* \"#utility.yul\":33811:33831   */\n      sub\n        /* \"#utility.yul\":33807:33808   */\n      0x00\n        /* \"#utility.yul\":33796:33805   */\n      dup4\n        /* \"#utility.yul\":33792:33809   */\n      add\n        /* \"#utility.yul\":33785:33832   */\n      mstore\n        /* \"#utility.yul\":33849:33980   */\n      tag_670\n        /* \"#utility.yul\":33975:33979   */\n      dup2\n        /* \"#utility.yul\":33849:33980   */\n      tag_412\n      jump\t// in\n    tag_670:\n        /* \"#utility.yul\":33841:33980   */\n      swap1\n      pop\n        /* \"#utility.yul\":33568:33987   */\n      swap2\n      swap1\n      pop\n      jump\t// out\n        /* \"#utility.yul\":33993:34435   */\n    tag_308:\n        /* \"#utility.yul\":34142:34146   */\n      0x00\n        /* \"#utility.yul\":34180:34182   */\n      0x60\n        /* \"#utility.yul\":34169:34178   */\n      dup3\n        /* \"#utility.yul\":34165:34183   */\n      add\n        /* \"#utility.yul\":34157:34183   */\n      swap1\n      pop\n        /* \"#utility.yul\":34193:34264   */\n      tag_672\n        /* \"#utility.yul\":34261:34262   */\n      0x00\n        /* \"#utility.yul\":34250:34259   */\n      dup4\n        /* \"#utility.yul\":34246:34263   */\n      add\n        /* \"#utility.yul\":34237:34243   */\n      dup7\n        /* \"#utility.yul\":34193:34264   */\n      tag_362\n      jump\t// in\n    tag_672:\n        /* \"#utility.yul\":34274:34346   */\n      tag_673\n        /* \"#utility.yul\":34342:34344   */\n      0x20\n        /* \"#utility.yul\":34331:34340   */\n      dup4\n        /* \"#utility.yul\":34327:34345   */\n      add\n        /* \"#utility.yul\":34318:34324   */\n      dup6\n        /* \"#utility.yul\":34274:34346   */\n      tag_359\n      jump\t// in\n    tag_673:\n        /* \"#utility.yul\":34356:34428   */\n      tag_674\n        /* \"#utility.yul\":34424:34426   */\n      0x40\n        /* \"#utility.yul\":34413:34422   */\n      dup4\n        /* \"#utility.yul\":34409:34427   */\n      add\n        /* \"#utility.yul\":34400:34406   */\n      dup5\n        /* \"#utility.yul\":34356:34428   */\n      tag_359\n      jump\t// in\n    tag_674:\n        /* \"#utility.yul\":33993:34435   */\n      swap5\n      swap4\n      pop\n      pop\n      pop\n      pop\n      jump\t// out\n\n    auxdata: 0xa2646970667358221220bcd40441f62d80043f52dc3e95d23d4243c32eba80f63c923e46ecc50b36cea564736f6c634300081e0033\n}\n",
				"bytecode": {
					"linkReferences": {},
					"object": "60806040526040516138bd3803806138bd83398181016040528101906100259190610433565b6040518060400160405280600381526020017f44455800000000000000000000000000000000000000000000000000000000008152506040518060400160405280600381526020017f444558000000000000000000000000000000000000000000000000000000000081525081600390816100a091906106de565b5080600490816100b091906106de565b5050503360055f6101000a81548173ffffffffffffffffffffffffffffffffffffffff021916908373ffffffffffffffffffffffffffffffffffffffff16021790555084600781905550836008819055508260098190555081600a8190555080600b8190555061014c3061012861015660201b60201c565b600a6101349190610915565b6103e8610141919061095f565b61015e60201b60201c565b5050505050610a88565b5f6012905090565b5f73ffffffffffffffffffffffffffffffffffffffff168273ffffffffffffffffffffffffffffffffffffffff16036101ce575f6040517fec442f050000000000000000000000000000000000000000000000000000000081526004016101c591906109df565b60405180910390fd5b6101df5f83836101e360201b60201c565b5050565b5f73ffffffffffffffffffffffffffffffffffffffff168373ffffffffffffffffffffffffffffffffffffffff1603610233578060025f82825461022791906109f8565b92505081905550610301565b5f5f5f8573ffffffffffffffffffffffffffffffffffffffff1673ffffffffffffffffffffffffffffffffffffffff1681526020019081526020015f20549050818110156102bc578381836040517fe450d38c0000000000000000000000000000000000000000000000000000000081526004016102b393929190610a3a565b60405180910390fd5b8181035f5f8673ffffffffffffffffffffffffffffffffffffffff1673ffffffffffffffffffffffffffffffffffffffff1681526020019081526020015f2081905550505b5f73ffffffffffffffffffffffffffffffffffffffff168273ffffffffffffffffffffffffffffffffffffffff1603610348578060025f8282540392505081905550610392565b805f5f8473ffffffffffffffffffffffffffffffffffffffff1673ffffffffffffffffffffffffffffffffffffffff1681526020019081526020015f205f82825401925050819055505b8173ffffffffffffffffffffffffffffffffffffffff168373ffffffffffffffffffffffffffffffffffffffff167fddf252ad1be2c89b69c2b068fc378daa952ba7f163c4a11628f55a4df523b3ef836040516103ef9190610a6f565b60405180910390a3505050565b5f5ffd5b5f819050919050565b61041281610400565b811461041c575f5ffd5b50565b5f8151905061042d81610409565b92915050565b5f5f5f5f5f60a0868803121561044c5761044b6103fc565b5b5f6104598882890161041f565b955050602061046a8882890161041f565b945050604061047b8882890161041f565b935050606061048c8882890161041f565b925050608061049d8882890161041f565b9150509295509295909350565b5f81519050919050565b7f4e487b71000000000000000000000000000000000000000000000000000000005f52604160045260245ffd5b7f4e487b71000000000000000000000000000000000000000000000000000000005f52602260045260245ffd5b5f600282049050600182168061052557607f821691505b602082108103610538576105376104e1565b5b50919050565b5f819050815f5260205f209050919050565b5f6020601f8301049050919050565b5f82821b905092915050565b5f6008830261059a7fffffffffffffffffffffffffffffffffffffffffffffffffffffffffffffffff8261055f565b6105a4868361055f565b95508019841693508086168417925050509392505050565b5f819050919050565b5f6105df6105da6105d584610400565b6105bc565b610400565b9050919050565b5f819050919050565b6105f8836105c5565b61060c610604826105e6565b84845461056b565b825550505050565b5f5f905090565b610623610614565b61062e8184846105ef565b505050565b5b81811015610651576106465f8261061b565b600181019050610634565b5050565b601f821115610696576106678161053e565b61067084610550565b8101602085101561067f578190505b61069361068b85610550565b830182610633565b50505b505050565b5f82821c905092915050565b5f6106b65f198460080261069b565b1980831691505092915050565b5f6106ce83836106a7565b9150826002028217905092915050565b6106e7826104aa565b67ffffffffffffffff811115610700576106ff6104b4565b5b61070a825461050e565b610715828285610655565b5f60209050601f831160018114610746575f8415610734578287015190505b61073e85826106c3565b8655506107a5565b601f1984166107548661053e565b5f5b8281101561077b57848901518255600182019150602085019450602081019050610756565b868310156107985784890151610794601f8916826106a7565b8355505b6001600288020188555050505b505050505050565b7f4e487b71000000000000000000000000000000000000000000000000000000005f52601160045260245ffd5b5f8160011c9050919050565b5f5f8291508390505b600185111561082f5780860481111561080b5761080a6107ad565b5b600185161561081a5780820291505b8081029050610828856107da565b94506107ef565b94509492505050565b5f826108475760019050610902565b81610854575f9050610902565b816001811461086a5760028114610874576108a3565b6001915050610902565b60ff841115610886576108856107ad565b5b8360020a91508482111561089d5761089c6107ad565b5b50610902565b5060208310610133831016604e8410600b84101617156108d85782820a9050838111156108d3576108d26107ad565b5b610902565b6108e584848460016107e6565b925090508184048111156108fc576108fb6107ad565b5b81810290505b9392505050565b5f60ff82169050919050565b5f61091f82610400565b915061092a83610909565b92506109577fffffffffffffffffffffffffffffffffffffffffffffffffffffffffffffffff8484610838565b905092915050565b5f61096982610400565b915061097483610400565b925082820261098281610400565b91508282048414831517610999576109986107ad565b5b5092915050565b5f73ffffffffffffffffffffffffffffffffffffffff82169050919050565b5f6109c9826109a0565b9050919050565b6109d9816109bf565b82525050565b5f6020820190506109f25f8301846109d0565b92915050565b5f610a0282610400565b9150610a0d83610400565b9250828201905080821115610a2557610a246107ad565b5b92915050565b610a3481610400565b82525050565b5f606082019050610a4d5f8301866109d0565b610a5a6020830185610a2b565b610a676040830184610a2b565b949350505050565b5f602082019050610a825f830184610a2b565b92915050565b612e2880610a955f395ff3fe608060405260043610610169575f3560e01c80637e893dfe116100d0578063c7c85baa11610089578063e1ec3c6811610063578063e1ec3c6814610522578063ed344f0214610564578063f3c3c5801461058c578063f83e48cb1461059657610170565b8063c7c85baa14610492578063cc2e031c146104bc578063dd62ed3e146104e657610170565b80637e893dfe146103925780637fb9fe3d146103bc5780638da5cb5b146103d857806395d89b4114610402578063a4be77ee1461042c578063a9059cbb1461045657610170565b806334d9289e1161012257806334d9289e14610294578063430f4801146102be5780635114cb52146102e857806370a0823114610304578063756c1741146103405780637c3a00fd1461036857610170565b806306fdde0314610174578063095ea7b31461019e57806312065fe0146101da57806318160ddd1461020457806323b872dd1461022e578063313ce5671461026a57610170565b3661017057005b5f5ffd5b34801561017f575f5ffd5b506101886105d2565b6040516101959190611c17565b60405180910390f35b3480156101a9575f5ffd5b506101c460048036038101906101bf9190611cc8565b610662565b6040516101d19190611d20565b60405180910390f35b3480156101e5575f5ffd5b506101ee610684565b6040516101fb9190611d48565b60405180910390f35b34801561020f575f5ffd5b5061021861071a565b6040516102259190611d48565b60405180910390f35b348015610239575f5ffd5b50610254600480360381019061024f9190611d61565b610723565b6040516102619190611d20565b60405180910390f35b348015610275575f5ffd5b5061027e610751565b60405161028b9190611dcc565b60405180910390f35b34801561029f575f5ffd5b506102a8610759565b6040516102b59190611d48565b60405180910390f35b3480156102c9575f5ffd5b506102d261075f565b6040516102df9190611d48565b60405180910390f35b61030260048036038101906102fd9190611de5565b61076e565b005b34801561030f575f5ffd5b5061032a60048036038101906103259190611e10565b610a42565b6040516103379190611d48565b60405180910390f35b34801561034b575f5ffd5b5061036660048036038101906103619190611de5565b610a87565b005b348015610373575f5ffd5b5061037c610c33565b6040516103899190611d48565b60405180910390f35b34801561039d575f5ffd5b506103a6610c39565b6040516103b39190611d48565b60405180910390f35b6103d660048036038101906103d19190611de5565b610c3f565b005b3480156103e3575f5ffd5b506103ec610e81565b6040516103f99190611e4a565b60405180910390f35b34801561040d575f5ffd5b50610416610ea6565b6040516104239190611c17565b60405180910390f35b348015610437575f5ffd5b50610440610f36565b60405161044d9190611d48565b60405180910390f35b348015610461575f5ffd5b5061047c60048036038101906104779190611cc8565b610f3c565b6040516104899190611d20565b60405180910390f35b34801561049d575f5ffd5b506104a6610f5e565b6040516104b39190611d48565b60405180910390f35b3480156104c7575f5ffd5b506104d0610f64565b6040516104dd9190611d48565b60405180910390f35b3480156104f1575f5ffd5b5061050c60048036038101906105079190611e63565b610f6a565b6040516105199190611d48565b60405180910390f35b34801561052d575f5ffd5b5061054860048036038101906105439190611de5565b610fec565b60405161055b9796959493929190611ea1565b60405180910390f35b34801561056f575f5ffd5b5061058a60048036038101906105859190611de5565b611055565b005b6105946111b3565b005b3480156105a1575f5ffd5b506105bc60048036038101906105b79190611f0e565b611272565b6040516105c99190611d48565b60405180910390f35b6060600380546105e190611f79565b80601f016020809104026020016040519081016040528092919081815260200182805461060d90611f79565b80156106585780601f1061062f57610100808354040283529160200191610658565b820191905f5260205f20905b81548152906001019060200180831161063b57829003601f168201915b5050505050905090565b5f5f61066c611623565b905061067981858561162a565b600191505092915050565b5f60055f9054906101000a900473ffffffffffffffffffffffffffffffffffffffff1673ffffffffffffffffffffffffffffffffffffffff163373ffffffffffffffffffffffffffffffffffffffff1614610714576040517f08c379a000000000000000000000000000000000000000000000000000000000815260040161070b90612019565b60405180910390fd5b47905090565b5f600254905090565b5f5f61072d611623565b905061073a85828561163c565b6107458585856116cf565b60019150509392505050565b5f6012905090565b60065481565b5f61076933610a42565b905090565b5f600c5f8381526020019081526020015f209050806006015f9054906101000a900460ff166107d2576040517f08c379a00000000000000000000000000000000000000000000000000000000081526004016107c9906120a7565b60405180910390fd5b805f015f9054906101000a900473ffffffffffffffffffffffffffffffffffffffff1673ffffffffffffffffffffffffffffffffffffffff163373ffffffffffffffffffffffffffffffffffffffff1614610862576040517f08c379a000000000000000000000000000000000000000000000000000000000815260040161085990612135565b60405180910390fd5b80600401544211156108a9576040517f08c379a00000000000000000000000000000000000000000000000000000000081526004016108a0906121c3565b60405180910390fd5b5f816003015460646108bb919061220e565b60095483600201546108cd919061220e565b6108d7919061227c565b90505f8190505f600184600301546108ef91906122ac565b846005015414905080156109105783600201548261090d91906122df565b91505b813414610952576040517f08c379a0000000000000000000000000000000000000000000000000000000008152600401610949906123a8565b60405180910390fd5b6001846005015f82825461096691906122df565b92505081905550600854846004015f82825461098291906122df565b925050819055508015610a3b575f846006015f6101000a81548160ff0219169083151502179055506109db30855f015f9054906101000a900473ffffffffffffffffffffffffffffffffffffffff1686600101546116cf565b7feb217655b842cfbf3105dda6e9fb8b92ff7f87ade2536d2ee25a304c79d4448a845f015f9054906101000a900473ffffffffffffffffffffffffffffffffffffffff168560020154604051610a329291906123c6565b60405180910390a15b5050505050565b5f5f5f8373ffffffffffffffffffffffffffffffffffffffff1673ffffffffffffffffffffffffffffffffffffffff1681526020019081526020015f20549050919050565b5f8111610ac9576040517f08c379a0000000000000000000000000000000000000000000000000000000008152600401610ac09061245d565b60405180910390fd5b80610ad333610a42565b1015610b14576040517f08c379a0000000000000000000000000000000000000000000000000000000008152600401610b0b906124c5565b60405180910390fd5b5f670de0b6b3a764000060075483610b2c919061220e565b610b36919061227c565b905080471015610b7b576040517f08c379a0000000000000000000000000000000000000000000000000000000008152600401610b7290612553565b60405180910390fd5b610b863330846116cf565b5f3373ffffffffffffffffffffffffffffffffffffffff1682604051610bab9061259e565b5f6040518083038185875af1925050503d805f8114610be5576040519150601f19603f3d011682016040523d82523d5f602084013e610bea565b606091505b5050905080610c2e576040517f08c379a0000000000000000000000000000000000000000000000000000000008152600401610c25906125fc565b60405180910390fd5b505050565b60095481565b60075481565b5f600c5f8381526020019081526020015f209050806006015f9054906101000a900460ff16610ca3576040517f08c379a0000000000000000000000000000000000000000000000000000000008152600401610c9a9061268a565b60405180910390fd5b805f015f9054906101000a900473ffffffffffffffffffffffffffffffffffffffff1673ffffffffffffffffffffffffffffffffffffffff163373ffffffffffffffffffffffffffffffffffffffff1614610d33576040517f08c379a0000000000000000000000000000000000000000000000000000000008152600401610d2a90612718565b60405180910390fd5b8060040154421115610d7a576040517f08c379a0000000000000000000000000000000000000000000000000000000008152600401610d71906121c3565b60405180910390fd5b5f600a548260020154610d8d91906122df565b9050803414610dd1576040517f08c379a0000000000000000000000000000000000000000000000000000000008152600401610dc8906127cc565b60405180910390fd5b5f826006015f6101000a81548160ff021916908315150217905550610e1d30835f015f9054906101000a900473ffffffffffffffffffffffffffffffffffffffff1684600101546116cf565b7feb217655b842cfbf3105dda6e9fb8b92ff7f87ade2536d2ee25a304c79d4448a825f015f9054906101000a900473ffffffffffffffffffffffffffffffffffffffff168360020154604051610e749291906123c6565b60405180910390a1505050565b60055f9054906101000a900473ffffffffffffffffffffffffffffffffffffffff1681565b606060048054610eb590611f79565b80601f0160208091040260200160405190810160405280929190818152602001828054610ee190611f79565b8015610f2c5780601f10610f0357610100808354040283529160200191610f2c565b820191905f5260205f20905b815481529060010190602001808311610f0f57829003601f168201915b5050505050905090565b600b5481565b5f5f610f46611623565b9050610f538185856116cf565b600191505092915050565b600a5481565b60085481565b5f60015f8473ffffffffffffffffffffffffffffffffffffffff1673ffffffffffffffffffffffffffffffffffffffff1681526020019081526020015f205f8373ffffffffffffffffffffffffffffffffffffffff1673ffffffffffffffffffffffffffffffffffffffff1681526020019081526020015f2054905092915050565b600c602052805f5260405f205f91509050805f015f9054906101000a900473ffffffffffffffffffffffffffffffffffffffff1690806001015490806002015490806003015490806004015490806005015490806006015f9054906101000a900460ff16905087565b60055f9054906101000a900473ffffffffffffffffffffffffffffffffffffffff1673ffffffffffffffffffffffffffffffffffffffff163373ffffffffffffffffffffffffffffffffffffffff16146110e4576040517f08c379a00000000000000000000000000000000000000000000000000000000081526004016110db90612019565b60405180910390fd5b5f600c5f8381526020019081526020015f209050806006015f9054906101000a900460ff16611148576040517f08c379a000000000000000000000000000000000000000000000000000000000815260040161113f9061285a565b60405180910390fd5b8060040154421115611174575f816006015f6101000a81548160ff0219169083151502179055506111af565b6040517f08c379a00000000000000000000000000000000000000000000000000000000081526004016111a6906128e8565b60405180910390fd5b5050565b5f34116111f5576040517f08c379a00000000000000000000000000000000000000000000000000000000081526004016111ec90612976565b60405180910390fd5b5f600754670de0b6b3a76400003461120d919061220e565b611217919061227c565b90508061122330610a42565b1015611264576040517f08c379a000000000000000000000000000000000000000000000000000000000815260040161125b90612a04565b60405180910390fd5b61126f3033836116cf565b50565b5f5f83116112b5576040517f08c379a00000000000000000000000000000000000000000000000000000000081526004016112ac90612a92565b60405180910390fd5b5f821180156112c65750600b548211155b611305576040517f08c379a00000000000000000000000000000000000000000000000000000000081526004016112fc90612b20565b60405180910390fd5b8261130f33610a42565b1015611350576040517f08c379a000000000000000000000000000000000000000000000000000000000815260040161134790612bae565b60405180910390fd5b5f670de0b6b3a764000060075485611368919061220e565b611372919061227c565b90505f600282611382919061227c565b90505f81116113c6576040517f08c379a00000000000000000000000000000000000000000000000000000000081526004016113bd90612c3c565b60405180910390fd5b80471015611409576040517f08c379a000000000000000000000000000000000000000000000000000000000815260040161140090612cca565b60405180910390fd5b6114143330876116cf565b5f60065490506040518060e001604052803373ffffffffffffffffffffffffffffffffffffffff1681526020018781526020018381526020018681526020016008544261146191906122df565b81526020015f815260200160011515815250600c5f8381526020019081526020015f205f820151815f015f6101000a81548173ffffffffffffffffffffffffffffffffffffffff021916908373ffffffffffffffffffffffffffffffffffffffff1602179055506020820151816001015560408201518160020155606082015181600301556080820151816004015560a0820151816005015560c0820151816006015f6101000a81548160ff02191690831515021790555090505060065f81548092919061152e90612ce8565b91905055505f3373ffffffffffffffffffffffffffffffffffffffff16836040516115589061259e565b5f6040518083038185875af1925050503d805f8114611592576040519150601f19603f3d011682016040523d82523d5f602084013e611597565b606091505b50509050806115db576040517f08c379a00000000000000000000000000000000000000000000000000000000081526004016115d290612d9f565b60405180910390fd5b7f0f2c608b40926709a605e36d808476c12c3da0075b7eb8773f053465678be73633848860405161160e93929190612dbd565b60405180910390a18194505050505092915050565b5f33905090565b61163783838360016117bf565b505050565b5f6116478484610f6a565b90507fffffffffffffffffffffffffffffffffffffffffffffffffffffffffffffffff8110156116c957818110156116ba578281836040517ffb8f41b20000000000000000000000000000000000000000000000000000000081526004016116b193929190612dbd565b60405180910390fd5b6116c884848484035f6117bf565b5b50505050565b5f73ffffffffffffffffffffffffffffffffffffffff168373ffffffffffffffffffffffffffffffffffffffff160361173f575f6040517f96c6fd1e0000000000000000000000000000000000000000000000000000000081526004016117369190611e4a565b60405180910390fd5b5f73ffffffffffffffffffffffffffffffffffffffff168273ffffffffffffffffffffffffffffffffffffffff16036117af575f6040517fec442f050000000000000000000000000000000000000000000000000000000081526004016117a69190611e4a565b60405180910390fd5b6117ba83838361198e565b505050565b5f73ffffffffffffffffffffffffffffffffffffffff168473ffffffffffffffffffffffffffffffffffffffff160361182f575f6040517fe602df050000000000000000000000000000000000000000000000000000000081526004016118269190611e4a565b60405180910390fd5b5f73ffffffffffffffffffffffffffffffffffffffff168373ffffffffffffffffffffffffffffffffffffffff160361189f575f6040517f94280d620000000000000000000000000000000000000000000000000000000081526004016118969190611e4a565b60405180910390fd5b8160015f8673ffffffffffffffffffffffffffffffffffffffff1673ffffffffffffffffffffffffffffffffffffffff1681526020019081526020015f205f8573ffffffffffffffffffffffffffffffffffffffff1673ffffffffffffffffffffffffffffffffffffffff1681526020019081526020015f20819055508015611988578273ffffffffffffffffffffffffffffffffffffffff168473ffffffffffffffffffffffffffffffffffffffff167f8c5be1e5ebec7d5bd14f71427d1e84f3dd0314c0f7b2291e5b200ac8c7c3b9258460405161197f9190611d48565b60405180910390a35b50505050565b5f73ffffffffffffffffffffffffffffffffffffffff168373ffffffffffffffffffffffffffffffffffffffff16036119de578060025f8282546119d291906122df565b92505081905550611aac565b5f5f5f8573ffffffffffffffffffffffffffffffffffffffff1673ffffffffffffffffffffffffffffffffffffffff1681526020019081526020015f2054905081811015611a67578381836040517fe450d38c000000000000000000000000000000000000000000000000000000008152600401611a5e93929190612dbd565b60405180910390fd5b8181035f5f8673ffffffffffffffffffffffffffffffffffffffff1673ffffffffffffffffffffffffffffffffffffffff1681526020019081526020015f2081905550505b5f73ffffffffffffffffffffffffffffffffffffffff168273ffffffffffffffffffffffffffffffffffffffff1603611af3578060025f8282540392505081905550611b3d565b805f5f8473ffffffffffffffffffffffffffffffffffffffff1673ffffffffffffffffffffffffffffffffffffffff1681526020019081526020015f205f82825401925050819055505b8173ffffffffffffffffffffffffffffffffffffffff168373ffffffffffffffffffffffffffffffffffffffff167fddf252ad1be2c89b69c2b068fc378daa952ba7f163c4a11628f55a4df523b3ef83604051611b9a9190611d48565b60405180910390a3505050565b5f81519050919050565b5f82825260208201905092915050565b8281835e5f83830152505050565b5f601f19601f8301169050919050565b5f611be982611ba7565b611bf38185611bb1565b9350611c03818560208601611bc1565b611c0c81611bcf565b840191505092915050565b5f6020820190508181035f830152611c2f8184611bdf565b905092915050565b5f5ffd5b5f73ffffffffffffffffffffffffffffffffffffffff82169050919050565b5f611c6482611c3b565b9050919050565b611c7481611c5a565b8114611c7e575f5ffd5b50565b5f81359050611c8f81611c6b565b92915050565b5f819050919050565b611ca781611c95565b8114611cb1575f5ffd5b50565b5f81359050611cc281611c9e565b92915050565b5f5f60408385031215611cde57611cdd611c37565b5b5f611ceb85828601611c81565b9250506020611cfc85828601611cb4565b9150509250929050565b5f8115159050919050565b611d1a81611d06565b82525050565b5f602082019050611d335f830184611d11565b92915050565b611d4281611c95565b82525050565b5f602082019050611d5b5f830184611d39565b92915050565b5f5f5f60608486031215611d7857611d77611c37565b5b5f611d8586828701611c81565b9350506020611d9686828701611c81565b9250506040611da786828701611cb4565b9150509250925092565b5f60ff82169050919050565b611dc681611db1565b82525050565b5f602082019050611ddf5f830184611dbd565b92915050565b5f60208284031215611dfa57611df9611c37565b5b5f611e0784828501611cb4565b91505092915050565b5f60208284031215611e2557611e24611c37565b5b5f611e3284828501611c81565b91505092915050565b611e4481611c5a565b82525050565b5f602082019050611e5d5f830184611e3b565b92915050565b5f5f60408385031215611e7957611e78611c37565b5b5f611e8685828601611c81565b9250506020611e9785828601611c81565b9150509250929050565b5f60e082019050611eb45f83018a611e3b565b611ec16020830189611d39565b611ece6040830188611d39565b611edb6060830187611d39565b611ee86080830186611d39565b611ef560a0830185611d39565b611f0260c0830184611d11565b98975050505050505050565b5f5f60408385031215611f2457611f23611c37565b5b5f611f3185828601611cb4565b9250506020611f4285828601611cb4565b9150509250929050565b7f4e487b71000000000000000000000000000000000000000000000000000000005f52602260045260245ffd5b5f6002820490506001821680611f9057607f821691505b602082108103611fa357611fa2611f4c565b5b50919050565b7f4f6e6c79206f776e65722063616e2063616c6c20746869732066756e6374696f5f8201527f6e00000000000000000000000000000000000000000000000000000000000000602082015250565b5f612003602183611bb1565b915061200e82611fa9565b604082019050919050565b5f6020820190508181035f83015261203081611ff7565b9050919050565b7f4f20656d7072657374696d6f206e616f20657869737465206f75206a6120666f5f8201527f6920656e6365727261646f2e0000000000000000000000000000000000000000602082015250565b5f612091602c83611bb1565b915061209c82612037565b604082019050919050565b5f6020820190508181035f8301526120be81612085565b9050919050565b7f4170656e6173206f20746974756c617220646f20656d7072657374696d6f20705f8201527f6f64652066617a6572206f20706167616d656e746f2e00000000000000000000602082015250565b5f61211f603683611bb1565b915061212a826120c5565b604082019050919050565b5f6020820190508181035f83015261214c81612113565b9050919050565b7f4f207072617a6f2065787069726f752e204f20636f6c61746572616c20666f695f8201527f207065726469646f2e0000000000000000000000000000000000000000000000602082015250565b5f6121ad602983611bb1565b91506121b882612153565b604082019050919050565b5f6020820190508181035f8301526121da816121a1565b9050919050565b7f4e487b71000000000000000000000000000000000000000000000000000000005f52601160045260245ffd5b5f61221882611c95565b915061222383611c95565b925082820261223181611c95565b91508282048414831517612248576122476121e1565b5b5092915050565b7f4e487b71000000000000000000000000000000000000000000000000000000005f52601260045260245ffd5b5f61228682611c95565b915061229183611c95565b9250826122a1576122a061224f565b5b828204905092915050565b5f6122b682611c95565b91506122c183611c95565b92508282039050818111156122d9576122d86121e1565b5b92915050565b5f6122e982611c95565b91506122f483611c95565b925082820190508082111561230c5761230b6121e1565b5b92915050565b7f4f2076616c6f7220656e766961646f20656d20455448206e616f20636f7272655f8201527f73706f6e646520616f2076616c6f722064612070726573746163616f2061747560208201527f616c2e0000000000000000000000000000000000000000000000000000000000604082015250565b5f612392604383611bb1565b915061239d82612312565b606082019050919050565b5f6020820190508181035f8301526123bf81612386565b9050919050565b5f6040820190506123d95f830185611e3b565b6123e66020830184611d39565b9392505050565b7f41207175616e746964616465206465204445582074656d20646520736572206d5f8201527f61696f7220717565207a65726f2e000000000000000000000000000000000000602082015250565b5f612447602e83611bb1565b9150612452826123ed565b604082019050919050565b5f6020820190508181035f8301526124748161243b565b9050919050565b7f53616c646f2064652044455820696e737566696369656e74652e0000000000005f82015250565b5f6124af601a83611bb1565b91506124ba8261247b565b602082019050919050565b5f6020820190508181035f8301526124dc816124a3565b9050919050565b7f4f20636f6e747261746f206e616f2074656d2073616c646f20646520455448205f8201527f737566696369656e746520706172612065737461207472616e736163616f2e00602082015250565b5f61253d603f83611bb1565b9150612548826124e3565b604082019050919050565b5f6020820190508181035f83015261256a81612531565b9050919050565b5f81905092915050565b50565b5f6125895f83612571565b91506125948261257b565b5f82019050919050565b5f6125a88261257e565b9150819050919050565b7f41207472616e73666572656e636961206465204554482066616c686f752e00005f82015250565b5f6125e6601e83611bb1565b91506125f1826125b2565b602082019050919050565b5f6020820190508181035f830152612613816125da565b9050919050565b7f4f20656d7072657374696d6f206a6120666f6920656e6365727261646f206f755f8201527f206e616f206578697374652e0000000000000000000000000000000000000000602082015250565b5f612674602c83611bb1565b915061267f8261261a565b604082019050919050565b5f6020820190508181035f8301526126a181612668565b9050919050565b7f4170656e6173206f20746974756c617220646f20656d7072657374696d6f206f5f8201527f20706f6465207465726d696e61722e0000000000000000000000000000000000602082015250565b5f612702602f83611bb1565b915061270d826126a8565b604082019050919050565b5f6020820190508181035f83015261272f816126f6565b9050919050565b7f56616c6f7220696e636f727265746f2e2044657665207061676172206120746f5f8201527f74616c696461646520646f20656d7072657374696d6f206d616973206120746160208201527f7861206465207465726d696e6163616f2e000000000000000000000000000000604082015250565b5f6127b6605183611bb1565b91506127c182612736565b606082019050919050565b5f6020820190508181035f8301526127e3816127aa565b9050919050565b7f4f20656d7072657374696d6f206a61206573746120696e617469766f206f75205f8201527f666f6920636f6e636c7569646f2e000000000000000000000000000000000000602082015250565b5f612844602e83611bb1565b915061284f826127ea565b604082019050919050565b5f6020820190508181035f83015261287181612838565b9050919050565b7f4f20656d7072657374696d6f206573746120656d206469612e204e656e68756d5f8201527f612070756e6963616f2061706c69636164612e00000000000000000000000000602082015250565b5f6128d2603383611bb1565b91506128dd82612878565b604082019050919050565b5f6020820190508181035f8301526128ff816128c6565b9050919050565b7f54656d20646520656e7669617220455448207061726120636f6d7072617220445f8201527f45582e0000000000000000000000000000000000000000000000000000000000602082015250565b5f612960602383611bb1565b915061296b82612906565b604082019050919050565b5f6020820190508181035f83015261298d81612954565b9050919050565b7f4f20636f6e747261746f206e616f2074656d2044455820737566696369656e745f8201527f65207061726120657374612076656e64612e0000000000000000000000000000602082015250565b5f6129ee603283611bb1565b91506129f982612994565b604082019050919050565b5f6020820190508181035f830152612a1b816129e2565b9050919050565b7f41207175616e74696461646520646520636f6c61746572616c204445582074655f8201527f6d20646520736572206d61696f7220717565207a65726f2e0000000000000000602082015250565b5f612a7c603883611bb1565b9150612a8782612a22565b604082019050919050565b5f6020820190508181035f830152612aa981612a70565b9050919050565b7f4f207072617a6f206520696e76616c69646f206f7520657863656465206f206c5f8201527f696d697465206d6178696d6f2e00000000000000000000000000000000000000602082015250565b5f612b0a602d83611bb1565b9150612b1582612ab0565b604082019050919050565b5f6020820190508181035f830152612b3781612afe565b9050919050565b7f4e616f2074656d2073616c646f2044455820737566696369656e7465207061725f8201527f61207573617220636f6d6f20636f6c61746572616c2e00000000000000000000602082015250565b5f612b98603683611bb1565b9150612ba382612b3e565b604082019050919050565b5f6020820190508181035f830152612bc581612b8c565b9050919050565b7f4f2076616c6f7220646f20636f6c61746572616c20652064656d61736961646f5f8201527f20626169786f207061726120676572617220756d20656d7072657374696d6f2e602082015250565b5f612c26604083611bb1565b9150612c3182612bcc565b604082019050919050565b5f6020820190508181035f830152612c5381612c1a565b9050919050565b7f4f20636f6e747261746f206e616f2074656d206c6971756964657a20646520455f8201527f544820737566696369656e7465206e6f206d6f6d656e746f2e00000000000000602082015250565b5f612cb4603983611bb1565b9150612cbf82612c5a565b604082019050919050565b5f6020820190508181035f830152612ce181612ca8565b9050919050565b5f612cf282611c95565b91507fffffffffffffffffffffffffffffffffffffffffffffffffffffffffffffffff8203612d2457612d236121e1565b5b600182019050919050565b7f41207472616e73666572656e6369612064652045544820646f20656d707265735f8201527f74696d6f2066616c686f752e0000000000000000000000000000000000000000602082015250565b5f612d89602c83611bb1565b9150612d9482612d2f565b604082019050919050565b5f6020820190508181035f830152612db681612d7d565b9050919050565b5f606082019050612dd05f830186611e3b565b612ddd6020830185611d39565b612dea6040830184611d39565b94935050505056fea2646970667358221220bcd40441f62d80043f52dc3e95d23d4243c32eba80f63c923e46ecc50b36cea564736f6c634300081e0033",
					"opcodes": "PUSH1 0x80 PUSH1 0x40 MSTORE PUSH1 0x40 MLOAD PUSH2 0x38BD CODESIZE SUB DUP1 PUSH2 0x38BD DUP4 CODECOPY DUP2 DUP2 ADD PUSH1 0x40 MSTORE DUP2 ADD SWAP1 PUSH2 0x25 SWAP2 SWAP1 PUSH2 0x433 JUMP JUMPDEST PUSH1 0x40 MLOAD DUP1 PUSH1 0x40 ADD PUSH1 0x40 MSTORE DUP1 PUSH1 0x3 DUP2 MSTORE PUSH1 0x20 ADD PUSH32 0x4445580000000000000000000000000000000000000000000000000000000000 DUP2 MSTORE POP PUSH1 0x40 MLOAD DUP1 PUSH1 0x40 ADD PUSH1 0x40 MSTORE DUP1 PUSH1 0x3 DUP2 MSTORE PUSH1 0x20 ADD PUSH32 0x4445580000000000000000000000000000000000000000000000000000000000 DUP2 MSTORE POP DUP2 PUSH1 0x3 SWAP1 DUP2 PUSH2 0xA0 SWAP2 SWAP1 PUSH2 0x6DE JUMP JUMPDEST POP DUP1 PUSH1 0x4 SWAP1 DUP2 PUSH2 0xB0 SWAP2 SWAP1 PUSH2 0x6DE JUMP JUMPDEST POP POP POP CALLER PUSH1 0x5 PUSH0 PUSH2 0x100 EXP DUP2 SLOAD DUP2 PUSH20 0xFFFFFFFFFFFFFFFFFFFFFFFFFFFFFFFFFFFFFFFF MUL NOT AND SWAP1 DUP4 PUSH20 0xFFFFFFFFFFFFFFFFFFFFFFFFFFFFFFFFFFFFFFFF AND MUL OR SWAP1 SSTORE POP DUP5 PUSH1 0x7 DUP2 SWAP1 SSTORE POP DUP4 PUSH1 0x8 DUP2 SWAP1 SSTORE POP DUP3 PUSH1 0x9 DUP2 SWAP1 SSTORE POP DUP2 PUSH1 0xA DUP2 SWAP1 SSTORE POP DUP1 PUSH1 0xB DUP2 SWAP1 SSTORE POP PUSH2 0x14C ADDRESS PUSH2 0x128 PUSH2 0x156 PUSH1 0x20 SHL PUSH1 0x20 SHR JUMP JUMPDEST PUSH1 0xA PUSH2 0x134 SWAP2 SWAP1 PUSH2 0x915 JUMP JUMPDEST PUSH2 0x3E8 PUSH2 0x141 SWAP2 SWAP1 PUSH2 0x95F JUMP JUMPDEST PUSH2 0x15E PUSH1 0x20 SHL PUSH1 0x20 SHR JUMP JUMPDEST POP POP POP POP POP PUSH2 0xA88 JUMP JUMPDEST PUSH0 PUSH1 0x12 SWAP1 POP SWAP1 JUMP JUMPDEST PUSH0 PUSH20 0xFFFFFFFFFFFFFFFFFFFFFFFFFFFFFFFFFFFFFFFF AND DUP3 PUSH20 0xFFFFFFFFFFFFFFFFFFFFFFFFFFFFFFFFFFFFFFFF AND SUB PUSH2 0x1CE JUMPI PUSH0 PUSH1 0x40 MLOAD PUSH32 0xEC442F0500000000000000000000000000000000000000000000000000000000 DUP2 MSTORE PUSH1 0x4 ADD PUSH2 0x1C5 SWAP2 SWAP1 PUSH2 0x9DF JUMP JUMPDEST PUSH1 0x40 MLOAD DUP1 SWAP2 SUB SWAP1 REVERT JUMPDEST PUSH2 0x1DF PUSH0 DUP4 DUP4 PUSH2 0x1E3 PUSH1 0x20 SHL PUSH1 0x20 SHR JUMP JUMPDEST POP POP JUMP JUMPDEST PUSH0 PUSH20 0xFFFFFFFFFFFFFFFFFFFFFFFFFFFFFFFFFFFFFFFF AND DUP4 PUSH20 0xFFFFFFFFFFFFFFFFFFFFFFFFFFFFFFFFFFFFFFFF AND SUB PUSH2 0x233 JUMPI DUP1 PUSH1 0x2 PUSH0 DUP3 DUP3 SLOAD PUSH2 0x227 SWAP2 SWAP1 PUSH2 0x9F8 JUMP JUMPDEST SWAP3 POP POP DUP2 SWAP1 SSTORE POP PUSH2 0x301 JUMP JUMPDEST PUSH0 PUSH0 PUSH0 DUP6 PUSH20 0xFFFFFFFFFFFFFFFFFFFFFFFFFFFFFFFFFFFFFFFF AND PUSH20 0xFFFFFFFFFFFFFFFFFFFFFFFFFFFFFFFFFFFFFFFF AND DUP2 MSTORE PUSH1 0x20 ADD SWAP1 DUP2 MSTORE PUSH1 0x20 ADD PUSH0 KECCAK256 SLOAD SWAP1 POP DUP2 DUP2 LT ISZERO PUSH2 0x2BC JUMPI DUP4 DUP2 DUP4 PUSH1 0x40 MLOAD PUSH32 0xE450D38C00000000000000000000000000000000000000000000000000000000 DUP2 MSTORE PUSH1 0x4 ADD PUSH2 0x2B3 SWAP4 SWAP3 SWAP2 SWAP1 PUSH2 0xA3A JUMP JUMPDEST PUSH1 0x40 MLOAD DUP1 SWAP2 SUB SWAP1 REVERT JUMPDEST DUP2 DUP2 SUB PUSH0 PUSH0 DUP7 PUSH20 0xFFFFFFFFFFFFFFFFFFFFFFFFFFFFFFFFFFFFFFFF AND PUSH20 0xFFFFFFFFFFFFFFFFFFFFFFFFFFFFFFFFFFFFFFFF AND DUP2 MSTORE PUSH1 0x20 ADD SWAP1 DUP2 MSTORE PUSH1 0x20 ADD PUSH0 KECCAK256 DUP2 SWAP1 SSTORE POP POP JUMPDEST PUSH0 PUSH20 0xFFFFFFFFFFFFFFFFFFFFFFFFFFFFFFFFFFFFFFFF AND DUP3 PUSH20 0xFFFFFFFFFFFFFFFFFFFFFFFFFFFFFFFFFFFFFFFF AND SUB PUSH2 0x348 JUMPI DUP1 PUSH1 0x2 PUSH0 DUP3 DUP3 SLOAD SUB SWAP3 POP POP DUP2 SWAP1 SSTORE POP PUSH2 0x392 JUMP JUMPDEST DUP1 PUSH0 PUSH0 DUP5 PUSH20 0xFFFFFFFFFFFFFFFFFFFFFFFFFFFFFFFFFFFFFFFF AND PUSH20 0xFFFFFFFFFFFFFFFFFFFFFFFFFFFFFFFFFFFFFFFF AND DUP2 MSTORE PUSH1 0x20 ADD SWAP1 DUP2 MSTORE PUSH1 0x20 ADD PUSH0 KECCAK256 PUSH0 DUP3 DUP3 SLOAD ADD SWAP3 POP POP DUP2 SWAP1 SSTORE POP JUMPDEST DUP2 PUSH20 0xFFFFFFFFFFFFFFFFFFFFFFFFFFFFFFFFFFFFFFFF AND DUP4 PUSH20 0xFFFFFFFFFFFFFFFFFFFFFFFFFFFFFFFFFFFFFFFF AND PUSH32 0xDDF252AD1BE2C89B69C2B068FC378DAA952BA7F163C4A11628F55A4DF523B3EF DUP4 PUSH1 0x40 MLOAD PUSH2 0x3EF SWAP2 SWAP1 PUSH2 0xA6F JUMP JUMPDEST PUSH1 0x40 MLOAD DUP1 SWAP2 SUB SWAP1 LOG3 POP POP POP JUMP JUMPDEST PUSH0 PUSH0 REVERT JUMPDEST PUSH0 DUP2 SWAP1 POP SWAP2 SWAP1 POP JUMP JUMPDEST PUSH2 0x412 DUP2 PUSH2 0x400 JUMP JUMPDEST DUP2 EQ PUSH2 0x41C JUMPI PUSH0 PUSH0 REVERT JUMPDEST POP JUMP JUMPDEST PUSH0 DUP2 MLOAD SWAP1 POP PUSH2 0x42D DUP2 PUSH2 0x409 JUMP JUMPDEST SWAP3 SWAP2 POP POP JUMP JUMPDEST PUSH0 PUSH0 PUSH0 PUSH0 PUSH0 PUSH1 0xA0 DUP7 DUP9 SUB SLT ISZERO PUSH2 0x44C JUMPI PUSH2 0x44B PUSH2 0x3FC JUMP JUMPDEST JUMPDEST PUSH0 PUSH2 0x459 DUP9 DUP3 DUP10 ADD PUSH2 0x41F JUMP JUMPDEST SWAP6 POP POP PUSH1 0x20 PUSH2 0x46A DUP9 DUP3 DUP10 ADD PUSH2 0x41F JUMP JUMPDEST SWAP5 POP POP PUSH1 0x40 PUSH2 0x47B DUP9 DUP3 DUP10 ADD PUSH2 0x41F JUMP JUMPDEST SWAP4 POP POP PUSH1 0x60 PUSH2 0x48C DUP9 DUP3 DUP10 ADD PUSH2 0x41F JUMP JUMPDEST SWAP3 POP POP PUSH1 0x80 PUSH2 0x49D DUP9 DUP3 DUP10 ADD PUSH2 0x41F JUMP JUMPDEST SWAP2 POP POP SWAP3 SWAP6 POP SWAP3 SWAP6 SWAP1 SWAP4 POP JUMP JUMPDEST PUSH0 DUP2 MLOAD SWAP1 POP SWAP2 SWAP1 POP JUMP JUMPDEST PUSH32 0x4E487B7100000000000000000000000000000000000000000000000000000000 PUSH0 MSTORE PUSH1 0x41 PUSH1 0x4 MSTORE PUSH1 0x24 PUSH0 REVERT JUMPDEST PUSH32 0x4E487B7100000000000000000000000000000000000000000000000000000000 PUSH0 MSTORE PUSH1 0x22 PUSH1 0x4 MSTORE PUSH1 0x24 PUSH0 REVERT JUMPDEST PUSH0 PUSH1 0x2 DUP3 DIV SWAP1 POP PUSH1 0x1 DUP3 AND DUP1 PUSH2 0x525 JUMPI PUSH1 0x7F DUP3 AND SWAP2 POP JUMPDEST PUSH1 0x20 DUP3 LT DUP2 SUB PUSH2 0x538 JUMPI PUSH2 0x537 PUSH2 0x4E1 JUMP JUMPDEST JUMPDEST POP SWAP2 SWAP1 POP JUMP JUMPDEST PUSH0 DUP2 SWAP1 POP DUP2 PUSH0 MSTORE PUSH1 0x20 PUSH0 KECCAK256 SWAP1 POP SWAP2 SWAP1 POP JUMP JUMPDEST PUSH0 PUSH1 0x20 PUSH1 0x1F DUP4 ADD DIV SWAP1 POP SWAP2 SWAP1 POP JUMP JUMPDEST PUSH0 DUP3 DUP3 SHL SWAP1 POP SWAP3 SWAP2 POP POP JUMP JUMPDEST PUSH0 PUSH1 0x8 DUP4 MUL PUSH2 0x59A PUSH32 0xFFFFFFFFFFFFFFFFFFFFFFFFFFFFFFFFFFFFFFFFFFFFFFFFFFFFFFFFFFFFFFFF DUP3 PUSH2 0x55F JUMP JUMPDEST PUSH2 0x5A4 DUP7 DUP4 PUSH2 0x55F JUMP JUMPDEST SWAP6 POP DUP1 NOT DUP5 AND SWAP4 POP DUP1 DUP7 AND DUP5 OR SWAP3 POP POP POP SWAP4 SWAP3 POP POP POP JUMP JUMPDEST PUSH0 DUP2 SWAP1 POP SWAP2 SWAP1 POP JUMP JUMPDEST PUSH0 PUSH2 0x5DF PUSH2 0x5DA PUSH2 0x5D5 DUP5 PUSH2 0x400 JUMP JUMPDEST PUSH2 0x5BC JUMP JUMPDEST PUSH2 0x400 JUMP JUMPDEST SWAP1 POP SWAP2 SWAP1 POP JUMP JUMPDEST PUSH0 DUP2 SWAP1 POP SWAP2 SWAP1 POP JUMP JUMPDEST PUSH2 0x5F8 DUP4 PUSH2 0x5C5 JUMP JUMPDEST PUSH2 0x60C PUSH2 0x604 DUP3 PUSH2 0x5E6 JUMP JUMPDEST DUP5 DUP5 SLOAD PUSH2 0x56B JUMP JUMPDEST DUP3 SSTORE POP POP POP POP JUMP JUMPDEST PUSH0 PUSH0 SWAP1 POP SWAP1 JUMP JUMPDEST PUSH2 0x623 PUSH2 0x614 JUMP JUMPDEST PUSH2 0x62E DUP2 DUP5 DUP5 PUSH2 0x5EF JUMP JUMPDEST POP POP POP JUMP JUMPDEST JUMPDEST DUP2 DUP2 LT ISZERO PUSH2 0x651 JUMPI PUSH2 0x646 PUSH0 DUP3 PUSH2 0x61B JUMP JUMPDEST PUSH1 0x1 DUP2 ADD SWAP1 POP PUSH2 0x634 JUMP JUMPDEST POP POP JUMP JUMPDEST PUSH1 0x1F DUP3 GT ISZERO PUSH2 0x696 JUMPI PUSH2 0x667 DUP2 PUSH2 0x53E JUMP JUMPDEST PUSH2 0x670 DUP5 PUSH2 0x550 JUMP JUMPDEST DUP2 ADD PUSH1 0x20 DUP6 LT ISZERO PUSH2 0x67F JUMPI DUP2 SWAP1 POP JUMPDEST PUSH2 0x693 PUSH2 0x68B DUP6 PUSH2 0x550 JUMP JUMPDEST DUP4 ADD DUP3 PUSH2 0x633 JUMP JUMPDEST POP POP JUMPDEST POP POP POP JUMP JUMPDEST PUSH0 DUP3 DUP3 SHR SWAP1 POP SWAP3 SWAP2 POP POP JUMP JUMPDEST PUSH0 PUSH2 0x6B6 PUSH0 NOT DUP5 PUSH1 0x8 MUL PUSH2 0x69B JUMP JUMPDEST NOT DUP1 DUP4 AND SWAP2 POP POP SWAP3 SWAP2 POP POP JUMP JUMPDEST PUSH0 PUSH2 0x6CE DUP4 DUP4 PUSH2 0x6A7 JUMP JUMPDEST SWAP2 POP DUP3 PUSH1 0x2 MUL DUP3 OR SWAP1 POP SWAP3 SWAP2 POP POP JUMP JUMPDEST PUSH2 0x6E7 DUP3 PUSH2 0x4AA JUMP JUMPDEST PUSH8 0xFFFFFFFFFFFFFFFF DUP2 GT ISZERO PUSH2 0x700 JUMPI PUSH2 0x6FF PUSH2 0x4B4 JUMP JUMPDEST JUMPDEST PUSH2 0x70A DUP3 SLOAD PUSH2 0x50E JUMP JUMPDEST PUSH2 0x715 DUP3 DUP3 DUP6 PUSH2 0x655 JUMP JUMPDEST PUSH0 PUSH1 0x20 SWAP1 POP PUSH1 0x1F DUP4 GT PUSH1 0x1 DUP2 EQ PUSH2 0x746 JUMPI PUSH0 DUP5 ISZERO PUSH2 0x734 JUMPI DUP3 DUP8 ADD MLOAD SWAP1 POP JUMPDEST PUSH2 0x73E DUP6 DUP3 PUSH2 0x6C3 JUMP JUMPDEST DUP7 SSTORE POP PUSH2 0x7A5 JUMP JUMPDEST PUSH1 0x1F NOT DUP5 AND PUSH2 0x754 DUP7 PUSH2 0x53E JUMP JUMPDEST PUSH0 JUMPDEST DUP3 DUP2 LT ISZERO PUSH2 0x77B JUMPI DUP5 DUP10 ADD MLOAD DUP3 SSTORE PUSH1 0x1 DUP3 ADD SWAP2 POP PUSH1 0x20 DUP6 ADD SWAP5 POP PUSH1 0x20 DUP2 ADD SWAP1 POP PUSH2 0x756 JUMP JUMPDEST DUP7 DUP4 LT ISZERO PUSH2 0x798 JUMPI DUP5 DUP10 ADD MLOAD PUSH2 0x794 PUSH1 0x1F DUP10 AND DUP3 PUSH2 0x6A7 JUMP JUMPDEST DUP4 SSTORE POP JUMPDEST PUSH1 0x1 PUSH1 0x2 DUP9 MUL ADD DUP9 SSTORE POP POP POP JUMPDEST POP POP POP POP POP POP JUMP JUMPDEST PUSH32 0x4E487B7100000000000000000000000000000000000000000000000000000000 PUSH0 MSTORE PUSH1 0x11 PUSH1 0x4 MSTORE PUSH1 0x24 PUSH0 REVERT JUMPDEST PUSH0 DUP2 PUSH1 0x1 SHR SWAP1 POP SWAP2 SWAP1 POP JUMP JUMPDEST PUSH0 PUSH0 DUP3 SWAP2 POP DUP4 SWAP1 POP JUMPDEST PUSH1 0x1 DUP6 GT ISZERO PUSH2 0x82F JUMPI DUP1 DUP7 DIV DUP2 GT ISZERO PUSH2 0x80B JUMPI PUSH2 0x80A PUSH2 0x7AD JUMP JUMPDEST JUMPDEST PUSH1 0x1 DUP6 AND ISZERO PUSH2 0x81A JUMPI DUP1 DUP3 MUL SWAP2 POP JUMPDEST DUP1 DUP2 MUL SWAP1 POP PUSH2 0x828 DUP6 PUSH2 0x7DA JUMP JUMPDEST SWAP5 POP PUSH2 0x7EF JUMP JUMPDEST SWAP5 POP SWAP5 SWAP3 POP POP POP JUMP JUMPDEST PUSH0 DUP3 PUSH2 0x847 JUMPI PUSH1 0x1 SWAP1 POP PUSH2 0x902 JUMP JUMPDEST DUP2 PUSH2 0x854 JUMPI PUSH0 SWAP1 POP PUSH2 0x902 JUMP JUMPDEST DUP2 PUSH1 0x1 DUP2 EQ PUSH2 0x86A JUMPI PUSH1 0x2 DUP2 EQ PUSH2 0x874 JUMPI PUSH2 0x8A3 JUMP JUMPDEST PUSH1 0x1 SWAP2 POP POP PUSH2 0x902 JUMP JUMPDEST PUSH1 0xFF DUP5 GT ISZERO PUSH2 0x886 JUMPI PUSH2 0x885 PUSH2 0x7AD JUMP JUMPDEST JUMPDEST DUP4 PUSH1 0x2 EXP SWAP2 POP DUP5 DUP3 GT ISZERO PUSH2 0x89D JUMPI PUSH2 0x89C PUSH2 0x7AD JUMP JUMPDEST JUMPDEST POP PUSH2 0x902 JUMP JUMPDEST POP PUSH1 0x20 DUP4 LT PUSH2 0x133 DUP4 LT AND PUSH1 0x4E DUP5 LT PUSH1 0xB DUP5 LT AND OR ISZERO PUSH2 0x8D8 JUMPI DUP3 DUP3 EXP SWAP1 POP DUP4 DUP2 GT ISZERO PUSH2 0x8D3 JUMPI PUSH2 0x8D2 PUSH2 0x7AD JUMP JUMPDEST JUMPDEST PUSH2 0x902 JUMP JUMPDEST PUSH2 0x8E5 DUP5 DUP5 DUP5 PUSH1 0x1 PUSH2 0x7E6 JUMP JUMPDEST SWAP3 POP SWAP1 POP DUP2 DUP5 DIV DUP2 GT ISZERO PUSH2 0x8FC JUMPI PUSH2 0x8FB PUSH2 0x7AD JUMP JUMPDEST JUMPDEST DUP2 DUP2 MUL SWAP1 POP JUMPDEST SWAP4 SWAP3 POP POP POP JUMP JUMPDEST PUSH0 PUSH1 0xFF DUP3 AND SWAP1 POP SWAP2 SWAP1 POP JUMP JUMPDEST PUSH0 PUSH2 0x91F DUP3 PUSH2 0x400 JUMP JUMPDEST SWAP2 POP PUSH2 0x92A DUP4 PUSH2 0x909 JUMP JUMPDEST SWAP3 POP PUSH2 0x957 PUSH32 0xFFFFFFFFFFFFFFFFFFFFFFFFFFFFFFFFFFFFFFFFFFFFFFFFFFFFFFFFFFFFFFFF DUP5 DUP5 PUSH2 0x838 JUMP JUMPDEST SWAP1 POP SWAP3 SWAP2 POP POP JUMP JUMPDEST PUSH0 PUSH2 0x969 DUP3 PUSH2 0x400 JUMP JUMPDEST SWAP2 POP PUSH2 0x974 DUP4 PUSH2 0x400 JUMP JUMPDEST SWAP3 POP DUP3 DUP3 MUL PUSH2 0x982 DUP2 PUSH2 0x400 JUMP JUMPDEST SWAP2 POP DUP3 DUP3 DIV DUP5 EQ DUP4 ISZERO OR PUSH2 0x999 JUMPI PUSH2 0x998 PUSH2 0x7AD JUMP JUMPDEST JUMPDEST POP SWAP3 SWAP2 POP POP JUMP JUMPDEST PUSH0 PUSH20 0xFFFFFFFFFFFFFFFFFFFFFFFFFFFFFFFFFFFFFFFF DUP3 AND SWAP1 POP SWAP2 SWAP1 POP JUMP JUMPDEST PUSH0 PUSH2 0x9C9 DUP3 PUSH2 0x9A0 JUMP JUMPDEST SWAP1 POP SWAP2 SWAP1 POP JUMP JUMPDEST PUSH2 0x9D9 DUP2 PUSH2 0x9BF JUMP JUMPDEST DUP3 MSTORE POP POP JUMP JUMPDEST PUSH0 PUSH1 0x20 DUP3 ADD SWAP1 POP PUSH2 0x9F2 PUSH0 DUP4 ADD DUP5 PUSH2 0x9D0 JUMP JUMPDEST SWAP3 SWAP2 POP POP JUMP JUMPDEST PUSH0 PUSH2 0xA02 DUP3 PUSH2 0x400 JUMP JUMPDEST SWAP2 POP PUSH2 0xA0D DUP4 PUSH2 0x400 JUMP JUMPDEST SWAP3 POP DUP3 DUP3 ADD SWAP1 POP DUP1 DUP3 GT ISZERO PUSH2 0xA25 JUMPI PUSH2 0xA24 PUSH2 0x7AD JUMP JUMPDEST JUMPDEST SWAP3 SWAP2 POP POP JUMP JUMPDEST PUSH2 0xA34 DUP2 PUSH2 0x400 JUMP JUMPDEST DUP3 MSTORE POP POP JUMP JUMPDEST PUSH0 PUSH1 0x60 DUP3 ADD SWAP1 POP PUSH2 0xA4D PUSH0 DUP4 ADD DUP7 PUSH2 0x9D0 JUMP JUMPDEST PUSH2 0xA5A PUSH1 0x20 DUP4 ADD DUP6 PUSH2 0xA2B JUMP JUMPDEST PUSH2 0xA67 PUSH1 0x40 DUP4 ADD DUP5 PUSH2 0xA2B JUMP JUMPDEST SWAP5 SWAP4 POP POP POP POP JUMP JUMPDEST PUSH0 PUSH1 0x20 DUP3 ADD SWAP1 POP PUSH2 0xA82 PUSH0 DUP4 ADD DUP5 PUSH2 0xA2B JUMP JUMPDEST SWAP3 SWAP2 POP POP JUMP JUMPDEST PUSH2 0x2E28 DUP1 PUSH2 0xA95 PUSH0 CODECOPY PUSH0 RETURN INVALID PUSH1 0x80 PUSH1 0x40 MSTORE PUSH1 0x4 CALLDATASIZE LT PUSH2 0x169 JUMPI PUSH0 CALLDATALOAD PUSH1 0xE0 SHR DUP1 PUSH4 0x7E893DFE GT PUSH2 0xD0 JUMPI DUP1 PUSH4 0xC7C85BAA GT PUSH2 0x89 JUMPI DUP1 PUSH4 0xE1EC3C68 GT PUSH2 0x63 JUMPI DUP1 PUSH4 0xE1EC3C68 EQ PUSH2 0x522 JUMPI DUP1 PUSH4 0xED344F02 EQ PUSH2 0x564 JUMPI DUP1 PUSH4 0xF3C3C580 EQ PUSH2 0x58C JUMPI DUP1 PUSH4 0xF83E48CB EQ PUSH2 0x596 JUMPI PUSH2 0x170 JUMP JUMPDEST DUP1 PUSH4 0xC7C85BAA EQ PUSH2 0x492 JUMPI DUP1 PUSH4 0xCC2E031C EQ PUSH2 0x4BC JUMPI DUP1 PUSH4 0xDD62ED3E EQ PUSH2 0x4E6 JUMPI PUSH2 0x170 JUMP JUMPDEST DUP1 PUSH4 0x7E893DFE EQ PUSH2 0x392 JUMPI DUP1 PUSH4 0x7FB9FE3D EQ PUSH2 0x3BC JUMPI DUP1 PUSH4 0x8DA5CB5B EQ PUSH2 0x3D8 JUMPI DUP1 PUSH4 0x95D89B41 EQ PUSH2 0x402 JUMPI DUP1 PUSH4 0xA4BE77EE EQ PUSH2 0x42C JUMPI DUP1 PUSH4 0xA9059CBB EQ PUSH2 0x456 JUMPI PUSH2 0x170 JUMP JUMPDEST DUP1 PUSH4 0x34D9289E GT PUSH2 0x122 JUMPI DUP1 PUSH4 0x34D9289E EQ PUSH2 0x294 JUMPI DUP1 PUSH4 0x430F4801 EQ PUSH2 0x2BE JUMPI DUP1 PUSH4 0x5114CB52 EQ PUSH2 0x2E8 JUMPI DUP1 PUSH4 0x70A08231 EQ PUSH2 0x304 JUMPI DUP1 PUSH4 0x756C1741 EQ PUSH2 0x340 JUMPI DUP1 PUSH4 0x7C3A00FD EQ PUSH2 0x368 JUMPI PUSH2 0x170 JUMP JUMPDEST DUP1 PUSH4 0x6FDDE03 EQ PUSH2 0x174 JUMPI DUP1 PUSH4 0x95EA7B3 EQ PUSH2 0x19E JUMPI DUP1 PUSH4 0x12065FE0 EQ PUSH2 0x1DA JUMPI DUP1 PUSH4 0x18160DDD EQ PUSH2 0x204 JUMPI DUP1 PUSH4 0x23B872DD EQ PUSH2 0x22E JUMPI DUP1 PUSH4 0x313CE567 EQ PUSH2 0x26A JUMPI PUSH2 0x170 JUMP JUMPDEST CALLDATASIZE PUSH2 0x170 JUMPI STOP JUMPDEST PUSH0 PUSH0 REVERT JUMPDEST CALLVALUE DUP1 ISZERO PUSH2 0x17F JUMPI PUSH0 PUSH0 REVERT JUMPDEST POP PUSH2 0x188 PUSH2 0x5D2 JUMP JUMPDEST PUSH1 0x40 MLOAD PUSH2 0x195 SWAP2 SWAP1 PUSH2 0x1C17 JUMP JUMPDEST PUSH1 0x40 MLOAD DUP1 SWAP2 SUB SWAP1 RETURN JUMPDEST CALLVALUE DUP1 ISZERO PUSH2 0x1A9 JUMPI PUSH0 PUSH0 REVERT JUMPDEST POP PUSH2 0x1C4 PUSH1 0x4 DUP1 CALLDATASIZE SUB DUP2 ADD SWAP1 PUSH2 0x1BF SWAP2 SWAP1 PUSH2 0x1CC8 JUMP JUMPDEST PUSH2 0x662 JUMP JUMPDEST PUSH1 0x40 MLOAD PUSH2 0x1D1 SWAP2 SWAP1 PUSH2 0x1D20 JUMP JUMPDEST PUSH1 0x40 MLOAD DUP1 SWAP2 SUB SWAP1 RETURN JUMPDEST CALLVALUE DUP1 ISZERO PUSH2 0x1E5 JUMPI PUSH0 PUSH0 REVERT JUMPDEST POP PUSH2 0x1EE PUSH2 0x684 JUMP JUMPDEST PUSH1 0x40 MLOAD PUSH2 0x1FB SWAP2 SWAP1 PUSH2 0x1D48 JUMP JUMPDEST PUSH1 0x40 MLOAD DUP1 SWAP2 SUB SWAP1 RETURN JUMPDEST CALLVALUE DUP1 ISZERO PUSH2 0x20F JUMPI PUSH0 PUSH0 REVERT JUMPDEST POP PUSH2 0x218 PUSH2 0x71A JUMP JUMPDEST PUSH1 0x40 MLOAD PUSH2 0x225 SWAP2 SWAP1 PUSH2 0x1D48 JUMP JUMPDEST PUSH1 0x40 MLOAD DUP1 SWAP2 SUB SWAP1 RETURN JUMPDEST CALLVALUE DUP1 ISZERO PUSH2 0x239 JUMPI PUSH0 PUSH0 REVERT JUMPDEST POP PUSH2 0x254 PUSH1 0x4 DUP1 CALLDATASIZE SUB DUP2 ADD SWAP1 PUSH2 0x24F SWAP2 SWAP1 PUSH2 0x1D61 JUMP JUMPDEST PUSH2 0x723 JUMP JUMPDEST PUSH1 0x40 MLOAD PUSH2 0x261 SWAP2 SWAP1 PUSH2 0x1D20 JUMP JUMPDEST PUSH1 0x40 MLOAD DUP1 SWAP2 SUB SWAP1 RETURN JUMPDEST CALLVALUE DUP1 ISZERO PUSH2 0x275 JUMPI PUSH0 PUSH0 REVERT JUMPDEST POP PUSH2 0x27E PUSH2 0x751 JUMP JUMPDEST PUSH1 0x40 MLOAD PUSH2 0x28B SWAP2 SWAP1 PUSH2 0x1DCC JUMP JUMPDEST PUSH1 0x40 MLOAD DUP1 SWAP2 SUB SWAP1 RETURN JUMPDEST CALLVALUE DUP1 ISZERO PUSH2 0x29F JUMPI PUSH0 PUSH0 REVERT JUMPDEST POP PUSH2 0x2A8 PUSH2 0x759 JUMP JUMPDEST PUSH1 0x40 MLOAD PUSH2 0x2B5 SWAP2 SWAP1 PUSH2 0x1D48 JUMP JUMPDEST PUSH1 0x40 MLOAD DUP1 SWAP2 SUB SWAP1 RETURN JUMPDEST CALLVALUE DUP1 ISZERO PUSH2 0x2C9 JUMPI PUSH0 PUSH0 REVERT JUMPDEST POP PUSH2 0x2D2 PUSH2 0x75F JUMP JUMPDEST PUSH1 0x40 MLOAD PUSH2 0x2DF SWAP2 SWAP1 PUSH2 0x1D48 JUMP JUMPDEST PUSH1 0x40 MLOAD DUP1 SWAP2 SUB SWAP1 RETURN JUMPDEST PUSH2 0x302 PUSH1 0x4 DUP1 CALLDATASIZE SUB DUP2 ADD SWAP1 PUSH2 0x2FD SWAP2 SWAP1 PUSH2 0x1DE5 JUMP JUMPDEST PUSH2 0x76E JUMP JUMPDEST STOP JUMPDEST CALLVALUE DUP1 ISZERO PUSH2 0x30F JUMPI PUSH0 PUSH0 REVERT JUMPDEST POP PUSH2 0x32A PUSH1 0x4 DUP1 CALLDATASIZE SUB DUP2 ADD SWAP1 PUSH2 0x325 SWAP2 SWAP1 PUSH2 0x1E10 JUMP JUMPDEST PUSH2 0xA42 JUMP JUMPDEST PUSH1 0x40 MLOAD PUSH2 0x337 SWAP2 SWAP1 PUSH2 0x1D48 JUMP JUMPDEST PUSH1 0x40 MLOAD DUP1 SWAP2 SUB SWAP1 RETURN JUMPDEST CALLVALUE DUP1 ISZERO PUSH2 0x34B JUMPI PUSH0 PUSH0 REVERT JUMPDEST POP PUSH2 0x366 PUSH1 0x4 DUP1 CALLDATASIZE SUB DUP2 ADD SWAP1 PUSH2 0x361 SWAP2 SWAP1 PUSH2 0x1DE5 JUMP JUMPDEST PUSH2 0xA87 JUMP JUMPDEST STOP JUMPDEST CALLVALUE DUP1 ISZERO PUSH2 0x373 JUMPI PUSH0 PUSH0 REVERT JUMPDEST POP PUSH2 0x37C PUSH2 0xC33 JUMP JUMPDEST PUSH1 0x40 MLOAD PUSH2 0x389 SWAP2 SWAP1 PUSH2 0x1D48 JUMP JUMPDEST PUSH1 0x40 MLOAD DUP1 SWAP2 SUB SWAP1 RETURN JUMPDEST CALLVALUE DUP1 ISZERO PUSH2 0x39D JUMPI PUSH0 PUSH0 REVERT JUMPDEST POP PUSH2 0x3A6 PUSH2 0xC39 JUMP JUMPDEST PUSH1 0x40 MLOAD PUSH2 0x3B3 SWAP2 SWAP1 PUSH2 0x1D48 JUMP JUMPDEST PUSH1 0x40 MLOAD DUP1 SWAP2 SUB SWAP1 RETURN JUMPDEST PUSH2 0x3D6 PUSH1 0x4 DUP1 CALLDATASIZE SUB DUP2 ADD SWAP1 PUSH2 0x3D1 SWAP2 SWAP1 PUSH2 0x1DE5 JUMP JUMPDEST PUSH2 0xC3F JUMP JUMPDEST STOP JUMPDEST CALLVALUE DUP1 ISZERO PUSH2 0x3E3 JUMPI PUSH0 PUSH0 REVERT JUMPDEST POP PUSH2 0x3EC PUSH2 0xE81 JUMP JUMPDEST PUSH1 0x40 MLOAD PUSH2 0x3F9 SWAP2 SWAP1 PUSH2 0x1E4A JUMP JUMPDEST PUSH1 0x40 MLOAD DUP1 SWAP2 SUB SWAP1 RETURN JUMPDEST CALLVALUE DUP1 ISZERO PUSH2 0x40D JUMPI PUSH0 PUSH0 REVERT JUMPDEST POP PUSH2 0x416 PUSH2 0xEA6 JUMP JUMPDEST PUSH1 0x40 MLOAD PUSH2 0x423 SWAP2 SWAP1 PUSH2 0x1C17 JUMP JUMPDEST PUSH1 0x40 MLOAD DUP1 SWAP2 SUB SWAP1 RETURN JUMPDEST CALLVALUE DUP1 ISZERO PUSH2 0x437 JUMPI PUSH0 PUSH0 REVERT JUMPDEST POP PUSH2 0x440 PUSH2 0xF36 JUMP JUMPDEST PUSH1 0x40 MLOAD PUSH2 0x44D SWAP2 SWAP1 PUSH2 0x1D48 JUMP JUMPDEST PUSH1 0x40 MLOAD DUP1 SWAP2 SUB SWAP1 RETURN JUMPDEST CALLVALUE DUP1 ISZERO PUSH2 0x461 JUMPI PUSH0 PUSH0 REVERT JUMPDEST POP PUSH2 0x47C PUSH1 0x4 DUP1 CALLDATASIZE SUB DUP2 ADD SWAP1 PUSH2 0x477 SWAP2 SWAP1 PUSH2 0x1CC8 JUMP JUMPDEST PUSH2 0xF3C JUMP JUMPDEST PUSH1 0x40 MLOAD PUSH2 0x489 SWAP2 SWAP1 PUSH2 0x1D20 JUMP JUMPDEST PUSH1 0x40 MLOAD DUP1 SWAP2 SUB SWAP1 RETURN JUMPDEST CALLVALUE DUP1 ISZERO PUSH2 0x49D JUMPI PUSH0 PUSH0 REVERT JUMPDEST POP PUSH2 0x4A6 PUSH2 0xF5E JUMP JUMPDEST PUSH1 0x40 MLOAD PUSH2 0x4B3 SWAP2 SWAP1 PUSH2 0x1D48 JUMP JUMPDEST PUSH1 0x40 MLOAD DUP1 SWAP2 SUB SWAP1 RETURN JUMPDEST CALLVALUE DUP1 ISZERO PUSH2 0x4C7 JUMPI PUSH0 PUSH0 REVERT JUMPDEST POP PUSH2 0x4D0 PUSH2 0xF64 JUMP JUMPDEST PUSH1 0x40 MLOAD PUSH2 0x4DD SWAP2 SWAP1 PUSH2 0x1D48 JUMP JUMPDEST PUSH1 0x40 MLOAD DUP1 SWAP2 SUB SWAP1 RETURN JUMPDEST CALLVALUE DUP1 ISZERO PUSH2 0x4F1 JUMPI PUSH0 PUSH0 REVERT JUMPDEST POP PUSH2 0x50C PUSH1 0x4 DUP1 CALLDATASIZE SUB DUP2 ADD SWAP1 PUSH2 0x507 SWAP2 SWAP1 PUSH2 0x1E63 JUMP JUMPDEST PUSH2 0xF6A JUMP JUMPDEST PUSH1 0x40 MLOAD PUSH2 0x519 SWAP2 SWAP1 PUSH2 0x1D48 JUMP JUMPDEST PUSH1 0x40 MLOAD DUP1 SWAP2 SUB SWAP1 RETURN JUMPDEST CALLVALUE DUP1 ISZERO PUSH2 0x52D JUMPI PUSH0 PUSH0 REVERT JUMPDEST POP PUSH2 0x548 PUSH1 0x4 DUP1 CALLDATASIZE SUB DUP2 ADD SWAP1 PUSH2 0x543 SWAP2 SWAP1 PUSH2 0x1DE5 JUMP JUMPDEST PUSH2 0xFEC JUMP JUMPDEST PUSH1 0x40 MLOAD PUSH2 0x55B SWAP8 SWAP7 SWAP6 SWAP5 SWAP4 SWAP3 SWAP2 SWAP1 PUSH2 0x1EA1 JUMP JUMPDEST PUSH1 0x40 MLOAD DUP1 SWAP2 SUB SWAP1 RETURN JUMPDEST CALLVALUE DUP1 ISZERO PUSH2 0x56F JUMPI PUSH0 PUSH0 REVERT JUMPDEST POP PUSH2 0x58A PUSH1 0x4 DUP1 CALLDATASIZE SUB DUP2 ADD SWAP1 PUSH2 0x585 SWAP2 SWAP1 PUSH2 0x1DE5 JUMP JUMPDEST PUSH2 0x1055 JUMP JUMPDEST STOP JUMPDEST PUSH2 0x594 PUSH2 0x11B3 JUMP JUMPDEST STOP JUMPDEST CALLVALUE DUP1 ISZERO PUSH2 0x5A1 JUMPI PUSH0 PUSH0 REVERT JUMPDEST POP PUSH2 0x5BC PUSH1 0x4 DUP1 CALLDATASIZE SUB DUP2 ADD SWAP1 PUSH2 0x5B7 SWAP2 SWAP1 PUSH2 0x1F0E JUMP JUMPDEST PUSH2 0x1272 JUMP JUMPDEST PUSH1 0x40 MLOAD PUSH2 0x5C9 SWAP2 SWAP1 PUSH2 0x1D48 JUMP JUMPDEST PUSH1 0x40 MLOAD DUP1 SWAP2 SUB SWAP1 RETURN JUMPDEST PUSH1 0x60 PUSH1 0x3 DUP1 SLOAD PUSH2 0x5E1 SWAP1 PUSH2 0x1F79 JUMP JUMPDEST DUP1 PUSH1 0x1F ADD PUSH1 0x20 DUP1 SWAP2 DIV MUL PUSH1 0x20 ADD PUSH1 0x40 MLOAD SWAP1 DUP2 ADD PUSH1 0x40 MSTORE DUP1 SWAP3 SWAP2 SWAP1 DUP2 DUP2 MSTORE PUSH1 0x20 ADD DUP3 DUP1 SLOAD PUSH2 0x60D SWAP1 PUSH2 0x1F79 JUMP JUMPDEST DUP1 ISZERO PUSH2 0x658 JUMPI DUP1 PUSH1 0x1F LT PUSH2 0x62F JUMPI PUSH2 0x100 DUP1 DUP4 SLOAD DIV MUL DUP4 MSTORE SWAP2 PUSH1 0x20 ADD SWAP2 PUSH2 0x658 JUMP JUMPDEST DUP3 ADD SWAP2 SWAP1 PUSH0 MSTORE PUSH1 0x20 PUSH0 KECCAK256 SWAP1 JUMPDEST DUP2 SLOAD DUP2 MSTORE SWAP1 PUSH1 0x1 ADD SWAP1 PUSH1 0x20 ADD DUP1 DUP4 GT PUSH2 0x63B JUMPI DUP3 SWAP1 SUB PUSH1 0x1F AND DUP3 ADD SWAP2 JUMPDEST POP POP POP POP POP SWAP1 POP SWAP1 JUMP JUMPDEST PUSH0 PUSH0 PUSH2 0x66C PUSH2 0x1623 JUMP JUMPDEST SWAP1 POP PUSH2 0x679 DUP2 DUP6 DUP6 PUSH2 0x162A JUMP JUMPDEST PUSH1 0x1 SWAP2 POP POP SWAP3 SWAP2 POP POP JUMP JUMPDEST PUSH0 PUSH1 0x5 PUSH0 SWAP1 SLOAD SWAP1 PUSH2 0x100 EXP SWAP1 DIV PUSH20 0xFFFFFFFFFFFFFFFFFFFFFFFFFFFFFFFFFFFFFFFF AND PUSH20 0xFFFFFFFFFFFFFFFFFFFFFFFFFFFFFFFFFFFFFFFF AND CALLER PUSH20 0xFFFFFFFFFFFFFFFFFFFFFFFFFFFFFFFFFFFFFFFF AND EQ PUSH2 0x714 JUMPI PUSH1 0x40 MLOAD PUSH32 0x8C379A000000000000000000000000000000000000000000000000000000000 DUP2 MSTORE PUSH1 0x4 ADD PUSH2 0x70B SWAP1 PUSH2 0x2019 JUMP JUMPDEST PUSH1 0x40 MLOAD DUP1 SWAP2 SUB SWAP1 REVERT JUMPDEST SELFBALANCE SWAP1 POP SWAP1 JUMP JUMPDEST PUSH0 PUSH1 0x2 SLOAD SWAP1 POP SWAP1 JUMP JUMPDEST PUSH0 PUSH0 PUSH2 0x72D PUSH2 0x1623 JUMP JUMPDEST SWAP1 POP PUSH2 0x73A DUP6 DUP3 DUP6 PUSH2 0x163C JUMP JUMPDEST PUSH2 0x745 DUP6 DUP6 DUP6 PUSH2 0x16CF JUMP JUMPDEST PUSH1 0x1 SWAP2 POP POP SWAP4 SWAP3 POP POP POP JUMP JUMPDEST PUSH0 PUSH1 0x12 SWAP1 POP SWAP1 JUMP JUMPDEST PUSH1 0x6 SLOAD DUP2 JUMP JUMPDEST PUSH0 PUSH2 0x769 CALLER PUSH2 0xA42 JUMP JUMPDEST SWAP1 POP SWAP1 JUMP JUMPDEST PUSH0 PUSH1 0xC PUSH0 DUP4 DUP2 MSTORE PUSH1 0x20 ADD SWAP1 DUP2 MSTORE PUSH1 0x20 ADD PUSH0 KECCAK256 SWAP1 POP DUP1 PUSH1 0x6 ADD PUSH0 SWAP1 SLOAD SWAP1 PUSH2 0x100 EXP SWAP1 DIV PUSH1 0xFF AND PUSH2 0x7D2 JUMPI PUSH1 0x40 MLOAD PUSH32 0x8C379A000000000000000000000000000000000000000000000000000000000 DUP2 MSTORE PUSH1 0x4 ADD PUSH2 0x7C9 SWAP1 PUSH2 0x20A7 JUMP JUMPDEST PUSH1 0x40 MLOAD DUP1 SWAP2 SUB SWAP1 REVERT JUMPDEST DUP1 PUSH0 ADD PUSH0 SWAP1 SLOAD SWAP1 PUSH2 0x100 EXP SWAP1 DIV PUSH20 0xFFFFFFFFFFFFFFFFFFFFFFFFFFFFFFFFFFFFFFFF AND PUSH20 0xFFFFFFFFFFFFFFFFFFFFFFFFFFFFFFFFFFFFFFFF AND CALLER PUSH20 0xFFFFFFFFFFFFFFFFFFFFFFFFFFFFFFFFFFFFFFFF AND EQ PUSH2 0x862 JUMPI PUSH1 0x40 MLOAD PUSH32 0x8C379A000000000000000000000000000000000000000000000000000000000 DUP2 MSTORE PUSH1 0x4 ADD PUSH2 0x859 SWAP1 PUSH2 0x2135 JUMP JUMPDEST PUSH1 0x40 MLOAD DUP1 SWAP2 SUB SWAP1 REVERT JUMPDEST DUP1 PUSH1 0x4 ADD SLOAD TIMESTAMP GT ISZERO PUSH2 0x8A9 JUMPI PUSH1 0x40 MLOAD PUSH32 0x8C379A000000000000000000000000000000000000000000000000000000000 DUP2 MSTORE PUSH1 0x4 ADD PUSH2 0x8A0 SWAP1 PUSH2 0x21C3 JUMP JUMPDEST PUSH1 0x40 MLOAD DUP1 SWAP2 SUB SWAP1 REVERT JUMPDEST PUSH0 DUP2 PUSH1 0x3 ADD SLOAD PUSH1 0x64 PUSH2 0x8BB SWAP2 SWAP1 PUSH2 0x220E JUMP JUMPDEST PUSH1 0x9 SLOAD DUP4 PUSH1 0x2 ADD SLOAD PUSH2 0x8CD SWAP2 SWAP1 PUSH2 0x220E JUMP JUMPDEST PUSH2 0x8D7 SWAP2 SWAP1 PUSH2 0x227C JUMP JUMPDEST SWAP1 POP PUSH0 DUP2 SWAP1 POP PUSH0 PUSH1 0x1 DUP5 PUSH1 0x3 ADD SLOAD PUSH2 0x8EF SWAP2 SWAP1 PUSH2 0x22AC JUMP JUMPDEST DUP5 PUSH1 0x5 ADD SLOAD EQ SWAP1 POP DUP1 ISZERO PUSH2 0x910 JUMPI DUP4 PUSH1 0x2 ADD SLOAD DUP3 PUSH2 0x90D SWAP2 SWAP1 PUSH2 0x22DF JUMP JUMPDEST SWAP2 POP JUMPDEST DUP2 CALLVALUE EQ PUSH2 0x952 JUMPI PUSH1 0x40 MLOAD PUSH32 0x8C379A000000000000000000000000000000000000000000000000000000000 DUP2 MSTORE PUSH1 0x4 ADD PUSH2 0x949 SWAP1 PUSH2 0x23A8 JUMP JUMPDEST PUSH1 0x40 MLOAD DUP1 SWAP2 SUB SWAP1 REVERT JUMPDEST PUSH1 0x1 DUP5 PUSH1 0x5 ADD PUSH0 DUP3 DUP3 SLOAD PUSH2 0x966 SWAP2 SWAP1 PUSH2 0x22DF JUMP JUMPDEST SWAP3 POP POP DUP2 SWAP1 SSTORE POP PUSH1 0x8 SLOAD DUP5 PUSH1 0x4 ADD PUSH0 DUP3 DUP3 SLOAD PUSH2 0x982 SWAP2 SWAP1 PUSH2 0x22DF JUMP JUMPDEST SWAP3 POP POP DUP2 SWAP1 SSTORE POP DUP1 ISZERO PUSH2 0xA3B JUMPI PUSH0 DUP5 PUSH1 0x6 ADD PUSH0 PUSH2 0x100 EXP DUP2 SLOAD DUP2 PUSH1 0xFF MUL NOT AND SWAP1 DUP4 ISZERO ISZERO MUL OR SWAP1 SSTORE POP PUSH2 0x9DB ADDRESS DUP6 PUSH0 ADD PUSH0 SWAP1 SLOAD SWAP1 PUSH2 0x100 EXP SWAP1 DIV PUSH20 0xFFFFFFFFFFFFFFFFFFFFFFFFFFFFFFFFFFFFFFFF AND DUP7 PUSH1 0x1 ADD SLOAD PUSH2 0x16CF JUMP JUMPDEST PUSH32 0xEB217655B842CFBF3105DDA6E9FB8B92FF7F87ADE2536D2EE25A304C79D4448A DUP5 PUSH0 ADD PUSH0 SWAP1 SLOAD SWAP1 PUSH2 0x100 EXP SWAP1 DIV PUSH20 0xFFFFFFFFFFFFFFFFFFFFFFFFFFFFFFFFFFFFFFFF AND DUP6 PUSH1 0x2 ADD SLOAD PUSH1 0x40 MLOAD PUSH2 0xA32 SWAP3 SWAP2 SWAP1 PUSH2 0x23C6 JUMP JUMPDEST PUSH1 0x40 MLOAD DUP1 SWAP2 SUB SWAP1 LOG1 JUMPDEST POP POP POP POP POP JUMP JUMPDEST PUSH0 PUSH0 PUSH0 DUP4 PUSH20 0xFFFFFFFFFFFFFFFFFFFFFFFFFFFFFFFFFFFFFFFF AND PUSH20 0xFFFFFFFFFFFFFFFFFFFFFFFFFFFFFFFFFFFFFFFF AND DUP2 MSTORE PUSH1 0x20 ADD SWAP1 DUP2 MSTORE PUSH1 0x20 ADD PUSH0 KECCAK256 SLOAD SWAP1 POP SWAP2 SWAP1 POP JUMP JUMPDEST PUSH0 DUP2 GT PUSH2 0xAC9 JUMPI PUSH1 0x40 MLOAD PUSH32 0x8C379A000000000000000000000000000000000000000000000000000000000 DUP2 MSTORE PUSH1 0x4 ADD PUSH2 0xAC0 SWAP1 PUSH2 0x245D JUMP JUMPDEST PUSH1 0x40 MLOAD DUP1 SWAP2 SUB SWAP1 REVERT JUMPDEST DUP1 PUSH2 0xAD3 CALLER PUSH2 0xA42 JUMP JUMPDEST LT ISZERO PUSH2 0xB14 JUMPI PUSH1 0x40 MLOAD PUSH32 0x8C379A000000000000000000000000000000000000000000000000000000000 DUP2 MSTORE PUSH1 0x4 ADD PUSH2 0xB0B SWAP1 PUSH2 0x24C5 JUMP JUMPDEST PUSH1 0x40 MLOAD DUP1 SWAP2 SUB SWAP1 REVERT JUMPDEST PUSH0 PUSH8 0xDE0B6B3A7640000 PUSH1 0x7 SLOAD DUP4 PUSH2 0xB2C SWAP2 SWAP1 PUSH2 0x220E JUMP JUMPDEST PUSH2 0xB36 SWAP2 SWAP1 PUSH2 0x227C JUMP JUMPDEST SWAP1 POP DUP1 SELFBALANCE LT ISZERO PUSH2 0xB7B JUMPI PUSH1 0x40 MLOAD PUSH32 0x8C379A000000000000000000000000000000000000000000000000000000000 DUP2 MSTORE PUSH1 0x4 ADD PUSH2 0xB72 SWAP1 PUSH2 0x2553 JUMP JUMPDEST PUSH1 0x40 MLOAD DUP1 SWAP2 SUB SWAP1 REVERT JUMPDEST PUSH2 0xB86 CALLER ADDRESS DUP5 PUSH2 0x16CF JUMP JUMPDEST PUSH0 CALLER PUSH20 0xFFFFFFFFFFFFFFFFFFFFFFFFFFFFFFFFFFFFFFFF AND DUP3 PUSH1 0x40 MLOAD PUSH2 0xBAB SWAP1 PUSH2 0x259E JUMP JUMPDEST PUSH0 PUSH1 0x40 MLOAD DUP1 DUP4 SUB DUP2 DUP6 DUP8 GAS CALL SWAP3 POP POP POP RETURNDATASIZE DUP1 PUSH0 DUP2 EQ PUSH2 0xBE5 JUMPI PUSH1 0x40 MLOAD SWAP2 POP PUSH1 0x1F NOT PUSH1 0x3F RETURNDATASIZE ADD AND DUP3 ADD PUSH1 0x40 MSTORE RETURNDATASIZE DUP3 MSTORE RETURNDATASIZE PUSH0 PUSH1 0x20 DUP5 ADD RETURNDATACOPY PUSH2 0xBEA JUMP JUMPDEST PUSH1 0x60 SWAP2 POP JUMPDEST POP POP SWAP1 POP DUP1 PUSH2 0xC2E JUMPI PUSH1 0x40 MLOAD PUSH32 0x8C379A000000000000000000000000000000000000000000000000000000000 DUP2 MSTORE PUSH1 0x4 ADD PUSH2 0xC25 SWAP1 PUSH2 0x25FC JUMP JUMPDEST PUSH1 0x40 MLOAD DUP1 SWAP2 SUB SWAP1 REVERT JUMPDEST POP POP POP JUMP JUMPDEST PUSH1 0x9 SLOAD DUP2 JUMP JUMPDEST PUSH1 0x7 SLOAD DUP2 JUMP JUMPDEST PUSH0 PUSH1 0xC PUSH0 DUP4 DUP2 MSTORE PUSH1 0x20 ADD SWAP1 DUP2 MSTORE PUSH1 0x20 ADD PUSH0 KECCAK256 SWAP1 POP DUP1 PUSH1 0x6 ADD PUSH0 SWAP1 SLOAD SWAP1 PUSH2 0x100 EXP SWAP1 DIV PUSH1 0xFF AND PUSH2 0xCA3 JUMPI PUSH1 0x40 MLOAD PUSH32 0x8C379A000000000000000000000000000000000000000000000000000000000 DUP2 MSTORE PUSH1 0x4 ADD PUSH2 0xC9A SWAP1 PUSH2 0x268A JUMP JUMPDEST PUSH1 0x40 MLOAD DUP1 SWAP2 SUB SWAP1 REVERT JUMPDEST DUP1 PUSH0 ADD PUSH0 SWAP1 SLOAD SWAP1 PUSH2 0x100 EXP SWAP1 DIV PUSH20 0xFFFFFFFFFFFFFFFFFFFFFFFFFFFFFFFFFFFFFFFF AND PUSH20 0xFFFFFFFFFFFFFFFFFFFFFFFFFFFFFFFFFFFFFFFF AND CALLER PUSH20 0xFFFFFFFFFFFFFFFFFFFFFFFFFFFFFFFFFFFFFFFF AND EQ PUSH2 0xD33 JUMPI PUSH1 0x40 MLOAD PUSH32 0x8C379A000000000000000000000000000000000000000000000000000000000 DUP2 MSTORE PUSH1 0x4 ADD PUSH2 0xD2A SWAP1 PUSH2 0x2718 JUMP JUMPDEST PUSH1 0x40 MLOAD DUP1 SWAP2 SUB SWAP1 REVERT JUMPDEST DUP1 PUSH1 0x4 ADD SLOAD TIMESTAMP GT ISZERO PUSH2 0xD7A JUMPI PUSH1 0x40 MLOAD PUSH32 0x8C379A000000000000000000000000000000000000000000000000000000000 DUP2 MSTORE PUSH1 0x4 ADD PUSH2 0xD71 SWAP1 PUSH2 0x21C3 JUMP JUMPDEST PUSH1 0x40 MLOAD DUP1 SWAP2 SUB SWAP1 REVERT JUMPDEST PUSH0 PUSH1 0xA SLOAD DUP3 PUSH1 0x2 ADD SLOAD PUSH2 0xD8D SWAP2 SWAP1 PUSH2 0x22DF JUMP JUMPDEST SWAP1 POP DUP1 CALLVALUE EQ PUSH2 0xDD1 JUMPI PUSH1 0x40 MLOAD PUSH32 0x8C379A000000000000000000000000000000000000000000000000000000000 DUP2 MSTORE PUSH1 0x4 ADD PUSH2 0xDC8 SWAP1 PUSH2 0x27CC JUMP JUMPDEST PUSH1 0x40 MLOAD DUP1 SWAP2 SUB SWAP1 REVERT JUMPDEST PUSH0 DUP3 PUSH1 0x6 ADD PUSH0 PUSH2 0x100 EXP DUP2 SLOAD DUP2 PUSH1 0xFF MUL NOT AND SWAP1 DUP4 ISZERO ISZERO MUL OR SWAP1 SSTORE POP PUSH2 0xE1D ADDRESS DUP4 PUSH0 ADD PUSH0 SWAP1 SLOAD SWAP1 PUSH2 0x100 EXP SWAP1 DIV PUSH20 0xFFFFFFFFFFFFFFFFFFFFFFFFFFFFFFFFFFFFFFFF AND DUP5 PUSH1 0x1 ADD SLOAD PUSH2 0x16CF JUMP JUMPDEST PUSH32 0xEB217655B842CFBF3105DDA6E9FB8B92FF7F87ADE2536D2EE25A304C79D4448A DUP3 PUSH0 ADD PUSH0 SWAP1 SLOAD SWAP1 PUSH2 0x100 EXP SWAP1 DIV PUSH20 0xFFFFFFFFFFFFFFFFFFFFFFFFFFFFFFFFFFFFFFFF AND DUP4 PUSH1 0x2 ADD SLOAD PUSH1 0x40 MLOAD PUSH2 0xE74 SWAP3 SWAP2 SWAP1 PUSH2 0x23C6 JUMP JUMPDEST PUSH1 0x40 MLOAD DUP1 SWAP2 SUB SWAP1 LOG1 POP POP POP JUMP JUMPDEST PUSH1 0x5 PUSH0 SWAP1 SLOAD SWAP1 PUSH2 0x100 EXP SWAP1 DIV PUSH20 0xFFFFFFFFFFFFFFFFFFFFFFFFFFFFFFFFFFFFFFFF AND DUP2 JUMP JUMPDEST PUSH1 0x60 PUSH1 0x4 DUP1 SLOAD PUSH2 0xEB5 SWAP1 PUSH2 0x1F79 JUMP JUMPDEST DUP1 PUSH1 0x1F ADD PUSH1 0x20 DUP1 SWAP2 DIV MUL PUSH1 0x20 ADD PUSH1 0x40 MLOAD SWAP1 DUP2 ADD PUSH1 0x40 MSTORE DUP1 SWAP3 SWAP2 SWAP1 DUP2 DUP2 MSTORE PUSH1 0x20 ADD DUP3 DUP1 SLOAD PUSH2 0xEE1 SWAP1 PUSH2 0x1F79 JUMP JUMPDEST DUP1 ISZERO PUSH2 0xF2C JUMPI DUP1 PUSH1 0x1F LT PUSH2 0xF03 JUMPI PUSH2 0x100 DUP1 DUP4 SLOAD DIV MUL DUP4 MSTORE SWAP2 PUSH1 0x20 ADD SWAP2 PUSH2 0xF2C JUMP JUMPDEST DUP3 ADD SWAP2 SWAP1 PUSH0 MSTORE PUSH1 0x20 PUSH0 KECCAK256 SWAP1 JUMPDEST DUP2 SLOAD DUP2 MSTORE SWAP1 PUSH1 0x1 ADD SWAP1 PUSH1 0x20 ADD DUP1 DUP4 GT PUSH2 0xF0F JUMPI DUP3 SWAP1 SUB PUSH1 0x1F AND DUP3 ADD SWAP2 JUMPDEST POP POP POP POP POP SWAP1 POP SWAP1 JUMP JUMPDEST PUSH1 0xB SLOAD DUP2 JUMP JUMPDEST PUSH0 PUSH0 PUSH2 0xF46 PUSH2 0x1623 JUMP JUMPDEST SWAP1 POP PUSH2 0xF53 DUP2 DUP6 DUP6 PUSH2 0x16CF JUMP JUMPDEST PUSH1 0x1 SWAP2 POP POP SWAP3 SWAP2 POP POP JUMP JUMPDEST PUSH1 0xA SLOAD DUP2 JUMP JUMPDEST PUSH1 0x8 SLOAD DUP2 JUMP JUMPDEST PUSH0 PUSH1 0x1 PUSH0 DUP5 PUSH20 0xFFFFFFFFFFFFFFFFFFFFFFFFFFFFFFFFFFFFFFFF AND PUSH20 0xFFFFFFFFFFFFFFFFFFFFFFFFFFFFFFFFFFFFFFFF AND DUP2 MSTORE PUSH1 0x20 ADD SWAP1 DUP2 MSTORE PUSH1 0x20 ADD PUSH0 KECCAK256 PUSH0 DUP4 PUSH20 0xFFFFFFFFFFFFFFFFFFFFFFFFFFFFFFFFFFFFFFFF AND PUSH20 0xFFFFFFFFFFFFFFFFFFFFFFFFFFFFFFFFFFFFFFFF AND DUP2 MSTORE PUSH1 0x20 ADD SWAP1 DUP2 MSTORE PUSH1 0x20 ADD PUSH0 KECCAK256 SLOAD SWAP1 POP SWAP3 SWAP2 POP POP JUMP JUMPDEST PUSH1 0xC PUSH1 0x20 MSTORE DUP1 PUSH0 MSTORE PUSH1 0x40 PUSH0 KECCAK256 PUSH0 SWAP2 POP SWAP1 POP DUP1 PUSH0 ADD PUSH0 SWAP1 SLOAD SWAP1 PUSH2 0x100 EXP SWAP1 DIV PUSH20 0xFFFFFFFFFFFFFFFFFFFFFFFFFFFFFFFFFFFFFFFF AND SWAP1 DUP1 PUSH1 0x1 ADD SLOAD SWAP1 DUP1 PUSH1 0x2 ADD SLOAD SWAP1 DUP1 PUSH1 0x3 ADD SLOAD SWAP1 DUP1 PUSH1 0x4 ADD SLOAD SWAP1 DUP1 PUSH1 0x5 ADD SLOAD SWAP1 DUP1 PUSH1 0x6 ADD PUSH0 SWAP1 SLOAD SWAP1 PUSH2 0x100 EXP SWAP1 DIV PUSH1 0xFF AND SWAP1 POP DUP8 JUMP JUMPDEST PUSH1 0x5 PUSH0 SWAP1 SLOAD SWAP1 PUSH2 0x100 EXP SWAP1 DIV PUSH20 0xFFFFFFFFFFFFFFFFFFFFFFFFFFFFFFFFFFFFFFFF AND PUSH20 0xFFFFFFFFFFFFFFFFFFFFFFFFFFFFFFFFFFFFFFFF AND CALLER PUSH20 0xFFFFFFFFFFFFFFFFFFFFFFFFFFFFFFFFFFFFFFFF AND EQ PUSH2 0x10E4 JUMPI PUSH1 0x40 MLOAD PUSH32 0x8C379A000000000000000000000000000000000000000000000000000000000 DUP2 MSTORE PUSH1 0x4 ADD PUSH2 0x10DB SWAP1 PUSH2 0x2019 JUMP JUMPDEST PUSH1 0x40 MLOAD DUP1 SWAP2 SUB SWAP1 REVERT JUMPDEST PUSH0 PUSH1 0xC PUSH0 DUP4 DUP2 MSTORE PUSH1 0x20 ADD SWAP1 DUP2 MSTORE PUSH1 0x20 ADD PUSH0 KECCAK256 SWAP1 POP DUP1 PUSH1 0x6 ADD PUSH0 SWAP1 SLOAD SWAP1 PUSH2 0x100 EXP SWAP1 DIV PUSH1 0xFF AND PUSH2 0x1148 JUMPI PUSH1 0x40 MLOAD PUSH32 0x8C379A000000000000000000000000000000000000000000000000000000000 DUP2 MSTORE PUSH1 0x4 ADD PUSH2 0x113F SWAP1 PUSH2 0x285A JUMP JUMPDEST PUSH1 0x40 MLOAD DUP1 SWAP2 SUB SWAP1 REVERT JUMPDEST DUP1 PUSH1 0x4 ADD SLOAD TIMESTAMP GT ISZERO PUSH2 0x1174 JUMPI PUSH0 DUP2 PUSH1 0x6 ADD PUSH0 PUSH2 0x100 EXP DUP2 SLOAD DUP2 PUSH1 0xFF MUL NOT AND SWAP1 DUP4 ISZERO ISZERO MUL OR SWAP1 SSTORE POP PUSH2 0x11AF JUMP JUMPDEST PUSH1 0x40 MLOAD PUSH32 0x8C379A000000000000000000000000000000000000000000000000000000000 DUP2 MSTORE PUSH1 0x4 ADD PUSH2 0x11A6 SWAP1 PUSH2 0x28E8 JUMP JUMPDEST PUSH1 0x40 MLOAD DUP1 SWAP2 SUB SWAP1 REVERT JUMPDEST POP POP JUMP JUMPDEST PUSH0 CALLVALUE GT PUSH2 0x11F5 JUMPI PUSH1 0x40 MLOAD PUSH32 0x8C379A000000000000000000000000000000000000000000000000000000000 DUP2 MSTORE PUSH1 0x4 ADD PUSH2 0x11EC SWAP1 PUSH2 0x2976 JUMP JUMPDEST PUSH1 0x40 MLOAD DUP1 SWAP2 SUB SWAP1 REVERT JUMPDEST PUSH0 PUSH1 0x7 SLOAD PUSH8 0xDE0B6B3A7640000 CALLVALUE PUSH2 0x120D SWAP2 SWAP1 PUSH2 0x220E JUMP JUMPDEST PUSH2 0x1217 SWAP2 SWAP1 PUSH2 0x227C JUMP JUMPDEST SWAP1 POP DUP1 PUSH2 0x1223 ADDRESS PUSH2 0xA42 JUMP JUMPDEST LT ISZERO PUSH2 0x1264 JUMPI PUSH1 0x40 MLOAD PUSH32 0x8C379A000000000000000000000000000000000000000000000000000000000 DUP2 MSTORE PUSH1 0x4 ADD PUSH2 0x125B SWAP1 PUSH2 0x2A04 JUMP JUMPDEST PUSH1 0x40 MLOAD DUP1 SWAP2 SUB SWAP1 REVERT JUMPDEST PUSH2 0x126F ADDRESS CALLER DUP4 PUSH2 0x16CF JUMP JUMPDEST POP JUMP JUMPDEST PUSH0 PUSH0 DUP4 GT PUSH2 0x12B5 JUMPI PUSH1 0x40 MLOAD PUSH32 0x8C379A000000000000000000000000000000000000000000000000000000000 DUP2 MSTORE PUSH1 0x4 ADD PUSH2 0x12AC SWAP1 PUSH2 0x2A92 JUMP JUMPDEST PUSH1 0x40 MLOAD DUP1 SWAP2 SUB SWAP1 REVERT JUMPDEST PUSH0 DUP3 GT DUP1 ISZERO PUSH2 0x12C6 JUMPI POP PUSH1 0xB SLOAD DUP3 GT ISZERO JUMPDEST PUSH2 0x1305 JUMPI PUSH1 0x40 MLOAD PUSH32 0x8C379A000000000000000000000000000000000000000000000000000000000 DUP2 MSTORE PUSH1 0x4 ADD PUSH2 0x12FC SWAP1 PUSH2 0x2B20 JUMP JUMPDEST PUSH1 0x40 MLOAD DUP1 SWAP2 SUB SWAP1 REVERT JUMPDEST DUP3 PUSH2 0x130F CALLER PUSH2 0xA42 JUMP JUMPDEST LT ISZERO PUSH2 0x1350 JUMPI PUSH1 0x40 MLOAD PUSH32 0x8C379A000000000000000000000000000000000000000000000000000000000 DUP2 MSTORE PUSH1 0x4 ADD PUSH2 0x1347 SWAP1 PUSH2 0x2BAE JUMP JUMPDEST PUSH1 0x40 MLOAD DUP1 SWAP2 SUB SWAP1 REVERT JUMPDEST PUSH0 PUSH8 0xDE0B6B3A7640000 PUSH1 0x7 SLOAD DUP6 PUSH2 0x1368 SWAP2 SWAP1 PUSH2 0x220E JUMP JUMPDEST PUSH2 0x1372 SWAP2 SWAP1 PUSH2 0x227C JUMP JUMPDEST SWAP1 POP PUSH0 PUSH1 0x2 DUP3 PUSH2 0x1382 SWAP2 SWAP1 PUSH2 0x227C JUMP JUMPDEST SWAP1 POP PUSH0 DUP2 GT PUSH2 0x13C6 JUMPI PUSH1 0x40 MLOAD PUSH32 0x8C379A000000000000000000000000000000000000000000000000000000000 DUP2 MSTORE PUSH1 0x4 ADD PUSH2 0x13BD SWAP1 PUSH2 0x2C3C JUMP JUMPDEST PUSH1 0x40 MLOAD DUP1 SWAP2 SUB SWAP1 REVERT JUMPDEST DUP1 SELFBALANCE LT ISZERO PUSH2 0x1409 JUMPI PUSH1 0x40 MLOAD PUSH32 0x8C379A000000000000000000000000000000000000000000000000000000000 DUP2 MSTORE PUSH1 0x4 ADD PUSH2 0x1400 SWAP1 PUSH2 0x2CCA JUMP JUMPDEST PUSH1 0x40 MLOAD DUP1 SWAP2 SUB SWAP1 REVERT JUMPDEST PUSH2 0x1414 CALLER ADDRESS DUP8 PUSH2 0x16CF JUMP JUMPDEST PUSH0 PUSH1 0x6 SLOAD SWAP1 POP PUSH1 0x40 MLOAD DUP1 PUSH1 0xE0 ADD PUSH1 0x40 MSTORE DUP1 CALLER PUSH20 0xFFFFFFFFFFFFFFFFFFFFFFFFFFFFFFFFFFFFFFFF AND DUP2 MSTORE PUSH1 0x20 ADD DUP8 DUP2 MSTORE PUSH1 0x20 ADD DUP4 DUP2 MSTORE PUSH1 0x20 ADD DUP7 DUP2 MSTORE PUSH1 0x20 ADD PUSH1 0x8 SLOAD TIMESTAMP PUSH2 0x1461 SWAP2 SWAP1 PUSH2 0x22DF JUMP JUMPDEST DUP2 MSTORE PUSH1 0x20 ADD PUSH0 DUP2 MSTORE PUSH1 0x20 ADD PUSH1 0x1 ISZERO ISZERO DUP2 MSTORE POP PUSH1 0xC PUSH0 DUP4 DUP2 MSTORE PUSH1 0x20 ADD SWAP1 DUP2 MSTORE PUSH1 0x20 ADD PUSH0 KECCAK256 PUSH0 DUP3 ADD MLOAD DUP2 PUSH0 ADD PUSH0 PUSH2 0x100 EXP DUP2 SLOAD DUP2 PUSH20 0xFFFFFFFFFFFFFFFFFFFFFFFFFFFFFFFFFFFFFFFF MUL NOT AND SWAP1 DUP4 PUSH20 0xFFFFFFFFFFFFFFFFFFFFFFFFFFFFFFFFFFFFFFFF AND MUL OR SWAP1 SSTORE POP PUSH1 0x20 DUP3 ADD MLOAD DUP2 PUSH1 0x1 ADD SSTORE PUSH1 0x40 DUP3 ADD MLOAD DUP2 PUSH1 0x2 ADD SSTORE PUSH1 0x60 DUP3 ADD MLOAD DUP2 PUSH1 0x3 ADD SSTORE PUSH1 0x80 DUP3 ADD MLOAD DUP2 PUSH1 0x4 ADD SSTORE PUSH1 0xA0 DUP3 ADD MLOAD DUP2 PUSH1 0x5 ADD SSTORE PUSH1 0xC0 DUP3 ADD MLOAD DUP2 PUSH1 0x6 ADD PUSH0 PUSH2 0x100 EXP DUP2 SLOAD DUP2 PUSH1 0xFF MUL NOT AND SWAP1 DUP4 ISZERO ISZERO MUL OR SWAP1 SSTORE POP SWAP1 POP POP PUSH1 0x6 PUSH0 DUP2 SLOAD DUP1 SWAP3 SWAP2 SWAP1 PUSH2 0x152E SWAP1 PUSH2 0x2CE8 JUMP JUMPDEST SWAP2 SWAP1 POP SSTORE POP PUSH0 CALLER PUSH20 0xFFFFFFFFFFFFFFFFFFFFFFFFFFFFFFFFFFFFFFFF AND DUP4 PUSH1 0x40 MLOAD PUSH2 0x1558 SWAP1 PUSH2 0x259E JUMP JUMPDEST PUSH0 PUSH1 0x40 MLOAD DUP1 DUP4 SUB DUP2 DUP6 DUP8 GAS CALL SWAP3 POP POP POP RETURNDATASIZE DUP1 PUSH0 DUP2 EQ PUSH2 0x1592 JUMPI PUSH1 0x40 MLOAD SWAP2 POP PUSH1 0x1F NOT PUSH1 0x3F RETURNDATASIZE ADD AND DUP3 ADD PUSH1 0x40 MSTORE RETURNDATASIZE DUP3 MSTORE RETURNDATASIZE PUSH0 PUSH1 0x20 DUP5 ADD RETURNDATACOPY PUSH2 0x1597 JUMP JUMPDEST PUSH1 0x60 SWAP2 POP JUMPDEST POP POP SWAP1 POP DUP1 PUSH2 0x15DB JUMPI PUSH1 0x40 MLOAD PUSH32 0x8C379A000000000000000000000000000000000000000000000000000000000 DUP2 MSTORE PUSH1 0x4 ADD PUSH2 0x15D2 SWAP1 PUSH2 0x2D9F JUMP JUMPDEST PUSH1 0x40 MLOAD DUP1 SWAP2 SUB SWAP1 REVERT JUMPDEST PUSH32 0xF2C608B40926709A605E36D808476C12C3DA0075B7EB8773F053465678BE736 CALLER DUP5 DUP9 PUSH1 0x40 MLOAD PUSH2 0x160E SWAP4 SWAP3 SWAP2 SWAP1 PUSH2 0x2DBD JUMP JUMPDEST PUSH1 0x40 MLOAD DUP1 SWAP2 SUB SWAP1 LOG1 DUP2 SWAP5 POP POP POP POP POP SWAP3 SWAP2 POP POP JUMP JUMPDEST PUSH0 CALLER SWAP1 POP SWAP1 JUMP JUMPDEST PUSH2 0x1637 DUP4 DUP4 DUP4 PUSH1 0x1 PUSH2 0x17BF JUMP JUMPDEST POP POP POP JUMP JUMPDEST PUSH0 PUSH2 0x1647 DUP5 DUP5 PUSH2 0xF6A JUMP JUMPDEST SWAP1 POP PUSH32 0xFFFFFFFFFFFFFFFFFFFFFFFFFFFFFFFFFFFFFFFFFFFFFFFFFFFFFFFFFFFFFFFF DUP2 LT ISZERO PUSH2 0x16C9 JUMPI DUP2 DUP2 LT ISZERO PUSH2 0x16BA JUMPI DUP3 DUP2 DUP4 PUSH1 0x40 MLOAD PUSH32 0xFB8F41B200000000000000000000000000000000000000000000000000000000 DUP2 MSTORE PUSH1 0x4 ADD PUSH2 0x16B1 SWAP4 SWAP3 SWAP2 SWAP1 PUSH2 0x2DBD JUMP JUMPDEST PUSH1 0x40 MLOAD DUP1 SWAP2 SUB SWAP1 REVERT JUMPDEST PUSH2 0x16C8 DUP5 DUP5 DUP5 DUP5 SUB PUSH0 PUSH2 0x17BF JUMP JUMPDEST JUMPDEST POP POP POP POP JUMP JUMPDEST PUSH0 PUSH20 0xFFFFFFFFFFFFFFFFFFFFFFFFFFFFFFFFFFFFFFFF AND DUP4 PUSH20 0xFFFFFFFFFFFFFFFFFFFFFFFFFFFFFFFFFFFFFFFF AND SUB PUSH2 0x173F JUMPI PUSH0 PUSH1 0x40 MLOAD PUSH32 0x96C6FD1E00000000000000000000000000000000000000000000000000000000 DUP2 MSTORE PUSH1 0x4 ADD PUSH2 0x1736 SWAP2 SWAP1 PUSH2 0x1E4A JUMP JUMPDEST PUSH1 0x40 MLOAD DUP1 SWAP2 SUB SWAP1 REVERT JUMPDEST PUSH0 PUSH20 0xFFFFFFFFFFFFFFFFFFFFFFFFFFFFFFFFFFFFFFFF AND DUP3 PUSH20 0xFFFFFFFFFFFFFFFFFFFFFFFFFFFFFFFFFFFFFFFF AND SUB PUSH2 0x17AF JUMPI PUSH0 PUSH1 0x40 MLOAD PUSH32 0xEC442F0500000000000000000000000000000000000000000000000000000000 DUP2 MSTORE PUSH1 0x4 ADD PUSH2 0x17A6 SWAP2 SWAP1 PUSH2 0x1E4A JUMP JUMPDEST PUSH1 0x40 MLOAD DUP1 SWAP2 SUB SWAP1 REVERT JUMPDEST PUSH2 0x17BA DUP4 DUP4 DUP4 PUSH2 0x198E JUMP JUMPDEST POP POP POP JUMP JUMPDEST PUSH0 PUSH20 0xFFFFFFFFFFFFFFFFFFFFFFFFFFFFFFFFFFFFFFFF AND DUP5 PUSH20 0xFFFFFFFFFFFFFFFFFFFFFFFFFFFFFFFFFFFFFFFF AND SUB PUSH2 0x182F JUMPI PUSH0 PUSH1 0x40 MLOAD PUSH32 0xE602DF0500000000000000000000000000000000000000000000000000000000 DUP2 MSTORE PUSH1 0x4 ADD PUSH2 0x1826 SWAP2 SWAP1 PUSH2 0x1E4A JUMP JUMPDEST PUSH1 0x40 MLOAD DUP1 SWAP2 SUB SWAP1 REVERT JUMPDEST PUSH0 PUSH20 0xFFFFFFFFFFFFFFFFFFFFFFFFFFFFFFFFFFFFFFFF AND DUP4 PUSH20 0xFFFFFFFFFFFFFFFFFFFFFFFFFFFFFFFFFFFFFFFF AND SUB PUSH2 0x189F JUMPI PUSH0 PUSH1 0x40 MLOAD PUSH32 0x94280D6200000000000000000000000000000000000000000000000000000000 DUP2 MSTORE PUSH1 0x4 ADD PUSH2 0x1896 SWAP2 SWAP1 PUSH2 0x1E4A JUMP JUMPDEST PUSH1 0x40 MLOAD DUP1 SWAP2 SUB SWAP1 REVERT JUMPDEST DUP2 PUSH1 0x1 PUSH0 DUP7 PUSH20 0xFFFFFFFFFFFFFFFFFFFFFFFFFFFFFFFFFFFFFFFF AND PUSH20 0xFFFFFFFFFFFFFFFFFFFFFFFFFFFFFFFFFFFFFFFF AND DUP2 MSTORE PUSH1 0x20 ADD SWAP1 DUP2 MSTORE PUSH1 0x20 ADD PUSH0 KECCAK256 PUSH0 DUP6 PUSH20 0xFFFFFFFFFFFFFFFFFFFFFFFFFFFFFFFFFFFFFFFF AND PUSH20 0xFFFFFFFFFFFFFFFFFFFFFFFFFFFFFFFFFFFFFFFF AND DUP2 MSTORE PUSH1 0x20 ADD SWAP1 DUP2 MSTORE PUSH1 0x20 ADD PUSH0 KECCAK256 DUP2 SWAP1 SSTORE POP DUP1 ISZERO PUSH2 0x1988 JUMPI DUP3 PUSH20 0xFFFFFFFFFFFFFFFFFFFFFFFFFFFFFFFFFFFFFFFF AND DUP5 PUSH20 0xFFFFFFFFFFFFFFFFFFFFFFFFFFFFFFFFFFFFFFFF AND PUSH32 0x8C5BE1E5EBEC7D5BD14F71427D1E84F3DD0314C0F7B2291E5B200AC8C7C3B925 DUP5 PUSH1 0x40 MLOAD PUSH2 0x197F SWAP2 SWAP1 PUSH2 0x1D48 JUMP JUMPDEST PUSH1 0x40 MLOAD DUP1 SWAP2 SUB SWAP1 LOG3 JUMPDEST POP POP POP POP JUMP JUMPDEST PUSH0 PUSH20 0xFFFFFFFFFFFFFFFFFFFFFFFFFFFFFFFFFFFFFFFF AND DUP4 PUSH20 0xFFFFFFFFFFFFFFFFFFFFFFFFFFFFFFFFFFFFFFFF AND SUB PUSH2 0x19DE JUMPI DUP1 PUSH1 0x2 PUSH0 DUP3 DUP3 SLOAD PUSH2 0x19D2 SWAP2 SWAP1 PUSH2 0x22DF JUMP JUMPDEST SWAP3 POP POP DUP2 SWAP1 SSTORE POP PUSH2 0x1AAC JUMP JUMPDEST PUSH0 PUSH0 PUSH0 DUP6 PUSH20 0xFFFFFFFFFFFFFFFFFFFFFFFFFFFFFFFFFFFFFFFF AND PUSH20 0xFFFFFFFFFFFFFFFFFFFFFFFFFFFFFFFFFFFFFFFF AND DUP2 MSTORE PUSH1 0x20 ADD SWAP1 DUP2 MSTORE PUSH1 0x20 ADD PUSH0 KECCAK256 SLOAD SWAP1 POP DUP2 DUP2 LT ISZERO PUSH2 0x1A67 JUMPI DUP4 DUP2 DUP4 PUSH1 0x40 MLOAD PUSH32 0xE450D38C00000000000000000000000000000000000000000000000000000000 DUP2 MSTORE PUSH1 0x4 ADD PUSH2 0x1A5E SWAP4 SWAP3 SWAP2 SWAP1 PUSH2 0x2DBD JUMP JUMPDEST PUSH1 0x40 MLOAD DUP1 SWAP2 SUB SWAP1 REVERT JUMPDEST DUP2 DUP2 SUB PUSH0 PUSH0 DUP7 PUSH20 0xFFFFFFFFFFFFFFFFFFFFFFFFFFFFFFFFFFFFFFFF AND PUSH20 0xFFFFFFFFFFFFFFFFFFFFFFFFFFFFFFFFFFFFFFFF AND DUP2 MSTORE PUSH1 0x20 ADD SWAP1 DUP2 MSTORE PUSH1 0x20 ADD PUSH0 KECCAK256 DUP2 SWAP1 SSTORE POP POP JUMPDEST PUSH0 PUSH20 0xFFFFFFFFFFFFFFFFFFFFFFFFFFFFFFFFFFFFFFFF AND DUP3 PUSH20 0xFFFFFFFFFFFFFFFFFFFFFFFFFFFFFFFFFFFFFFFF AND SUB PUSH2 0x1AF3 JUMPI DUP1 PUSH1 0x2 PUSH0 DUP3 DUP3 SLOAD SUB SWAP3 POP POP DUP2 SWAP1 SSTORE POP PUSH2 0x1B3D JUMP JUMPDEST DUP1 PUSH0 PUSH0 DUP5 PUSH20 0xFFFFFFFFFFFFFFFFFFFFFFFFFFFFFFFFFFFFFFFF AND PUSH20 0xFFFFFFFFFFFFFFFFFFFFFFFFFFFFFFFFFFFFFFFF AND DUP2 MSTORE PUSH1 0x20 ADD SWAP1 DUP2 MSTORE PUSH1 0x20 ADD PUSH0 KECCAK256 PUSH0 DUP3 DUP3 SLOAD ADD SWAP3 POP POP DUP2 SWAP1 SSTORE POP JUMPDEST DUP2 PUSH20 0xFFFFFFFFFFFFFFFFFFFFFFFFFFFFFFFFFFFFFFFF AND DUP4 PUSH20 0xFFFFFFFFFFFFFFFFFFFFFFFFFFFFFFFFFFFFFFFF AND PUSH32 0xDDF252AD1BE2C89B69C2B068FC378DAA952BA7F163C4A11628F55A4DF523B3EF DUP4 PUSH1 0x40 MLOAD PUSH2 0x1B9A SWAP2 SWAP1 PUSH2 0x1D48 JUMP JUMPDEST PUSH1 0x40 MLOAD DUP1 SWAP2 SUB SWAP1 LOG3 POP POP POP JUMP JUMPDEST PUSH0 DUP2 MLOAD SWAP1 POP SWAP2 SWAP1 POP JUMP JUMPDEST PUSH0 DUP3 DUP3 MSTORE PUSH1 0x20 DUP3 ADD SWAP1 POP SWAP3 SWAP2 POP POP JUMP JUMPDEST DUP3 DUP2 DUP4 MCOPY PUSH0 DUP4 DUP4 ADD MSTORE POP POP POP JUMP JUMPDEST PUSH0 PUSH1 0x1F NOT PUSH1 0x1F DUP4 ADD AND SWAP1 POP SWAP2 SWAP1 POP JUMP JUMPDEST PUSH0 PUSH2 0x1BE9 DUP3 PUSH2 0x1BA7 JUMP JUMPDEST PUSH2 0x1BF3 DUP2 DUP6 PUSH2 0x1BB1 JUMP JUMPDEST SWAP4 POP PUSH2 0x1C03 DUP2 DUP6 PUSH1 0x20 DUP7 ADD PUSH2 0x1BC1 JUMP JUMPDEST PUSH2 0x1C0C DUP2 PUSH2 0x1BCF JUMP JUMPDEST DUP5 ADD SWAP2 POP POP SWAP3 SWAP2 POP POP JUMP JUMPDEST PUSH0 PUSH1 0x20 DUP3 ADD SWAP1 POP DUP2 DUP2 SUB PUSH0 DUP4 ADD MSTORE PUSH2 0x1C2F DUP2 DUP5 PUSH2 0x1BDF JUMP JUMPDEST SWAP1 POP SWAP3 SWAP2 POP POP JUMP JUMPDEST PUSH0 PUSH0 REVERT JUMPDEST PUSH0 PUSH20 0xFFFFFFFFFFFFFFFFFFFFFFFFFFFFFFFFFFFFFFFF DUP3 AND SWAP1 POP SWAP2 SWAP1 POP JUMP JUMPDEST PUSH0 PUSH2 0x1C64 DUP3 PUSH2 0x1C3B JUMP JUMPDEST SWAP1 POP SWAP2 SWAP1 POP JUMP JUMPDEST PUSH2 0x1C74 DUP2 PUSH2 0x1C5A JUMP JUMPDEST DUP2 EQ PUSH2 0x1C7E JUMPI PUSH0 PUSH0 REVERT JUMPDEST POP JUMP JUMPDEST PUSH0 DUP2 CALLDATALOAD SWAP1 POP PUSH2 0x1C8F DUP2 PUSH2 0x1C6B JUMP JUMPDEST SWAP3 SWAP2 POP POP JUMP JUMPDEST PUSH0 DUP2 SWAP1 POP SWAP2 SWAP1 POP JUMP JUMPDEST PUSH2 0x1CA7 DUP2 PUSH2 0x1C95 JUMP JUMPDEST DUP2 EQ PUSH2 0x1CB1 JUMPI PUSH0 PUSH0 REVERT JUMPDEST POP JUMP JUMPDEST PUSH0 DUP2 CALLDATALOAD SWAP1 POP PUSH2 0x1CC2 DUP2 PUSH2 0x1C9E JUMP JUMPDEST SWAP3 SWAP2 POP POP JUMP JUMPDEST PUSH0 PUSH0 PUSH1 0x40 DUP4 DUP6 SUB SLT ISZERO PUSH2 0x1CDE JUMPI PUSH2 0x1CDD PUSH2 0x1C37 JUMP JUMPDEST JUMPDEST PUSH0 PUSH2 0x1CEB DUP6 DUP3 DUP7 ADD PUSH2 0x1C81 JUMP JUMPDEST SWAP3 POP POP PUSH1 0x20 PUSH2 0x1CFC DUP6 DUP3 DUP7 ADD PUSH2 0x1CB4 JUMP JUMPDEST SWAP2 POP POP SWAP3 POP SWAP3 SWAP1 POP JUMP JUMPDEST PUSH0 DUP2 ISZERO ISZERO SWAP1 POP SWAP2 SWAP1 POP JUMP JUMPDEST PUSH2 0x1D1A DUP2 PUSH2 0x1D06 JUMP JUMPDEST DUP3 MSTORE POP POP JUMP JUMPDEST PUSH0 PUSH1 0x20 DUP3 ADD SWAP1 POP PUSH2 0x1D33 PUSH0 DUP4 ADD DUP5 PUSH2 0x1D11 JUMP JUMPDEST SWAP3 SWAP2 POP POP JUMP JUMPDEST PUSH2 0x1D42 DUP2 PUSH2 0x1C95 JUMP JUMPDEST DUP3 MSTORE POP POP JUMP JUMPDEST PUSH0 PUSH1 0x20 DUP3 ADD SWAP1 POP PUSH2 0x1D5B PUSH0 DUP4 ADD DUP5 PUSH2 0x1D39 JUMP JUMPDEST SWAP3 SWAP2 POP POP JUMP JUMPDEST PUSH0 PUSH0 PUSH0 PUSH1 0x60 DUP5 DUP7 SUB SLT ISZERO PUSH2 0x1D78 JUMPI PUSH2 0x1D77 PUSH2 0x1C37 JUMP JUMPDEST JUMPDEST PUSH0 PUSH2 0x1D85 DUP7 DUP3 DUP8 ADD PUSH2 0x1C81 JUMP JUMPDEST SWAP4 POP POP PUSH1 0x20 PUSH2 0x1D96 DUP7 DUP3 DUP8 ADD PUSH2 0x1C81 JUMP JUMPDEST SWAP3 POP POP PUSH1 0x40 PUSH2 0x1DA7 DUP7 DUP3 DUP8 ADD PUSH2 0x1CB4 JUMP JUMPDEST SWAP2 POP POP SWAP3 POP SWAP3 POP SWAP3 JUMP JUMPDEST PUSH0 PUSH1 0xFF DUP3 AND SWAP1 POP SWAP2 SWAP1 POP JUMP JUMPDEST PUSH2 0x1DC6 DUP2 PUSH2 0x1DB1 JUMP JUMPDEST DUP3 MSTORE POP POP JUMP JUMPDEST PUSH0 PUSH1 0x20 DUP3 ADD SWAP1 POP PUSH2 0x1DDF PUSH0 DUP4 ADD DUP5 PUSH2 0x1DBD JUMP JUMPDEST SWAP3 SWAP2 POP POP JUMP JUMPDEST PUSH0 PUSH1 0x20 DUP3 DUP5 SUB SLT ISZERO PUSH2 0x1DFA JUMPI PUSH2 0x1DF9 PUSH2 0x1C37 JUMP JUMPDEST JUMPDEST PUSH0 PUSH2 0x1E07 DUP5 DUP3 DUP6 ADD PUSH2 0x1CB4 JUMP JUMPDEST SWAP2 POP POP SWAP3 SWAP2 POP POP JUMP JUMPDEST PUSH0 PUSH1 0x20 DUP3 DUP5 SUB SLT ISZERO PUSH2 0x1E25 JUMPI PUSH2 0x1E24 PUSH2 0x1C37 JUMP JUMPDEST JUMPDEST PUSH0 PUSH2 0x1E32 DUP5 DUP3 DUP6 ADD PUSH2 0x1C81 JUMP JUMPDEST SWAP2 POP POP SWAP3 SWAP2 POP POP JUMP JUMPDEST PUSH2 0x1E44 DUP2 PUSH2 0x1C5A JUMP JUMPDEST DUP3 MSTORE POP POP JUMP JUMPDEST PUSH0 PUSH1 0x20 DUP3 ADD SWAP1 POP PUSH2 0x1E5D PUSH0 DUP4 ADD DUP5 PUSH2 0x1E3B JUMP JUMPDEST SWAP3 SWAP2 POP POP JUMP JUMPDEST PUSH0 PUSH0 PUSH1 0x40 DUP4 DUP6 SUB SLT ISZERO PUSH2 0x1E79 JUMPI PUSH2 0x1E78 PUSH2 0x1C37 JUMP JUMPDEST JUMPDEST PUSH0 PUSH2 0x1E86 DUP6 DUP3 DUP7 ADD PUSH2 0x1C81 JUMP JUMPDEST SWAP3 POP POP PUSH1 0x20 PUSH2 0x1E97 DUP6 DUP3 DUP7 ADD PUSH2 0x1C81 JUMP JUMPDEST SWAP2 POP POP SWAP3 POP SWAP3 SWAP1 POP JUMP JUMPDEST PUSH0 PUSH1 0xE0 DUP3 ADD SWAP1 POP PUSH2 0x1EB4 PUSH0 DUP4 ADD DUP11 PUSH2 0x1E3B JUMP JUMPDEST PUSH2 0x1EC1 PUSH1 0x20 DUP4 ADD DUP10 PUSH2 0x1D39 JUMP JUMPDEST PUSH2 0x1ECE PUSH1 0x40 DUP4 ADD DUP9 PUSH2 0x1D39 JUMP JUMPDEST PUSH2 0x1EDB PUSH1 0x60 DUP4 ADD DUP8 PUSH2 0x1D39 JUMP JUMPDEST PUSH2 0x1EE8 PUSH1 0x80 DUP4 ADD DUP7 PUSH2 0x1D39 JUMP JUMPDEST PUSH2 0x1EF5 PUSH1 0xA0 DUP4 ADD DUP6 PUSH2 0x1D39 JUMP JUMPDEST PUSH2 0x1F02 PUSH1 0xC0 DUP4 ADD DUP5 PUSH2 0x1D11 JUMP JUMPDEST SWAP9 SWAP8 POP POP POP POP POP POP POP POP JUMP JUMPDEST PUSH0 PUSH0 PUSH1 0x40 DUP4 DUP6 SUB SLT ISZERO PUSH2 0x1F24 JUMPI PUSH2 0x1F23 PUSH2 0x1C37 JUMP JUMPDEST JUMPDEST PUSH0 PUSH2 0x1F31 DUP6 DUP3 DUP7 ADD PUSH2 0x1CB4 JUMP JUMPDEST SWAP3 POP POP PUSH1 0x20 PUSH2 0x1F42 DUP6 DUP3 DUP7 ADD PUSH2 0x1CB4 JUMP JUMPDEST SWAP2 POP POP SWAP3 POP SWAP3 SWAP1 POP JUMP JUMPDEST PUSH32 0x4E487B7100000000000000000000000000000000000000000000000000000000 PUSH0 MSTORE PUSH1 0x22 PUSH1 0x4 MSTORE PUSH1 0x24 PUSH0 REVERT JUMPDEST PUSH0 PUSH1 0x2 DUP3 DIV SWAP1 POP PUSH1 0x1 DUP3 AND DUP1 PUSH2 0x1F90 JUMPI PUSH1 0x7F DUP3 AND SWAP2 POP JUMPDEST PUSH1 0x20 DUP3 LT DUP2 SUB PUSH2 0x1FA3 JUMPI PUSH2 0x1FA2 PUSH2 0x1F4C JUMP JUMPDEST JUMPDEST POP SWAP2 SWAP1 POP JUMP JUMPDEST PUSH32 0x4F6E6C79206F776E65722063616E2063616C6C20746869732066756E6374696F PUSH0 DUP3 ADD MSTORE PUSH32 0x6E00000000000000000000000000000000000000000000000000000000000000 PUSH1 0x20 DUP3 ADD MSTORE POP JUMP JUMPDEST PUSH0 PUSH2 0x2003 PUSH1 0x21 DUP4 PUSH2 0x1BB1 JUMP JUMPDEST SWAP2 POP PUSH2 0x200E DUP3 PUSH2 0x1FA9 JUMP JUMPDEST PUSH1 0x40 DUP3 ADD SWAP1 POP SWAP2 SWAP1 POP JUMP JUMPDEST PUSH0 PUSH1 0x20 DUP3 ADD SWAP1 POP DUP2 DUP2 SUB PUSH0 DUP4 ADD MSTORE PUSH2 0x2030 DUP2 PUSH2 0x1FF7 JUMP JUMPDEST SWAP1 POP SWAP2 SWAP1 POP JUMP JUMPDEST PUSH32 0x4F20656D7072657374696D6F206E616F20657869737465206F75206A6120666F PUSH0 DUP3 ADD MSTORE PUSH32 0x6920656E6365727261646F2E0000000000000000000000000000000000000000 PUSH1 0x20 DUP3 ADD MSTORE POP JUMP JUMPDEST PUSH0 PUSH2 0x2091 PUSH1 0x2C DUP4 PUSH2 0x1BB1 JUMP JUMPDEST SWAP2 POP PUSH2 0x209C DUP3 PUSH2 0x2037 JUMP JUMPDEST PUSH1 0x40 DUP3 ADD SWAP1 POP SWAP2 SWAP1 POP JUMP JUMPDEST PUSH0 PUSH1 0x20 DUP3 ADD SWAP1 POP DUP2 DUP2 SUB PUSH0 DUP4 ADD MSTORE PUSH2 0x20BE DUP2 PUSH2 0x2085 JUMP JUMPDEST SWAP1 POP SWAP2 SWAP1 POP JUMP JUMPDEST PUSH32 0x4170656E6173206F20746974756C617220646F20656D7072657374696D6F2070 PUSH0 DUP3 ADD MSTORE PUSH32 0x6F64652066617A6572206F20706167616D656E746F2E00000000000000000000 PUSH1 0x20 DUP3 ADD MSTORE POP JUMP JUMPDEST PUSH0 PUSH2 0x211F PUSH1 0x36 DUP4 PUSH2 0x1BB1 JUMP JUMPDEST SWAP2 POP PUSH2 0x212A DUP3 PUSH2 0x20C5 JUMP JUMPDEST PUSH1 0x40 DUP3 ADD SWAP1 POP SWAP2 SWAP1 POP JUMP JUMPDEST PUSH0 PUSH1 0x20 DUP3 ADD SWAP1 POP DUP2 DUP2 SUB PUSH0 DUP4 ADD MSTORE PUSH2 0x214C DUP2 PUSH2 0x2113 JUMP JUMPDEST SWAP1 POP SWAP2 SWAP1 POP JUMP JUMPDEST PUSH32 0x4F207072617A6F2065787069726F752E204F20636F6C61746572616C20666F69 PUSH0 DUP3 ADD MSTORE PUSH32 0x207065726469646F2E0000000000000000000000000000000000000000000000 PUSH1 0x20 DUP3 ADD MSTORE POP JUMP JUMPDEST PUSH0 PUSH2 0x21AD PUSH1 0x29 DUP4 PUSH2 0x1BB1 JUMP JUMPDEST SWAP2 POP PUSH2 0x21B8 DUP3 PUSH2 0x2153 JUMP JUMPDEST PUSH1 0x40 DUP3 ADD SWAP1 POP SWAP2 SWAP1 POP JUMP JUMPDEST PUSH0 PUSH1 0x20 DUP3 ADD SWAP1 POP DUP2 DUP2 SUB PUSH0 DUP4 ADD MSTORE PUSH2 0x21DA DUP2 PUSH2 0x21A1 JUMP JUMPDEST SWAP1 POP SWAP2 SWAP1 POP JUMP JUMPDEST PUSH32 0x4E487B7100000000000000000000000000000000000000000000000000000000 PUSH0 MSTORE PUSH1 0x11 PUSH1 0x4 MSTORE PUSH1 0x24 PUSH0 REVERT JUMPDEST PUSH0 PUSH2 0x2218 DUP3 PUSH2 0x1C95 JUMP JUMPDEST SWAP2 POP PUSH2 0x2223 DUP4 PUSH2 0x1C95 JUMP JUMPDEST SWAP3 POP DUP3 DUP3 MUL PUSH2 0x2231 DUP2 PUSH2 0x1C95 JUMP JUMPDEST SWAP2 POP DUP3 DUP3 DIV DUP5 EQ DUP4 ISZERO OR PUSH2 0x2248 JUMPI PUSH2 0x2247 PUSH2 0x21E1 JUMP JUMPDEST JUMPDEST POP SWAP3 SWAP2 POP POP JUMP JUMPDEST PUSH32 0x4E487B7100000000000000000000000000000000000000000000000000000000 PUSH0 MSTORE PUSH1 0x12 PUSH1 0x4 MSTORE PUSH1 0x24 PUSH0 REVERT JUMPDEST PUSH0 PUSH2 0x2286 DUP3 PUSH2 0x1C95 JUMP JUMPDEST SWAP2 POP PUSH2 0x2291 DUP4 PUSH2 0x1C95 JUMP JUMPDEST SWAP3 POP DUP3 PUSH2 0x22A1 JUMPI PUSH2 0x22A0 PUSH2 0x224F JUMP JUMPDEST JUMPDEST DUP3 DUP3 DIV SWAP1 POP SWAP3 SWAP2 POP POP JUMP JUMPDEST PUSH0 PUSH2 0x22B6 DUP3 PUSH2 0x1C95 JUMP JUMPDEST SWAP2 POP PUSH2 0x22C1 DUP4 PUSH2 0x1C95 JUMP JUMPDEST SWAP3 POP DUP3 DUP3 SUB SWAP1 POP DUP2 DUP2 GT ISZERO PUSH2 0x22D9 JUMPI PUSH2 0x22D8 PUSH2 0x21E1 JUMP JUMPDEST JUMPDEST SWAP3 SWAP2 POP POP JUMP JUMPDEST PUSH0 PUSH2 0x22E9 DUP3 PUSH2 0x1C95 JUMP JUMPDEST SWAP2 POP PUSH2 0x22F4 DUP4 PUSH2 0x1C95 JUMP JUMPDEST SWAP3 POP DUP3 DUP3 ADD SWAP1 POP DUP1 DUP3 GT ISZERO PUSH2 0x230C JUMPI PUSH2 0x230B PUSH2 0x21E1 JUMP JUMPDEST JUMPDEST SWAP3 SWAP2 POP POP JUMP JUMPDEST PUSH32 0x4F2076616C6F7220656E766961646F20656D20455448206E616F20636F727265 PUSH0 DUP3 ADD MSTORE PUSH32 0x73706F6E646520616F2076616C6F722064612070726573746163616F20617475 PUSH1 0x20 DUP3 ADD MSTORE PUSH32 0x616C2E0000000000000000000000000000000000000000000000000000000000 PUSH1 0x40 DUP3 ADD MSTORE POP JUMP JUMPDEST PUSH0 PUSH2 0x2392 PUSH1 0x43 DUP4 PUSH2 0x1BB1 JUMP JUMPDEST SWAP2 POP PUSH2 0x239D DUP3 PUSH2 0x2312 JUMP JUMPDEST PUSH1 0x60 DUP3 ADD SWAP1 POP SWAP2 SWAP1 POP JUMP JUMPDEST PUSH0 PUSH1 0x20 DUP3 ADD SWAP1 POP DUP2 DUP2 SUB PUSH0 DUP4 ADD MSTORE PUSH2 0x23BF DUP2 PUSH2 0x2386 JUMP JUMPDEST SWAP1 POP SWAP2 SWAP1 POP JUMP JUMPDEST PUSH0 PUSH1 0x40 DUP3 ADD SWAP1 POP PUSH2 0x23D9 PUSH0 DUP4 ADD DUP6 PUSH2 0x1E3B JUMP JUMPDEST PUSH2 0x23E6 PUSH1 0x20 DUP4 ADD DUP5 PUSH2 0x1D39 JUMP JUMPDEST SWAP4 SWAP3 POP POP POP JUMP JUMPDEST PUSH32 0x41207175616E746964616465206465204445582074656D20646520736572206D PUSH0 DUP3 ADD MSTORE PUSH32 0x61696F7220717565207A65726F2E000000000000000000000000000000000000 PUSH1 0x20 DUP3 ADD MSTORE POP JUMP JUMPDEST PUSH0 PUSH2 0x2447 PUSH1 0x2E DUP4 PUSH2 0x1BB1 JUMP JUMPDEST SWAP2 POP PUSH2 0x2452 DUP3 PUSH2 0x23ED JUMP JUMPDEST PUSH1 0x40 DUP3 ADD SWAP1 POP SWAP2 SWAP1 POP JUMP JUMPDEST PUSH0 PUSH1 0x20 DUP3 ADD SWAP1 POP DUP2 DUP2 SUB PUSH0 DUP4 ADD MSTORE PUSH2 0x2474 DUP2 PUSH2 0x243B JUMP JUMPDEST SWAP1 POP SWAP2 SWAP1 POP JUMP JUMPDEST PUSH32 0x53616C646F2064652044455820696E737566696369656E74652E000000000000 PUSH0 DUP3 ADD MSTORE POP JUMP JUMPDEST PUSH0 PUSH2 0x24AF PUSH1 0x1A DUP4 PUSH2 0x1BB1 JUMP JUMPDEST SWAP2 POP PUSH2 0x24BA DUP3 PUSH2 0x247B JUMP JUMPDEST PUSH1 0x20 DUP3 ADD SWAP1 POP SWAP2 SWAP1 POP JUMP JUMPDEST PUSH0 PUSH1 0x20 DUP3 ADD SWAP1 POP DUP2 DUP2 SUB PUSH0 DUP4 ADD MSTORE PUSH2 0x24DC DUP2 PUSH2 0x24A3 JUMP JUMPDEST SWAP1 POP SWAP2 SWAP1 POP JUMP JUMPDEST PUSH32 0x4F20636F6E747261746F206E616F2074656D2073616C646F2064652045544820 PUSH0 DUP3 ADD MSTORE PUSH32 0x737566696369656E746520706172612065737461207472616E736163616F2E00 PUSH1 0x20 DUP3 ADD MSTORE POP JUMP JUMPDEST PUSH0 PUSH2 0x253D PUSH1 0x3F DUP4 PUSH2 0x1BB1 JUMP JUMPDEST SWAP2 POP PUSH2 0x2548 DUP3 PUSH2 0x24E3 JUMP JUMPDEST PUSH1 0x40 DUP3 ADD SWAP1 POP SWAP2 SWAP1 POP JUMP JUMPDEST PUSH0 PUSH1 0x20 DUP3 ADD SWAP1 POP DUP2 DUP2 SUB PUSH0 DUP4 ADD MSTORE PUSH2 0x256A DUP2 PUSH2 0x2531 JUMP JUMPDEST SWAP1 POP SWAP2 SWAP1 POP JUMP JUMPDEST PUSH0 DUP2 SWAP1 POP SWAP3 SWAP2 POP POP JUMP JUMPDEST POP JUMP JUMPDEST PUSH0 PUSH2 0x2589 PUSH0 DUP4 PUSH2 0x2571 JUMP JUMPDEST SWAP2 POP PUSH2 0x2594 DUP3 PUSH2 0x257B JUMP JUMPDEST PUSH0 DUP3 ADD SWAP1 POP SWAP2 SWAP1 POP JUMP JUMPDEST PUSH0 PUSH2 0x25A8 DUP3 PUSH2 0x257E JUMP JUMPDEST SWAP2 POP DUP2 SWAP1 POP SWAP2 SWAP1 POP JUMP JUMPDEST PUSH32 0x41207472616E73666572656E636961206465204554482066616C686F752E0000 PUSH0 DUP3 ADD MSTORE POP JUMP JUMPDEST PUSH0 PUSH2 0x25E6 PUSH1 0x1E DUP4 PUSH2 0x1BB1 JUMP JUMPDEST SWAP2 POP PUSH2 0x25F1 DUP3 PUSH2 0x25B2 JUMP JUMPDEST PUSH1 0x20 DUP3 ADD SWAP1 POP SWAP2 SWAP1 POP JUMP JUMPDEST PUSH0 PUSH1 0x20 DUP3 ADD SWAP1 POP DUP2 DUP2 SUB PUSH0 DUP4 ADD MSTORE PUSH2 0x2613 DUP2 PUSH2 0x25DA JUMP JUMPDEST SWAP1 POP SWAP2 SWAP1 POP JUMP JUMPDEST PUSH32 0x4F20656D7072657374696D6F206A6120666F6920656E6365727261646F206F75 PUSH0 DUP3 ADD MSTORE PUSH32 0x206E616F206578697374652E0000000000000000000000000000000000000000 PUSH1 0x20 DUP3 ADD MSTORE POP JUMP JUMPDEST PUSH0 PUSH2 0x2674 PUSH1 0x2C DUP4 PUSH2 0x1BB1 JUMP JUMPDEST SWAP2 POP PUSH2 0x267F DUP3 PUSH2 0x261A JUMP JUMPDEST PUSH1 0x40 DUP3 ADD SWAP1 POP SWAP2 SWAP1 POP JUMP JUMPDEST PUSH0 PUSH1 0x20 DUP3 ADD SWAP1 POP DUP2 DUP2 SUB PUSH0 DUP4 ADD MSTORE PUSH2 0x26A1 DUP2 PUSH2 0x2668 JUMP JUMPDEST SWAP1 POP SWAP2 SWAP1 POP JUMP JUMPDEST PUSH32 0x4170656E6173206F20746974756C617220646F20656D7072657374696D6F206F PUSH0 DUP3 ADD MSTORE PUSH32 0x20706F6465207465726D696E61722E0000000000000000000000000000000000 PUSH1 0x20 DUP3 ADD MSTORE POP JUMP JUMPDEST PUSH0 PUSH2 0x2702 PUSH1 0x2F DUP4 PUSH2 0x1BB1 JUMP JUMPDEST SWAP2 POP PUSH2 0x270D DUP3 PUSH2 0x26A8 JUMP JUMPDEST PUSH1 0x40 DUP3 ADD SWAP1 POP SWAP2 SWAP1 POP JUMP JUMPDEST PUSH0 PUSH1 0x20 DUP3 ADD SWAP1 POP DUP2 DUP2 SUB PUSH0 DUP4 ADD MSTORE PUSH2 0x272F DUP2 PUSH2 0x26F6 JUMP JUMPDEST SWAP1 POP SWAP2 SWAP1 POP JUMP JUMPDEST PUSH32 0x56616C6F7220696E636F727265746F2E2044657665207061676172206120746F PUSH0 DUP3 ADD MSTORE PUSH32 0x74616C696461646520646F20656D7072657374696D6F206D6169732061207461 PUSH1 0x20 DUP3 ADD MSTORE PUSH32 0x7861206465207465726D696E6163616F2E000000000000000000000000000000 PUSH1 0x40 DUP3 ADD MSTORE POP JUMP JUMPDEST PUSH0 PUSH2 0x27B6 PUSH1 0x51 DUP4 PUSH2 0x1BB1 JUMP JUMPDEST SWAP2 POP PUSH2 0x27C1 DUP3 PUSH2 0x2736 JUMP JUMPDEST PUSH1 0x60 DUP3 ADD SWAP1 POP SWAP2 SWAP1 POP JUMP JUMPDEST PUSH0 PUSH1 0x20 DUP3 ADD SWAP1 POP DUP2 DUP2 SUB PUSH0 DUP4 ADD MSTORE PUSH2 0x27E3 DUP2 PUSH2 0x27AA JUMP JUMPDEST SWAP1 POP SWAP2 SWAP1 POP JUMP JUMPDEST PUSH32 0x4F20656D7072657374696D6F206A61206573746120696E617469766F206F7520 PUSH0 DUP3 ADD MSTORE PUSH32 0x666F6920636F6E636C7569646F2E000000000000000000000000000000000000 PUSH1 0x20 DUP3 ADD MSTORE POP JUMP JUMPDEST PUSH0 PUSH2 0x2844 PUSH1 0x2E DUP4 PUSH2 0x1BB1 JUMP JUMPDEST SWAP2 POP PUSH2 0x284F DUP3 PUSH2 0x27EA JUMP JUMPDEST PUSH1 0x40 DUP3 ADD SWAP1 POP SWAP2 SWAP1 POP JUMP JUMPDEST PUSH0 PUSH1 0x20 DUP3 ADD SWAP1 POP DUP2 DUP2 SUB PUSH0 DUP4 ADD MSTORE PUSH2 0x2871 DUP2 PUSH2 0x2838 JUMP JUMPDEST SWAP1 POP SWAP2 SWAP1 POP JUMP JUMPDEST PUSH32 0x4F20656D7072657374696D6F206573746120656D206469612E204E656E68756D PUSH0 DUP3 ADD MSTORE PUSH32 0x612070756E6963616F2061706C69636164612E00000000000000000000000000 PUSH1 0x20 DUP3 ADD MSTORE POP JUMP JUMPDEST PUSH0 PUSH2 0x28D2 PUSH1 0x33 DUP4 PUSH2 0x1BB1 JUMP JUMPDEST SWAP2 POP PUSH2 0x28DD DUP3 PUSH2 0x2878 JUMP JUMPDEST PUSH1 0x40 DUP3 ADD SWAP1 POP SWAP2 SWAP1 POP JUMP JUMPDEST PUSH0 PUSH1 0x20 DUP3 ADD SWAP1 POP DUP2 DUP2 SUB PUSH0 DUP4 ADD MSTORE PUSH2 0x28FF DUP2 PUSH2 0x28C6 JUMP JUMPDEST SWAP1 POP SWAP2 SWAP1 POP JUMP JUMPDEST PUSH32 0x54656D20646520656E7669617220455448207061726120636F6D707261722044 PUSH0 DUP3 ADD MSTORE PUSH32 0x45582E0000000000000000000000000000000000000000000000000000000000 PUSH1 0x20 DUP3 ADD MSTORE POP JUMP JUMPDEST PUSH0 PUSH2 0x2960 PUSH1 0x23 DUP4 PUSH2 0x1BB1 JUMP JUMPDEST SWAP2 POP PUSH2 0x296B DUP3 PUSH2 0x2906 JUMP JUMPDEST PUSH1 0x40 DUP3 ADD SWAP1 POP SWAP2 SWAP1 POP JUMP JUMPDEST PUSH0 PUSH1 0x20 DUP3 ADD SWAP1 POP DUP2 DUP2 SUB PUSH0 DUP4 ADD MSTORE PUSH2 0x298D DUP2 PUSH2 0x2954 JUMP JUMPDEST SWAP1 POP SWAP2 SWAP1 POP JUMP JUMPDEST PUSH32 0x4F20636F6E747261746F206E616F2074656D2044455820737566696369656E74 PUSH0 DUP3 ADD MSTORE PUSH32 0x65207061726120657374612076656E64612E0000000000000000000000000000 PUSH1 0x20 DUP3 ADD MSTORE POP JUMP JUMPDEST PUSH0 PUSH2 0x29EE PUSH1 0x32 DUP4 PUSH2 0x1BB1 JUMP JUMPDEST SWAP2 POP PUSH2 0x29F9 DUP3 PUSH2 0x2994 JUMP JUMPDEST PUSH1 0x40 DUP3 ADD SWAP1 POP SWAP2 SWAP1 POP JUMP JUMPDEST PUSH0 PUSH1 0x20 DUP3 ADD SWAP1 POP DUP2 DUP2 SUB PUSH0 DUP4 ADD MSTORE PUSH2 0x2A1B DUP2 PUSH2 0x29E2 JUMP JUMPDEST SWAP1 POP SWAP2 SWAP1 POP JUMP JUMPDEST PUSH32 0x41207175616E74696461646520646520636F6C61746572616C20444558207465 PUSH0 DUP3 ADD MSTORE PUSH32 0x6D20646520736572206D61696F7220717565207A65726F2E0000000000000000 PUSH1 0x20 DUP3 ADD MSTORE POP JUMP JUMPDEST PUSH0 PUSH2 0x2A7C PUSH1 0x38 DUP4 PUSH2 0x1BB1 JUMP JUMPDEST SWAP2 POP PUSH2 0x2A87 DUP3 PUSH2 0x2A22 JUMP JUMPDEST PUSH1 0x40 DUP3 ADD SWAP1 POP SWAP2 SWAP1 POP JUMP JUMPDEST PUSH0 PUSH1 0x20 DUP3 ADD SWAP1 POP DUP2 DUP2 SUB PUSH0 DUP4 ADD MSTORE PUSH2 0x2AA9 DUP2 PUSH2 0x2A70 JUMP JUMPDEST SWAP1 POP SWAP2 SWAP1 POP JUMP JUMPDEST PUSH32 0x4F207072617A6F206520696E76616C69646F206F7520657863656465206F206C PUSH0 DUP3 ADD MSTORE PUSH32 0x696D697465206D6178696D6F2E00000000000000000000000000000000000000 PUSH1 0x20 DUP3 ADD MSTORE POP JUMP JUMPDEST PUSH0 PUSH2 0x2B0A PUSH1 0x2D DUP4 PUSH2 0x1BB1 JUMP JUMPDEST SWAP2 POP PUSH2 0x2B15 DUP3 PUSH2 0x2AB0 JUMP JUMPDEST PUSH1 0x40 DUP3 ADD SWAP1 POP SWAP2 SWAP1 POP JUMP JUMPDEST PUSH0 PUSH1 0x20 DUP3 ADD SWAP1 POP DUP2 DUP2 SUB PUSH0 DUP4 ADD MSTORE PUSH2 0x2B37 DUP2 PUSH2 0x2AFE JUMP JUMPDEST SWAP1 POP SWAP2 SWAP1 POP JUMP JUMPDEST PUSH32 0x4E616F2074656D2073616C646F2044455820737566696369656E746520706172 PUSH0 DUP3 ADD MSTORE PUSH32 0x61207573617220636F6D6F20636F6C61746572616C2E00000000000000000000 PUSH1 0x20 DUP3 ADD MSTORE POP JUMP JUMPDEST PUSH0 PUSH2 0x2B98 PUSH1 0x36 DUP4 PUSH2 0x1BB1 JUMP JUMPDEST SWAP2 POP PUSH2 0x2BA3 DUP3 PUSH2 0x2B3E JUMP JUMPDEST PUSH1 0x40 DUP3 ADD SWAP1 POP SWAP2 SWAP1 POP JUMP JUMPDEST PUSH0 PUSH1 0x20 DUP3 ADD SWAP1 POP DUP2 DUP2 SUB PUSH0 DUP4 ADD MSTORE PUSH2 0x2BC5 DUP2 PUSH2 0x2B8C JUMP JUMPDEST SWAP1 POP SWAP2 SWAP1 POP JUMP JUMPDEST PUSH32 0x4F2076616C6F7220646F20636F6C61746572616C20652064656D61736961646F PUSH0 DUP3 ADD MSTORE PUSH32 0x20626169786F207061726120676572617220756D20656D7072657374696D6F2E PUSH1 0x20 DUP3 ADD MSTORE POP JUMP JUMPDEST PUSH0 PUSH2 0x2C26 PUSH1 0x40 DUP4 PUSH2 0x1BB1 JUMP JUMPDEST SWAP2 POP PUSH2 0x2C31 DUP3 PUSH2 0x2BCC JUMP JUMPDEST PUSH1 0x40 DUP3 ADD SWAP1 POP SWAP2 SWAP1 POP JUMP JUMPDEST PUSH0 PUSH1 0x20 DUP3 ADD SWAP1 POP DUP2 DUP2 SUB PUSH0 DUP4 ADD MSTORE PUSH2 0x2C53 DUP2 PUSH2 0x2C1A JUMP JUMPDEST SWAP1 POP SWAP2 SWAP1 POP JUMP JUMPDEST PUSH32 0x4F20636F6E747261746F206E616F2074656D206C6971756964657A2064652045 PUSH0 DUP3 ADD MSTORE PUSH32 0x544820737566696369656E7465206E6F206D6F6D656E746F2E00000000000000 PUSH1 0x20 DUP3 ADD MSTORE POP JUMP JUMPDEST PUSH0 PUSH2 0x2CB4 PUSH1 0x39 DUP4 PUSH2 0x1BB1 JUMP JUMPDEST SWAP2 POP PUSH2 0x2CBF DUP3 PUSH2 0x2C5A JUMP JUMPDEST PUSH1 0x40 DUP3 ADD SWAP1 POP SWAP2 SWAP1 POP JUMP JUMPDEST PUSH0 PUSH1 0x20 DUP3 ADD SWAP1 POP DUP2 DUP2 SUB PUSH0 DUP4 ADD MSTORE PUSH2 0x2CE1 DUP2 PUSH2 0x2CA8 JUMP JUMPDEST SWAP1 POP SWAP2 SWAP1 POP JUMP JUMPDEST PUSH0 PUSH2 0x2CF2 DUP3 PUSH2 0x1C95 JUMP JUMPDEST SWAP2 POP PUSH32 0xFFFFFFFFFFFFFFFFFFFFFFFFFFFFFFFFFFFFFFFFFFFFFFFFFFFFFFFFFFFFFFFF DUP3 SUB PUSH2 0x2D24 JUMPI PUSH2 0x2D23 PUSH2 0x21E1 JUMP JUMPDEST JUMPDEST PUSH1 0x1 DUP3 ADD SWAP1 POP SWAP2 SWAP1 POP JUMP JUMPDEST PUSH32 0x41207472616E73666572656E6369612064652045544820646F20656D70726573 PUSH0 DUP3 ADD MSTORE PUSH32 0x74696D6F2066616C686F752E0000000000000000000000000000000000000000 PUSH1 0x20 DUP3 ADD MSTORE POP JUMP JUMPDEST PUSH0 PUSH2 0x2D89 PUSH1 0x2C DUP4 PUSH2 0x1BB1 JUMP JUMPDEST SWAP2 POP PUSH2 0x2D94 DUP3 PUSH2 0x2D2F JUMP JUMPDEST PUSH1 0x40 DUP3 ADD SWAP1 POP SWAP2 SWAP1 POP JUMP JUMPDEST PUSH0 PUSH1 0x20 DUP3 ADD SWAP1 POP DUP2 DUP2 SUB PUSH0 DUP4 ADD MSTORE PUSH2 0x2DB6 DUP2 PUSH2 0x2D7D JUMP JUMPDEST SWAP1 POP SWAP2 SWAP1 POP JUMP JUMPDEST PUSH0 PUSH1 0x60 DUP3 ADD SWAP1 POP PUSH2 0x2DD0 PUSH0 DUP4 ADD DUP7 PUSH2 0x1E3B JUMP JUMPDEST PUSH2 0x2DDD PUSH1 0x20 DUP4 ADD DUP6 PUSH2 0x1D39 JUMP JUMPDEST PUSH2 0x2DEA PUSH1 0x40 DUP4 ADD DUP5 PUSH2 0x1D39 JUMP JUMPDEST SWAP5 SWAP4 POP POP POP POP JUMP INVALID LOG2 PUSH5 0x6970667358 0x22 SLT KECCAK256 0xBC 0xD4 DIV COINBASE 0xF6 0x2D DUP1 DIV EXTCODEHASH MSTORE 0xDC RETURNDATACOPY SWAP6 0xD2 RETURNDATASIZE TIMESTAMP NUMBER 0xC3 0x2E 0xBA DUP1 0xF6 EXTCODECOPY SWAP3 RETURNDATACOPY CHAINID EOFCREATE 0xC5 SIGNEXTEND CALLDATASIZE 0xCE 0xA5 PUSH5 0x736F6C6343 STOP ADDMOD 0x1E STOP CALLER "
				},
				"gasEstimates": {
					"creation": {
						"codeDepositCost": "2363200",
						"executionCost": "infinite",
						"totalCost": "infinite"
					},
					"external": {
						"allowance(address,address)": "infinite",
						"approve(address,uint256)": "infinite",
						"balanceOf(address)": "2917",
						"buyDex()": "infinite",
						"checkLoan(uint256)": "31295",
						"decimals()": "472",
						"dexSwapRate()": "2448",
						"getBalance()": "2684",
						"getDexBalance()": "2605",
						"interestRate()": "2558",
						"loan(uint256,uint256)": "infinite",
						"loanCounter()": "2448",
						"loans(uint256)": "infinite",
						"makePayment(uint256)": "infinite",
						"maxLoanDuration()": "2536",
						"name()": "infinite",
						"owner()": "2575",
						"paymentCycle()": "2492",
						"sellDex(uint256)": "infinite",
						"symbol()": "infinite",
						"terminateLoan(uint256)": "infinite",
						"terminationFee()": "2470",
						"totalSupply()": "2522",
						"transfer(address,uint256)": "infinite",
						"transferFrom(address,address,uint256)": "infinite"
					}
				},
				"methodIdentifiers": {
					"allowance(address,address)": "dd62ed3e",
					"approve(address,uint256)": "095ea7b3",
					"balanceOf(address)": "70a08231",
					"buyDex()": "f3c3c580",
					"checkLoan(uint256)": "ed344f02",
					"decimals()": "313ce567",
					"dexSwapRate()": "7e893dfe",
					"getBalance()": "12065fe0",
					"getDexBalance()": "430f4801",
					"interestRate()": "7c3a00fd",
					"loan(uint256,uint256)": "f83e48cb",
					"loanCounter()": "34d9289e",
					"loans(uint256)": "e1ec3c68",
					"makePayment(uint256)": "5114cb52",
					"maxLoanDuration()": "a4be77ee",
					"name()": "06fdde03",
					"owner()": "8da5cb5b",
					"paymentCycle()": "cc2e031c",
					"sellDex(uint256)": "756c1741",
					"symbol()": "95d89b41",
					"terminateLoan(uint256)": "7fb9fe3d",
					"terminationFee()": "c7c85baa",
					"totalSupply()": "18160ddd",
					"transfer(address,uint256)": "a9059cbb",
					"transferFrom(address,address,uint256)": "23b872dd"
				}
			},
			"storageLayout": {
				"storage": [
					{
						"astId": 159,
						"contract": "aula.sol:DecentralizedFinance",
						"label": "_balances",
						"offset": 0,
						"slot": "0",
						"type": "t_mapping(t_address,t_uint256)"
					},
					{
						"astId": 165,
						"contract": "aula.sol:DecentralizedFinance",
						"label": "_allowances",
						"offset": 0,
						"slot": "1",
						"type": "t_mapping(t_address,t_mapping(t_address,t_uint256))"
					},
					{
						"astId": 167,
						"contract": "aula.sol:DecentralizedFinance",
						"label": "_totalSupply",
						"offset": 0,
						"slot": "2",
						"type": "t_uint256"
					},
					{
						"astId": 169,
						"contract": "aula.sol:DecentralizedFinance",
						"label": "_name",
						"offset": 0,
						"slot": "3",
						"type": "t_string_storage"
					},
					{
						"astId": 171,
						"contract": "aula.sol:DecentralizedFinance",
						"label": "_symbol",
						"offset": 0,
						"slot": "4",
						"type": "t_string_storage"
					},
					{
						"astId": 792,
						"contract": "aula.sol:DecentralizedFinance",
						"label": "owner",
						"offset": 0,
						"slot": "5",
						"type": "t_address"
					},
					{
						"astId": 794,
						"contract": "aula.sol:DecentralizedFinance",
						"label": "loanCounter",
						"offset": 0,
						"slot": "6",
						"type": "t_uint256"
					},
					{
						"astId": 796,
						"contract": "aula.sol:DecentralizedFinance",
						"label": "dexSwapRate",
						"offset": 0,
						"slot": "7",
						"type": "t_uint256"
					},
					{
						"astId": 798,
						"contract": "aula.sol:DecentralizedFinance",
						"label": "paymentCycle",
						"offset": 0,
						"slot": "8",
						"type": "t_uint256"
					},
					{
						"astId": 800,
						"contract": "aula.sol:DecentralizedFinance",
						"label": "interestRate",
						"offset": 0,
						"slot": "9",
						"type": "t_uint256"
					},
					{
						"astId": 802,
						"contract": "aula.sol:DecentralizedFinance",
						"label": "terminationFee",
						"offset": 0,
						"slot": "10",
						"type": "t_uint256"
					},
					{
						"astId": 804,
						"contract": "aula.sol:DecentralizedFinance",
						"label": "maxLoanDuration",
						"offset": 0,
						"slot": "11",
						"type": "t_uint256"
					},
					{
						"astId": 824,
						"contract": "aula.sol:DecentralizedFinance",
						"label": "loans",
						"offset": 0,
						"slot": "12",
						"type": "t_mapping(t_uint256,t_struct(Loan)819_storage)"
					}
				],
				"types": {
					"t_address": {
						"encoding": "inplace",
						"label": "address",
						"numberOfBytes": "20"
					},
					"t_bool": {
						"encoding": "inplace",
						"label": "bool",
						"numberOfBytes": "1"
					},
					"t_mapping(t_address,t_mapping(t_address,t_uint256))": {
						"encoding": "mapping",
						"key": "t_address",
						"label": "mapping(address => mapping(address => uint256))",
						"numberOfBytes": "32",
						"value": "t_mapping(t_address,t_uint256)"
					},
					"t_mapping(t_address,t_uint256)": {
						"encoding": "mapping",
						"key": "t_address",
						"label": "mapping(address => uint256)",
						"numberOfBytes": "32",
						"value": "t_uint256"
					},
					"t_mapping(t_uint256,t_struct(Loan)819_storage)": {
						"encoding": "mapping",
						"key": "t_uint256",
						"label": "mapping(uint256 => struct DecentralizedFinance.Loan)",
						"numberOfBytes": "32",
						"value": "t_struct(Loan)819_storage"
					},
					"t_string_storage": {
						"encoding": "bytes",
						"label": "string",
						"numberOfBytes": "32"
					},
					"t_struct(Loan)819_storage": {
						"encoding": "inplace",
						"label": "struct DecentralizedFinance.Loan",
						"members": [
							{
								"astId": 806,
								"contract": "aula.sol:DecentralizedFinance",
								"label": "borrower",
								"offset": 0,
								"slot": "0",
								"type": "t_address"
							},
							{
								"astId": 808,
								"contract": "aula.sol:DecentralizedFinance",
								"label": "collateral",
								"offset": 0,
								"slot": "1",
								"type": "t_uint256"
							},
							{
								"astId": 810,
								"contract": "aula.sol:DecentralizedFinance",
								"label": "amount",
								"offset": 0,
								"slot": "2",
								"type": "t_uint256"
							},
							{
								"astId": 812,
								"contract": "aula.sol:DecentralizedFinance",
								"label": "deadline",
								"offset": 0,
								"slot": "3",
								"type": "t_uint256"
							},
							{
								"astId": 814,
								"contract": "aula.sol:DecentralizedFinance",
								"label": "nextPaymentDue",
								"offset": 0,
								"slot": "4",
								"type": "t_uint256"
							},
							{
								"astId": 816,
								"contract": "aula.sol:DecentralizedFinance",
								"label": "periodsPaid",
								"offset": 0,
								"slot": "5",
								"type": "t_uint256"
							},
							{
								"astId": 818,
								"contract": "aula.sol:DecentralizedFinance",
								"label": "active",
								"offset": 0,
								"slot": "6",
								"type": "t_bool"
							}
						],
						"numberOfBytes": "224"
					},
					"t_uint256": {
						"encoding": "inplace",
						"label": "uint256",
						"numberOfBytes": "32"
					}
				}
			},
			"userdoc": {
				"kind": "user",
				"methods": {},
				"version": 1
			}
		}
	}
}